:020000041000EA
:1000000000B5324B212058609868022188439860DF
:10001000D860186158612E4B002199600221596106
:100020000121F02299502B49196001219960352056
:1000300000F044F80222904214D00621196600F024
:1000400034F8196E01211966002018661A6600F04E
:100050002CF8196E196E196E052000F02FF8012189
:100060000842F9D1002199601B49196000215960AB
:100070001A491B48016001219960EB211966A021F2
:10008000196600F012F800219960164914480160C1
:100090000121996001BC002800D000471248134993
:1000A000086003C880F30888084703B5996A0420EC
:1000B0000142FBD001200142F8D103BD02B5186610
:1000C0001866FFF7F2FF186E186E02BD00000240BE
:1000D000000000180000070000035F00212200005C
:1000E000F4000018222000A00001001008ED00E03C
:1000F00000000000000000000000000074B24E7A12
:1001000000200420F7010010CB010010CD010010E9
:10011000C9010010C9010010C9010010C901001077
:10012000C9010010C9010010C9010010CF01001061
:10013000C9010010C9010010D1010010D301001045
:10014000C1010010C1010010C1010010C101001067
:10015000C1010010C1010010C1010010C101001057
:10016000C1010010C1010010C1010010C101001047
:10017000C1010010C1010010C1010010C101001037
:10018000C1010010C1010010C1010010C101001027
:10019000C1010010C1010010C1010010C101001017
:1001A000C1010010C1010010C1010010C101001007
:1001B000C1010010C1010010C1010010C1010010F7
:1001C000EFF30580103800BE00BE00BE00BE00BECA
:1001D00000BE00BEF2EB887118EF001038EF00107F
:1001E0003802001090A31AE71E481F49086006C88D
:1001F00081F3088810471D480068002801D019487D
:10020000F3E70DA40ECC002902D000F012F8F9E7B4
:100210001749184A002000E001C19142FCD116495B
:100220008847164988471649884700BEFDE701C937
:1002300001C29A42FBD3704738EF0010C000002083
:100240002C270020A4150110000004200000042029
:10025000A41501100010042000100420000000006C
:10026000704700000000000008ED00E0000000D032
:100270002C270020C8460020C973001081060010FA
:10028000C1730010F8B5C0460448054B10B5834251
:1002900003D0044B002B00D0984710BD2C27002022
:1002A0002C2700200000000006480749091A8B107F
:1002B000C90FC91810B5491003D0044B002B00D04A
:1002C000984710BD2C2700202C270020000000009C
:1002D00010B5074C2378002B09D1FFF7D5FF054B4C
:1002E000002B02D0044800E000BF0123237010BDA2
:1002F000782B0020000000001CCF0010054B10B52B
:10030000002B03D00449054800E000BFFFF7CCFFF5
:1003100010BDC046000000007C2B00201CCF001048
:10032000002370B582B06A466F2130480093019374
:1003300000F014FC6F2101AA06002D4800F00EFC0D
:100340002C4C0500200001F001FF002200212000BC
:10035000294B01F05DFF002E2BD0009B1A0119D410
:100360005B012DD5012200212000244B01F050FF1C
:10037000002D17D0019B1A0130D45B0127D5022232
:10038000002120001E4B01F043FF1E4803F024FD16
:1003900002B070BD0122002120001B4B01F038FF8C
:1003A000002DE7D1022200212000184B01F030FF80
:1003B000EBE7012200212000154B01F029FFD7E7D0
:1003C000012200212000134B01F022FFD0E702227E
:1003D00000212000104B01F01BFFD6E70222002174
:1003E00020000E4B01F014FFCFE7C04694460020DA
:1003F00084460020FC39002020CF00104CCF001094
:1004000084CF0010B80B00003CCF001064CF001068
:100410002CCF00105CCF001094CF001074CF0010D0
:1004200010B5184C200001F07DFA200001220021B7
:1004300001F04AFB01220121200001F045FB124896
:1004400000F022FE1149124809F08AFE0321002023
:1004500002F014FE0321012002F010FE002201210F
:10046000002002F025FE00220121012002F020FEE2
:10047000084C200001F078FE0121200001F020FE50
:1004800010BDC0460C3A00206C460020801A0600C1
:10049000A8210020FC39002070B5D024802507F069
:1004A000D1F82406AD02112002F016FE6562642028
:1004B000656103F091FCA561642003F08DFC64206C
:1004C00003F08AFC2F4C200001F040FE00220021A6
:1004D00020002D4B01F09CFE012200212B4B20001F
:1004E00001F096FE2A4807F0FBF82A4E300000F093
:1004F0004DFC294D280000F049FC3000274A2849CE
:1005000000F0D6FC002839D0264B01220021200023
:1005100001F07EFE022200212000234B01F078FE34
:10052000FA20400003F058FC28001C4A1F4900F044
:10053000BFFC002824D01E4B20000222002101F025
:1005400067FE03221B4B0021200001F061FEFA2010
:10055000400003F041FC3000102100F053FD280062
:10056000102100F04FFD032200212000124B01F06A
:100570004FFEFA20800003F02FFC70BD0F4BC4E744
:100580000F4BD9E7FC390020D8CF0010E8CF00107E
:10059000F4CF00108446002094460020AE47E13D91
:1005A00000002F459CCF001008D0001000007A43B7
:1005B000B8CF001014D0001024D00010A8CF001025
:1005C000C8CF0010FA2370B59B008CB00393204B6A
:1005D000204A0493204B0692059309931F4B204A0F
:1005E0000A930223079203AC1E4A21001E48089278
:1005F0000B9301F009FF1D4D280001F0A7FD280015
:10060000002200211A4B01F003FE039A28000092F9
:1006100000210122174B01F047FE0B9A2800164BD0
:1006200000920021022201F03FFE049805F042F9F9
:10063000124E00900191330003220021280001F0A6
:1006400033FEFA20C00003F0C7FB0CB070BDC046FB
:1006500000009643000048426F12833D0D030000E6
:100660000000A04100004040F82A0020FC39002092
:100670002CD000103CD0001048D0001054D00010F6
:10068000F0B5CE46474680B585B001AD06F0DAFF3D
:100690002A009C4B012713CB13C2D024240640CD43
:1006A000300002F019FD3B00B3406362A36104AB6C
:1006B0009D42F4D1802780268025BF02F6026D037B
:1006C0006761C8206661A56103F086FBA761C82049
:1006D000A661A5616761A661A56103F07DFB962017
:1006E000A7614000A661A56167616661656103F06D
:1006F00073FBA7616420A661A56103F06DFBFFF7A2
:100700008FFE814F380001F021FD002200213800CA
:100710007E4B01F07DFD012200217D4B380001F070
:1007200077FDFA20800003F057FB02220021794B6D
:10073000380001F06DFDFFF7AFFEFA20800003F0F6
:100740004BFB754C200000F09FFC200000F008FDE2
:10075000002138000322714B01F05AFD64217048DA
:1007600001F052FC00280FD1380001F0EFFC00220C
:10077000380011006B4B01F04BFD012200213800C5
:10078000694B01F045FDFEE7FA20800003F024FBF1
:10079000380001F0DBFC002238001100634B01F04F
:1007A00037FD01220021624B380001F031FD614824
:1007B00006F096FF604B012298461800002101F0D8
:1007C00083F9D026012200214046802501F068F9F6
:1007D000C82436062D0102200021756103F0AEFC0D
:1007E000013C0A20B56103F0F7FA002CF3D153481D
:1007F00006F076FF524B02220021380001F008FD7E
:1008000001224046110001F05FF90122404611002B
:10081000D02601F045F94025C834360602200021D3
:10082000756103F08BFC013C0A20B56103F0D4FA3A
:10083000002CF3D1434806F053FF03220021424B22
:10084000380001F0E5FC414806F04AFFFA20C000FC
:1008500003F0C2FAFFF764FD3D4B1800984601F023
:10086000BBFDFA20400003F0B7FAFFF7ABFE3800FB
:1008700001F06CFC002238001100364B01F0C8FC7E
:10088000012200213800344B01F0C2FC334803F050
:10089000A3FA404601F0D4FD002828D18023D026B9
:1008A000DB02994600252E4F2E4C360610E04B46B3
:1008B000F36103F039FC0019694102000B1E02DAF2
:1008C0000122294B52423A607B600A2003F084FAED
:1008D000404602F005FB03F027FC3A687B68121AD9
:1008E0008B41002BF1DCE2D1002AE0D0EDE73800AB
:1008F00001F02CFC0022380011001C4B01F088FC98
:10090000CCE7C0461CE00010FC39002060D000108D
:1009100074D00010B8D000106C46002084D00010B5
:10092000C028002094D000109CD00010B0D000103F
:10093000E8CF0010C4D000100C3A0020E0D0001026
:1009400008D00010FCD0001018D1001028D10010E1
:10095000F82A002044D1001054D10010B80B000038
:100960003027002090D00300FFFFFF7F68D10010E8
:1009700070B5174D82B0280000F0B2FF154E300060
:1009800000F07CFB0023082200931349093313482D
:1009900000F030F80223082200930F490733104873
:1009A00000F028F804230F4C009327221033200076
:1009B0000D4901F079FB320029000C4801F014FBCD
:1009C0002300320029000A4801F0C6FC02B070BDC5
:1009D0000C3A00206C460020008003408446002032
:1009E00094460020FC390020A8210020C0280020C7
:1009F000F82A002070B5040008006946A3600023AF
:100A0000097C206062602373617300280DD0E121AE
:100A1000490203F0D7FB0221606802F02FFB02219C
:100A2000A06802F02BFB200070BD0125100025738B
:100A300002F052FB63689D40D0231B065D625D613E
:100A4000F1E7C046F0B583B06D460023EB71053386
:100A50002B7080238446407B5B4203436B70130EF4
:100A6000EB70130C2B71130AA9706B71AA71694694
:100A70006A4600230720EE1D27E05B00DCB25BB274
:100A8000002B2DDB6400E7B264B2002C2EDB7F006C
:100A9000FBB27FB2002F2FDB5B00DFB25BB2002B1B
:100AA00030DB7F00FBB27FB2002F31DB5B00DFB2B7
:100AB0005BB2002B32DB7F00FBB27FB2002F33DB57
:100AC0005B000131DBB2B14234D00F787B405FB2C2
:100AD000002FD2DA7F0047407BB2FCB2002BD1DA84
:100AE0005B0043405CB2DFB2002CD0DA63004340CD
:100AF0005FB2DBB2002FCFDA7F0047407BB2FFB29C
:100B0000002BCEDA5B0043405FB2DBB2002FCDDAC0
:100B10007F0047407BB2FFB2002BCCDA5B00434042
:100B20005FB2DBB2002FCBDA7F0047400131FBB26E
:100B3000B142CAD1EB716346202019688B69184213
:100B4000FCD1137801320B6002AB9342F6D1052041
:100B500003F042F9012003B0F0BDC046F0B54646AF
:100B6000D6464F460523C0B584B001AC23709246EB
:100B7000427B7A331340362263705B0053405AB293
:100B800006008846A170002A00DAF3E05B00DAB2C2
:100B90005BB2002B00DAE7E05200D3B252B2002A77
:100BA00000DADBE05B00DAB25BB2002B00DACFE008
:100BB0005200D3B252B2002A00DAC3E05B00DAB2CC
:100BC0005BB2002B00DAB7E05200D3B252B2002A77
:100BD00000DAACE05B00DBB2424653405AB2002A76
:100BE00000DA9EE05B00DAB25BB2002B00DA92E042
:100BF0005200D3B252B2002A00DA86E05B00DAB2C9
:100C00005BB2002B00DA7AE05200D3B252B2002A73
:100C100000DA6EE05B00DAB25BB2002B63DB5200FD
:100C2000D3B252B2002A58DB5B00DAB25BB2002BBF
:100C30004EDB5200D3B220213268E37002A89369E0
:100C40001942FCD1237801341360A042F7D1082265
:100C5000002104F0DBFE002503F066FA484C24185E
:100C60004D41002D02DA0124464D64420023102735
:100C7000994604E0336810219A69174210D003F0B6
:100C800053FA22002B00121A8B41002BF2DC01D107
:100C9000002AEFD141463C4806F0A6FD002011E0B5
:100CA0009A691142FCD11A6801239C466B46E144C3
:100CB000494607335A540829E1D152460120039B83
:100CC0001BBA136004B0E0BCBA46B146A846F0BDFA
:100CD00007225B005340DBB2ADE7072352005A40C6
:100CE00053B2D2B2A3E707225B0053405AB2DBB241
:100CF00098E7072352005A4053B2D2B28DE7072239
:100D00005B0053405AB2DBB281E7072352005A40DE
:100D100053B2D2B275E707225B0053405AB2DBB23E
:100D200069E7072352005A4053B2D2B25DE7072366
:100D300052005340DBB24FE707225B0053405AB2E8
:100D4000DBB244E7072352005A4053B2D2B238E72D
:100D500007225B0053405AB2DBB22CE70723520054
:100D60005A4053B2D2B220E707225B0053405AB236
:100D7000DBB214E7072352005A4053B2D2B208E75D
:100D8000400D0300FFFFFF7F74D10010F0B5474610
:100D9000CE460523202180B585B007000268019367
:100DA00001A802AE93691942FCD1037801301360A7
:100DB0008642F7D105220021300004F027FE0025ED
:100DC00003F0B2F9354C24184D41002D02DA01240C
:100DD000334D6442002399461033984604E041465F
:100DE0003B689A69114220D003F09EF922002B0043
:100DF000121A8B41002BF2DC01D1002AEFD1112015
:100E0000D024802502F068F9FA202406AD0265623C
:100E10004000656102F0E0FF2248A56106F060FC39
:100E200005B0C0BCB946B046F0BD10219A69114268
:100E3000FCD11A6801239C466B46E14449460733BE
:100E40005A540529D0D1112002F046F9D02380222E
:100E50000D251B069202052113485A6206F0C4FCB8
:100E6000124C6D4431782000013606F0BDFCB542CD
:100E7000F8D10A20D026802506F0E8FB03243606A8
:100E8000AD026420756102F0A7FF013C6420B561EA
:100E900002F0A2FF002CF4D1C2E7C04640420F008E
:100EA000FFFFFF7FC0D10010A0D10010DCD10010E7
:100EB00070B5050082B0081C4949141C04F045FCBB
:100EC000484904F056FC211C04F053FC4649061C1A
:100ED00004F03BFCFE21890504F031FC4349041C6D
:100EE00004F084FC002827D04149301C04F02DFC7C
:100EF000FE21890504F023FCFC21890504F022FC75
:100F000004F0A0FC04001F2868DCC343DB171C406E
:100F1000200004F075FC374904F02BFC04F092FC2F
:100F200006001F2851DC6C21280001AAFFF716FEDD
:100F3000002846D1304A22E0FC21201C890504F01B
:100F400001FC04F07FFC04001F2838DCC343DB17DE
:100F50001C40200004F054FC264904F00AFC04F074
:100F600071FC06001F2821DC6C21280001AAFFF774
:100F7000F5FD002818D08022019B92021A436C21B3
:100F80002800FFF75FFD0A2002F026FF1F20A022A5
:100F90003040240220431203024310212800FFF7AF
:100FA00051FD012002B070BD144AE8E76C21280011
:100FB00001AA1F26FFF7D2FD0028F5D0DBE71F248A
:100FC000C7E7019A0E4B1A40D9E76C21280001AA05
:100FD0001F26FFF7C3FD0028F3D1ABE71F2497E7D7
:100FE00000007A44F30435426666A63E0000F841EC
:100FF000EC51383E9A99993E53000010530002106C
:10100000FFFFFDFF10B520290DD8002905D02029AC
:1010100003D8114B89005B589F46104A6C21FFF79B
:1010200011FD012010BD40290AD080394B1E994185
:10103000C0234A429B041A40094B9C466244EDE798
:10104000084AEBE7084AE9E7084AE7E7084AE5E71C
:10105000084AE3E7084AE1E728E0001053000014DB
:1010600053000011530000125300001853000016E3
:1010700053000017530000135300001500230360B2
:1010800083604360C360704770B505000320D024BF
:1010900002F022F808232406A36200220121032083
:1010A00002F006F8042002F017F810230022A362D1
:1010B0000121042001F0FCFF192002F00DF880232B
:1010C0009B04A36200220121192001F0F1FF636853
:1010D0001B07DB0F2B736368DB06DB0F6B73636827
:1010E0009B01DB0FAB7370BDF0B5D023C6461B066A
:1010F00000B55C685968037B427B5B00134384B096
:101100005BB298466E460D4AEC46A8CAA8C643464E
:101110009D002B0012682407E40FC9063260C90F36
:1011200062000A4352B2634446689B5604739B199B
:101130004360417304B080BCB846F0BDACE0001021
:10114000406870470023436083607047D0231B06CC
:10115000586801238001C00F5840C0B27047C04694
:1011600010B541680268024806F03EFB10BDC0465B
:10117000E4D10010F8B54746CE4680B51F000023E5
:1011800004000D001600036043608360002908D04E
:10119000002200233000390003F0A0FE8046002822
:1011A00004D02000C0BCB946B046F8BD0C2004F005
:1011B00039FC814632003B000020084903F027FE3D
:1011C00003F0EEFE4B4642465A604A4618609D6068
:1011D0000C3322606360A360E3E7C04680842E4145
:1011E000F0B5DE4657464E464546E0B595B01193FC
:1011F0008A4200D84DE1531A99460268002900D06E
:101200004FE1002300240E930F94129313930023B5
:101210009246002498460023C9008A44D3460A9384
:101220000B940893099406930794029303940493F0
:10123000059401239C46E044404603F071FE0400FF
:101240000D0000229C4B03F0D0FD22002B0003F088
:10125000FCFD0022994B03F0F8FD5B4606000F00F1
:1012600003CB9B460E9A0F9B801A994103F0A4FE74
:101270002200009001912B002000290003F0E5FDE1
:1012800002000B000498059903F0B8FD32000490A9
:1012900005913B002000290003F0D7FD02000B0060
:1012A0000298039903F0AAFD3200029003913B00DB
:1012B0003000390003F0C9FD02000B0006980799C1
:1012C00003F09CFD009A019B0690079120002900E5
:1012D00003F0BBFD02000B000898099903F08EFD96
:1012E000009A019B089009913000390003F0ADFD90
:1012F00002000B000A980B9903F080FD0A900B91F5
:10130000C84596D1069A079B0498059903F09DFD60
:10131000029E039F040032003B000D0030003900A4
:1013200003F093FD02000B002000290003F05DFD97
:101330004B000F00624A5908624B060003F0C8FDDB
:10134000002800D0A5E0089A099B0698079903F0A9
:101350007CFD0A9A0B9B04000D000298039903F090
:1013600074FD02000B002000290003F03EFD320056
:101370003B0003F04CFD029C039D0690079120006A
:1013800080242406A4462B0063441900089A099B74
:1013900003F05BFD0A9A0B9B04000D00049805996D
:1013A00003F053FD02000B002000290003F026FD8E
:1013B0003B00320003F02BFD049005911298139925
:1013C00003F006FE002300260027984608900991A6
:1013D00001239C46E044404603F0A2FD534604002E
:1013E0000D001868596803F0F3FD00220090019188
:1013F000314B2000290003F0F8FC22002B0003F001
:1014000024FD049A059B03F020FD00222B4B03F0E2
:101410001CFD22002B00029003910698079903F00F
:1014200014FD089A099B03F0E9FC02000B000298E6
:10143000039903F0E3FC02000B000098019903F00C
:10144000D4FC4B005B080C900D930C9C0D9D32005E
:101450003B002000290003F051FD002801D1340099
:101460003D0008239C4626002F00E244C845AFD12A
:10147000069807990BF058FC119B18600498059981
:101480000BF052FC1E9B18601F9B01201C605D60CE
:1014900000E0002015B0F0BCBB46B246A946A0460D
:1014A000F0BD4B1EDB00D31818685B6812901393D5
:1014B0000E900F93ABE6C0460000F03F0000E03F07
:1014C00011EA2D819997713DF0B5DE4657464E469B
:1014D0004546E0B504681F00436880468B46160009
:1014E00087B09C4200D0446080235B059B4500D3BD
:1014F000C9E043469D682B1BDB109B4509D85B4622
:10150000002B1ED107B0F0BCBB46B246A946A04690
:10151000F0BD5B46DD00280004F084FA43461B68FA
:101520000400994643465A684B46D21A002A00DD09
:1015300094E0002B00D0A1E0434665191C605C607C
:101540009D600023002299460023029203935B468C
:10155000C246CB46A046A94604930CE04246009BF7
:10156000019C18C2534690465A6001239C46049B36
:10157000E3445B45C6D91298139932003B0003F04F
:101580003DFC02000B0004000D001098119903F0BF
:101590009FFC109E119F002801D126002F003200D1
:1015A0003B0000203B4903F032FC02000B00029894
:1015B000039903F023FC0022374B0290039103F0C0
:1015C00044FC03F031FD00900191C145C6D1534662
:1015D0004A461B68D51A0593304BEA109A4255D0FB
:1015E0000123002A02D053009A4234D880225205A7
:1015F00093421BD2DB009946484604F013FA009947
:10160000019A431919605A602B0008339846040068
:101610008044002D0CDC059B002B2AD1534642460A
:10162000A1445A604A461C609A609EE71B4BE1E762
:101630002A00059D290004F0EFF953469968491BDB
:10164000059804F0F7F953464246A1445A604A46C9
:101650001C609A6089E7124B9946CDE7494604F031
:10166000DBF9434699684B46C91A484604F0E2F94B
:1016700062E753469968059BC91AE1E743469968B2
:101680004B46C91AF1E7074808F0B4FD064808F0D0
:10169000B1FDC0460000F03F80842E41FFFFFF0FE8
:1016A000F8FFFF7F0CD200101CD20010F8B547469F
:1016B000CE46466880B507680D00F61BB210930051
:1016C0009B1819015B1819025B1819045B185B0061
:1016D0009B181F4A0400934237D00120002B1ED1D3
:1016E0001B4B984221D843001B189B009946484643
:1016F00004F098F98319804607CD07C335000C35EF
:101700004544002E13DC002F1CD14046434648447C
:1017100065602360A060C0BCB946B046F8BD580003
:101720008342DDD90B4B9946E1E71800DBE739002E
:101730003200404604F070F9A168C91B380004F07B
:1017400079F9E2E7A168C91BF8E7034808F052FD00
:10175000AAAAAA0AF8FFFF7F1CD20010F0B54E46D5
:101760004546DE465746E0B5002699B004000D1EFA
:1017700006604660866007D1200019B0F0BCBB4609
:10178000B246A946A046F0BD002000210E900F9160
:101790002498259902900391229823990090019111
:1017A00029000EA81096FFF78FFE0E9B98460F9B00
:1017B00042469946109B9B464B469B1ADB1007936B
:1017C000C84562D0002305930BAB9A462500059BC4
:1017D000FA279C465C1CBF00079B67449F4200D9C8
:1017E0001F000694BC422AD82600089409950BE0F5
:1017F000269A279B0C980D9903F070FB002817D0B0
:10180000661C0694BE4218D843460E934B460F936F
:101810005B4610930CAB01935346F5196C0800938B
:10182000220005990AAB0EA8FFF7DAFC0028DFD1E9
:10183000012D02D9671EBE42E6D9089C099D434688
:101840000E934B460F935B4610930CAB019353469C
:10185000069E059F3200009339000AAB0EA8FFF7E1
:10186000BFFC6B68AA6800281AD00A9C0B98F71B6B
:101870009A4222D01C6058609F600C336B60069BBC
:101880000593079A9342A2D32C004346002B00D124
:1018900072E75B4642464046991A04F0CBF86BE784
:1018A0009A4212D0FA2292001A60012258609A607D
:1018B0000C336B6023000594E3E712A9486028000D
:1018C00012948F60FFF7F2FED9E7FA239B0015937D
:1018D000012315A9486028008B60FFF7E7FEE9E7C0
:1018E000C02310B504001B0104220021C01804F01D
:1018F0008DF80A4B0422E018002104F087F8C22377
:101900001B01E0180222002104F080F8044B082299
:101910000021E01804F07AF8200010BD040C00004B
:101920002C0C000010B50B2001F0D6FBD024802336
:1019300024061B0163620A20A36101F0CDFB802312
:10194000DB0063620C20A36101F0C6FB80235B0116
:1019500063620620A36101F0BFFB402305206362A0
:10196000A36101F0B9FB202307206362A36101F0AA
:10197000B3FB80236362A36110BDC046F0B5DE46B1
:1019800057464E464546E0B503001400002083B09C
:10199000012938D84A009E189046C0221E4F1201D5
:1019A000B25AF75B95B2B946BFB2BC467F27013247
:1019B0003A40AB4692464A4525D0884447467F0286
:1019C000B846680058448000404418182300A4CB4F
:1019D000A4C05046C023114F1B0182B2F2528E00A8
:1019E000BB59022B0ED81CCC60465D462D1AE34530
:1019F00010D281350A480195009405F0F5FEBB59D7
:101A00000133BB51012003B0F0BCBB46B246A9462E
:101A1000A046F0BD0135EDE7040C0000D82E0020F3
:101A200038D200100300002001290AD8C022490042
:101A30005B181201985A034A9B5AC01A431E9841D8
:101A4000C0B27047040C00000300002001290BD82D
:101A500049005818C023064A1B01C15A825A8BB24A
:101A600090B2181A914200D370478030FCE7C0460C
:101A7000040C000010B501290ED8C0224B00C31879
:101A800012019A5A054C92B21A53C2231B019C466A
:101A9000002340186044037010BDC046040C0000D1
:101AA0004B1E9941074B494219408023DB009C465D
:101AB000D02361441B06002A01D059617047996107
:101AC000FCE7C04620FCFFFF4B1E9941074B4942F3
:101AD000194080235B019C46D02361441B06002AE9
:101AE00001D0996170475961FCE7C04680F0FFFF63
:101AF00003000020012905D85818C2231B019C4669
:101B0000604400787047C046F0B5DE4657464E4602
:101B10004546E0B5D64B87B002931B7804009B4640
:101B2000013B1D0059424B41691E8D41DEB2C2236B
:101B3000EFB21B014519EA1813780192002B00D06F
:101B4000F0E07B00C118C0200001085A8946844695
:101B50000800C849455AAC4536D0455ADB19A84655
:101B60009D00AA46C44DA24455442800039545460D
:101B70006D00AC46C4446546AD00AC4605005B0252
:101B80006344E31807CB07C54B46BA4948465B5A3E
:101B9000019A01339C467F2365462B404352012323
:101BA0001370B64B9A6A9846C2239B00FB189B00A1
:101BB000E3185A604346B24A9B6A914612689B1AE0
:101BC000B04A934200D918E1C2231B019946A519D6
:101BD000A9444B461B78002B47D1C020A549730070
:101BE000E2180001175A555A8A46AF4234D09C4633
:101BF000B4446346555A9F009F4BA84619006B009A
:101C00006546BB466D02AC46A34459440D004344AF
:101C10009B0063440191E31883CB83C55346D35A99
:101C2000514601339C467F2365462B405352012386
:101C30004A461370914B9A6A9846C2239B00F31848
:101C40009B00E3185A6043468D4C9B6A22689B1A9E
:101C50008C4A934200D9DFE0029B1E7007B0F0BCB3
:101C6000BB46B246A946A046F0BD844BA0469B6A3F
:101C700081499A46B3009946C8444246824B8C46F5
:101C8000D258534677009A1ABB199B00E318634455
:101C90001B689A42E0DB5B46012B00D0A1E04023A9
:101CA00001933A3B0393D0231B061A009B46019BEA
:101CB00000215361022002F041FA5A46019B51462D
:101CC00093614246704BD150434641466F4A9B5800
:101CD00001338B5049466E4A90465258042A00D828
:101CE00001E1C123BF19BF00E4191B01E3181F68FC
:101CF000002F00D0D2E067495F4B8C46E718644460
:101D00002468002320003A68E11712184B41002B89
:101D100000DC91E03A60C2231B019C46002365442D
:101D20002B7099E7554B8046996ABB009A46D04480
:101D30004246554B0391D2587B008A1A4E49049370
:101D40008C46DB199B00C31863441B689A4200DA77
:101D50003AE75B46012B4AD0402301933A3B059377
:101D6000D0231B061A009946019B002153610220D3
:101D700002F0E4F94A46019B039993614246424BC3
:101D8000D15043464146414A9B5801338B505146FE
:101D90003F4A90465258042A00D897E0049BDB192A
:101DA0009B009846C123A0441B0143441F68002F99
:101DB00046D138490023414409682F4F0800474461
:101DC0003A68C91712184B41B946002B00DC9BE05A
:101DD00049460A60C2231B019C46002365442B70C0
:101DE000F2E680231B0101930B2303935BE780231F
:101DF0001B0101930B230593B2E7C123039A1B0137
:101E000053441B6812683900234805F0EDFC434633
:101E10004A469B6A1360D7E6C1231B019C465F4676
:101E2000019A67443B68310012681B4805F0DCFCEE
:101E300043469B6A23600FE7002B7AD0012269E7B3
:101E40007A1E1A600C4B9146434418689C46114B0D
:101E5000002143441B681A00DB1712184B41002B6A
:101E60004EDD61464B460A60002B00D0ACE6B1E780
:101E7000E0200020040C0000080C00000040054099
:101E8000E02E002040420F00240C00002C0C00002B
:101E9000E42E00200C0C000074D20010013F1F60E3
:101EA000264B00219C46A44463461868244B984660
:101EB000444424682200E31712184B41002B27DD0D
:101EC00061460A60002F00D0C6E624E73900059A73
:101ED0001C4805F089FC5246434651469B584246F1
:101EE000013353505AE73100039A164805F07CFC41
:101EF0004A46434649469B58424601335350F0E612
:101F0000002B12D00122ACE7002B09D001225FE7A1
:101F1000002B01D00122D3E7002AD1D10122CFE743
:101F2000002A00D054E7012252E7002A99D1012269
:101F300097E7002A00D0EDE60122EBE6080C00004E
:101F40000C0C0000A4D20010214B70B51C68002CB2
:101F50002CD0236A1F4D013323622B78002B02D132
:101F6000236A032B2AD96068002801D0FFF7BCF848
:101F70002068002801D0FFF7C7FDE36A002B01D0DD
:101F8000206B9847144A236A11685B1A13498B42E5
:101F90000CD9012012490B7843400B7008D1D02393
:101FA00080211B0649039961236A1360012070BDDB
:101FB000D02380211B0649035961F5E7216A0948AE
:101FC00005F012FC236A032BCDD1023B2B70CAE72C
:101FD000A02E0020BD460020EC2E0020871300001C
:101FE000BE460020C4D20010426064220023426238
:101FF0003C3A036201608354C3620363014B18607F
:102000007047C046A02E0020F0B5C646D0258026D9
:10201000032400B52D067603070084B014208846FB
:1020200001F05AF86E62AE6164206E6101F0D4FE78
:10203000013C6420AE6101F0CFFE002CF4D12825D4
:102040007B5D002B05D00024200004B080BCB84686
:10205000F0BD434641467B623C620F4805F0C4FB3D
:102060007C6A01F043FD3B000833644202930B4B52
:10207000E617220000930197330001F0B1FF041E20
:1020800005D0012306487B5505F02AFBDCE705480F
:1020900005F026FBD7E7C046D4D20010491F001038
:1020A00004D3001028D3001010B5437108236C46E8
:1020B000C3710023247A016002718471038110BD11
:1020C0000F22002300B5C90085B0C9B26A4411705F
:1020D000C171017900680093013308F069F805B017
:1020E00000BDC046F0B50F260027C37985B00400B7
:1020F0006E440B4333700D003200017901230068F8
:10210000009708F055F80422E37920682B43134325
:102110003370320021790123009708F049F801203B
:10212000002101F0E3FD04239D43E37932001D43C8
:102130003570217901232068009708F039F83220A2
:10214000002101F0D3FD05B0F0BDC04610B504007C
:102150000021FFF7C7FF10212000FFF7C3FF022077
:1021600001F03AFE10BDC04610B50400322001F067
:1021700033FE30212000FFF7B5FF052001F02CFED3
:1021800030212000FFF7AEFF052001F025FE2000E2
:102190003021FFF7A7FF9620002101F0A7FD2000C6
:1021A0002021FFF79FFF20002021FFF79BFF200049
:1021B0008021FFF797FF0423200023720021FFF7FF
:1021C00091FF2000C021FFF78DFF20000021FFF7C5
:1021D00089FF10212000FFF785FF022001F0FCFDA0
:1021E0000223200063720021FFF77CFF20006021A2
:1021F000FFF778FF20000021FFF774FF2021200067
:10220000FFF770FF022001F0E7FD012010BDC0467E
:10221000F0B5C64600B51F008379060086B09A4225
:1022200001D3013BDAB27379994201D3013BD9B2B0
:102230001B4B30009B5C6D46C918CCB20F232100AC
:10224000994371331943FFF74DFF21013000C9B2A3
:10225000FFF748FF3B00134A1521684605F042F896
:1022600000227379EA542C78002C14D00F23012714
:10227000984643462100994339433000C9B2FFF7DD
:1022800031FF2101394330000135C9B2FFF72AFF80
:102290002C78002CEDD106B080BCB846F0BDC0460D
:1022A000BCE0001050D3001008B470B504000D005D
:1022B000160089B00DAB04CB152102A8019305F0DF
:1022C00025F832002900200002ABFFF7A1FF09B07A
:1022D00070BC08BC01B0184770B5040082B04068FB
:1022E000FEF72EFFB421C90002F01CFB0200216999
:1022F000A063154BA0680191009200210022FFF716
:10230000D3FF206C03F0D6FAA668104D009001911F
:102310002B00300001220021FFF7C6FF226BA068CE
:102320000192626B00210092094B0222FFF7BCFF71
:10233000E26AA0680192E26B00210092054B032241
:10234000FFF7B2FF02B070BD58D3001054D0001098
:102350006CD300107CD3001030B54260FA2292009A
:102360000261174A01604261164A1749826182621E
:10237000164AC161C2620222154983600162154991
:102380000023416202634C2100220124C3604363A5
:102390008363C363026443648364445402655422C8
:1023A00000250024835414320466456683658354F3
:1023B00000220023046745678267C36730BDC046BB
:1023C000000096436F12833D000048420D03000059
:1023D0000000A04100004040002310B50400C3608D
:1023E0008068FFF7B3FEA06800220021044BFFF7CE
:1023F0000FFF01220021034BA068FFF709FF10BD6A
:1024000090D30010A0D30010030070B50400103367
:1024100025C925C325C925C325C925C3A169E069E7
:10242000A16203F092F903F03FFA011E00D10131DD
:102430002069E1620138401802F09CFA206370BD07
:10244000C36810B504000020002B24D100232365AD
:102450005423002268216063A063E063E0540023FA
:10246000A065226663666054606822676367FEF752
:1024700067FE60646068FEF763FE0123A067E067A3
:10248000E360A068FFF762FEA06800220021024B13
:10249000FFF7BEFE012010BDB0D30010F0B5C64658
:1024A00000B54F4E0500337886B0002B12D0686817
:1024B000FEF74CFE041E00D06EE04A4B4A4A9B6A6F
:1024C00012689B1A494A934200D97BE006B080BC4F
:1024D000B846F0BD8068FFF739FE00220021444B6A
:1024E000A868FFF795FE01220021424BA868FFF77C
:1024F0008FFE3C4B00219A6A3B4B28681A600123EF
:1025000001223370FFF7CCFA012200212868FFF77F
:10251000DBFA03AB98460022C821374B40460092B5
:10252000019309010022354BFEF724FE43465A6809
:10253000039B3348D21A921093009B1819015B1821
:1025400019025B18190459184900891805F04CF94B
:102550000398049F874212D0040002E00C34A74283
:102560003AD0220000212868FFF708FA0028F5D1A8
:10257000A86803220021234BFFF74AFE0398002896
:1025800095D043469968091A03F054FA6868FEF733
:10259000DDFD041E00D190E76868FEF7D3FD002141
:1025A0002868FFF767FA184B02220021A868FFF796
:1025B0002FFEFA20400001F00FFC0223EB60002305
:1025C000337083E7114B03220021A868FFF720FE38
:1025D00008233470EB6079E703980028D1D166E7CF
:1025E000B946002000400540D02E0020809698007B
:1025F000C4D30010D8D3001000003440000069405C
:10260000E8D300100CD4001018D4001028D4001007
:10261000F0B5C646040000B5806886B0FFF796FDA9
:1026200000220021574BA068FFF7F2FD564E357887
:10263000022D4ED040D8002D62D0D0231B065B68FF
:1026400001212068DB0300D57AE0FFF713FA0122AD
:1026500000214E4BA068FFF7DBFD03AB984600223C
:10266000A0214B4B404600920193C9000022494BE8
:10267000FEF780FD012201212068FFF711FA049F77
:10268000039DAF4207D02A00012120680C35FFF7D7
:1026900075F9AF42F7D10223A068337002220021FE
:1026A0003D4BFFF7B5FD039800280ED043469968CF
:1026B000091A03F0BFF908E0032D06D1FA20400003
:1026C00001F08AFB0023E560337006B080BCB84699
:1026D000F0BD01212068FFF70BFA0028F5D1012198
:1026E0002068FFF79FF90028EFD12C4B0222002130
:1026F000A068FFF78DFD0023236503233370E4E713
:10270000102000F0E9FCD02380221B0652029A62BE
:1027100001210022102000F0CBFC206801220121C1
:10272000FFF7D2F9206800220121FFF7B9F9012350
:102730000122337000211A4BA068FFF769FDC4E73E
:10274000FFF7D6F90028C0D103AB98460022FA2142
:102750000F4B404600920193890000220D4BFEF77B
:1027600009FD0398049E864209D005002A00012134
:1027700020680C35FFF702F9AE42F7D10398002824
:1027800094D1A2E73CD40010BA46002064D40010D3
:10279000000034400070974074D4001084D40010BE
:1027A00050D40010F0B54746CE4680B54A4B0500E0
:1027B00098461B788BB0002B0BD001212868FFF7BF
:1027C00097F9002800D16FE00BB0C0BCB946B04605
:1027D000F0BD8068FFF7BAFC0022404B0021A868DA
:1027E000FFF716FD286A03F065F8AE683C4C0090D0
:1027F00001912300300001220021FFF755FD012245
:1028000001212868FFF760F9012201212868FFF7FC
:1028100047F9286A334902F098FF334902F0A9FFCB
:102820008321C90502F0A5FF03F03EF800222F4BDB
:1028300001000492059300222D4B814602920393DE
:1028400000222C4B07A80092019300220023FEF7E0
:1028500085FF079C089F0026A74204D10EE00C3498
:102860000136A7420AD0220001212868FFF786F826
:102870000028F4D13100204804F0B6FF4A46310068
:102880001E4804F0B1FF0123424607981370002848
:1028900093D00999091A03F0CDF801212868FFF7B0
:1028A00027F9002800D08FE701212868FFF7BAF840
:1028B000041E00D088E72B6A02220021A8682B653D
:1028C0000F4BFFF7A5FCFA20400001F085FA042326
:1028D000EB6043461C7077E7BB46002094D40010A1
:1028E000A4D400100000A040000048430000344081
:1028F0000088B3400070A740B4D40010E4D40010A6
:1029000014D50010F0B5DE4657464E464546040045
:10291000E0B5806889B0FFF719FC00210022774BF1
:10292000A068FFF775FC764804F0DAFE00216069C4
:1029300002F054FF002800D0CCE00021606A02F0D1
:102940004DFF051E00D0C5E054239846E35C002BE4
:1029500039D0206C02F0AEFFA7686A4E0122330026
:102960000090019138000021FFF79EFC606902F0A1
:10297000A1FFA768644E0222330000900191380045
:102980000021FFF791FCFA21604B8900986AA36D42
:10299000C01A01F0EFFF5E490700606A02F0E9FE2D
:1029A00002F082FF002106002068FFF74DF8B742D1
:1029B00002D3032800D899E009B0F0BCBB46B24668
:1029C000A946A046F0BD42460133A3544F4B002117
:1029D0009B6A2068A365533AFFF776F8012200212D
:1029E0002068FFF75DF84B49606902F0AEFE4A4986
:1029F00002F0BFFE4949051C606A02F0A6FE484984
:102A00000390281C02F0B5FE4649061C02F0EEFEBB
:102A1000B246002867D05146281C02F090FE0123E0
:102A2000984605AB83469946404602F0E9FE3B498D
:102A300002F08BFE011C02F09CFE594602F099FE4A
:102A4000514602F07FFE061C011C039802F091FE25
:102A5000051C301C02F02EFF0F00FE210600890528
:102A6000281C02F0C3FE002801D1FE25AD05281C5C
:102A700002F01AFF00222C4B0100009201934846FD
:102A800032003B00FEF776FB059D069EB54209D05D
:102A90002A00002120680C35FEF770FFAE42F7D106
:102AA0004B461E68002E05D04B4699683000891BA6
:102AB00002F0C0FF01239C46E0444346192BB3D1EA
:102AC00000212068FEF7C0FF184B0100180004F039
:102AD0008BFE71E7164B01220021A068FFF798FBDF
:102AE0000823E36068E70F4B9A4694E7114804F027
:102AF000F7FD4346E5540523E3605DE724D5001068
:102B000034D5001054D0001078D500100040054096
:102B100000007A4400007042000048450000C041B7
:102B20000AD7A33C0000C8420000344060D5001022
:102B300050D5001088D50010F0B5C64600B5040089
:102B400086B04068FEF7FCFA666C801B002800DC4B
:102B50008DE0B421C90001F0E5FE051E00D186E03C
:102B6000A36B41001B180918A3630B015B1A5B01DF
:102B7000E26B9B196364E36A8218E2639A4200D3B2
:102B800079E0280002F037FEA16A02F0F2FD474921
:102B900002F0DBFD464902F0ECFD8321C90502F09D
:102BA000E8FD02F081FE051E61D001212068FEF7DC
:102BB0004BFF0100642800D973E0266C0021301C13
:102BC00002F014FE00286AD03A49301C02F0BDFD24
:102BD000A16A02F0CEFD384902F0CBFD3749061C50
:102BE00002F0F6FD002800D0344E4C230121E25CB7
:102BF0002068FEF755FF03AB301C9846002602F014
:102C000059FE2F4F02000B00009601972900404605
:102C1000FEF7B0FA039D049FAF4220D0002603E0E8
:102C20000C350136AF4219D02A0001212068FEF789
:102C3000A5FE0028F4D143465968039B2148C91AD0
:102C400089108B005B181A019B181A029B181A0432
:102C50009A1852005218310004F0C6FD039D002D51
:102C600005D0434699682800491B02F0E3FE06B0F0
:102C700080BCB846F0BD00234C210120626BE363A9
:102C800001326263635C43406354216BA0680E4B66
:102C90000191009200210222FFF706FB71E70B4829
:102CA00096E70B4804F0A0FDE1E7C0460000A04015
:102CB00000004843000070420000204400007A44B5
:102CC00000003440D0D500106CD30010CDCCCC3DEA
:102CD0009CD50010F0B5C64600B50500002100687F
:102CE00086B0FEF7B1FE804604280CD92800FFF715
:102CF00023FFAA6B2B699A4201D30623EB6006B02F
:102D000080BCB846F0BD6869214902F01EFD21492A
:102D100002F02FFD041C02F0CDFD0F00FC21060087
:102D20008905201C02F025FD02F0BEFD00221A4B91
:102D300001000092019303A83B003200FEF71AFA4B
:102D4000039C049FA74213D0002603E00C340136F5
:102D5000A7420AD0220000212868FEF70FFE0028B3
:102D6000F4D131000D4804F03FFD002E08D1039C42
:102D7000002CBBD005992000091B02F05BFEB5E7D3
:102D800042463100064804F02FFD039CF0E7C046A0
:102D9000000070420000484500003440FCD500109F
:102DA00020D60010F0B54646D6464F46C0B5454B36
:102DB000050098461B788AB0002B18D0286C02F0CA
:102DC00079FDAE68404C0090019123000021300055
:102DD0000122FFF769FA00212868FEF789FE002822
:102DE00065D00AB0E0BCBA46B146A846F0BD8068DE
:102DF000FFF7ACF90022354B0021A868FFF708FA6D
:102E000000212868FEF736FE01212868FEF732FE11
:102E100068692F4902F099FC2E4902F0AAFC6B6AFE
:102E2000041C9A4602F046FD0F000600211C504685
:102E300002F09FFC02F038FD0022274B81460492ED
:102E4000059380231B06E018514602F07EFC02F039
:102E500031FD002200230290039100920193494624
:102E60003B00320007A8FEF779FC079C089FA742A9
:102E700011D0002603E00C340136A7420AD022000C
:102E800000212868FEF77AFD0028F4D131001348AC
:102E900004F0AAFC079C012342461370002C00D1C9
:102EA0008CE709992000091B02F0C4FD86E7002188
:102EB0002868FEF7B7FD002893D10723EB6043464F
:102EC00018708EE7BC46002054D000104CD600107D
:102ED0000000704200004845000034405CD60010FD
:102EE000F0B5574B856C9E6A564B040083B0751B3A
:102EF0009D4229D94068FEF723F90300E06FE3679C
:102F0000181A02F07DFC504902F01FFC071C280033
:102F100002F071FC4D4902F018FC011C381C02F053
:102F200014FC4B4902F025FCA66420646068FEF79F
:102F300007F90600206C02F0BDFC464D02000B00B4
:102F40002800310004F050FCE368082B0CD8424AFA
:102F50009B00D3589F462000FFF7A0FAE368052B9B
:102F600002D12000FFF7B8F903B0F0BD3B4D2B684C
:102F7000002B02D1324B9B6A2B60314AA668906AC3
:102F8000C01A374B98424BD93000FFF7DFF8354B6A
:102F900000220021A068FFF73BF9FA20800000F032
:102FA0001BFF0023E3602B60DEE72000FFF730FB10
:102FB000E368D4E72000FFF7F5FBE368CFE72000E4
:102FC000FFF7A0FCE368052BCED1C82000F004FF7A
:102FD000E368C4E72000FFF77DFEE368BFE7200059
:102FE000FFF7E0FEE368BAE7A068FFF7AFF800225A
:102FF00000211D4BA068FFF70BF9A26BA068002110
:103000001A4B00920122FFF74FF9626B184BA06830
:10301000002100920222FFF747F90023E360A3E7B3
:10302000144901F0A7FC0A23134D1B1A0093032235
:103030002B0000213000FFF737F9E3688FE7C04627
:10304000004005409F8601000000B44400247449FC
:103050000000704284D60010C0E00010D42E002082
:10306000BFD8A700B0D600109CD600103CD00010EE
:1030700048D0001040420F00C0D60010094A83001B
:103080009A1810B514684022544080322240064CF1
:10309000C000A44663441A60044B9C4660444160EF
:1030A00010BDC04604C0014004D0014000400140B2
:1030B000074B8000C3181B68C90092000A435A409E
:1030C0000C231340034A9446604403607047C04693
:1030D00004C0014004D001400123D02283401206E5
:1030E00093629361094A83009A1811684022514003
:1030F00080320A400649C0008C4663441A60054B82
:103100009C460523604443607047C04604C00140AC
:1031100004D00140004001408023DB051868000F07
:103120007047C0460FB400B5084883B004F0D8FA21
:10313000049B002B07D005A91800019104F006F9A3
:10314000034804F0CDFA012004F018F9D0D600109D
:10315000CCD5001070B5EFF3108C72B60D4D2B6806
:10316000002BFCD0BFF35F8F0724CB08C618C05CD0
:1031700001230C40A3401C000440034207D1184324
:103180003070BFF35F8F2C608CF3108870BD10001F
:10319000FFF7C8FF2C0100D0F8B54746CE46884659
:1031A00080B5EFF3108C72B61C4D2C68002CFCD04F
:1031B000BFF35F8F9A4222D807210126894602E099
:1031C0000132934218D34D4637001540AF40D40822
:1031D0000119045D2742F3D110003C430C70BFF38A
:1031E0005F8F00220D4B1A608CF3108800280EDBD5
:1031F000C0BCB946B046F8BD01204042EFE7BFF37E
:103200005F8F00232B608CF31088012040424346DF
:10321000002BEDD00898FFF785FFC0462C0100D0A9
:10322000044A1078431CDBB2172B00D9102313700B
:103230007047C046E120002010B5064B064C82B016
:103240000100009318221F232000FFF7A5FF02B002
:1032500010BDC046E0D60010903500200021044B80
:10326000044ABFF35F8F02C39342FAD17047C0464E
:10327000000100D0800100D0054B064A1360064AC9
:10328000136053609360D36013615361936170471F
:103290008080808000E400E004E400E01F23184008
:1032A0001E3B8340002905D0C021044A49005350E9
:1032B00013607047802201498B50FAE700E100E07B
:1032C00001228240034B1B6813405A1E9341D8B21F
:1032D0007047C04600E100E001238340014A1360CB
:1032E0007047C04600E200E0064B10309B6880004B
:1032F000C358054A00209B1A2F229A424041C0B26F
:103300007047C04600ED00E0E420002070B50D00DD
:10331000EFF3108672B60F4A1368002BFCD0BFF390
:103320005F8F0D4B10309B6884001B590B4A9342F2
:1033300003D09D4201D001F0CBF9074B9B681D5192
:10334000BFF35F8FBFF35F8F0022024B1A6086F3DB
:10335000108870BD240100D000ED00E0C101001014
:10336000F0B557464E46DE464546E0B585B0060008
:1033700000911700EFF3108B72B66A4A1368002BA6
:10338000FCD0BFF35F8F0025674B5D579A46002D39
:1033900000DAA9E06B00654C01935B199B0098462D
:1033A000A146C1444B4652469B7910361370604B80
:1033B000B6009B6899590B1B2F2B33D95D4B994253
:1033C00000D0ACE0019B42469C465B4B6544AD009F
:1033D00063535A4B0232A218043B9B1A1B05584AEE
:1033E0005B0D651913436B80564B0121AB80FF23A6
:1033F000AB71009BEF71AB604B460B4319004C4B1C
:103400009B689951BFF35F8FBFF35F8F0022454BDD
:103410001A608BF3108805B0F0BCBB46B246A946D3
:10342000A046F0BD01200A008243D3798C46BB42FE
:1034300031D84546130044491B1B5B415943090DD4
:103440003D4B63533D4B02356519043B5B1B1B052C
:103450003B4D5B0D2B43AA464D466B800425AC4685
:103460005546E044131F44441B1B1B055B0D1D43C5
:103470004B46997100999D8099604946DF71334BA5
:1034800001431360BBE75800C01880002018C179C1
:10349000B9422FD902000623D356002BF3DA029348
:1034A0002B4B61460393131D9A4604235B429C46B3
:1034B000E14450464B461B1A1B055B0D9C46204BB6
:1034C000957198466346404603439380019B5A1981
:1034D0009200039BA418A380029B1C4AA371009B2B
:1034E0002260E771A3608AE701F0F2F800255346F5
:1034F0005D574FE7908802934005131D9A460315C8
:1035000061469C464046D444634604302018181A4D
:10351000E0230005400D1B0218430390C5E701F0AE
:10352000D7F84FE7240100D0C3460020E420002054
:1035300000ED00E0C101001000A1FFFF14210020F8
:1035400000E0FFFF01BDFFFFAAAA0000014880477D
:1035500001BD000070B501240443EFF30581EFF3D2
:10356000108C72B6214A1368002BFCD0BFF35F8F1A
:103570001F4B05001F4AED1A6D416A43120D1E4D87
:103580008900AE6852B27658A6421CD00621595620
:1035900091421CD012215956914222D01E215956D7
:1035A000914220D02A2159560324914210D0134B26
:1035B00019781A708171BFF35F8F00220B4B1A606C
:1035C0008CF3108870BDAB680D4C5C50EFE70024A5
:1035D0006100091989005B18FF21997109499980D7
:1035E000E5E70124F4E70224F2E7C046240100D015
:1035F000E4200020AAAA000000ED00E0C34600205D
:10360000C101001001BDFFFF10B5084B084C82B08E
:1036100001000093002205232000FFF7BDFD0028D4
:1036200001DB1F23181A02B010BDC046FCD60010E3
:10363000C7460020024B9C466144890001607047E8
:103640004000003470B5114C114DAC420FD2FF2632
:103650002368002B0CD0FFF7E3FD01002000FFF7EB
:10366000E9FFA680BFF35F8F0834AC42F0D370BD92
:10367000FFF7D6FD01002000FFF7DCFF2671BFF346
:103680005F8F0834AC42E3D3F1E7C0461C2700202B
:103690002C27002010B50400FFF7C2FD0100200018
:1036A000FFF7C8FFFF232371BFF35F8F10BDC04634
:1036B00010B504000120FFF7BFFD034BC3189B00AA
:1036C0002360BFF35F8F10BD40000034034B9C4666
:1036D000614489000160BFF35F8F70474000003490
:1036E0000A4B1968EFF3108072B60A68002AFCD002
:1036F000BFF35F8F1B68BFF35F8F00221A6080F3F8
:10370000108840BF002000217047C0466846002056
:10371000F0B5DE4657464E464546E0B587B0EFF376
:103720000583032201251A40954091008846A94649
:10373000B34B03925C58B34B1D60B34B04934B46A1
:10374000B24843630823E55E002D37DAA3881BB235
:10375000002B00DBADE0A379002B00D0EEE00823C6
:10376000E05E002820DB430062691B18DB00D318F1
:103770009E68DD68731C00D111E1A448010041443A
:10378000826A0B69B71A9B1A9F4215D30123026AFA
:10379000039883401A420FD09C4800F0BDFC8D4234
:1037A00002DCCCD18642CAD940BF07B0F0BCBB46D0
:1037B000B246A946A046F0BD0E61EDE762696B0016
:1037C00092465B19DB009A4453469E68DF6800F01E
:1037D000A3FC8F42BADC00D103E1002F00DAE8E05D
:1037E0005246534652691B699346049A934200D14C
:1037F000D9E052460821605E5288000459461043C1
:103800009847009001910099019A0B001000134312
:1038100000D1CEE013000A00B61A9F41002806DB53
:103820007A4800F079FC009E019F36184F415346BC
:103830009E60DF6000229A5E002A00DA86E753006D
:1038400099186069C900411802938B68C9689B4642
:10385000B94200DD7AE702D1B34200D976E7082306
:103860009C46A444059565462281A446029B2C00F3
:1038700006E053009918C90041188D68C968AB4625
:103880009B18DB00C318B94206DC00D1B3E01C0072
:103890000023E25E002AECDA230064469C4653468D
:1038A0001A806346059D1D80A3881BB2002B00DA99
:1038B00051E72269EFF3108172B61368002BFCD038
:1038C000BFF35F8F0123A7885B42A3803FB22369C8
:1038D000BFF35F8F00221A6081F31088002F00DA97
:1038E00039E72300083322009A4666697B00DB191A
:1038F000DB00F318996850468C460824115FDD6898
:10390000002910DB029306E0AB4244D00023E15EC5
:103910002000002906DB4C006418E4003419E36839
:10392000AB42F1DD029B078000201F5E1980002F53
:10393000DCDA1400A379002B00D110E70023A37177
:1039400026000823E15E08364B1C00D12CE7080056
:10395000A246656902E03E004B1C1AD04B005B1882
:10396000DB00EF180A008C46E95E7B881BB2002B57
:10397000F1DA01235B42DC17BB60FC60824205D0B8
:10398000534631801B893B8053461A8160464B1C4D
:10399000E4D15446E5E6A3686345B7D9C2E76B1C9A
:1039A00000D0EAE6F8E65B4658461B6998470028CF
:1039B0001BD153461B8822692381EFF3108372B613
:1039C00011680029FCD0BFF35F8F514662880A80DE
:1039D00022696580BFF35F8F0021116083F3108837
:1039E000B4E6864200D8F8E6B0E65B461A685B6843
:1039F0000092019307E7B34500D848E74CE7C0467B
:103A00004C4600203C700540113700100040054036
:103A100070B52E4C2569002D04D00A212C48FFF7E3
:103A200009FE70BD2B4E0321300000F06BFBE660F9
:103A3000FFF7F6FB284B03229C46D02322701B067F
:103A40001B6801216370254B6044A3600F23800035
:103A500020610220638063694942A180198002319C
:103A6000198647311D83585218315A5275325C39C4
:103A70009952183201319952183201319952183243
:103A800001319952083518329D520231183299523B
:103A900018320131995218320131995218320131DC
:103AA00099521832013199521832013199520C4B06
:103AB0000C49DC6001303562FFF728FC012103204E
:103AC000FFF7ECFB084B1D60A7E7C0462C21002048
:103AD000684600200040054040000034FFFF100011
:103AE0004C460020113700103860054000487047F0
:103AF0002C210020F8B51F0008AB1B78040016002D
:103B0000002B08D100F010FB32003B00121A8B4151
:103B1000002B00DA52E02269EFF3108072B61368CE
:103B2000002BFCD0BFF35F8F0223E15E63694A0084
:103B30005218D2009B182269002936DB1D88658047
:103B4000BFF35F8F0025156080F31088069A9E6092
:103B5000DF601A61079A5A615A8801325204520C86
:103B6000101C002A1FD082B2588008041043266916
:103B7000EFF3108772B63268002AFCD0BFF35F8F74
:103B8000A2881A80A1802369BFF35F8F00221A6088
:103B900087F310880A4923788C4601329A40E368FB
:103BA00063441A60F8BD0120DDE7BFF35F8F002397
:103BB000136080F3108801204042F3E70020F1E712
:103BC0003C20000070B501000469EFF3108C72B660
:103BD00020680028FCD0BFF35F8F02200D5E4C6987
:103BE00068004019C00024180869002D36DB2688BB
:103BF0004E80BFF35F8F002606608CF31088E36071
:103C000063880498013320615B0405985B0CA26013
:103C100060611A1C002B1FD093B2280462801843E5
:103C20000A69EFF3108C72B61368002BFCD0BFF357
:103C30005F8F8B8823808D800B69BFF35F8F00229D
:103C40001A608CF310880B7801329A40CB680849CF
:103C50008C4663441A6070BD0122DDE7BFF35F8FBD
:103C6000002303608CF3108801204042F3E7C04634
:103C70003C20000010B543890A1493421ADD53001A
:103C80009B184269DB00D3180469EFF3108C72B6FD
:103C90002268002AFCD0BFF35F8F5A88090494B2CF
:103CA000090C8A4208D00369BFF35F8F00221A60B3
:103CB0008CF31088002010BD8022120214435C8017
:103CC000012302698371BFF35F8F002111608CF3C0
:103CD0001088044902788C469340C26801206244EF
:103CE0001360E8E73C20000040787047F0B5C64616
:103CF00000B582B004000D0000F016FA24184D4102
:103D0000002D02DA01242F4D644206267642F71771
:103D100036196F41AF4214D811D000F005FA3200C5
:103D20003B00121A8B41002B15DC002B46D02000E3
:103D3000290000F037FA02B080BCB846F0BDA642B8
:103D4000EBD90026002700F0EFF932003B00121AF1
:103D50008B41002BE9DD00F0E7F932003B00121A3D
:103D60008B41002B0ADB00230193174B3200009399
:103D700016483B00FFF726FF0130D8D0002339005A
:103D8000B0469C46124A1348536A994204D8966A30
:103D90004645CCD29942CAD10668EFF3108772B675
:103DA0003368002BFCD0BFF35F8F0368BFF35F8FD6
:103DB00066461E6087F3108820BFE5E7002AB6D06C
:103DC000C9E7C046FFFFFF7FE13600102C2100202D
:103DD0000040054068460020F0B5C64600B582B0F8
:103DE000040000F0A1F9FA2206000F0020000023D1
:103DF0000021920001F086FC8019794104000D1E1B
:103E000002DA01242E4D644206267642F71736194F
:103E10006F41AF4214D811D000F086F932003B0058
:103E2000121A8B41002B15DC002B46D020002900F4
:103E300000F0B8F902B080BCB846F0BDA642EBD99C
:103E40000026002700F070F932003B00121A8B4167
:103E5000002BE9DD00F068F932003B00121A8B41BB
:103E6000002B0ADB00230193164B32000093164807
:103E70003B00FFF7A7FE0130D8D000233900B04641
:103E80009C46124A1248536A994204D8966A46459B
:103E9000CCD29942CAD10668EFF3108772B6336864
:103EA000002BFCD0BFF35F8F0368BFF35F8F6646C4
:103EB0001E6087F3108820BFE5E7002AB6D0C9E767
:103EC000FFFFFF7FE13600102C210020004005405D
:103ED00068460020F0B557464E46DE464546E0B5FA
:103EE00006000F0085B0EFF3058399468B46002B43
:103EF00012D0384900204B6ABB4206D38A6ADB1BCA
:103F0000591E8B41B2424041184305B0F0BCBB463C
:103F1000B246A946A046F0BD2F4B9A46DB689846AC
:103F200053461B784046039300F0F6F84246039B45
:103F3000040004339B009B580D001B1A390030000D
:103F4000001BA941894510DC0DD020BF214A00206B
:103F5000536A5B45D9D3926ADB1B591E8B41B2422F
:103F600040411843D1E78342EFD900F0DDF8320039
:103F70003B00121A8B41002B1ADB00230193174BD5
:103F80003200009350463B00FFF71CFE011E0FDD80
:103F9000104B5A6A5A451BD39B6AB34216D35046FC
:103FA000FFF768FE0B4A0020536A5B45ADD3D2E7AA
:103FB000084A0020536A5B45A7D30020926ADB1BA6
:103FC000B24240415A1E934118439EE75A45E6D1FA
:103FD00020BFE4E7004005402C210020E13600101E
:103FE000F0B5CE464746110080B583B004009C462C
:103FF0000C9D194300D16CE06146DB1701930093DF
:1040000053401E00019B4B401F0000980199361A37
:104010008F4163460A996B600B9BAC6029612A60F3
:104020006B6100F081F880197941002902DA0120E2
:10403000314940422269EFF3108972B61368002BB0
:10404000FCD0BFF35F8F0223E65E636972009219B2
:10405000D2009B1822699046002E42DB1A886280AB
:10406000BFF35F8F002247463A6089F31088234AE6
:104070009860D9601A615A885D6101325204520C0D
:10408000111C002A2BD088B23204024359802069C7
:10409000EFF3108772B601680029FCD0BFF35F8F81
:1040A000A1881980A6802369BFF35F8F0021196062
:1040B00087F3108812482378844601319940012003
:1040C000E36863441960EA6003B0C0BCB946B04617
:1040D000F0BD00230126002701229C4699E701211B
:1040E000D1E7BFF35F8F0023136089F310880122AB
:1040F00000205242E7E7C046FFFFFF7F1137001064
:104100003C20000010B5024A0248FFF723F810BD1A
:1041100018D70010943500200300416A0A00986AFD
:10412000596A8A42FAD17047034B596A0A00986A61
:10413000596A9142FAD170470040054070B50400B9
:104140000D00174A536A1900966A536A8B42FAD1D6
:104150003000190024184D41AB4216D813D0104B33
:104160002A005B6A9D4203D90D494B6A9342FCD3F6
:10417000934207D10A4A02E0516A994202D1916AF8
:10418000A142F9D370BDA642E9D9054B5B6A1C0078
:104190005A1CEFD0012201246442E5175242E3E7A2
:1041A00000400540064A536A9942FCD807D1044BA7
:1041B00002E05A6A914202D19A6A9042F9D8704755
:1041C00000400540F8B5040006200D0000F078F925
:1041D000002844D0374B3849E3185A1E93418022B7
:1041E000120494465B429B0D344A9B056344136062
:1041F000334A136018000A689043FBD12D4B314AB3
:10420000E31859424B4180215B0049000620995236
:1042100000F056F92900C00000F0ACFB0130C309E2
:104220001ED1402701226262A362266BF30722D4CB
:10423000E36A254B0620E51800232B60266300F077
:104240003FF93900800000F095FB7023E26A5A4084
:104250000E3313402B601D4B23630323A364F8BD6F
:104260001B4A93421ED900231A4A1B4F6262A36263
:10427000266BF307DCD5194B144AE3181A60656AFC
:10428000A36A0620AD01ED1800F01AF9144900F0F8
:1042900071FBAD020100280000F06CFB0021FFF76C
:1042A0004DFFC5E74006800E9F011A003F1803002E
:1042B000B9E7C0460080FCBF08C0004000E00040F5
:1042C00000F00040A44600202C1000000103000074
:1042D000FEFF0000FFFF0000C0FF3F003030000085
:1042E0004E0E0000F8B5DE464E4657464546E0B550
:1042F0008B4605000A991800160000F03BFB0A9B4C
:104300006C001F02324B64199C46A400644463682D
:1043100081469F4200D967602B1FDBB29846012B74
:1043200030D9C02380229B01E31812011A60294B67
:10433000AD0059599A4600291BD17301E026226825
:1043400053401E40802342465B01E3181E60012A51
:1043500030D9802380229B01E31812011A60534652
:104360004A4667605A51F0BCBB46B246A946A046D1
:10437000F8BD586900F0FEFA013043001B18033BFA
:10438000FDD2DAE75B46012BCBD1C02303229B0190
:10439000E3181A60023AA3681A42FCD07301E026BF
:1043A0002268AD0053401E4080230A4A5B019246BA
:1043B000E3181E605A462168514003220A401A60E1
:1043C00001225B469A40A3681A42FCD0C1E7C0466E
:1043D0000080004098350020F0B546464F46D6464E
:1043E000C0B51F00344B44009C462418A40064440C
:1043F000636888461600FF2B02D880235B00636049
:10440000031FDBB29A46012B30D9C02380229B01C7
:10441000E31812011A60294B850059599946002961
:104420001BD17301E026226853401E408023524670
:104430005B01E3181E60012A30D9802380229B0192
:10444000E31812011A6080235B0063604B465F51E2
:10445000E0BCBA46B146A846F0BD586900F08AFAF9
:10446000013043001B18033BFDD2DAE74346012B22
:10447000CBD1C02303229B01E3181A60023AA36840
:104480001A42FCD07301E0262268850053401E408A
:1044900080230A4A5B019146E3181E604246216868
:1044A000514003220A401A60012342469340A26809
:1044B0001342FCD0C1E7C046008000409835002080
:1044C000014B8000C058704798350020F8B50400B3
:1044D00021481E0017000D0000F04CFA01003800C2
:1044E00000F048FA069B36041B031E432368002B8A
:1044F00020DB1A4B1A49E3185A1E9341802292017D
:1045000094465B421B0B174A1B0363441360164A15
:1045100013601F000A689743FBD1144B2560E21813
:104520002123A06013602368002BFCDA0823E660D7
:104530001360F8BD3F2322681340AB42D9D1A36872
:104540001B051B0D8342D4D1EE22E368D202134037
:10455000B342CED1EDE7C046001BB7000040FDBF1F
:1045600008C0004000E0004000F0004004300000BF
:1045700010B580241C4BE4051C6000281AD00123D0
:104580001A4C18431A4BDC611A4C44401C625962A5
:1045900098628021144BC9051960174817490860B3
:1045A000E021C9041960002A07D18022144B1206A9
:1045B0001A6010BD0E4BD861EBE753019B1A9B00AC
:1045C0009A18802312015B049A4209D213000D4904
:1045D0000B60074B5A608022094BD2051A60E8E74E
:1045E000094B1A00F3E7C04600B00540D3C007B03E
:1045F000008005402D3FF84FFCFF010008200140DE
:1046000000A00540083A0020FFFFFF008023024A77
:104610009B000B43D362704700800540002310B518
:104620000100988A1B8B984710BDC046162310B511
:104630000100188802331B88984710BDF8B547461B
:10464000CE4680B50F1E18D01423994604330400BB
:104650000025012698464B461888434621681B884A
:10466000984701C4431E984101350640AF42F2D13C
:104670003000C0BCB946B046F8BD0126F8E7C046D8
:10468000002370B504000D00988A05491B8B9847DC
:1046900003000020002C01DB0130A04029009847D6
:1046A00055420000AA23064A1B0113608D235B00BC
:1046B000D3600449044B19605368002BFCDA70473F
:1046C0000040024000B0FA00006002407047C0465F
:1046D00010B50148FEF726FD3CD7001070B5074D18
:1046E000074EB54209D20024013E761BB60808CD1C
:1046F000984723000134B342F9D170BDC8CE0010F1
:1047000004CF0010054B064A06491A60064A074BBB
:104710001A6010000B689843FBD1704700E000401E
:10472000BFCDFBFE08C00040FE7F3C0000F0004013
:10473000044BDB6C002B03D18022034BD2021A60A6
:104740007047C046000011504C201150044A054BE0
:104750001A60054A1368DB018033FBD17047C046FD
:10476000FFFFFF0100F0004008C000404022034B63
:104770009A675A671A67DA667047C04600F00140C8
:1047800010B5FEF76BFD10BDF8B52749274C284D35
:10479000641AA6103200302E00D930222800920070
:1047A00001F03AF9BC2C3BD830202F232C19640798
:1047B000204A801BE40F9B1B052B16D93700002CC9
:1047C00002D0B300771CEA50001B33199B0041084C
:1047D000EB18C900C9181A605A6008339942FAD117
:1047E000012303421CD09843C619B300EA50731C3E
:1047F0002F2E15D09B00EA50B31C2E2E10D09B00FC
:10480000EA50F31C2D2E0BD09B00EA50331D2C2EAA
:1048100006D09B00EA50731D2B2E01D09B00EA505E
:10482000054B9D60F8BDC04600010010C00100109E
:1048300000000020C101001000ED00E0002310B5D1
:10484000294C82B0A367FFF72DFF0122274B1A6086
:10485000636C012BFCD10322254B1A60224A936B17
:10486000012BFCD1013300930121224A2248043359
:10487000FFF72CFE052301210093204A2048FFF773
:1048800025FE0022022104201E4BFFF7A5FD002279
:10489000012105201C4BFFF79FFD0022002107206E
:1048A0001A4BFFF799FD002200210820174BFFF754
:1048B00093FD8023DB000093002200210920134B8D
:1048C000FFF710FD0022104B00210620FFF784FDAA
:1048D0000420FFF7F5FD0E4900F04CF80100002020
:1048E000FFF794FE02B010BD008000403CB00040D5
:1048F00030B00040002F685900800240008C86478D
:1049000000C00240001BB70040597307006CDC0276
:1049100040420F0001480421014B1847502100205C
:104920003D460010124A936F9B0815D29066D166DF
:10493000002905D0FFE7FFE7FFE7516F106F7047D1
:1049400004B580210906C2175140002800D0C84391
:1049500008F032FA002104BDF0B5146E556E576FA1
:10496000166FFFF7E3FF1466556657671667F0BDCD
:10497000000000D0114A936F9B0813D21066516655
:10498000002905D0FFE7FFE7FFE7516F106F704781
:1049900004B5002801D00020C04308F00DFA002122
:1049A00004BDC046F0B5146E556E576F166FFFF715
:1049B000E5FF1466556657671667F0BD000000D026
:1049C00094464A4A926F9208624601D228E0C04655
:1049D000F0B5464E346E756E776F366F00F020F886
:1049E0009446424A14665566576716676246F0BD9C
:1049F00094463E4A926F9208624601D254E0C04605
:104A0000F0B53A4E346E756E776F366F00F04CF835
:104A10009446364A14665566576716676246F0BD77
:104A2000002B24DB11D000293EDA00B5C9434042F7
:104A300000D1013100F038F8C943404200D10131C2
:104A4000DB43524200D1013300BD002AEBD10028E4
:104A500001D1002905D00020C90FC90701D1C043E9
:104A6000410800B508F080F90022002300BD00B520
:104A700000290ADBDB43524200D1013300F014F875
:104A8000C943404200D1013100BDC943404200D179
:104A90000131DB43524200D1013300F005F8DB4322
:104AA000524200D1013300BD002923D1002B18D17F
:104AB000002A0CD0BC460D4F38667A6600210023D0
:104AC000FFE7FFE7FFE77A6F386F67467047002818
:104AD00001D00748010000B508F046F90022002384
:104AE00000BD02000B00002000217047000000D034
:104AF000FFFFFFFF002B00D0BFE0130C28D1002ADE
:104B0000E7D080B4114F39667A66FFE7FFE730B42B
:104B1000040C7B6F396F1B0423433B667A66FFE707
:104B2000FFE7FFE7C04684B27B6F3D6F1B04234362
:104B30003B667A66FFE7FFE7C04600232C042D0C96
:104B40007A6F386F00196941B0BC7047000000D01F
:104B5000F0B594460025140E01D112020835140F49
:104B600001D112010435940F01D192000235D40F06
:104B700001D152000135D40B0134254F7C66254C00
:104B80003C660E0C93B2FFE7FFE7FFE73C6F66431E
:104B9000360C7703BE467343DF0B5B04C01AB94182
:104BA000130C7343DB18C91ACE086643360CB6449F
:104BB00093B273431F0F1B01C01AB941130C734307
:104BC0001F0B1B05C01AB941860D8F023E43664379
:104BD000360C092D24DB520A7243801A7703460AE9
:104BE0006643360C16235B1BDE40DF40BF1964466C
:104BF0006643821B7046043506330100D940A84045
:104C0000C01900D30131A24206D20023F0BD00003A
:104C1000000000D0FFFFFFFF121B0130F3D3F1E7CC
:104C200009277F1BFE406446A2B27243801A00D25D
:104C30000139220C7243130C1204821A99410B00A1
:104C40007046043513370100F940A840801900D39D
:104C50000131002B02D1A2420AD2F0BD013000D3B3
:104C60000131121BFAD2013BF8D1A24200D2F0BDB1
:104C7000013000D30131121BF7E7F0B51C0C00D056
:104C800080E00CB400251C0A04D11B02160E33432D
:104C9000120208351C0B04D11B01160F33431201FD
:104CA00004359C0B04D19B00960F334392000235D0
:104CB000DC0B02D192185B4101351C00971864414E
:104CC0000134464F7C66464C3C660E0CFFE7FFE71E
:104CD000FFE7C0463C6F6643360C7703BE4697B28B
:104CE0007743C01B00D20139C01B00D201399FB2EB
:104CF0007743C91BC91B170C77437E04FF0B801B2E
:104D0000B941CE086643360C0C2D33DBB644120B8A
:104D10001F053A431B0B97B27743C01B00D20139E2
:104D20009FB27743C91B170C77433E043F0C801B8F
:104D3000B941860D8F023E43664329277F1BFE4003
:104D40000C3D7746AF40BF1930BCA2B2ABB2724344
:104D50007343801A9941220C7243130C1204801A77
:104D6000994102000B000137001BA941F9D2781EBE
:104D70000021F0BD0C277F1BFE4077467F0BAF4024
:104D8000FF19E0E700245D1C07D0144F7D663966EB
:104D9000FFE7FFE7FFE7FFE73C6F95B29EB2654391
:104DA0006643401BB141150C1E0C65436643360437
:104DB0002F0C3E432D04401BB141994204D2020006
:104DC0000B0020000021F0BD01D19042F7D3801AE2
:104DD000994101349942F2D3F6E70000000000D077
:104DE000FFFFFFFF48404140484018B41B4B5B6841
:104DF000FC46019308BD04DF2F51001018B4174B77
:104E00001B68FC46019308BD00DF39510010944631
:104E1000134A926F920809D2624618B40F4BDB68AE
:104E2000FC46019308BD0CDFF15300100C4AF0B5AD
:104E3000146E556E576F166F6246FFF7EEFF084A05
:104E40001466556657671667F0BD18B4034B9B6828
:104E5000FC46019308BD08DF95520010F828002099
:104E6000000000D0FFB550404240504059404B40F8
:104E7000594000E0FFB5154F4C00640D03D0BC4213
:104E800004D10C0314D80020090D09055C00640D41
:104E900003D0BC4204D11C030AD800221B0D1B0501
:104EA00001264B4009D44B4003D58B4200D18242AE
:104EB000FFBD9942FCD19042FFBD0B43DB18034379
:104EC0001343F5D0C9434918FFBD0000FF07000098
:104ED00000B5FFF7CFFF804100BDC04600B5FFF72A
:104EE000C9FF01D9002000BD012000BD00B5FFF7BA
:104EF000B9FF01D9002000BD012000BD00B5FFF7BA
:104F0000B1FF804100BD012040054A00121804D8BD
:104F10005A00121801D80020704701207047000085
:104F20000021002805D17047C1174840401AFAD027
:104F3000C90713B5064B1B6898470CBC441CA2401C
:104F40001005120B0349091B09051943114310BD34
:104F5000644600201F04000010B54C00620D802341
:104F6000D218DB00D21A5B057E2A10DD9E3A13DAD6
:104F7000CC170903490819435242D1406400013457
:104F80001532202A05DAD0400843604310BD0020C6
:104F900010BD0846604310BDC80FC018013810BDD1
:104FA00018B4044B5B6AFC46019308BD24DFA1558D
:104FB00000100000F828002018B4044BDB6DFC46FC
:104FC000019308BD5CDF515600100000F828002056
:104FD00018B4044B5B6EFC46019308BD64DF495670
:104FE00000100000F8280020C94211D300B5490084
:104FF0004908002200F024F8002904D4002240428D
:105000008A41114600BD80210906002000BD000034
:1050100018B4044BDB6EFC46019308BD6CDFAF5542
:1050200000100000F828002018B4044B5B6FFC4609
:10503000019308BD74DFC95500100000F828002056
:1050400018B4044B9B6FFC46019308BD78DFCB5529
:1050500000100000F8280020132370B51D78012DE2
:1050600019D014DD1F48FFF7E1FA06001E48FFF7CC
:10507000DDFA1E4C80223100200000F0CDFC022D14
:105080002DD01B48FFF7CAFA1A4B186070BD1A4B97
:10509000164CA364F5E7184B144C23606360A360BF
:1050A000E36023616361A361E36123626362A362DE
:1050B000E36223636363A363E36323646364A364BE
:1050C000E36423656365A365E36523666366A3669E
:1050D000E36623676367A367E367A364D1E7064BCF
:1050E000A364CEE75344000053460000F828002094
:1050F0004C33000064460020FD50001007B56046A8
:1051000001880A0A0230DF2AFAD1C9B2820804D320
:10511000028840880004104300E00068014A5050B3
:10512000039007BDF82800200FB403BC0CBCF0B5F9
:105130000124E407634000E0F0B50C0DCF0F661EBC
:105140003605891B640503D3C943404200D30131AE
:10515000640D03D0661CF60A07D0E41B00207F0014
:10516000791C89078912803C24031D0DDF0F6E1EF8
:1051700036059B1B6D0503D3DB43524200D301333D
:105180006D0D03D06E1CF60A07D0ED1B00227F00C8
:105190007B1C9B079B12803D2D032F1B661B58D445
:1051A000A446202E46DA20371400BC401D00BD4026
:1051B000F24033412A4380185941CB0F05D0C943EF
:1051C000C043002264425041514162464D0D28D1F6
:1051D0000D0D07D100281FD0241940414941013A43
:1051E0000D0DF9D0640006D3013000D30131002C3D
:1051F00001D140084000013A0BD4941CE40A04D1C8
:1052000012051144DB071944F0BDD907204B19439F
:1052100000E0D9070020F0BD0029DDD1002CDBD152
:10522000F0BD0132C6074008CD0728434908002ECB
:10523000E1D0D9E73C2E29DA203E40371400BC40AB
:1052400000D00124F24014431A00BB401C43D31782
:10525000ACE7AC46202F08DA20360400B4400D003D
:10526000B540F84039412843A5E73C2F0CDA203FF0
:1052700040360400B44000D00124F8400443080044
:10528000B1400C43C117EAE710001900002494E76D
:105290000000F07FF0B50C0D661E3605891BE60A8E
:1052A0006405640D02D0651CED0A04D000200121C4
:1052B0000905803C2403A4461C0D671E3F05DB1B2B
:1052C000E70A6405640D02D0651CED0A04D00022D3
:1052D00001231B05803C24037740644497B484B2C7
:1052E00096B27443070C7E43150C6F4380B268433B
:1052F000361802D3012000043F183004350C001981
:105300007D41844688B29AB250430C0C62431F0C14
:105310007C438EB27E43921902D301263604A4192F
:105320001604170C3618674101BC81B29AB251437A
:10533000040C62431B0C5C4380B25843121802D326
:105340000120000424181004130C401863412D1888
:105350005E410020474106BC88B293B258430C0C12
:105360006343120C544389B251435B1802D30121A9
:105370000904641819041A0C091862416D18564181
:105380000020474118BCF902720D1143F0026A0D6A
:105390001043ED020A0D03D16D1940414941013B13
:1053A000124E9B1B7600B3420ED26D0007D3013024
:1053B000002671416646354301D1400840001B0577
:1053C000C918E4072144F0BD0BDA013306D10130DE
:1053D00004D101314F0D01D04908F2E7E107002067
:1053E000F0BD013631050020EBE70000FF030000AF
:1053F000F0B51C0D671E3F05DB1BE70A6405640D55
:1054000002D0661CF60A04D0002201231B05803C52
:105410002403D0252D060026F6432E661E096E664F
:10542000CE0FF619B44649004F0D02D07E1CF60A85
:1054300003D000200021403F3F033E1BB600B44490
:10544000013F7F05C91B49082E6F013676089C0273
:10545000950D25437543ED137543AD1301356D105F
:10546000F603761B0CB4CC02450D2C43A2B2B3B2AA
:105470005A43270C7B43350C6F43A4B26C431B1972
:1054800002D3012424043F191C041D0CA4187D41DF
:1054900024196D41009A91B2ACB26143170C7C4360
:1054A0002B0C5F4392B25A43A41802D30122120478
:1054B000BF182204230C52187B41019C6C431B191A
:1054C000520ED9010A434401A01A81B2B2B251432B
:1054D00003145A43360C734387B27743D617D21955
:1054E00000277E4136049B191704160C7F185E4175
:1054F0007316ED18F301002680337541A90F06D10C
:105500006400690AE8055B0A184309D22FE0042207
:10551000944480337541A90AA8059B0A184326D3F1
:10552000404149412404009A019B0D005543641BEE
:105530004343E41A95B286B27543170C7E43030CBD
:105540005F4392B25A43B61802D301221204BF1825
:105550003204330C52197B4152429C41002C02D43C
:105560000022013051414008CA071043490802B0E7
:105570006246D7079210084BD218084B9A4203D2C2
:1055800012058918C919F0BD0020002A01DC390074
:10559000F0BD01331905F5E7FD030000FE0700002B
:1055A000002200B5203200F010F8080000BD0022F3
:1055B00000B500F00CF8CA179A4200D100BDD843DC
:1055C0000121C907414000BD00220B150AD410B5C6
:1055D000944600F079F81414013400DA0021CB1756
:1055E000144C20470020002170476244343A0CD408
:1055F0000C2A07DA04009140904052422032D440F5
:10560000214310BDD843D94310BD203207D40C46E6
:105610009440524220321141D040204310BD080036
:10562000C917203203D452422032104110BD180055
:10563000190010BDEB55001000210A00002104E004
:1056400000210A00C11704E00022002306E0C04642
:105650000022CB1758405940C01A994130B5184C18
:10566000A21A002903D1010010D00020203A4C15C5
:1056700012D104D2013A001849414C0DFAD3114C11
:10568000A24204D212058918DB07C91830BDD243E3
:10569000520D00200021F5E703D4013A00184941DA
:1056A000FBD50B324405C00A4D052843C90A6400E6
:1056B00003D0002460416141E1E7E0D34408F8E70A
:1056C00032040000FE0700000A0DCC0F531E1B051C
:1056D000C91A520503D3C943404200D30131520DC8
:1056E00003D0531CDB0A07D0121B00206400611C8E
:1056F00089078912803A1203014BD21A70470000C1
:10570000FF03000051434343C9188C46110C83B278
:105710004B4310B4040C614392B280B250436243D5
:105720001C041B0C001910BC59411304120CC018A6
:1057300051416144704700004840414048400E4B91
:105740005B6818470C4B1B6818470C4A936F9B0803
:1057500002D2094BDB681847F0B5146E556E576FCF
:10576000166FFFF7F6FF054A14665566576716670A
:10577000F0BD014B9B681847F8290020000000D0BD
:1057800007B548404140484001E0C04607B54200E7
:10579000120E03D0FF2A03D1420218D8C00DC00553
:1057A0004A00120E03D0FF2A03D14A020FD8C90DB6
:1057B000C9050122414005D4414001D5814207BDC0
:1057C000884207BD0143491801D0C043001807BDF6
:1057D00000B5FFF7DBFF804100BDC04600B5FFF715
:1057E000D5FF01D9002000BD012000BD00B5FFF7A5
:1057F000C7FF804100BD491A002807D108467047FD
:10580000C10FC90700D54042002817D0F44603B4A1
:105810000B4B1B68984706BC81409E384042803144
:1058200007D20B0607D04900490AC00510430843B8
:1058300060470130F8E7490A8902F5E77047000040
:105840006446002041000A0E80231B067E2A0BDDE1
:105850009E3A0BDAC1174002400818435242D0402A
:10586000490001314843704700207047C00FC018FD
:1058700001387047C0420DD300B5400040080021F8
:1058800000F012F8002801D4404200BD802000063C
:1058900000BD0000034BDB69FC4618471CDF59596B
:1058A00000100000F8290020014B5B6A1847000037
:1058B000F8290020034BDB6FFC4618477CDF715949
:1058C00000100000F8290020132310B512481C789E
:1058D000FEF7ACFE0100012C0AD003DD80220F4848
:1058E00000F09AF80E48FEF799FE0E4B186010BDB6
:1058F0000A4C5422200000F08FF80B4B6365A3651F
:10590000E36523666366A366E36623676367A3674D
:10591000E3672362E361E5E753460000F8290020CE
:105920004C330000644600202D59001007B5604636
:1059300001880A0A0230DF2AFAD1C9B2820804D3E8
:10594000028840880004104300E00068014A50507B
:10595000039007BDF82900200021C2158032803253
:1059600001D0024A1047002070470000CD2A0000F5
:10597000C30FDB0741000A0E07D0FF2A08D0090930
:10598000054A8918194340077047190000207047DD
:105990000249C918FAE70000000000380000F07F53
:1059A00070B504000A4E300007F076FA200006F0C9
:1059B0005BFD0500300007F0CFF9002D05D0054B49
:1059C0002C199C4201D8280070BD0348FDF7AAFBA2
:1059D0001C2700200000042048D7001070B50400E8
:1059E000054D280007F058FA200006F047FD280072
:1059F00007F0B2F970BDC0461C2700200148042101
:105A0000014B1847602100203D460010014B1B68E8
:105A10001847000060210020014B5B681847000018
:105A20006021002010B5FFF7BBFF10BD10B5FFF7D8
:105A3000D5FF10BD10B5FFF7D1FF10BD9A4200D2BF
:105A4000885470477047C046F8B55746DE464E4604
:105A50004546E0B599460A9B07009A460D9B884645
:105A600093460B9C9B073BD10C9B9C423DD21E1B3B
:105A70000B9415000C005E442A004B4601352100B2
:105A80002020B847B542F7D1A0460B9C002C20D06F
:105A9000454636195346321B013C185D29004B46DA
:105AA000B847002CF6D12B00350098460D9B9B077C
:105AB0000FD55B46EC1A0C9BA3420AD94646984682
:105AC0002A004B46310020200134B84701354445B7
:105AD000F6D32800F0BCBB46B246A946A046F8BDA6
