:020000041000EA
:1000000000B5324B212058609868022188439860DF
:10001000D860186158612E4B002199600221596106
:100020000121F02299502B49196001219960352056
:1000300000F044F80222904214D00621196600F024
:1000400034F8196E01211966002018661A6600F04E
:100050002CF8196E196E196E052000F02FF8012189
:100060000842F9D1002199601B49196000215960AB
:100070001A491B48016001219960EB211966A021F2
:10008000196600F012F800219960164914480160C1
:100090000121996001BC002800D000471248134993
:1000A000086003C880F30888084703B5996A0420EC
:1000B0000142FBD001200142F8D103BD02B5186610
:1000C0001866FFF7F2FF186E186E02BD00000240BE
:1000D000000000180000070000035F00212200005C
:1000E000F4000018222000A00001001008ED00E03C
:1000F00000000000000000000000000074B24E7A12
:1001000000200420F7010010CB010010CD010010E9
:10011000C9010010C9010010C9010010C901001077
:10012000C9010010C9010010C9010010CF01001061
:10013000C9010010C9010010D1010010D301001045
:10014000C1010010C1010010C1010010C101001067
:10015000C1010010C1010010C1010010C101001057
:10016000C1010010C1010010C1010010C101001047
:10017000C1010010C1010010C1010010C101001037
:10018000C1010010C1010010C1010010C101001027
:10019000C1010010C1010010C1010010C101001017
:1001A000C1010010C1010010C1010010C101001007
:1001B000C1010010C1010010C1010010C1010010F7
:1001C000EFF30580103800BE00BE00BE00BE00BECA
:1001D00000BE00BEF2EB8871FC9001101C91011072
:1001E0003802001090A31AE71E481F49086006C88D
:1001F00081F3088810471D480068002801D019487D
:10020000F3E70DA40ECC002902D000F012F8F9E7B4
:100210001749184A002000E001C19142FCD116495B
:100220008847164988471649884700BEFDE701C937
:1002300001C29A42FBD370471C910110C0000020FC
:100240003827002094B7011000000420000004208B
:1002500094B70110001004200010042000000000DA
:10026000704700000000000008ED00E0000000D032
:100270003827002090460020C57100101D06001090
:10028000BD710010F8B5C04606480749091A8B1021
:10029000C90FC91810B5491003D0044B002B00D06A
:1002A000984710BD382700203827002000000000A4
:1002B000054B10B5002B03D00449054800E000BFF2
:1002C000FFF7E2FF10BDC04600000000A04500207F
:1002D0002C5B0110002370B582B06A466F21304854
:1002E0000093019300F02AFB6F2101AA06002D481C
:1002F00000F024FB2C4C0500200001F045FE0022FC
:1003000000212000294B01F0A1FE002E2BD0009BE4
:100310001A0119D45B012DD5012200212000244BA4
:1003200001F094FE002D17D0019B1A0130D45B011F
:1003300027D50222002120001E4B01F087FE1E4817
:1003400003F002FB02B070BD0122002120001B4B14
:1003500001F07CFE002DE7D1022200212000184B85
:1003600001F074FEEBE7012200212000154B01F0A3
:100370006DFED7E7012200212000134B01F066FE3D
:10038000D0E7022200212000104B01F05FFED6E7EB
:100390000222002120000E4B01F058FECFE7C0469C
:1003A00004460020F445002058390020305B01103D
:1003B0005C5B0110945B0110B80B00004C5B0110FA
:1003C000745B01103C5B01106C5B0110A45B0110BD
:1003D000845B011010B5124801F0C4FB114800F015
:1003E00043FD1149114809F0FBFD0321002002F0F3
:1003F000FDFB0321012002F0F9FB00220121002076
:1004000002F00EFC00220121012002F009FC084C40
:10041000200001F0C7FD0121200001F06FFD10BD9B
:1004200068390020E0450020801A0600A82100203D
:100430005839002070B5D024802507F043F82406F1
:100440006D03142002F000FC65626420656103F016
:100450007BFAA561642003F077FA642003F074FA54
:100460002F4C200001F090FD0022002120002D4B98
:1004700001F0ECFD012200212B4B200001F0E6FDF4
:100480002A4807F06DF82A4E300000F06FFB294D26
:10049000280000F06BFB3000274A284900F0F8FBE9
:1004A000002839D0264B01220021200001F0CEFD8A
:1004B000022200212000234B01F0C8FDFA20400059
:1004C00003F042FA28001C4A1F4900F0E1FB002813
:1004D00024D01E4B20000222002101F0B7FD032290
:1004E0001B4B0021200001F0B1FDFA20400003F079
:1004F0002BFA3000102100F075FC2800102100F0CC
:1005000071FC032200212000124B01F09FFDFA2014
:10051000800003F019FA70BD0F4BC4E70F4BD9E709
:1005200058390020E85B0110F85B0110045C0110F1
:10053000F445002004460020AE47E13D00002F4571
:10054000AC5B0110185C011000007A43C85B01101D
:10055000245C0110345C0110B85B0110D85B011001
:10056000FA2370B59B008CB00393204B204A049370
:10057000204B0692059309931F4B204A0A930223AE
:10058000079203AC1E4A21001E4808920B9301F00B
:1005900009FE1D4D280001F0F7FC28000022002173
:1005A0001A4B01F053FD039A28000092002101220A
:1005B000174B01F097FD0B9A2800164B0092002173
:1005C000022201F08FFD049805F006F8124E00900B
:1005D0000191330003220021280001F083FDFA205D
:1005E000C00003F0B1F90CB070BDC04600009643E6
:1005F000000048426F12833D0D0300000000A0413F
:10060000000040402C460020583900203C5C01107E
:100610004C5C0110585C0110645C011070B56420E2
:1006200003F092F9FFF7D6FE3C4D280001F0ACFC38
:100630000022002128003A4B01F008FD0122002190
:10064000384B280001F002FDFA20800003F07CF90D
:1006500002220021344B280001F0F8FCFFF7EAFEEB
:10066000FA20800003F070F90021280003222F4BAC
:1006700001F0ECFC64212E4801F014FC00280FD19D
:10068000280001F081FC002228001100294B01F014
:10069000DDFC012200212800274B01F0D7FCFEE7FA
:1006A000FA20C00003F050F9FFF714FE234C20009D
:1006B00001F060FDFA20400003F046F9FFF750FF1B
:1006C000280001F061FC0022280011001C4B01F001
:1006D000BDFC0122002128001A4B01F0B7FC1A488A
:1006E00003F032F9200001F079FD00280CD1200040
:1006F00002F0CEF90A2003F027F9200002F0C8F931
:100700000A2003F021F9F2E7280001F03DFC002265
:10071000280011000D4B01F099FCE8E75839002042
:10072000705C0110845C0110945C0110A05C0110ED
:10073000C0280020B05C0110B85C01102C460020DD
:10074000CC5C0110DC5C0110B80B0000F05C011007
:1007500070B5174D82B0280001F0E2F9154E300057
:1007600000F07CFB0023082200931349093313484F
:1007700000F030F80223082200930F490733104895
:1007800000F028F804230F4C009327221033200098
:100790000D4901F0A7FB320029000C4801F072FB63
:1007A0002300320029000A4801F0B4FC02B070BDF9
:1007B00068390020E045002000800340F445002017
:1007C0000446002058390020A8210020C02800201D
:1007D0002C46002070B5040008006946A360002381
:1007E000097C206062602373617300280DD0E121D1
:1007F000490203F09FFA0221606802F0F7F9022132
:10080000A06802F0F3F9200070BD012510002573E7
:1008100002F01AFA63689D40D0231B065D625D6199
:10082000F1E7C046F0B583B06D460023EB710533A8
:100830002B7080238446407B5B4203436B70130E16
:10084000EB70130C2B71130AA9706B71AA716946B6
:100850006A4600230720EE1D27E05B00DCB25BB296
:10086000002B2DDB6400E7B264B2002C2EDB7F008E
:10087000FBB27FB2002F2FDB5B00DFB25BB2002B3D
:1008800030DB7F00FBB27FB2002F31DB5B00DFB2D9
:100890005BB2002B32DB7F00FBB27FB2002F33DB79
:1008A0005B000131DBB2B14234D00F787B405FB2E4
:1008B000002FD2DA7F0047407BB2FCB2002BD1DAA6
:1008C0005B0043405CB2DFB2002CD0DA63004340EF
:1008D0005FB2DBB2002FCFDA7F0047407BB2FFB2BE
:1008E000002BCEDA5B0043405FB2DBB2002FCDDAE3
:1008F0007F0047407BB2FFB2002BCCDA5B00434065
:100900005FB2DBB2002FCBDA7F0047400131FBB290
:10091000B142CAD1EB716346202019688B69184235
:10092000FCD1137801320B6002AB9342F6D1052063
:1009300003F00AF8012003B0F0BDC046F0B546460A
:10094000D6464F460523C0B584B001AC237092460D
:10095000427B7A331340362263705B0053405AB2B5
:1009600006008846A170002A00DAF3E05B00DAB2E4
:100970005BB2002B00DAE7E05200D3B252B2002A99
:1009800000DADBE05B00DAB25BB2002B00DACFE02A
:100990005200D3B252B2002A00DAC3E05B00DAB2EE
:1009A0005BB2002B00DAB7E05200D3B252B2002A99
:1009B00000DAACE05B00DBB2424653405AB2002A98
:1009C00000DA9EE05B00DAB25BB2002B00DA92E064
:1009D0005200D3B252B2002A00DA86E05B00DAB2EB
:1009E0005BB2002B00DA7AE05200D3B252B2002A96
:1009F00000DA6EE05B00DAB25BB2002B63DB520020
:100A0000D3B252B2002A58DB5B00DAB25BB2002BE1
:100A10004EDB5200D3B220213268E37002A8936902
:100A20001942FCD1237801341360A042F7D1082287
:100A3000002104F09DFE002503F02EF9484C2418F7
:100A40004D41002D02DA0124464D64420023102757
:100A5000994604E0336810219A69174210D003F0D8
:100A60001BF922002B00121A8B41002BF2DC01D162
:100A7000002AEFD141463C4806F0F6FD002011E087
:100A80009A691142FCD11A6801239C466B46E144E5
:100A9000494607335A540829E1D152460120039BA5
:100AA0001BBA136004B0E0BCBA46B146A846F0BD1C
:100AB00007225B005340DBB2ADE7072352005A40E8
:100AC00053B2D2B2A3E707225B0053405AB2DBB263
:100AD00098E7072352005A4053B2D2B28DE707225B
:100AE0005B0053405AB2DBB281E7072352005A4001
:100AF00053B2D2B275E707225B0053405AB2DBB261
:100B000069E7072352005A4053B2D2B25DE7072388
:100B100052005340DBB24FE707225B0053405AB20A
:100B2000DBB244E7072352005A4053B2D2B238E74F
:100B300007225B0053405AB2DBB22CE70723520076
:100B40005A4053B2D2B220E707225B0053405AB258
:100B5000DBB214E7072352005A4053B2D2B208E77F
:100B6000400D0300FFFFFF7FFC5C0110F0B547461E
:100B7000CE460523202180B585B007000268019389
:100B800001A802AE93691942FCD1037801301360C9
:100B90008642F7D105220021300004F0E9FD00254E
:100BA00003F07AF8354C24184D41002D02DA012467
:100BB000334D6442002399461033984604E0414681
:100BC0003B689A69114220D003F066F822002B009E
:100BD000121A8B41002BF2DC01D1002AEFD1142034
:100BE000D024802502F030F8FA2024066D036562D7
:100BF0004000656102F0A8FE2248A56106F0B0FC45
:100C000005B0C0BCB946B046F0BD10219A6911428A
:100C1000FCD11A6801239C466B46E14449460733E0
:100C20005A540529D0D1142002F00EF8D023802286
:100C30000D251B065203052113485A6206F014FDC8
:100C4000124C6D4431782000013606F00DFDB5429E
:100C5000F8D10A20D026802506F038FC0324360679
:100C60006D036420756102F06FFE013C6420B56184
:100C700002F06AFE002CF4D1C2E7C04640420F00E9
:100C8000FFFFFF7F485D0110285D0110645D0110CA
:100C900070B5050082B0081C4949141C04F0F5FB2E
:100CA000484904F006FC211C04F003FC4649061CDC
:100CB00004F0EBFBFE21890504F0E1FB4349041C31
:100CC00004F026FC002827D04149301C04F0DDFB4D
:100CD000FE21890504F0D3FBFC21890504F0D2FB39
:100CE00004F042FC04001F2868DCC343DB171C40EF
:100CF000200004F017FC374904F0DBFB04F034FC5F
:100D000006001F2851DC6C21280001AAFFF716FEFF
:100D1000002846D1304A22E0FC21201C890504F03D
:100D2000B1FB04F021FC04001F2838DCC343DB17AF
:100D30001C40200004F0F6FB264904F0BAFB04F046
:100D400013FC06001F2821DC6C21280001AAFFF7F4
:100D5000F5FD002818D08022019B92021A436C21D5
:100D60002800FFF75FFD0A2002F0EEFD1F20A02201
:100D70003040240220431203024310212800FFF7D1
:100D800051FD012002B070BD144AE8E76C21280033
:100D900001AA1F26FFF7D2FD0028F5D0DBE71F24AC
:100DA000C7E7019A0E4B1A40D9E76C21280001AA27
:100DB0001F26FFF7C3FD0028F3D1ABE71F2497E7F9
:100DC00000007A44F30435426666A63E0000F8410E
:100DD000EC51383E9A99993E53000010530002108E
:100DE000FFFFFDFF10B520290DD8002905D02029CF
:100DF00003D8114B89005B589F46104A6C21FFF7BE
:100E000011FD012010BD40290AD080394B1E9941A7
:100E1000C0234A429B041A40094B9C466244EDE7BA
:100E2000084AEBE7084AE9E7084AE7E7084AE5E73E
:100E3000084AE3E7084AE1E714720110530000147E
:100E40005300001153000012530000185300001605
:100E500053000017530000135300001500230360D4
:100E6000436083607047C04670B505000420D024FD
:100E700001F0EAFE10232406A362002201210420CF
:100E800001F0CEFE032001F0DFFE08230022A36262
:100E90000121032001F0C4FE192001F0D5FE8023BA
:100EA0009B04A36200220121192001F0B9FE6368AE
:100EB000DB06DB0F2B7263681B07DB0F6B7263684B
:100EC0009B01DB0FAB7270BDF0B5D02424066368C4
:100ED000457ADB06DE0F6368AC461B07DF0F6368ED
:100EE0008024A4042340057A9C01E40FB5421DD060
:100EF000B74212D0016801390160674502D002682B
:100F000001320260002B04D0837A002B01D101331F
:100F1000C372067247728472F0BD016801310160CC
:100F20006745EFD00268013A0260EBE76745E9D018
:100F3000AF42E4D1F6E7C046006870470023036083
:100F40004360704703000022C07ADA727047C046DF
:100F5000F8B54746CE4680B51F00002304000D00BB
:100F60001600036043608360002908D0002200233C
:100F70003000390003F072FD8046002804D02000C4
:100F8000C0BCB946B046F8BD0C2004F0FDFB81465C
:100F900032003B000020084903F0F1FC03F0C0FDE3
:100FA0004B4642465A604A4618609D600C332260A8
:100FB0006360A360E3E7C04680842E41F0B55746E6
:100FC0004546DE464E46E0B599B0089209930023A7
:100FD000036043608360802380468A465B059942B4
:100FE00000D302E3002900D09CE224982599CC4A42
:100FF000CC4B03F02DFD002800D05AE2249B259C09
:1010000006930794229A239B1000190003F0D5FC45
:10101000089C099D0E900F9122002B0020002900B2
:1010200003F0CBFC069C079D06000F0022002B005E
:10103000200029001496159703F098FC04000D0079
:101040000E980F9932003B001294139503F085FC23
:1010500022002B0003F093FC0022002304000D006B
:1010600003F00CFD002801D1002400255046049413
:10107000059503F015FD22002B0006000F0003F07C
:101080006CFC129A139B04000D000E980F9903F04C
:1010900076FC02000B002000290003F05EFC002219
:1010A000002304000D0003F0D3FC002800D04CE224
:1010B000049E059F20003B003200290003F056FCEF
:1010C000534602900391002B00D171E1964A974B51
:1010D0003000390003F04AFC00230A900B91089875
:1010E0000999002203F0ACFC0123994600285BD04B
:1010F000BBE032003B002000290003F02EFC129AD6
:10110000139B03F05AFC02000B000E980F9903F09A
:1011100024FC03F061FD089A099B06000F00229849
:10112000239903F01AFC069A079B03F028FC049A03
:10113000059B04000D000298039903F00EFC229A0F
:10114000239B03F01CFC02000B002000290003F08D
:101150000DFC320004000D003B002298239903F09F
:10116000FCFB069A079B03F00AFC02000B00200020
:10117000290003F0FBFB6E4B002203F01EFC03F082
:1011800013FD43465C689B68009001919C4200D12E
:1011900016E1009A019B0CC443465C604B46013348
:1011A000CA4500D104E19946484603F079FC0400A1
:1011B0000D0002000B000A980B9903F057FC002861
:1011C00000D0B7E0029E039F574A584B30003900C9
:1011D00003F0CCFB22002B0003F048FC002800D1D8
:1011E00087E7049A059B2000290003F0B6FB229AAA
:1011F000239B03F0C4FB089A099B04000D00ACE795
:101200000498059902000B0003F0B0FB069A079BB7
:1012100003F0B5FB03F0E0FC049A059B04000D000D
:101220003000390003F099FB229A239B03F0A7FBBF
:1012300022002B0003F09AFB3D4B002203F0BDFB84
:1012400003F0B2FC43465C689B680C900D919C4295
:1012500000D138E10C9A0D9B0CC443465C604B46B0
:101260000133CA4500D1A3E09946484603F018FC73
:101270000A9A0B9B06000F0003F0F0FB002800D039
:10128000DBE002980399284A284B03F06FFB3200F9
:101290003B0003F0EBFB0028B2D104980599020053
:1012A0000B0003F063FB069A079B03F068FB03F057
:1012B00093FC029A039B04000D003000390003F0F8
:1012C0004CFB129A139B03F078FB02000B000E9864
:1012D0000F9903F042FB03F07FFC049A059B060084
:1012E0000F000298039903F038FB229A239B03F026
:1012F00046FB22002B0003F039FB320004000D00F6
:10130000229823993B0003F028FB069A079B03F0E1
:1013100036FB02000B002000290003F027FB8BE7BF
:1013200095D626E80B2E113E11EA2D819997713D35
:1013300080842E41002206980799AF4B03F03DFBB5
:101340000022AE4B06000F0003F037FB802212068E
:1013500094462B00634410941193109A119B03F050
:101360002CFB02000B001498159903F0F6FA0022EA
:10137000002304000D0003F081FB002801D10024AC
:1013800000252000290003F027FC089A099B03F0A0
:10139000E4FA320004000D003B003000390003F095
:1013A000E5FA02000B002000290003F0E8FAE2E66B
:1013B000404619B0F0BCBB46B246A946A046F0BDB7
:1013C00043461F688E4AE41BE310934200D10FE1AD
:1013D0000126002B03D05E00B34200D9A0E0802399
:1013E0005B059E426DD2F600300004F0CDF9009905
:1013F000019A031919605A60230008339B460500BF
:101400008344002C08DC002F0AD143465A461D6055
:10141000AD195A609D60C1E62200390004F0AEF9B2
:10142000434699683800C91B04F0B6F943465A464A
:101430001D60AD195A609D60B0E6002206980799BC
:101440006D4B03F0BAFA00226C4B0090019103F04F
:10145000B4FA8022120694463B0063441696179312
:10146000169A179B03F0A9FA02000B00149815991D
:1014700003F073FA0022002304000D0003F0FEFACB
:1014800000281BD02000290003F0A6FB089A099B26
:1014900003F063FA04000D000098019902000B00AC
:1014A00003F064FA02000B002000290003F067FA41
:1014B000C2E6544B544C06930794A3E50024002540
:1014C000E0E74F4E8FE743461F684D4AE41BE310A9
:1014D000934200D18CE00126002B1CD180235B05B8
:1014E0009E4261D2F600300004F04EF90C990D9A3C
:1014F000031919605A60230008339B460500834492
:10150000002C60DC002F69D143465A461D60AD199E
:101510005A609D60A3E65E00B342DFD93B4EE2E72E
:101520003A4E61E7CE00300004F02EF943461D68C4
:101530005A680400521B002A38DC002D52D1434661
:101540001C605C60A4199C604FE5320012981399EE
:101550003B0003F032FA149A159B03F007FA0022BD
:10156000254B03F02AFA0022002304000D0003F0AB
:1015700085FA002824D02000290003F02DFB02006A
:101580000B002290239103F018FA149A159B0E90E9
:101590000F9103F0E2F9129A139B03F0F0F9002483
:1015A00000250490059183E5154E9BE7290004F082
:1015B000E5F843469968491B280004F0EDF8BEE7BA
:1015C00000240025D7E73900220004F0D7F843466D
:1015D0009968C91B380004F0DFF895E7434699681D
:1015E000C91BF7E79968491BE6E7094808F042FD7F
:1015F000084808F03FFDC0460000E03F00001040F2
:10160000FFFFFF0F95D626E80B2E113EF8FFFF7F58
:101610006C5D01107C5D0110F0B5DE4657464E460C
:101620004546E0B595B011938A4200D84DE1531A72
:1016300099460268002900D04FE1002300240E9350
:101640000F9412931393002392460024984600238C
:10165000C9008A44D3460A930B94089309940693CD
:101660000794029303940493059401239C46E04459
:10167000404603F015FA04000D0000229C4B03F0D5
:101680006CF922002B0003F098F90022994B03F02B
:1016900094F95B4606000F0003CB9B460E9A0F9B06
:1016A000801A994103F048FA2200009001912B0022
:1016B0002000290003F081F902000B00049805992D
:1016C00003F054F93200049005913B0020002900FA
:1016D00003F073F902000B000298039903F046F936
:1016E0003200029003913B003000390003F065F9AD
:1016F00002000B000698079903F038F9009A019B45
:10170000069007912000290003F057F902000B0012
:101710000898099903F02AF9009A019B0890099109
:101720003000390003F049F902000B000A980B99C8
:1017300003F01CF90A900B91C84596D1069A079BB5
:101740000498059903F039F9029E039F04003200C2
:101750003B000D003000390003F02FF902000B00B0
:101760002000290003F0F9F84B000F00624A5908E5
:10177000624B060003F06CF9002800D0A5E0089A3F
:10178000099B0698079903F018F90A9A0B9B040025
:101790000D000298039903F010F902000B002000DD
:1017A000290003F0DAF832003B0003F0E8F8029C6D
:1017B000039D06900791200080242406A4462B0058
:1017C00063441900089A099B03F0F7F80A9A0B9BE7
:1017D00004000D000498059903F0EFF802000B00D7
:1017E0002000290003F0C2F83B00320003F0C7F8E4
:1017F000049005911298139903F0AAF9002300268A
:10180000002798460890099101239C46E0444046F1
:1018100003F046F9534604000D001868596803F0B8
:1018200097F9002200900191314B2000290003F02C
:1018300094F822002B0003F0C0F8049A059B03F0F3
:10184000BCF800222B4B03F0B8F822002B000290CA
:1018500003910698079903F0B0F8089A099B03F0E2
:1018600085F802000B000298039903F07FF802004C
:101870000B000098019903F070F84B005B080C9086
:101880000D930C9C0D9D32003B002000290003F0BD
:10189000F5F8002801D134003D0008239C462600BD
:1018A0002F00E244C845AFD10698079914F044F8D8
:1018B000119B18600498059914F03EF81E9B18605F
:1018C0001F9B01201C605D6000E0002015B0F0BC93
:1018D000BB46B246A946A046F0BD4B1EDB00D3185E
:1018E00018685B68129013930E900F93ABE6C04696
:1018F0000000F03F0000E03F11EA2D819997713D13
:10190000F8B54746CE46466880B507680D00F61B19
:10191000B21093009B1819015B1819025B18190487
:101920005B185B009B181F4A0400934237D00120CC
:10193000002B1ED11B4B984221D843001B189B0043
:101940009946484603F020FF8319804607CD07C318
:1019500035000C354544002E13DC002F1CD14046C9
:101960004346484465602360A060C0BCB946B046A9
:10197000F8BD58008342DDD90B4B9946E1E71800CA
:10198000DBE739003200404603F0F8FEA168C91BCE
:10199000380003F001FFE2E7A168C91BF8E703483C
:1019A00008F068FBAAAAAA0AF8FFFF7F7C5D011075
:1019B000F0B54546DE4657464E46E0B505000020E8
:1019C00097B028606860A860002907D1280017B088
:1019D000F0BCBB46B246A946A046F0BD0CAC229E68
:1019E000239F200002960397209E219F0096019737
:1019F000FFF7E4FA0C9B994663684A469B469B1A9C
:101A0000DB100593CB4561D000232E00984643465A
:101A10005D1CFA239B0043449A46059B9A4500D9D6
:101A20009A46049555452CD853460695AA461F005C
:101A300007960CE0249A259B0A980B9903F00EF860
:101A4000002817D06B1C9A460495BA4517D8534600
:101A5000DE194B4623605B4663600AAB7508019351
:101A600009AB00932A004146200008ABFFF7D4FDE4
:101A70000028DFD1012E02D96F1EBA45E7D9069D95
:101A8000079E4B4623605B4663600AAB049A019352
:101A900009AB0093414608AB20009246FFF7BCFD1E
:101AA0007368B26800281BD051464046089F099DC4
:101AB000081A9A422CD01F605D6098600C337360E6
:101AC000049B9846059B9845A1D335004B46002BB7
:101AD00000D17BE7A1684846C91A03F05DFE75E7AF
:101AE0009A4209D0FA2292001A60012258609A6044
:101AF0000C33A8467360E5E7FA239B001393012398
:101B000013A9486030008B60A846FFF7F9FED9E7BB
:101B100010A98860300010974D60FFF7F1FECFE705
:101B2000C02310B504001B0104220021C01803F0DB
:101B30001FFE0A4B0422E018002103F019FEC22305
:101B40001B01E0180222002103F012FE044B0822C0
:101B50000021E01803F00CFE200010BD040C000072
:101B60002C0C000010B50B2001F06EF8D02480235F
:101B700024061B0163620A20A36101F065F880233B
:101B8000DB0063620C20A36101F05EF880235B013F
:101B900063620620A36101F057F8402305206362C9
:101BA000A36101F051F8202307206362A36101F0D3
:101BB0004BF880236362A36110BDC046F0B5D646E2
:101BC0004F4646460300C0B5002001291DD8C02459
:101BD0004D005E192401A246345BA7B2BC460D4FEE
:101BE0000134F75BB8467F273C4044450DD0604642
:101BF00040006D1860446D028000401918182ACA10
:101C00002AC053460120A4B2F452E0BCBA46B14601
:101C1000A846F0BD040C00000300002001290AD8EA
:101C2000C02249005B181201985A034A9B5AC01AF5
:101C3000431E9841C0B27047040C0000030000200E
:101C400001290BD849005818C023064A1B01C15A64
:101C5000825A8BB290B2181A914200D370478030EA
:101C6000FCE7C046040C000010B501290ED8C022C4
:101C70004B00C31812019A5A054C92B21A53C22350
:101C80001B019C46002340186044037010BDC046F1
:101C9000040C00004B1E9941074B49421940802318
:101CA000DB009C46D02361441B06002A01D0596109
:101CB00070479961FCE7C04620FCFFFF030000204D
:101CC000012905D85818C2231B019C46604400789E
:101CD0007047C046F8B5DE4657464E464546E0B525
:101CE000012937D8C2231B0199464418A1444B4609
:101CF0001B78002B34D1C0224B00C4181201A75A04
:101D0000494A9246A25A974224D05246A25A944631
:101D10005A18464B9700984663465B00634452024C
:101D20009B009B18C7194744C31864CB64C753462C
:101D3000E25A7F23013213405246A35201234A46FE
:101D40001370C22292009446394B61449B6A890009
:101D500041184B60F0BCBB46B246A946A046F8BD50
:101D6000334B80469B6A8F009A4652464B005B1865
:101D70009B0098442F4B2D4DC7199946FB5845445D
:101D8000D31A2A689A42E5DC4B1E99412A4B4E42EF
:101D90001E4080231B019C46D0231B069B466644A5
:101DA00000215E61022001F081FF5B4652469E6188
:101DB0004B46FA50214ABB580133BB501C3A4244AF
:101DC0001168002912D11E49002341440E682A6877
:101DD0003000F11712184B41002B18DD2A60C22386
:101DE0001B019C46002364442370B3E7144B013964
:101DF000434418680027116002002E68C317B61804
:101E00005F41002F09DD2E600029A3D1E7E7002BF9
:101E100001D1002AE2D10122E0E7002F01D1002EFA
:101E2000F1D10126EFE7C046040C0000080C0000C9
:101E300000400540240C000040F8FFFF2C0C00007F
:101E40000C0C00000E4B10B51C68002C16D0236A39
:101E5000606801332362002801D0FFF735F820685D
:101E6000002806D00021FFF735FF01212068FFF789
:101E700031FFE36A002B01D0206B9847012010BD91
:101E8000F82A002042606422002342623C3A036246
:101E900001608354C3620363014B18607047C046FE
:101EA000F82A002070B52826835D04000D0084B058
:101EB000002B02D0002004B070BD4162036201F02B
:101EC000CDFB21000831029105496A42D3170194E4
:101ED000009101F03DFE0028ECD00123A355EAE774
:101EE000451E001010B5437108236C46C3710023D2
:101EF000247A016002718471038110BD0F220023D6
:101F000000B5C90085B0C9B26A441170C1710179C8
:101F100000680093013308F08BF805B000BDC0469F
:101F2000F0B50F260027C37985B004006E440B433B
:101F300033700D003200017901230068009708F02A
:101F400077F80422E37920682B431343337032007F
:101F500021790123009708F06BF80120002101F09E
:101F60007DFC04239D43E37932001D4335702179C4
:101F700001232068009708F05BF83220002101F06F
:101F80006DFC05B0F0BDC04610B504000021FFF7A0
:101F9000C7FF10212000FFF7C3FF022001F0D4FC8F
:101FA00010BDC04610B50400322001F0CDFC302138
:101FB0002000FFF7B5FF052001F0C6FC302120000E
:101FC000FFF7AEFF052001F0BFFC20003021FFF736
:101FD000A7FF9620002101F041FC20002021FFF7FF
:101FE0009FFF20002021FFF79BFF20008021FFF7AB
:101FF00097FF0423200023720021FFF791FF2000A8
:10200000C021FFF78DFF20000021FFF789FF10217D
:102010002000FFF785FF022001F096FC022320003C
:1020200063720021FFF77CFF20006021FFF778FF3B
:1020300020000021FFF774FF20212000FFF770FF30
:10204000022001F081FC012010BDC046F0B5C6465B
:1020500000B51F008379060086B09A4201D3013B88
:10206000DAB27379994201D3013BD9B21B4B3000EC
:102070009B5C6D46C918CCB20F2321009943713384
:102080001943FFF74DFF21013000C9B2FFF748FFA8
:102090003B00134A1521684604F0ECFF00227379D7
:1020A000EA542C78002C14D00F230127984643467D
:1020B0002100994339433000C9B2FFF731FF2101B4
:1020C000394330000135C9B2FFF72AFF2C78002CC4
:1020D000EDD106B080BCB846F0BDC0469872011084
:1020E000985D011008B470B504000D00160089B0A9
:1020F0000DAB04CB152102A8019304F0CFFF3200F1
:102100002900200002ABFFF7A1FF09B070BC08BC9A
:1021100001B018474260FA22920002610F4A016042
:1021200042610F4A0F49826182620F4AC161C262F5
:1021300002220E49836001620D490023416202635D
:1021400001210022C36043638363C36343648364E8
:102150004C330264C15402657047C0460000964388
:102160006F12833D000048420D0300000000A041B3
:1021700000004040002310B50400C3608068FFF7F2
:1021800003FFA06800220021044BFFF75FFF01223C
:102190000021034BA068FFF759FF10BDA05D01109F
:1021A000B05D0110030070B50400103325C925C3CC
:1021B00025C925C325C925C3A169E069A16203F02A
:1021C00064F903F003FA011E00D101312069E162D4
:1021D0000138401802F086F9206370BDC36810B55D
:1021E00004000020002B10D100232365012360632D
:1021F000A063E063E360A068FFF7C6FEA06800226A
:102200000021024BFFF722FF012010BDC05D01102D
:10221000F0B5C646050000B5806886B0FFF7B4FE8D
:1022200000220021394BA868FFF710FF384B01222C
:102230000021A868FFF70AFF364F3B78002B12D128
:10224000354B98466868FEF77DFE002836D1424639
:10225000324B12689B6A9B1A314A93424BD806B0A4
:1022600080BCB846F0BD2D4B2B4A9B6A904613604C
:1022700000230022C8213B702A4B03A8009201933F
:1022800009010022284BFEF763FE0398049E864254
:1022900009D004002200002128680C34FFF78EFCCE
:1022A000A642F7D103980028CCD00599091A03F06B
:1022B00073FA6868FEF746FE0028C8D06868FEF723
:1022C0003DFE00212868FFF7CFFC0222174B0021BA
:1022D000A868FFF7BBFEFA20400001F035FB02239F
:1022E0004246EB60013B3B700C4B12689B6A9B1AA9
:1022F0000B4A9342B3D90E4B03220021A868FFF783
:10230000A5FE0823EB60073B3B70A8E7D45D0110F6
:10231000E85D0110E0200020282B0020004005404F
:10232000809698000000344000006940F85D01107C
:10233000085E0110F0B5C646040000B5806886B09E
:10234000FFF722FE00220021554BA068FFF77EFE1A
:10235000544E3578022D4ED040D8002D62D0D02377
:102360001B065B6801212068DB0300D575E0FFF7E1
:102370007BFC012200214C4BA068FFF767FE03ABFA
:1023800098460022A021494B404600920193C90083
:102390000022474BFEF7DCFD012201212068FFF7F8
:1023A00079FC049F039DAF4207D02A0001212068D9
:1023B0000C35FFF703FCAF42F7D10223A06833705E
:1023C000022200213B4BFFF741FE039800280ED06C
:1023D00043469968091A03F0DFF908E0032D06D196
:1023E000FA20400001F0B0FA0023E560337006B037
:1023F00080BCB846F0BD01212068FFF75FFC0028D3
:10240000F5D101212068FFF707FC0028EFD12A4B06
:1024100002220021A068FFF719FE00232365032391
:102420003370E4E7102000F00FFCD02380221B065D
:1024300052029A6201210022102000F0F1FB206874
:1024400000220121FFF726FC012301223370002125
:102450001A4BA068FFF7FAFDC9E7FFF72FFC002829
:10246000C5D103AB98460022FA21104B404600929A
:102470000193890000220E4BFEF76AFD0398049E2B
:10248000864209D005002A00012120680C35FFF79B
:1024900095FBAE42F7D10398002899D1A7E7C04633
:1024A0001C5E011080460020445E01100000344094
:1024B00000709740545E0110645E0110305E0110A0
:1024C000F0B505008BB08068FFF75EFD00223A4B47
:1024D0000021A868FFF7BAFD286A03F07DF8AE680E
:1024E000364C009001912300012200213000FFF7BB
:1024F000F9FD334F3B78002B07D001212868FFF707
:10250000DDFB002841D00BB0F0BD286A2D4902F058
:10251000BCFF2D4902F0CDFF8321C90502F0C9FFA0
:1025200003F054F80022294B010004920593002285
:10253000274B07A8029203930022264B0092019397
:1025400000220023FFF734FA286801220121FFF757
:10255000A1FB0798089E864209D0040022000121B1
:1025600028680C34FFF72AFBA642F7D1079801230D
:102570003B700028C1D00999091A03F00DF9012117
:102580002868FFF79BFB0028BDD101212868FFF7D1
:1025900043FB041EB7D12B6A02220021A8682B65D9
:1025A0000D4BFFF753FDFA20400001F0CDF9042355
:1025B0003C70EB60A7E7C046745E0110845E0110BA
:1025C000814600200000A040000048430000344045
:1025D0000088B3400070A740945E0110F0B5CE466D
:1025E0004746040080B580688BB0FFF7CDFC4A4BAE
:1025F00000220021A068FFF729FD484E3378002B08
:1026000036D0474FA368206C984602F0E5FF454D51
:1026100001222B000090019140460021FFF762FD4E
:10262000A3686069984602F0D7FF3F4D02222B0055
:102630000090019100214046FFF754FDFA213B4BE9
:102640008900986A3B68C01A01F04CFF02F065FFF0
:102650003749051C606A02F02CFF011C281C02F09F
:1026600057FF002849D10BB0C0BCB946B046F0BDF9
:102670002E4B2B4F9B6A60693B6001232D493370C1
:1026800002F003FF2C4902F014FF636A011C051CD1
:10269000181C994602F00DFF02F098FF0022274B0C
:1026A00080464946281C0492059302F0EEFE02F093
:1026B00093FF02900391281C02F08EFF00230090EC
:1026C00001910022414607A8FFF772F9089B07987D
:1026D0009846834209D005002A00002120680C3565
:1026E000FFF76CFAA845F7D10798002800D189E7D1
:1026F0000999091A03F050F884E7114B03220021CD
:10270000A068FFF7A3FCFA20400001F01DF90523A3
:10271000E36000233370A6E7A45E01108246002028
:102720002C2B0020645C0110B45E011000400540B9
:1027300000007A4400007042000048450000344028
:10274000C45E0110F0B5C64600B5040086B040680E
:10275000FEF7F2FB656C401B002832DDB4218900D6
:1027600001F098FE002826D0A36B420012181B1817
:10277000A36313019B1AE66B1B015B198619636443
:10278000E66302F0CAFEA16A02F093FEE36A051C4A
:102790009E4200D37DE04949281C02F076FE48495C
:1027A00002F087FE8321C90502F083FE02F00EFFCE
:1027B0008046002833D100212068FFF73FFA09281E
:1027C00003D906B080BCB846F0BD60693D4902F04F
:1027D0005CFE3D4902F06DFE02F0FEFE02000020AC
:1027E0000B003A4903AD00900191C821280009016E
:1027F000FEF7AEFB0398049F874209D00600320023
:10280000002120680C36FFF7D9F9B742F7D10398B9
:102810000028D6D0A968091A02F0BEFFD1E72949DD
:10282000606902F032FEA16A02F043FE284902F01C
:1028300040FE2849061C03AD02F06AFE002800D1C4
:10284000244E301C02F0C8FE0026204F02000B0070
:102850000096019741462800FEF77AFB4C230121A0
:10286000E25C2068FFF716FA039E049FBE4208D080
:102870003200012120680C36FFF7A0F9B742F7D1EA
:10288000039F002F97D0A9683800C91B02F084FF6E
:1028900091E700234C210120626BE3630132626304
:1028A000635C43406354216BA0680B4B0191009221
:1028B00000210222FFF716FC6DE7C0460000A04091
:1028C00000004843000070420000484500003440CA
:1028D0000000204400007A44D05E0110F0B50021D1
:1028E000050087B00068FFF7E9F9002805D000214E
:1028F0002868FFF7A3F909282CD868691B4902F05A
:10290000C4FD1B4902F0D5FD041C02F065FE060063
:10291000201C0F0002F05AFE0022164B010000920C
:10292000019303A832003B00FEF712FB0398049EBC
:102930000400864208D02200002128680C34FFF7EA
:102940003DF9A642F7D10398002803D00599091A4A
:1029500002F022FF2800FFF7F5FEAA6B2B699A42CE
:1029600001D30623EB6007B0F0BDC0460000704203
:102970000000484500003440F0B5D646050000B5DB
:1029800080688CB0FFF700FB3B4B00220021A86859
:10299000FFF75CFB394F3B78002B16D0286C02F018
:1029A0001BFEAE68364C00900191230000213000E0
:1029B0000122FFF797FB00212868FFF77FF9002825
:1029C0004FD00CB080BCBA46F0BD00212868FFF79C
:1029D0004BF901212868FFF747F96869294902F096
:1029E00054FD294902F065FD6B6A041C9A4602F009
:1029F000F3FD06900791211C504602F05AFD02F0AB
:102A0000E5FD0022214B06000492059380231B065E
:102A1000E018514602F039FD02F0DEFD00220023ED
:102A20000290039100920193069A079B310009A836
:102A3000FEF7BEFF09980A9E864209D004002200D4
:102A4000002128680C34FFF7B9F8A642F7D109989D
:102A500001233B700028A1D00B99091A02F09CFEBB
:102A60009CE700212868FFF7D7F80028A9D10723A1
:102A70003870EB60A5E7C046E05E01108346002099
:102A8000645C0110000070420000484500003440C2
:102A9000F0B5494B856C9E6A484B040083B0751BAA
:102AA0009D4219D94068FEF747FA636CC01A02F0DC
:102AB00039FD434902F0E9FC071C280002F02DFD16
:102AC000404902F0E2FC011C381C02F0DEFC3E49E9
:102AD00002F0EFFCA6642064E368072B34D83B4A7D
:102AE0009B00D3589F462000FFF792FBE368052B1D
:102AF0002AD12269A0680192A26B354B0021009275
:102B00000022FFF7EFFA206C02F066FDA668314D57
:102B1000009001912B00012200213000FFF7E2FA22
:102B2000226BA0680192626B00212B4B0092022263
:102B3000FFF7D8FAE26AA0680192E26B00210092E6
:102B4000264B0322FFF7CEFA03B0F0BDA068FFF7D3
:102B50001BFA00220021224BA068FFF777FAA26B34
:102B6000A06800211F4B00920122FFF7BBFA626BA5
:102B70001D4BA068002100920222FFF7B3FA002348
:102B8000E360E1E72000FFF7D5FBE368AFE7200053
:102B9000FFF796FCE368AAE72000FFF71FFDE36854
:102BA000A5E72000FFF79AFEE368A0E72000FFF703
:102BB000E3FEE3689BE7C046004005409F860100B6
:102BC0000000344400247449000070429C720110DB
:102BD000045F0110645C0110D05E0110185F0110E9
:102BE000F05E01104C5C0110585C0110094A830032
:102BF0009A1810B514684022544080322240064C86
:102C0000C000A44663441A60044B9C466044416083
:102C100010BDC04604C0014004D001400040014046
:102C2000074B8000C3181B68C90092000A435A4032
:102C30000C231340034A9446604403607047C04627
:102C400004C0014004D001400123D0228340120679
:102C500093629361094A83009A1811684022514097
:102C600080320A400649C0008C4663441A60054B16
:102C70009C460523604443607047C04604C0014041
:102C800004D00140004001408023DB051868000F9C
:102C90007047C0460FB400B5084883B004F060FC2C
:102CA000049B002B07D005A91800019104F016FA27
:102CB000034804F055FC012004F028FA2C5F0110B1
:102CC0008061011070B5EFF3108C72B60D4D2B685A
:102CD000002BFCD0BFF35F8F0724CB08C618C05C65
:102CE00001230C40A3401C000440034207D11843B9
:102CF0003070BFF35F8F2C608CF3108870BD1000B4
:102D0000FFF7C8FF2C0100D0F8B54746CE468846ED
:102D100080B5EFF3108C72B61C4D2C68002CFCD0E3
:102D2000BFF35F8F9A4222D807210126894602E02D
:102D30000132934218D34D4637001540AF40D408B6
:102D40000119045D2742F3D110003C430C70BFF31E
:102D50005F8F00220D4B1A608CF3108800280EDB69
:102D6000C0BCB946B046F8BD01204042EFE7BFF312
:102D70005F8F00232B608CF3108801204042434674
:102D8000002BEDD00898FFF785FFC0462C0100D03E
:102D9000044A1078431CDBB2172B00D910231370A0
:102DA0007047C046E120002010B5064B064C82B0AB
:102DB0000100009318221F232000FFF7A5FF02B097
:102DC00010BDC0463C5F0110E43400200021044BDC
:102DD000044ABFF35F8F02C39342FAD17047C046E3
:102DE000000100D0800100D0054B064A1360064A5E
:102DF000136053609360D3601361536193617047B4
:102E00008080808000E400E004E400E01F2318409C
:102E10001E3B8340002905D0C021044A490053507D
:102E200013607047802201498B50FAE700E100E00F
:102E300001228240034B1B6813405A1E9341D8B2B3
:102E40007047C04600E100E001238340014A13605F
:102E50007047C04600E200E0064B10309B688000DF
:102E6000C358054A00209B1A2F229A424041C0B203
:102E70007047C04600ED00E0E420002070B50D0072
:102E8000EFF3108672B60F4A1368002BFCD0BFF325
:102E90005F8F0D4B10309B6884001B590B4A934287
:102EA00003D09D4201D001F0CBF9074B9B681D5127
:102EB000BFF35F8FBFF35F8F0022024B1A6086F370
:102EC000108870BD240100D000ED00E0C1010010A9
:102ED000F0B557464E46DE464546E0B585B006009D
:102EE00000911700EFF3108B72B66A4A1368002B3B
:102EF000FCD0BFF35F8F0025674B5D579A46002DCE
:102F000000DAA9E06B00654C01935B199B009846C1
:102F1000A146C1444B4652469B7910361370604B14
:102F2000B6009B6899590B1B2F2B33D95D4B9942E7
:102F300000D0ACE0019B42469C465B4B6544AD0033
:102F400063535A4B0232A218043B9B1A1B05584A82
:102F50005B0D651913436B80564B0121AB80FF233A
:102F6000AB71009BEF71AB604B460B4319004C4BB0
:102F70009B689951BFF35F8FBFF35F8F0022454B72
:102F80001A608BF3108805B0F0BCBB46B246A94668
:102F9000A046F0BD01200A008243D3798C46BB4293
:102FA00031D84546130044491B1B5B415943090D69
:102FB0003D4B63533D4B02356519043B5B1B1B05C1
:102FC0003B4D5B0D2B43AA464D466B800425AC461A
:102FD0005546E044131F44441B1B1B055B0D1D435A
:102FE0004B46997100999D8099604946DF71334B3A
:102FF00001431360BBE75800C01880002018C17956
:10300000B9422FD902000623D356002BF3DA0293DC
:103010002B4B61460393131D9A4604235B429C4647
:10302000E14450464B461B1A1B055B0D9C46204B4A
:10303000957198466346404603439380019B5A1915
:103040009200039BA418A380029B1C4AA371009BBF
:103050002260E771A3608AE701F0F2F80025534689
:103060005D574FE7908802934005131D9A4603155C
:1030700061469C464046D444634604302018181AE2
:10308000E0230005400D1B0218430390C5E701F043
:10309000D7F84FE7240100D089460020E420002023
:1030A00000ED00E0C101001000A1FFFF142100208D
:1030B00000E0FFFF01BDFFFFAAAA00000148804712
:1030C00001BD000070B501240443EFF30581EFF367
:1030D000108C72B6214A1368002BFCD0BFF35F8FAF
:1030E0001F4B05001F4AED1A6D416A43120D1E4D1C
:1030F0008900AE6852B27658A6421CD006215956B5
:1031000091421CD012215956914222D01E2159566B
:10311000914220D02A2159560324914210D0134BBA
:1031200019781A708171BFF35F8F00220B4B1A6000
:103130008CF3108870BDAB680D4C5C50EFE7002439
:103140006100091989005B18FF219971094999806B
:10315000E5E70124F4E70224F2E7C046240100D0A9
:10316000E4200020AAAA000000ED00E0894600202B
:10317000C101001001BDFFFF10B5084B084C82B023
:1031800001000093002205232000FFF7BDFD002869
:1031900001DB1F23181A02B010BDC046585F011092
:1031A0008D460020024B9C466144890001607047B7
:1031B0004000003470B5114C114DAC420FD2FF26C7
:1031C0002368002B0CD0FFF7E3FD01002000FFF780
:1031D000E9FFA680BFF35F8F0834AC42F0D370BD27
:1031E000FFF7D6FD01002000FFF7DCFF2671BFF3DB
:1031F0005F8F0834AC42E3D3F1E7C04628270020B4
:103200003827002010B50400FFF7C2FD01002000A0
:10321000FFF7C8FFFF232371BFF35F8F10BDC046C8
:1032200010B504000120FFF7BFFD034BC3189B003E
:103230002360BFF35F8F10BD40000034034B9C46FA
:10324000614489000160BFF35F8F70474000003424
:103250000A4B1968EFF3108072B60A68002AFCD096
:10326000BFF35F8F1B68BFF35F8F00221A6080F38C
:10327000108840BF002000217047C046DC45002078
:10328000F0B5DE4657464E464546E0B587B0EFF30B
:103290000583032201251A40954091008846A946DE
:1032A000B34B03925C58B34B1D60B34B04934B4636
:1032B000B24843630823E55E002D37DAA3881BB2CA
:1032C000002B00DBADE0A379002B00D0EEE008235B
:1032D000E05E002820DB430062691B18DB00D31886
:1032E0009E68DD68731C00D111E1A44801004144CF
:1032F000826A0B69B71A9B1A9F4215D30123026A8F
:10330000039883401A420FD09C4800F0BDFC8D42C8
:1033100002DCCCD18642CAD940BF07B0F0BCBB4664
:10332000B246A946A046F0BD0E61EDE762696B00AA
:1033300092465B19DB009A4453469E68DF6800F0B2
:10334000A3FC8F42BADC00D103E1002F00DAE8E0F1
:103350005246534652691B699346049A934200D1E0
:10336000D9E052460821605E528800045946104355
:103370009847009001910099019A0B0010001343A7
:1033800000D1CEE013000A00B61A9F41002806DBE8
:103390007A4800F079FC009E019F36184F41534651
:1033A0009E60DF6000229A5E002A00DA86E7530002
:1033B00099186069C900411802938B68C9689B46D7
:1033C000B94200DD7AE702D1B34200D976E708239B
:1033D0009C46A444059565462281A446029B2C0088
:1033E00006E053009918C90041188D68C968AB46BA
:1033F0009B18DB00C318B94206DC00D1B3E01C0007
:103400000023E25E002AECDA230064469C46534621
:103410001A806346059D1D80A3881BB2002B00DA2D
:1034200051E72269EFF3108172B61368002BFCD0CC
:10343000BFF35F8F0123A7885B42A3803FB223695C
:10344000BFF35F8F00221A6081F31088002F00DA2B
:1034500039E72300083322009A4666697B00DB19AE
:10346000DB00F318996850468C460824115FDD682C
:10347000002910DB029306E0AB4244D00023E15E5A
:103480002000002906DB4C006418E4003419E368CE
:10349000AB42F1DD029B078000201F5E1980002FE8
:1034A000DCDA1400A379002B00D110E70023A3710C
:1034B00026000823E15E08364B1C00D12CE70800EB
:1034C000A246656902E03E004B1C1AD04B005B1817
:1034D000DB00EF180A008C46E95E7B881BB2002BEC
:1034E000F1DA01235B42DC17BB60FC60824205D04D
:1034F000534631801B893B8053461A8160464B1CE2
:10350000E4D15446E5E6A3686345B7D9C2E76B1C2E
:1035100000D0EAE6F8E65B4658461B699847002863
:103520001BD153461B8822692381EFF3108372B6A7
:1035300011680029FCD0BFF35F8F514662880A8072
:1035400022696580BFF35F8F0021116083F31088CB
:10355000B4E6864200D8F8E6B0E65B461A685B68D7
:103560000092019307E7B34500D848E74CE7C0460F
:10357000C04500203C7005408132001000400540ED
:1035800070B52E4C2569002D04D00A212C48FFF778
:1035900009FE70BD2B4E0321300000F06BFBE6608E
:1035A000FFF7F6FB284B03229C46D02322701B0614
:1035B0001B6801216370254B6044A3600F238000CA
:1035C00020610220638063694942A1801980023131
:1035D000198647311D83585218315A5275325C3959
:1035E00099521832013199521832013199521832D8
:1035F00001319952083518329D52023118329952D0
:103600001832013199521832013199521832013170
:1036100099521832013199521832013199520C4B9A
:103620000C49DC6001303562FFF728FC01210320E2
:10363000FFF7ECFB084B1D60A7E7C0462C210020DC
:10364000DC4500200040054040000034FFFF100032
:10365000C0450020813200103860054000487047A6
:103660002C210020F8B51F0008AB1B7804001600C1
:10367000002B08D100F010FB32003B00121A8B41E6
:10368000002B00DA52E02269EFF3108072B6136863
:10369000002BFCD0BFF35F8F0223E15E63694A0019
:1036A0005218D2009B182269002936DB1D886580DC
:1036B000BFF35F8F0025156080F31088069A9E6027
:1036C000DF601A61079A5A615A8801325204520C1B
:1036D000101C002A1FD082B25880080410432669AB
:1036E000EFF3108772B63268002AFCD0BFF35F8F09
:1036F000A2881A80A1802369BFF35F8F00221A601D
:1037000087F310880A4923788C4601329A40E3688F
:1037100063441A60F8BD0120DDE7BFF35F8F00232B
:10372000136080F3108801204042F3E70020F1E7A6
:103730003C20000070B501000469EFF3108C72B6F4
:1037400020680028FCD0BFF35F8F02200D5E4C691B
:1037500068004019C00024180869002D36DB26884F
:103760004E80BFF35F8F002606608CF31088E36005
:1037700063880498013320615B0405985B0CA260A8
:1037800060611A1C002B1FD093B22804628018437A
:103790000A69EFF3108C72B61368002BFCD0BFF3EC
:1037A0005F8F8B8823808D800B69BFF35F8F002232
:1037B0001A608CF310880B7801329A40CB68084964
:1037C0008C4663441A6070BD0122DDE7BFF35F8F52
:1037D000002303608CF3108801204042F3E7C046C9
:1037E0003C20000010B543890A1493421ADD5300AF
:1037F0009B184269DB00D3180469EFF3108C72B692
:103800002268002AFCD0BFF35F8F5A88090494B263
:10381000090C8A4208D00369BFF35F8F00221A6047
:103820008CF31088002010BD8022120214435C80AB
:10383000012302698371BFF35F8F002111608CF354
:103840001088044902788C469340C2680120624483
:103850001360E8E73C20000040787047F0B5C646AA
:1038600000B582B004000D0000F016FA24184D4196
:10387000002D02DA01242F4D644206267642F71706
:1038800036196F41AF4214D811D000F005FA32005A
:103890003B00121A8B41002B15DC002B46D0200078
:1038A000290000F037FA02B080BCB846F0BDA6424D
:1038B000EBD90026002700F0EFF932003B00121A86
:1038C0008B41002BE9DD00F0E7F932003B00121AD2
:1038D0008B41002B0ADB00230193174B320000932E
:1038E00016483B00FFF726FF0130D8D000233900EF
:1038F000B0469C46124A1348536A994204D8966AC5
:103900004645CCD29942CAD10668EFF3108772B609
:103910003368002BFCD0BFF35F8F0368BFF35F8F6A
:1039200066461E6087F3108820BFE5E7002AB6D000
:10393000C9E7C046FFFFFF7F513200102C21002055
:1039400000400540DC450020F0B5C64600B582B019
:10395000040000F0A1F9FA2206000F002000002365
:103960000021920001F06EFD8019794104000D1EC6
:1039700002DA01242E4D644206267642F7173619E4
:103980006F41AF4214D811D000F086F932003B00ED
:10399000121A8B41002B15DC002B46D02000290089
:1039A00000F0B8F902B080BCB846F0BDA642EBD931
:1039B0000026002700F070F932003B00121A8B41FC
:1039C000002BE9DD00F068F932003B00121A8B4150
:1039D000002B0ADB00230193164B3200009316489C
:1039E0003B00FFF7A7FE0130D8D000233900B046D6
:1039F0009C46124A1248536A994204D8966A464530
:103A0000CCD29942CAD10668EFF3108772B63368F8
:103A1000002BFCD0BFF35F8F0368BFF35F8F664658
:103A20001E6087F3108820BFE5E7002AB6D0C9E7FB
:103A3000FFFFFF7F513200102C2100200040054085
:103A4000DC450020F0B557464E46DE464546E0B51B
:103A500006000F0085B0EFF3058399468B46002BD7
:103A600012D0384900204B6ABB4206D38A6ADB1B5E
:103A7000591E8B41B2424041184305B0F0BCBB46D1
:103A8000B246A946A046F0BD2F4B9A46DB68984641
:103A900053461B784046039300F0F6F84246039BDA
:103AA000040004339B009B580D001B1A39003000A2
:103AB000001BA941894510DC0DD020BF214A002000
:103AC000536A5B45D9D3926ADB1B591E8B41B242C4
:103AD00040411843D1E78342EFD900F0DDF83200CE
:103AE0003B00121A8B41002B1ADB00230193174B6A
:103AF0003200009350463B00FFF71CFE011E0FDD15
:103B0000104B5A6A5A451BD39B6AB34216D3504690
:103B1000FFF768FE0B4A0020536A5B45ADD3D2E73E
:103B2000084A0020536A5B45A7D30020926ADB1B3A
:103B3000B24240415A1E934118439EE75A45E6D18E
:103B400020BFE4E7004005402C2100205132001046
:103B5000F0B5CE464746110080B583B004009C46C0
:103B60000C9D194300D16CE06146DB170193009373
:103B700053401E00019B4B401F0000980199361ACC
:103B80008F4163460A996B600B9BAC6029612A6088
:103B90006B6100F081F880197941002902DA012077
:103BA000314940422269EFF3108972B61368002B45
:103BB000FCD0BFF35F8F0223E65E63697200921947
:103BC000D2009B1822699046002E42DB1A88628040
:103BD000BFF35F8F002247463A6089F31088234A7B
:103BE0009860D9601A615A885D6101325204520CA2
:103BF000111C002A2BD088B232040243598020695C
:103C0000EFF3108772B601680029FCD0BFF35F8F15
:103C1000A1881980A6802369BFF35F8F00211960F6
:103C200087F3108812482378844601319940012097
:103C3000E36863441960EA6003B0C0BCB946B046AB
:103C4000F0BD00230126002701229C4699E70121AF
:103C5000D1E7BFF35F8F0023136089F3108801223F
:103C600000205242E7E7C046FFFFFF7F813200108D
:103C70003C20000010B5024A0248FFF723F810BDAF
:103C8000745F0110E83400200300416A0A00986A5A
:103C9000596A8A42FAD17047034B596A0A00986AF6
:103CA000596A9142FAD170470040054070B504004E
:103CB0000D00174A536A1900966A536A8B42FAD16B
:103CC0003000190024184D41AB4216D813D0104BC8
:103CD0002A005B6A9D4203D90D494B6A9342FCD38B
:103CE000934207D10A4A02E0516A994202D1916A8D
:103CF000A142F9D370BDA642E9D9054B5B6A1C000D
:103D00005A1CEFD0012201246442E5175242E3E736
:103D100000400540064A536A9942FCD807D1044B3B
:103D200002E05A6A914202D19A6A9042F9D87047E9
:103D300000400540F8B5040006200D0000F078F9B9
:103D4000002844D0374B3849E3185A1E934180224B
:103D5000120494465B429B0D344A9B0563441360F6
:103D6000334A136018000A689043FBD12D4B314A47
:103D7000E31859424B4180215B00490006209952CB
:103D800000F056F92900C00000F0ACFB0130C30977
:103D90001ED1402701226262A362266BF30722D460
:103DA000E36A254B0620E51800232B60266300F00C
:103DB0003FF93900800000F095FB7023E26A5A4019
:103DC0000E3313402B601D4B23630323A364F8BD04
:103DD0001B4A93421ED900231A4A1B4F6262A362F8
:103DE000266BF307DCD5194B144AE3181A60656A91
:103DF000A36A0620AD01ED1800F01AF9144900F08D
:103E000071FBAD020100280000F06CFB0021FFF700
:103E10004DFFC5E74006800E9F011A003F180300C2
:103E2000B9E7C0460080FCBF08C0004000E0004089
:103E300000F00040144600202C1000000103000098
:103E4000FEFF0000FFFF0000C0FF3F003030000019
:103E50004E0E0000F8B5DE464E4657464546E0B5E4
:103E60008B4605000A991800160000F03BFB0A9BE0
:103E70006C001F02324B64199C46A40064446368C2
:103E800081469F4200D967602B1FDBB29846012B09
:103E900030D9C02380229B01E31812011A60294BFC
:103EA000AD0059599A4600291BD17301E0262268BA
:103EB00053401E40802342465B01E3181E60012AE6
:103EC00030D9802380229B01E31812011A605346E7
:103ED0004A4667605A51F0BCBB46B246A946A04666
:103EE000F8BD586900F0FEFA013043001B18033B8F
:103EF000FDD2DAE75B46012BCBD1C02303229B0125
:103F0000E3181A60023AA3681A42FCD07301E02653
:103F10002268AD0053401E4080230A4A5B0192464E
:103F2000E3181E605A462168514003220A401A6075
:103F300001225B469A40A3681A42FCD0C1E7C04602
:103F400000800040EC340020F0B546464F46D6468F
:103F5000C0B51F00344B44009C462418A4006444A0
:103F6000636888461600FF2B02D880235B006360DD
:103F7000031FDBB29A46012B30D9C02380229B015C
:103F8000E31812011A60294B8500595999460029F6
:103F90001BD17301E026226853401E408023524605
:103FA0005B01E3181E60012A30D9802380229B0127
:103FB000E31812011A6080235B0063604B465F5177
:103FC000E0BCBA46B146A846F0BD586900F08AFA8E
:103FD000013043001B18033BFDD2DAE74346012BB7
:103FE000CBD1C02303229B01E3181A60023AA368D5
:103FF0001A42FCD07301E0262268850053401E401F
:1040000080230A4A5B019146E3181E6042462168FC
:10401000514003220A401A60012342469340A2689D
:104020001342FCD0C1E7C04600800040EC340020C1
:10403000014B8000C0587047EC340020F8B50400F4
:1040400021481E0017000D0000F04CFA0100380056
:1040500000F048FA069B36041B031E432368002B1E
:1040600020DB1A4B1A49E3185A1E93418022920111
:1040700094465B421B0B174A1B0363441360164AAA
:1040800013601F000A689743FBD1144B2560E218A8
:104090002123A06013602368002BFCDA0823E6606C
:1040A0001360F8BD3F2322681340AB42D9D1A36807
:1040B0001B051B0D8342D4D1EE22E368D2021340CC
:1040C000B342CED1EDE7C046001BB7000040FDBFB4
:1040D00008C0004000E0004000F000400430000054
:1040E00010B580241C4BE4051C6000281AD0012365
:1040F0001A4C18431A4BDC611A4C44401C6259623A
:1041000098628021144BC905196017481749086047
:10411000E021C9041960002A07D18022144B12063D
:104120001A6010BD0E4BD861EBE753019B1A9B0040
:104130009A18802312015B049A4209D213000D4998
:104140000B60074B5A608022094BD2051A60E8E7E2
:10415000094B1A00F3E7C04600B00540D3C007B0D2
:10416000008005402D3FF84FFCFF01000820014072
:1041700000A0054064390020FFFFFF008023024AB1
:104180009B000B43D362704700800540002310B5AD
:104190000100988A1B8B984710BDC046162310B5A6
:1041A0000100188802331B88984710BDF8B54746B0
:1041B000CE4680B50F1E18D0142399460433040050
:1041C0000025012698464B461888434621681B88DF
:1041D000984701C4431E984101350640AF42F2D1D1
:1041E0003000C0BCB946B046F8BD0126F8E7C0466D
:1041F000002370B504000D00988A05491B8B984771
:1042000003000020002C01DB0130A040290098476A
:1042100055420000AA23064A1B0113608D235B0050
:10422000D3600449044B19605368002BFCDA7047D3
:104230000040024000B0FA00006002407047C046F3
:1042400010B50148FEF726FD985F011070B5074DC7
:10425000074EB54209D20024013E761BB60808CDB0
:10426000984723000134B342F9D170BDD85A0110E8
:10427000145B0110054B064A06491A60064A074BB3
:104280001A6010000B689843FBD1704700E00040B3
:10429000BFCDFBFE08C00040FE7F3C0000F00040A8
:1042A000044BDB6C002B03D18022034BD2021A603B
:1042B0007047C046000011504C201150044A054B75
:1042C0001A60054A1368DB018033FBD17047C04692
:1042D000FFFFFF0100F0004008C000404022034BF8
:1042E0009A675A671A67DA667047C04600F001405D
:1042F00010B5FEF76BFD10BDF8B52749274C284DCA
:10430000641AA6103200302E00D930222800920004
:1043100001F034FABC2C3BD830202F232C19640731
:10432000204A801BE40F9B1B052B16D93700002C5D
:1043300002D0B300771CEA50001B33199B004108E0
:10434000EB18C900C9181A605A6008339942FAD1AB
:10435000012303421CD09843C619B300EA50731CD2
:104360002F2E15D09B00EA50B31C2E2E10D09B0090
:10437000EA50F31C2D2E0BD09B00EA50331D2C2E3F
:1043800006D09B00EA50731D2B2E01D09B00EA50F3
:10439000054B9D60F8BDC04600010010C001001033
:1043A00000000020C101001000ED00E0002310B566
:1043B000294C82B0A367FFF72DFF0122274B1A601B
:1043C000636C012BFCD10322254B1A60224A936BAC
:1043D000012BFCD1013300930121224A22480433EE
:1043E000FFF72CFE052301210093204A2048FFF708
:1043F00025FE0022022104201E4BFFF7A5FD00220E
:10440000012105201C4BFFF79FFD00220021072002
:104410001A4BFFF799FD002200210820174BFFF7E8
:1044200093FD8023DB000093002200210920134B21
:10443000FFF710FD0022104B00210620FFF784FD3E
:104440000420FFF7F5FD0E4900F04CF801000020B4
:10445000FFF794FE02B010BD008000403CB0004069
:1044600030B00040002F685900800240008C864721
:1044700000C00240001BB70040597307006CDC020B
:1044800040420F0001480421014B184750210020F1
:10449000AD410010124A936F9B0815D29066D16609
:1044A000002905D0FFE7FFE7FFE7516F106F704766
:1044B00004B580210906C2175140002800D0C84326
:1044C00011F082FA002104BDF0B5146E556E576FDD
:1044D000166FFFF7E3FF1466556657671667F0BD62
:1044E000000000D0114A936F9B0813D210665166EA
:1044F000002905D0FFE7FFE7FFE7516F106F704716
:1045000004B5002801D00020C04311F05DFA00215D
:1045100004BDC046F0B5146E556E576F166FFFF7A9
:10452000E5FF1466556657671667F0BD000000D0BA
:1045300094464A4A926F9208624601D228E0C046E9
:10454000F0B5464E346E756E776F366F00F020F81A
:104550009446424A14665566576716676246F0BD30
:1045600094463E4A926F9208624601D254E0C04699
:10457000F0B53A4E346E756E776F366F00F04CF8CA
:104580009446364A14665566576716676246F0BD0C
:10459000002B24DB11D000293EDA00B5C94340428C
:1045A00000D1013100F038F8C943404200D1013157
:1045B000DB43524200D1013300BD002AEBD1002879
:1045C00001D1002905D00020C90FC90701D1C0437E
:1045D000410800B511F0D0F90022002300BD00B55C
:1045E00000290ADBDB43524200D1013300F014F80A
:1045F000C943404200D1013100BDC943404200D10E
:104600000131DB43524200D1013300F005F8DB43B6
:10461000524200D1013300BD002923D1002B18D113
:10462000002A0CD0BC460D4F38667A660021002364
:10463000FFE7FFE7FFE77A6F386F674670470028AC
:1046400001D00748010000B511F096F900220023BF
:1046500000BD02000B00002000217047000000D0C8
:10466000FFFFFFFF002B00D0BFE0130C28D1002A72
:10467000E7D080B4114F39667A66FFE7FFE730B4C0
:10468000040C7B6F396F1B0423433B667A66FFE79C
:10469000FFE7FFE7C04684B27B6F3D6F1B042343F7
:1046A0003B667A66FFE7FFE7C04600232C042D0C2B
:1046B0007A6F386F00196941B0BC7047000000D0B4
:1046C000F0B594460025140E01D112020835140FDE
:1046D00001D112010435940F01D192000235D40F9B
:1046E00001D152000135D40B0134254F7C66254C95
:1046F0003C660E0C93B2FFE7FFE7FFE73C6F6643B3
:10470000360C7703BE467343DF0B5B04C01AB94116
:10471000130C7343DB18C91ACE086643360CB64433
:1047200093B273431F0F1B01C01AB941130C73439B
:104730001F0B1B05C01AB941860D8F023E4366430D
:10474000360C092D24DB520A7243801A7703460A7D
:104750006643360C16235B1BDE40DF40BF19644600
:104760006643821B7046043506330100D940A840D9
:10477000C01900D30131A24206D20023F0BD0000CF
:10478000000000D0FFFFFFFF121B0130F3D3F1E761
:1047900009277F1BFE406446A2B27243801A00D2F2
:1047A0000139220C7243130C1204821A99410B0036
:1047B0007046043513370100F940A840801900D332
:1047C0000131002B02D1A2420AD2F0BD013000D348
:1047D0000131121BFAD2013BF8D1A24200D2F0BD46
:1047E000013000D30131121BF7E7F0B51C0C00D0EB
:1047F00080E00CB400251C0A04D11B02160E3343C2
:10480000120208351C0B04D11B01160F3343120191
:1048100004359C0B04D19B00960F33439200023564
:10482000DC0B02D192185B4101351C0097186441E2
:104830000134464F7C66464C3C660E0CFFE7FFE7B2
:10484000FFE7C0463C6F6643360C7703BE4697B21F
:104850007743C01B00D20139C01B00D201399FB27F
:104860007743C91BC91B170C77437E04FF0B801BC2
:10487000B941CE086643360C0C2D33DBB644120B1F
:104880001F053A431B0B97B27743C01B00D2013977
:104890009FB27743C91B170C77433E043F0C801B24
:1048A000B941860D8F023E43664329277F1BFE4098
:1048B0000C3D7746AF40BF1930BCA2B2ABB27243D9
:1048C0007343801A9941220C7243130C1204801A0C
:1048D000994102000B000137001BA941F9D2781E53
:1048E0000021F0BD0C277F1BFE4077467F0BAF40B9
:1048F000FF19E0E700245D1C07D0144F7D66396680
:10490000FFE7FFE7FFE7FFE73C6F95B29EB2654325
:104910006643401BB141150C1E0C654366433604CB
:104920002F0C3E432D04401BB141994204D202009A
:104930000B0020000021F0BD01D19042F7D3801A76
:10494000994101349942F2D3F6E70000000000D00B
:10495000FFFFFFFF48404140484018B41B4B5B68D5
:10496000FC46019308BD04DFC74C001018B4174B78
:104970001B68FC46019308BD00DFD14C0010944633
:10498000134A926F920809D2624618B40F4BDB6843
:10499000FC46019308BD0CDF894F00100C4AF0B5AE
:1049A000146E556E576F166F6246FFF7EEFF084A9A
:1049B0001466556657671667F0BD18B4034B9B68BD
:1049C000FC46019308BD08DF2D4E0010F82800209A
:1049D000000000D0FFB550404240504059404B408D
:1049E000594000E0FFB5154F4C00640D03D0BC42A8
:1049F00004D10C0314D80020090D09055C00640DD6
:104A000003D0BC4204D11C030AD800221B0D1B0595
:104A100001264B4009D44B4003D58B4200D1824242
:104A2000FFBD9942FCD19042FFBD0B43DB1803430D
:104A30001343F5D0C9434918FFBD0000FF0700002C
:104A400000B5FFF7CFFF01D0002000BD012000BD61
:104A500000B5FFF7C7FF804100BDC04600B5FFF7B6
:104A6000C1FF01D9002000BD012000BD00B5FFF746
:104A7000B1FF01D9002000BD012000BD00B5FFF746
:104A8000A9FF804100BD012040054A00121804D84A
:104A90005A00121801D8002070470120704700000A
:104AA0000021002805D17047C1174840401AFAD0AC
:104AB000C90713B5064B1B6898470CBC441CA240A1
:104AC0001005120B0349091B09051943114310BDB9
:104AD000D84500201F04000010B54C00620D802353
:104AE000D218DB00D21A5B057E2A10DD9E3A13DA5B
:104AF000CC170903490819435242D14064000134DC
:104B00001532202A05DAD0400843604310BD00204A
:104B100010BD0846604310BDC80FC018013810BD55
:104B200018B4044B5B6AFC46019308BD24DFE152D4
:104B300000100000F828002018B4044BDB6DFC4680
:104B4000019308BD5CDF915300100000F82800209D
:104B500018B4044B5B6EFC46019308BD64DF8953B7
:104B600000100000F8280020C94211D300B5490008
:104B70004908002200F024F8002904D40022404211
:104B80008A41114600BD80210906002000BD0000B9
:104B900018B4044BDB6EFC46019308BD6CDFEF528A
:104BA00000100000F828002018B4044B5B6FFC468E
:104BB000019308BD74DF095300100000F82800209D
:104BC00018B4044B9B6FFC46019308BD78DF0B5370
:104BD00000100000F828002018B4044B9B69FC4624
:104BE000019308BD18DF555100100000F82800207F
:104BF000132370B51D78012D19D014DD1F48FFF760
:104C0000CDFA06001E48FFF7C9FA1E4C802231007B
:104C1000200000F0B3FD022D2DD01B48FFF7B6FA9F
:104C20001A4B186070BD1A4B164CA364F5E7184B6D
:104C3000144C23606360A360E36023616361A3613C
:104C4000E36123626362A362E36223636363A3633A
:104C5000E36323646364A364E36423656365A3651A
:104C6000E36523666366A366E36623676367A367FA
:104C7000E367A364D1E7064BA364CEE75344000087
:104C800053460000F82800204C330000D84500208F
:104C9000954C001007B5604601880A0A0230DF2AE9
:104CA000FAD1C9B2820804D30288408800041043B4
:104CB00000E00068014A5050039007BDF82800202A
:104CC0000FB403BC0CBCF0B50124E407634000E062
:104CD000F0B50C0DCF0F661E3605891B640503D396
:104CE000C943404200D30131640D03D0661CF60A6B
:104CF00007D0E41B00207F00791C89078912803CC3
:104D000024031D0DDF0F6E1E36059B1B6D0503D39F
:104D1000DB43524200D301336D0D03D06E1CF60A03
:104D200007D0ED1B00227F007B1C9B079B12803D60
:104D30002D032F1B661B58D4A446202E46DA20379D
:104D40001400BC401D00BD40F24033412A4380188E
:104D50005941CB0F05D0C943C043002264425041A2
:104D6000514162464D0D28D10D0D07D100281FD0AD
:104D7000241940414941013A0D0DF9D0640006D390
:104D8000013000D30131002C01D140084000013A2C
:104D90000BD4941CE40A04D112051144DB07194416
:104DA000F0BDD907204B194300E0D9070020F0BD22
:104DB0000029DDD1002CDBD1F0BD0132C60740084F
:104DC000CD0728434908002EE1D0D9E73C2E29DA47
:104DD000203E40371400BC4000D00124F240144370
:104DE0001A00BB401C43D317ACE7AC46202F08DAAF
:104DF00020360400B4400D00B540F8403941284346
:104E0000A5E73C2F0CDA203F40360400B44000D028
:104E10000124F84004430800B1400C43C117EAE7FD
:104E200010001900002494E70000F07FF0B50C0D8D
:104E3000661E3605891BE60A6405640D02D0651CF2
:104E4000ED0A04D0002001210905803C2403A4467A
:104E50001C0D671E3F05DB1BE70A6405640D02D0CD
:104E6000651CED0A04D0002201231B05803C2403AD
:104E70007740644497B484B296B27443070C7E437F
:104E8000150C6F4380B26843361802D3012000042A
:104E90003F183004350C00197D41844688B29AB21F
:104EA00050430C0C62431F0C7C438EB27E4392191C
:104EB00002D301263604A4191604170C36186741CC
:104EC00001BC81B29AB25143040C62431B0C5C4397
:104ED00080B25843121802D3012000042418100491
:104EE000130C401863412D185E410020474106BC59
:104EF00088B293B258430C0C6343120C544389B2EA
:104F000051435B1802D301210904641819041A0CD7
:104F1000091862416D1856410020474118BCF9023A
:104F2000720D1143F0026A0D1043ED020A0D03D118
:104F30006D1940414941013B124E9B1B7600B34223
:104F40000ED26D0007D3013000267141664635430D
:104F500001D1400840001B05C918E4072144F0BDF9
:104F60000BDA013306D1013004D101314F0D01D0EC
:104F70004908F2E7E1070020F0BD013631050020C5
:104F8000EBE70000FF030000F0B51C0D671E3F05B6
:104F9000DB1BE70A6405640D02D0661CF60A04D028
:104FA000002201231B05803C2403D0252D0600266A
:104FB000F6432E661E096E66CE0FF619B4464900FA
:104FC0004F0D02D07E1CF60A03D000200021403F86
:104FD0003F033E1BB600B444013F7F05C91B49088F
:104FE0002E6F013676089C02950D25437543ED130F
:104FF0007543AD1301356D10F603761B0CB4CC026E
:10500000450D2C43A2B2B3B25A43270C7B43350C57
:105010006F43A4B26C431B1902D3012424043F192B
:105020001C041D0CA4187D4124196D41009A91B2F5
:10503000ACB26143170C7C432B0C5F4392B25A43D2
:10504000A41802D301221204BF182204230C521800
:105050007B41019C6C431B19520ED9010A43440148
:10506000A01A81B2B2B2514303145A43360C7343AF
:1050700087B27743D617D21900277E4136049B1991
:105080001704160C7F185E417316ED18F301002605
:1050900080337541A90F06D16400690AE8055B0AEF
:1050A000184309D22FE00422944480337541A90AA1
:1050B000A8059B0A184326D3404149412404009A7D
:1050C000019B0D005543641B4343E41A95B286B21D
:1050D0007543170C7E43030C5F4392B25A43B618D4
:1050E00002D301221204BF183204330C52197B413F
:1050F00052429C41002C02D4002201305141400810
:10510000CA071043490802B06246D7079210084BFD
:10511000D218084B9A4203D212058918C919F0BD5A
:105120000020002A01DC3900F0BD01331905F5E744
:10513000FD030000FE07000007DA002107E0C90FA9
:10514000C907520D03D0C91201E04C4909050020DE
:105150007047C0464A00F2D2520D013A484B9A427B
:10516000EAD2F0B51405091B520801D300184941D1
:105170009B08D2181205944640A44A0CA25C0B0965
:10518000534353431B1353435B131202D21A1300AE
:105190005B435B0B4C086343DB135343DB15013369
:1051A0005B10D21A130CD21A13005B438902840DD0
:1051B00021438DB29EB275430F0C7E431B0C5F439F
:1051C0008CB25C43361902D3012424043F19340401
:1051D000330C64197B419D01A40E2C432034A5B2ED
:1051E0005543241454432D0C6419A411D203121BEB
:1051F00095B28EB27543170C7E430C0C674393B285
:105200006343F61802D301231B04FF183304340C44
:105210005B197C41DB186441DB18002363419EB2BB
:1052200076439DB21F0C7D437F436C04ED0BA419A4
:105230007D4106028F08361BAF417D07F6086E419F
:10524000B4B295B26C4337147D43120C5743B6B2D7
:105250005643EA17AD19002672411204BF182E04F6
:105260002A0C36197A410832521117D29D0A9C0530
:10527000D117101969416144F0BD0000FF0700001B
:10528000FE070000F8EBDFD6CDC5BEB8B2ADA8A4CE
:10529000A09C9995928F8D8A8885838152415D0A61
:1052A000DC05D11714194D412B006343A6B2764398
:1052B000A2B2270C7A437F435104D20B89197A4159
:1052C000D218D21880054942904102D400230134FB
:1052D0005D4160086908ED0728436144F0BDC046A0
:1052E000002200B5203200F010F8080000BD0022B6
:1052F00000B500F00CF8CA179A4200D100BDD8439F
:105300000121C907414000BD00220B150AD410B588
:10531000944600F079F81414013400DA0021CB1718
:10532000144C20470020002170476244343A0CD4CA
:105330000C2A07DA04009140904052422032D440B7
:10534000214310BDD843D94310BD203207D40C46A9
:105350009440524220321141D040204310BD0800F9
:10536000C917203203D452422032104110BD180018
:10537000190010BD2B53001000210A00002104E089
:1053800000210A00C11704E00022002306E0C04605
:105390000022CB1758405940C01A994130B5184CDB
:1053A000A21A002903D1010010D00020203A4C1588
:1053B00012D104D2013A001849414C0DFAD3114CD4
:1053C000A24204D212058918DB07C91830BDD243A6
:1053D000520D00200021F5E703D4013A001849419D
:1053E000FBD50B324405C00A4D052843C90A6400A9
:1053F00003D0002460416141E1E7E0D34408F8E7CD
:1054000032040000FE0700000A0DCC0F531E1B05DE
:10541000C91A520503D3C943404200D30131520D8A
:1054200003D0531CDB0A07D0121B00206400611C50
:1054300089078912803A1203014BD21A7047000083
:10544000FF03000051434343C9188C46110C83B23B
:105450004B4310B4040C614392B280B25043624398
:105460001C041B0C001910BC59411304120CC01869
:1054700051416144704700004840414048400E4B54
:105480005B6818470C4B1B6818470C4A936F9B08C6
:1054900002D2094BDB681847F0B5146E556E576F92
:1054A000166FFFF7F6FF054A1466556657671667CD
:1054B000F0BD014B9B681847F8290020000000D080
:1054C00007B548404140484001E0C04607B54200AA
:1054D000120E03D0FF2A03D1420218D8C00DC00516
:1054E0004A00120E03D0FF2A03D14A020FD8C90D79
:1054F000C9050122414005D4414001D5814207BD83
:10550000884207BD0143491801D0C043001807BDB8
:1055100000B5FFF7D5FF804100BD491A002807D12B
:1055200008467047C10FC90700D54042002817D070
:10553000F44603B40B4B1B68984706BC81409E3869
:105540004042803107D20B0607D04900490AC00506
:105550001043084360470130F8E7490A8902F5E73C
:1055600070470000D845002041000A0E80231B062A
:105570007E2A0BDD9E3A0BDAC11740024008184321
:105580005242D040490001314843704700207047E3
:10559000C00FC01801387047C0420DD300B540009D
:1055A0004008002100F012F8002801D4404200BD5C
:1055B0008020000600BD0000034BDB69FC46184755
:1055C0001CDF7D5600100000F8290020014B5B6AAB
:1055D00018470000F8290020034BDB6FFC461847F2
:1055E0007CDF955600100000F8290020132310B529
:1055F00012481C78FEF7D2FD0100012C0AD003DD11
:1056000080220F4800F0BAF80E48FEF7BFFD0E4B9F
:10561000186010BD0A4C5422200000F0AFF80B4B6C
:105620006365A365E36523666366A366E366236734
:105630006367A367E3672362E361E5E7534600001E
:10564000F82900204C330000D845002051560010A6
:1056500007B5604601880A0A0230DF2AFAD1C9B2CA
:10566000820804D3028840880004104300E00068E8
:10567000014A5050039007BDF82900200021C215AF
:105680008032803201D0024A10470020704700006B
:10569000CD2A0000C30FDB0741000A0E07D0FF2A06
:1056A00008D00909054A89181943400770471900AD
:1056B000002070470249C918FAE7000000000038CE
:1056C0000000F07F70B504000A4E300010F0E4F9DD
:1056D00020000DF0EDFE0500300010F045F9002D22
:1056E00005D0054B2C199C4201D8280070BD0348F9
:1056F000FDF7D0FA2827002000000420A45F011045
:1057000070B505000C000B4E300010F0C5F92800F4
:1057100021000EF065FA0500300010F025F9002D8B
:1057200005D0054B2C199C4201D8280070BD0348B8
:10573000FDF7B0FA2827002000000420A45F011024
:1057400070B50400054D280010F0A6F920000DF0FA
:10575000B9FE280010F008F970BDC04628270020C7
:1057600001480421014B184760210020AD41001081
:10577000014B1B681847000060210020014B5B684B
:10578000184700006021002010B5FFF79BFF10BDF7
:1057900010B5FFF7D5FF10BD10B5FFF7D1FF10BD55
:1057A0009A4200D2885470477047C046F8B55746B1
:1057B000DE464E464546E0B599460A9B07009A46A6
:1057C0000D9B884693460B9C9B073BD10C9B9C42B0
:1057D0003DD21E1B0B9415000C005E442A004B4664
:1057E000013521002020B847B542F7D1A0460B9CD7
:1057F000002C20D0454636195346321B013C185D1B
:1058000029004B46B847002CF6D12B0035009846AE
:105810000D9B9B070FD55B46EC1A0C9BA3420AD944
:10582000464698462A004B46310020200134B847AE
:1058300001354445F6D32800F0BCBB46B246A94624
:10584000A046F8BD16001500002CD3D1E0E71600E5
:105850001500002CCED1EEE7F0B54546DE465746A2
:105860004E46E0B585B09C4610AB1B78149F93461E
:1058700098460F9C129E139DBB074CD4002D42D11D
:10588000B44248D201233B4099460E9B013B9A46C5
:10589000302304E0524601341355A64201D9202C8E
:1058A000F8D14B46002B00D183E00E9B013B99467B
:1058B0003023A54205D82EE04A4601341355AC42A8
:1058C00029D0202CF8D1FB060CD57B0554D4A64258
:1058D00063D0A54261D0119B102B50D0022B57D022
:1058E000202C32D1202301930E9B5A46009303971C
:1058F00063460295FFF75AFF05B0F0BCBB46B246BF
:10590000A946A046F0BD01233B40994601233B42F6
:105910002AD1B442B9D3FB061CD57B05DBD4002CBD
:10592000D5D1119B102B5BD0119B022B6BD0302358
:1059300001240E9A13704346002B10D17B073ED5ED
:105940002B260E9A631C1655CDE723000134302612
:105950000E9AD654202CC5D04346002BEED02D26CF
:105960000E9A631C1655BEE74346002B2FD0013D0F
:10597000B44200D289E798E7119B102BB2D1BB0645
:1059800037D5202CAED058230E9A13550134A7E7F3
:10599000202CA7D02300013407E0631E012CC0D0C7
:1059A000119A102A31D0022AD1D162260E9AD654E9
:1059B00096E7FB06CED57B0500D488E78BE723006E
:1059C0003E0790D520260E9A013316558BE70C23FF
:1059D0003B405A1E9341ED1AB44200D255E764E7AA
:1059E000BB060ED478230E9A022413703023537012
:1059F000A1E7202C00D175E778230E9A13550134C6
:105A00006EE75823EFE76033EDE70E9AA61E914646
:105A10004E44BA0602D55822327098E77822327086
:105A200095E7C04610B5002800D110BD01F04EFD2D
:105A3000FBE7C0460B0010B5002802D049681B6880
:105A4000984710BDF0B55746DE464E464546E0B590
:105A500095B083460F00924698461E9A1F9B1000F1
:105A60001900209EFFF70FF8002800D0EAE11E98E9
:105A70001F990122C54B5242FEF7EAFF002800D0D1
:105A800014E11E981F990122C14B5242FEF7F6FF06
:105A9000002800D0E9E01E981F990022BD4BFEF7B8
:105AA000EDFF002800D0C8E01E981F990022BA4BD5
:105AB000FEF7CEFF002800D0BFE01E981F990022FD
:105AC0000023FEF7C5FF002800D0E4E000230B937D
:105AD000229B5B0500D406260024302307E0172113
