:020000041000EA
:1000000000B5324B212058609868022188439860DF
:10001000D860186158612E4B002199600221596106
:100020000121F02299502B49196001219960352056
:1000300000F044F80222904214D00621196600F024
:1000400034F8196E01211966002018661A6600F04E
:100050002CF8196E196E196E052000F02FF8012189
:100060000842F9D1002199601B49196000215960AB
:100070001A491B48016001219960EB211966A021F2
:10008000196600F012F800219960164914480160C1
:100090000121996001BC002800D000471248134993
:1000A000086003C880F30888084703B5996A0420EC
:1000B0000142FBD001200142F8D103BD02B5186610
:1000C0001866FFF7F2FF186E186E02BD00000240BE
:1000D000000000180000070000035F00212200005C
:1000E000F4000018222000A00001001008ED00E03C
:1000F00000000000000000000000000074B24E7A12
:1001000000200420F7010010CB010010CD010010E9
:10011000C9010010C9010010C9010010C901001077
:10012000C9010010C9010010C9010010CF01001061
:10013000C9010010C9010010D1010010D301001045
:10014000C1010010C1010010C1010010C101001067
:10015000C1010010C1010010C1010010C101001057
:10016000C1010010C1010010C1010010C101001047
:10017000C1010010C1010010C1010010C101001037
:10018000C1010010C1010010C1010010C101001027
:10019000C1010010C1010010C1010010C101001017
:1001A000C1010010C1010010C1010010C101001007
:1001B000C1010010C1010010C1010010C1010010F7
:1001C000EFF30580103800BE00BE00BE00BE00BECA
:1001D00000BE00BEF2EB8871145E0110305E0110AB
:1001E0003802001090A31AE71E481F49086006C88D
:1001F00081F3088810471D480068002801D019487D
:10020000F3E70DA40ECC002902D000F012F8F9E7B4
:100210001749184A002000E001C19142FCD116495B
:100220008847164988471649884700BEFDE701C937
:1002300001C29A42FBD37047305E0110C00000201B
:10024000701A0020E0770110000004200000042054
:10025000E0770110001004200010042000000000CE
:10026000704700000000000008ED00E0000000D032
:10027000701A0020B82F00202D6C0010D50500103A
:10028000256C0010F8B5C04606480749091A8B10BE
:10029000C90FC91810B5491003D0044B002B00D06A
:1002A000984710BD701A0020701A0020000000004E
:1002B000054B10B5002B03D00449054800E000BFF2
:1002C000FFF7E2FF10BDC04600000000F82E00203E
:1002D0004C2C0110002370B582B06A466F21304863
:1002E0000093019300F018FB6F2101AA06002D482E
:1002F00000F012FB2C4C0500200001F0EDFE002266
:1003000000212000294B01F049FF002E2BD0009B3B
:100310001A0119D45B012DD5012200212000244BA4
:1003200001F03CFF002D17D0019B1A0130D45B0176
:1003300027D50222002120001E4B01F02FFF1E486E
:1003400003F02EF902B070BD0122002120001B4BEA
:1003500001F024FF002DE7D1022200212000184BDC
:1003600001F01CFFEBE7012200212000154B01F0FA
:1003700015FFD7E7012200212000134B01F00EFFEB
:10038000D0E7022200212000104B01F007FFD6E742
:100390000222002120000E4B01F000FFCFE7C046F3
:1003A0004C2F00203C2F0020B8220020502C0110A0
:1003B0007C2C0110B42C0110B80B00006C2C011027
:1003C000942C01105C2C01108C2C0110C42C0110F9
:1003D000A42C011010B5124801F058FC114800F08F
:1003E000D7FD1149114806F0C1FE0321002002F09B
:1003F000A5FC0321012002F0A1FC00220121002024
:1004000002F0B6FC00220121012002F0B1FC084CF0
:10041000200001F06FFE0121200001F017FE10BD49
:10042000C4220020302F0020801A0600E014002093
:10043000B8220020F0B5CE46474680B5294C85B09D
:1004400020000122002101F0CDFC01220121200029
:1004500001F0C8FC642003F0A3F8234C234F2000D4
:1004600001F03AFE200000220021214B01F096FE0F
:10047000204B214D1A1C391C2800994600F078FCAD
:100480001E4B1F4E9846191C4A46300000F070FC67
:1004900041461022300000F015FD032200201949CA
:1004A000194B00900191029220000021023A01F0C4
:1004B000C1FE391C1022280000F004FD4C2200204F
:1004C0001249134B009001910292002120004A3AF8
:1004D00001F0B0FE0F4803F063F805B0C0BCB946A8
:1004E000B046F0BDC4220020B822002000002F45F5
:1004F000CC2C0110AE47E13D3C2F002000007A4398
:100500004C2F002000406F40DC2C011000E0A54083
:10051000EC2C0110B80B0000FA2370B59B008CB0D6
:100520000393204B204A0493204B06920593099392
:100530001F4B204A0A930223079203AC1E4A210054
:100540001E4808920B9301F0D5FE1D4D280001F0C6
:10055000C3FD2800002200211A4B01F01FFE039A60
:100560002800009200210122174B01F063FE0B9A34
:100570002800164B00920021022201F05BFE049835
:1005800004F078FD124E0090019133000322002107
:10059000280001F04FFEFA20C00003F001F80CB073
:1005A00070BDC04600009643000048426F12833D74
:1005B0000D0300000000A041000040405C2F00201F
:1005C000B8220020FC2C01100C2D0110182D011058
:1005D000242D011070B5642002F0E2FFFFF7FAFE4F
:1005E0003C4D280001F078FD0022002128003A4B04
:1005F00001F0D4FD01220021384B280001F0CEFD8E
:10060000FA20800002F0CCFF02220021344B2800A7
:1006100001F0C4FDFFF70EFFFA20800002F0C0FFDA
:100620000021280003222F4B01F0B8FD64212E4841
:1006300001F0E0FC00280FD1280001F04DFD002260
:1006400028001100294B01F0A9FD012200212800FA
:10065000274B01F0A3FDFEE7FA20C00002F0A0FF47
:10066000FFF738FE234C200001F02CFEFA2040005A
:1006700002F096FFFFF750FF280001F02DFD002249
:10068000280011001C4B01F089FD012200212800E7
:100690001A4B01F083FD1A4802F082FF200001F09E
:1006A00045FE00280CD1200002F09AFA0A2002F040
:1006B00077FF200002F094FA0A2002F071FFF2E7BF
:1006C000280001F009FD0022280011000D4B01F067
:1006D00065FDE8E7B8220020302D0110442D0110FF
:1006E000542D0110602D0110F01B0020702D011001
:1006F000782D01105C2F00208C2D01109C2D0110F5
:10070000B80B0000B02D011070B5144D82B0280058
:1007100001F09AFA124E300000F034FC0022082159
:10072000104800F02BF8002209210F4800F026F8AD
:1007300004230E4C00932722103320000C4901F0B3
:1007400079FC320029000B4801F044FC2300320000
:100750002900094801F086FD02B070BDC4220020C6
:10076000302F00203C2F00204C2F0020B8220020EA
:10077000E0140020F01B00205C2F002070B5002347
:10078000040001250800236025736160A160627385
:1007900002F002FB636820009D40D0231B065D62CF
:1007A0005D6170BDF0B54646D6464F46C0B582B0D5
:1007B0006C460023E37105332370437B80466370EE
:1007C00080235B420B43A370130EE370130C237161
:1007D000130A637107236B44A2716D469C466946F8
:1007E000002207200B7856005A4052B2F6B2002A77
:1007F00001DA4640F6B25A0077007240FFB21206A4
:1008000001D54740FFB29A007E007A40F6B2120648
:1008100001D54640F6B2DA0077007240FFB2120608
:1008200001D54740FFB21A017E007A40F6B21206A7
:1008300001D54640F6B25A0177007240FFB2120667
:1008400001D54740FFB29A017E007A40F6B2120607
:1008500001D54640F6B2DB0172007340D2B21B06EE
:1008600001D54240D2B201318C45BBD14346E27141
:100870001B7B002B38D043465A680123D026934077
:100880003606736205239A46043B9946FF234F467A
:1008900013409F4008200021B76102F00BFE0024A6
:1008A00007E0082000217761013402F003FE082CE4
:1008B0000CD053464A4623411A42F2D10820002167
:1008C000B761013402F0F6FD082CF2D108200021B6
:1008D000776102F0EFFD434601355A6802ABAB4247
:1008E00014D02B789A46D1E7434620211A689369A1
:1008F0001942FCD12B780135136002AB9D42F6D131
:1009000002B0E0BCBA46B146A846F0BD0123934010
:100910007361B362F4E7C046F0B54546DE4657461C
:100920004E46E0B58DB003000490052009AD287057
:1009300005925A7B1B2353405BB2DB43DB1703401A
:10094000313350005C0043406A70A9701B0601D52A
:1009500007235C40930060005C40C0B2240601D5D0
:1009600007235840D40043006040DBB2000601D5A5
:1009700007204340140158006340C0B21B0601D554
:1009800007235840540143006040DBB2000601D504
:100990000720434090015C004340E4B21B0601D5B0
:1009A00007235C40D20160005440C0B2240601D548
:1009B0000723584043004840DBB2000601D5072218
:1009C000534048005A004340D2B21B0601D50723CA
:1009D0005A40880053004240DBB2120601D507227C
:1009E0005340C8005A004340D2B21B0601D507232A
:1009F0005A40080153004240DBB2120601D50722DB
:100A0000534048015A004340D2B21B0601D5072388
:100A10005A40880153004240DBB2120601D507223A
:100A20005340C9015A004B40D2B21B0601D50723DF
:100A30005A400499EA700C7B002C3FD001224B688D
:100A4000D0269A40360672620AAA01920522A8466A
:100A5000934601251A00A2468946FF232C00134025
:100A60009C4008200021B46102F024FD002707E02B
:100A7000082000217461013702F01CFD082F0BD003
:100A80005B463B411D42F3D108200021B461013790
:100A900002F010FD082FF3D108200021746102F04C
:100AA00009FD4B465A6801239C46019BE04443459F
:100AB00000D181E043461B789B46CEE70A6820219F
:100AC0000AAB019393691942FCD12B78013513606D
:100AD000019BAB42F6D1FA200021C00002F0EAFCF3
:100AE000049DA149286802F051FF00285CD0019EB6
:100AF0002A681021350093691942FCD113683370BC
:100B000001360CABB342F6D1019B00220733072616
:100B10001F0084462B7851005A4052B2C9B2002AB5
:100B200001DA7140C9B258004A004140D2B2090608
:100B300001D57240D2B2980051004240C9B21206AB
:100B400001D57140C9B2D8004A004140D2B209066D
:100B500001D57240D2B2180151004240C9B212060A
:100B600001D57140C9B258014A004140D2B20906CC
:100B700001D57240D2B2980151004240C9B212066A
:100B800001D57140C9B2DB014A005940D2B2090611
:100B900001D57240D2B20135AF42BBD1019B604654
:100BA000DB79934200D1C4E020000DB0F0BCBB461D
:100BB000B246A946A046F0BD13000122FA209A4091
:100BC00000217261C000B26202F074FC02F090FE7B
:100BD0000023654A54468018594102900391002928
:100BE00000DA8EE0019BD0261A009946FF239A4630
:100BF000FE3B9B46049B360698460692079402F0FD
:100C000077FE029A039B121A8B41002B00DCA3E0B3
:100C1000434652465F465B6813409F4073681F42DD
:100C2000FCD10C20002102F045FC00240025736853
:100C300008203B405A1E9341AB4000211C43013524
:100C400002F038FCE4B2082DF1D10820002102F0B6
:100C500031FC4B461C7001239C460CABE1444B45D8
:100C6000CDD100210720019B069A079CDD1D13783A
:100C70004E00594049B2F6B2002901DA4640F6B2B8
:100C80005F0071007E40C9B2360601D54140C9B24D
:100C90009F004E007940F6B2090601D54640F6B2F3
:100CA000DF0071007E40C9B2360601D54140C9B2AD
:100CB0001F014E007940F6B2090601D54640F6B252
:100CC0005F0171007E40C9B2360601D54140C9B20C
:100CD0009F014E007940F6B2090601D54640F6B2B2
:100CE000DB0171005E40C9B2360601D54140C9B290
:100CF0000132AA42BBD1019BDB798B4207D0002491
:100D000052E70122194B5242029203936AE708AB61
:100D10009C460B2161444B780A781B0213438A7866
:100D200012041A43CB781B061343059A1BBA1360AF
:100D30003AE708AB9C460B2161444B780A781B02CA
:100D400013438A78040012041A43CB781B0613431A
:100D5000059A1BBA136027E7002BD0D1002A00D0D8
:100D600056E7002420E7C04610270000FFFFFF7F62
:100D700070B5050082B0081C4949141C04F0D3F872
:100D8000484904F0E4F8211C04F0E1F84649061C47
:100D900004F0C9F8FE21890504F0BFF84349041C9A
:100DA00004F004F9002827D04149301C04F0BBF8B6
:100DB000FE21890504F0B1F8FC21890504F0B0F8A2
:100DC00004F020F904001F2868DCC343DB171C4033
:100DD000200004F0F5F8374904F0B9F804F012F9EE
:100DE00006001F2851DC6C21280001AAFFF794FDA2
:100DF000002846D1304A22E0FC21201C890504F05D
:100E00008FF804F0FFF804001F2838DCC343DB1719
:100E10001C40200004F0D4F8264904F098F804F0AF
:100E2000F1F806001F2821DC6C21280001AAFFF739
:100E300073FD002818D08022019B92021A436C2176
:100E40002800FFF7AFFC0A2002F0AAFB1F20A02217
:100E50003040240220431203024310212800FFF7F0
:100E6000A1FC012002B070BD144AE8E76C21280003
:100E700001AA1F26FFF750FD0028F5D0DBE71F244D
:100E8000C7E7019A0E4B1A40D9E76C21280001AA46
:100E90001F26FFF741FD0028F3D1ABE71F2497E79A
:100EA00000007A44F30435426666A63E0000F8412D
:100EB000EC51383E9A99993E5300001053000210AD
:100EC000FFFFFDFF70B5050014000E1C002200217D
:100ED000FFF768FC0A2002F063FB28001E4A311C61
:100EE000FFF746FF202C1DD8002C05D0202C03D85E
:100EF0001A4BA4001B599F46194A28006C21FFF782
:100F000051FC280004220021FFF74CFC2800142289
:100F10001121FFF747FC28007021124AFFF742FC1D
:100F2000012070BD402C0BD02200803A531E9A4104
:100F3000C02352429B041A400B4B9C466244DCE7A0
:100F40000A4ADAE70A4AD8E70A4AD6E70A4AD4E759
:100F50000A4AD2E70A4AD0E7AE47E13D9041011084
:100F60005300001424000DC153000011530000125F
:100F700053000018530000165300001753000013CD
:100F80005300001500230360436083607047C04630
:100F900070B505000420D02401F0FEFE10232406C5
:100FA000A36200220121042001F0E2FE032001F0EF
:100FB000F3FE08230022A3620121032001F0D8FEE2
:100FC000192001F0E9FE80239B04A3620022012185
:100FD000192001F0CDFE6368DB06DB0F2B7263681E
:100FE0001B07DB0F6B7263689B01DB0FAB7270BD7D
:100FF000F0B5D02424066368457ADB06DE0F63680B
:10100000AC461B07DF0F63688024A4042340057AE5
:101010009C01E40FB5421DD0B74212D001680139DE
:101020000160674502D0026801320260002B04D0E3
:10103000837A002B01D10133C37206724772847226
:10104000F0BD0168013101606745EFD00268013AE7
:101050000260EBE76745E9D0AF42E4D1F6E7C0466E
:10106000006870470023036043607047030000225C
:10107000C07ADA727047C046F8B54746CE4680B5AA
:101080001F00002304000D0016000360436083600E
:10109000002908D0002200233000390003F02CFA88
:1010A0008046002804D02000C0BCB946B046F8BD38
:1010B0000C2004F0B7F8814632003B0000200849BC
:1010C00003F0ABF903F07AFA4B4642465A604A46BF
:1010D00018609D600C3322606360A360E3E7C04644
:1010E00080842E41F0B557464546DE464E46E0B573
:1010F00099B00892099300230360436083608023C2
:1011000080468A465B05994200D302E3002900D05D
:101110009CE224982599CC4ACC4B03F0E7F90028AF
:1011200000D05AE2249B259C06930794229A239B85
:101130001000190003F08FF9089C099D0E900F9183
:1011400022002B002000290003F085F9069C079D52
:1011500006000F0022002B0020002900149615978E
:1011600003F052F904000D000E980F9932003B0075
:101170001294139503F03FF922002B0003F04DF970
:101180000022002304000D0003F0C6F9002801D15D
:101190000024002550460494059503F0CFF9220061
:1011A0002B0006000F0003F026F9129A139B04008F
:1011B0000D000E980F9903F030F902000B0020008B
:1011C000290003F018F90022002304000D0003F0A9
:1011D0008DF9002800D04CE2049E059F20003B00C2
:1011E0003200290003F010F9534602900391002BBE
:1011F00000D171E1964A974B3000390003F004F9B1
:1012000000230A900B9108980999002203F066F9CF
:101210000123994600285BD0BBE032003B00200050
:10122000290003F0E8F8129A139B03F014F9020066
:101230000B000E980F9903F0DEF803F01BFA089AE2
:10124000099B06000F002298239903F0D4F8069A10
:10125000079B03F0E2F8049A059B04000D00029836
:10126000039903F0C8F8229A239B03F0D6F80200F2
:101270000B002000290003F0C7F8320004000D0025
:101280003B002298239903F0B6F8069A079B03F0D7
:10129000C4F802000B002000290003F0B5F86E4BE3
:1012A000002203F0D8F803F0CDF943465C689B6850
:1012B000009001919C4200D116E1009A019B0CC460
:1012C00043465C604B460133CA4500D104E1994670
:1012D000484603F033F904000D0002000B000A98A1
:1012E0000B9903F011F9002800D0B7E0029E039F8C
:1012F000574A584B3000390003F086F822002B0083
:1013000003F002F9002800D187E7049A059B20002A
:10131000290003F070F8229A239B03F07EF8089AC4
:10132000099B04000D00ACE70498059902000B002E
:1013300003F06AF8069A079B03F06FF803F09AF936
:10134000049A059B04000D003000390003F053F8A7
:10135000229A239B03F061F822002B0003F054F83B
:101360003D4B002203F077F803F06CF943465C68CC
:101370009B680C900D919C4200D138E10C9A0D9B1A
:101380000CC443465C604B460133CA4500D1A3E020
:101390009946484603F0D2F80A9A0B9B06000F00C4
:1013A00003F0AAF8002800D0DBE002980399284A4D
:1013B000284B03F029F832003B0003F0A5F8002881
:1013C000B2D10498059902000B0003F01DF8069AAB
:1013D000079B03F022F803F04DF9029A039B0400E7
:1013E0000D003000390003F006F8129A139B03F049
:1013F00032F802000B000E980F9902F0FCFF03F088
:1014000039F9049A059B06000F000298039902F02F
:10141000F2FF229A239B03F000F822002B0002F037
:10142000F3FF320004000D00229823993B0002F0E4
:10143000E2FF069A079B02F0F0FF02000B0020007B
:10144000290002F0E1FF8BE795D626E80B2E113E2E
:1014500011EA2D819997713D80842E4100220698D2
:101460000799AF4B02F0F7FF0022AE4B06000F00CA
:1014700002F0F1FF8022120694462B006344109480
:101480001193109A119B02F0E6FF02000B001498D2
:10149000159902F0B0FF0022002304000D0003F0B4
:1014A0003BF8002801D1002400252000290003F08A
:1014B000E1F8089A099B02F09EFF320004000D003B
:1014C0003B003000390002F09FFF02000B002000BB
:1014D000290002F0A2FFE2E6404619B0F0BCBB468C
:1014E000B246A946A046F0BD43461F688E4AE41B9B
:1014F000E310934200D10FE10126002B03D05E00E0
:10150000B34200D9A0E080235B059E426DD2F60075
:10151000300003F087FE0099019A031919605A60A0
:10152000230008339B4605008344002C08DC002F71
:101530000AD143465A461D60AD195A609D60C1E606
:101540002200390003F068FE434699683800C91B41
:1015500003F070FE43465A461D60AD195A609D6007
:10156000B0E60022069807996D4B02F074FF002246
:101570006C4B0090019102F06EFF8022120694469F
:101580003B00634416961793169A179B02F063FF6D
:1015900002000B001498159902F02DFF0022002381
:1015A00004000D0002F0B8FF00281BD02000290025
:1015B00003F060F8089A099B02F01DFF04000D007B
:1015C0000098019902000B0002F01EFF02000B00C0
:1015D0002000290002F021FFC2E6544B544C069330
:1015E0000794A3E500240025E0E74F4E8FE743462C
:1015F0001F684D4AE41BE310934200D18CE00126A2
:10160000002B1CD180235B059E4261D2F600300086
:1016100003F008FE0C990D9A031919605A60230013
:1016200008339B4605008344002C60DC002F69D101
:1016300043465A461D60AD195A609D60A3E65E00A0
:10164000B342DFD93B4EE2E73A4E61E7CE003000CD
:1016500003F0E8FD43461D685A680400521B002A47
:1016600038DC002D52D143461C605C60A4199C609C
:101670004FE53200129813993B0002F0ECFE149AE9
:10168000159B02F0C1FE0022254B02F0E4FE002271
:10169000002304000D0002F03FFF002824D02000AA
:1016A000290002F0E7FF02000B002290239102F0D4
:1016B000D2FE149A159B0E900F9102F09CFE129A86
:1016C000139B02F0AAFE002400250490059183E5F7
:1016D000154E9BE7290003F09FFD43469968491B7F
:1016E000280003F0A7FDBEE700240025D7E7390056
:1016F000220003F091FD43469968C91B380003F0AE
:1017000099FD95E743469968C91BF7E79968491B16
:10171000E6E7094805F074FD084805F071FDC0468C
:101720000000E03F00001040FFFFFF0F95D626E8C5
:101730000B2E113EF8FFFF7FBC2D0110CC2D0110A8
:10174000F0B5DE4657464E464546E0B595B0119396
:101750008A4200D84DE1531A99460268002900D008
:101760004FE1002300240E930F9412931393002350
:101770009246002498460023C9008A44D3460A931F
:101780000B9408930994069307940293039404938B
:10179000059401239C46E044404602F0CFFE04003D
:1017A0000D0000229C4B02F026FE22002B0002F0CE
:1017B00052FE0022994B02F04EFE5B4606000F00DF
:1017C00003CB9B460E9A0F9B801A994102F002FFB1
:1017D0002200009001912B002000290002F03BFE26
:1017E00002000B000498059902F00EFE32000490EE
:1017F00005913B002000290002F02DFE02000B00A5
:101800000298039902F000FE3200029003913B001F
:101810003000390002F01FFE02000B000698079905
:1018200002F0F2FD009A019B06900791200029002A
:1018300002F011FE02000B000898099902F0E4FD85
:10184000009A019B089009913000390002F003FED4
:1018500002000B000A980B9902F0D6FD0A900B913A
:10186000C84596D1069A079B0498059902F0F3FDA6
:10187000029E039F040032003B000D00300039003F
:1018800002F0E9FD02000B002000290002F0B3FD88
:101890004B000F00624A5908624B060002F026FE18
:1018A000002800D0A5E0089A099B0698079902F045
:1018B000D2FD0A9A0B9B04000D000298039902F0D6
:1018C000CAFD02000B002000290002F094FD320046
:1018D0003B0002F0A2FD029C039D069007912000B0
:1018E00080242406A4462B0063441900089A099B0F
:1018F00002F0B1FD0A9A0B9B04000D0004980599B3
:1019000002F0A9FD02000B002000290002F07CFD7E
:101910003B00320002F081FD04900591129813996A
:1019200002F064FE002300260027984608900991E3
:1019300001239C46E044404602F000FE534604006A
:101940000D001868596802F051FE002200900191C4
:10195000314B2000290002F04EFD22002B0002F046
:101960007AFD049A059B02F076FD00222B4B02F0D3
:1019700072FD22002B00029003910698079902F055
:101980006AFD089A099B02F03FFD02000B000298D5
:10199000039902F039FD02000B000098019902F052
:1019A0002AFD4B005B080C900D930C9C0D9D3200A2
:1019B0003B002000290002F0AFFD002801D13400D7
:1019C0003D0008239C4626002F00E244C845AFD1C5
:1019D0000698079911F078F8119B186004980599FA
:1019E00011F072F81E9B18601F9B01201C605D6047
:1019F00000E0002015B0F0BCBB46B246A946A046A8
:101A0000F0BD4B1EDB00D31818685B68129013936F
:101A10000E900F93ABE6C0460000F03F0000E03FA1
:101A200011EA2D819997713DF8B54746CE46466833
:101A300080B507680D00F61BB21093009B181901C2
:101A40005B1819025B1819045B185B009B181F4A8E
:101A50000400934237D00120002B1ED11B4B98422B
:101A600021D843001B189B009946484603F0DAFB37
:101A70008319804607CD07C335000C354544002E39
:101A800013DC002F1CD14046434648446560236068
:101A9000A060C0BCB946B046F8BD58008342DDD94D
:101AA0000B4B9946E1E71800DBE73900320040466E
:101AB00003F0B2FBA168C91B380003F0BBFBE2E7EF
:101AC000A168C91BF8E7034805F09AFBAAAAAA0A6D
:101AD000F8FFFF7FCC2D0110F0B54546DE46574696
:101AE0004E46E0B50500002097B028606860A86009
:101AF000002907D1280017B0F0BCBB46B246A94662
:101B0000A046F0BD0CAC229E239F200002960397B6
:101B1000209E219F00960197FFF7E4FA0C9B9946BF
:101B200063684A469B469B1ADB100593CB4561D000
:101B300000232E00984643465D1CFA239B00434435
:101B40009A46059B9A4500D99A46049555452CD846
:101B500053460695AA461F0007960CE0249A259B3B
:101B60000A980B9902F0C8FC002817D06B1C9A4603
:101B70000495BA4517D85346DE194B4623605B4699
:101B800063600AAB7508019309AB00932A004146D4
:101B9000200008ABFFF7D4FD0028DFD1012E02D9C9
:101BA0006F1EBA45E7D9069D079E4B4623605B46EC
:101BB00063600AAB049A019309AB0093414608ABFA
:101BC00020009246FFF7BCFD7368B26800281BD066
:101BD00051464046089F099D081A9A422CD01F6022
:101BE0005D6098600C337360049B9846059B984534
:101BF000A1D335004B46002B00D17BE7A1684846B6
:101C0000C91A03F017FB75E79A4209D0FA2292002D
:101C10001A60012258609A600C33A8467360E5E7A9
:101C2000FA239B001393012313A9486030008B60B3
:101C3000A846FFF7F9FED9E710A988603000109791
:101C40004D60FFF7F1FECFE7C02310B504001B0184
:101C500004220021C01803F0D9FA0A4B0422E0182C
:101C6000002103F0D3FAC2231B01E0180222002155
:101C700003F0CCFA044B08220021E01803F0C6FA66
:101C8000200010BD040C00002C0C000010B50B202F
:101C900001F082F8D024802324061B0163620A200D
:101CA000A36101F079F88023DB0063620C20A3615B
:101CB00001F072F880235B0163620620A36101F0EA
:101CC0006BF8402305206362A36101F065F82023CF
:101CD00007206362A36101F05FF880236362A36160
:101CE00010BDC046F0B5D6464F4646460300C0B5C7
:101CF000002001291DD8C0244D005E192401A246F0
:101D0000345BA7B2BC460D4F0134F75BB8467F2762
:101D10003C4044450DD0604640006D1860446D0263
:101D20008000401918182ACA2AC053460120A4B2BC
:101D3000F452E0BCBA46B146A846F0BD040C00001F
:101D40000300002001290AD8C02249005B181201B3
:101D5000985A034A9B5AC01A431E9841C0B2704712
:101D6000040C00000300002001290BD8490058187A
:101D7000C023064A1B01C15A825A8BB290B2181A6C
:101D8000914200D370478030FCE7C046040C00004D
:101D900010B501290ED8C0224B00C31812019A5A5F
:101DA000054C92B21A53C2231B019C4600234018D3
:101DB0006044037010BDC046040C00004B1E9941E6
:101DC000074B494219408023DB009C46D0236144E5
:101DD0001B06002A01D0596170479961FCE7C04693
:101DE00020FCFFFF4B1E9941074B494219408023BD
:101DF0005B019C46D02361441B06002A01D09961F7
:101E000070475961FCE7C04680F0FFFF03000020E7
:101E1000012905D85818C2231B019C46604400784C
:101E20007047C046F8B5DE4657464E464546E0B5D3
:101E3000012937D8C2231B0199464418A1444B46B7
:101E40001B78002B34D1C0224B00C4181201A75AB2
:101E5000494A9246A25A974224D05246A25A9446E0
:101E60005A18464B9700984663465B0063445202FB
:101E70009B009B18C7194744C31864CB64C75346DB
:101E8000E25A7F23013213405246A35201234A46AD
:101E90001370C22292009446394B61449B6A8900B8
:101EA00041184B60F0BCBB46B246A946A046F8BDFF
:101EB000334B80469B6A8F009A4652464B005B1814
:101EC0009B0098442F4B2D4DC7199946FB5845440C
:101ED000D31A2A689A42E5DC4B1E99412A4B4E429E
:101EE0001E4080231B019C46D0231B069B46664454
:101EF00000215E61022001F005FD5B4652469E61B5
:101F00004B46FA50214ABB580133BB501C3A42445D
:101F10001168002912D11E49002341440E682A6825
:101F20003000F11712184B41002B18DD2A60C22334
:101F30001B019C46002364442370B3E7144B013912
:101F4000434418680027116002002E68C317B618B2
:101F50005F41002F09DD2E600029A3D1E7E7002BA8
:101F600001D1002AE2D10122E0E7002F01D1002EA9
:101F7000F1D10126EFE7C046040C0000080C000078
:101F800000400540240C000040F8FFFF2C0C00002E
:101F90000C0C00000E4B10B51C68002C16D0236AE8
:101FA000606801332362002801D0FFF721F8206820
:101FB000002806D00021FFF735FF01212068FFF738
:101FC00031FFE36A002B01D0206B9847012010BD40
:101FD000281E002042606422002342623C3A0362D1
:101FE00001608354C3620363014B18607047C046AD
:101FF000281E002070B52826835D04000D0084B0E3
:10200000002B02D0002004B070BD4162036201F0D9
:10201000BBF921000831029105496A42D3170194A6
:10202000009101F0C1FB0028ECD00123A355EAE7A1
:10203000951F001010B5437108236C46C37100232F
:10204000247A016002718471038110BD0F22002384
:1020500000B5C90085B0C9B26A441170C171017977
:1020600000680093013305F0A9F805B000BDC04633
:10207000F0B50F260027C37985B004006E440B43EA
:1020800033700D003200017901230068009705F0DC
:1020900095F80422E37920682B4313433370320010
:1020A00021790123009705F089F80120002101F032
:1020B00001FA04239D43E37932001D4335702179F1
:1020C00001232068009705F079F83220002101F003
:1020D000F1F905B0F0BDC04610B504000021FFF7CE
:1020E000C7FF10212000FFF7C3FF022001F058FABC
:1020F00010BDC04610B50400322001F051FA302165
:102100002000FFF7B5FF052001F04AFA302120003A
:10211000FFF7AEFF052001F043FA20003021FFF762
:10212000A7FF9620002101F0C5F920002021FFF72C
:102130009FFF20002021FFF79BFF20008021FFF759
:1021400097FF0423200023720021FFF791FF200056
:10215000C021FFF78DFF20000021FFF789FF10212C
:102160002000FFF785FF022001F01AFA0223200069
:1021700063720021FFF77CFF20006021FFF778FFEA
:1021800020000021FFF774FF20212000FFF770FFDF
:10219000022001F005FA012010BDC046F0B5C64688
:1021A00000B51F008379060086B09A4201D3013B37
:1021B000DAB27379994201D3013BD9B21B4B30009B
:1021C0009B5C6D46C918CCB20F2321009943713333
:1021D0001943FFF74DFF21013000C9B2FFF748FF57
:1021E0003B00134A1521684604F08AFC00227379EB
:1021F000EA542C78002C14D00F230127984643462C
:102200002100994339433000C9B2FFF731FF210162
:10221000394330000135C9B2FFF72AFF2C78002C72
:10222000EDD106B080BCB846F0BDC04614420110E6
:10223000E82D011008B470B504000D00160089B037
:102240000DAB04CB152102A8019304F06DFC320004
:102250002900200002ABFFF7A1FF09B070BC08BC49
:1022600001B018474260FA22920002610F4A0160F1
:1022700042610F4A0F49826182620F4AC161C262A4
:1022800002220E49836001620D490023416202630C
:1022900001210022C36043638363C3634364836497
:1022A0004C330264C15402657047C0460000964337
:1022B0006F12833D000048420D0300000000A04162
:1022C00000004040002310B50400C3608068FFF7A1
:1022D00003FFA06800220021044BFFF75FFF0122EB
:1022E0000021034BA068FFF759FF10BDF02D01102E
:1022F000002E0110030070B50400103325C925C35A
:1023000025C925C325C925C3A169E069A16202F0D9
:102310000AFE02F0A9FE011E00D101312069E1622E
:102320000138401801F02CFE206370BDC36810B561
:1023300004000020002B10D10023236501236063DB
:10234000A063E063E360A068FFF7C6FEA068002218
:102350000021024BFFF722FF012010BD102E0110BB
:10236000F0B5C646050000B5806886B0FFF7B4FE3C
:1023700000220021394BA868FFF710FF384B0122DB
:102380000021A868FFF70AFF364F3B78002B12D1D7
:10239000354B98466868FEF769FE002836D14246FC
:1023A000324B12689B6A9B1A314A93424BD806B053
:1023B00080BCB846F0BD2D4B2B4A9B6A90461360FB
:1023C00000230022C8213B702A4B03A800920193EE
:1023D00009010022284BFEF74FFE0398049E864217
:1023E00009D004002200002128680C34FFF77AFC91
:1023F000A642F7D103980028CCD00599091A02F01B
:1024000019FF6868FEF732FE0028C8D06868FEF73A
:1024100029FE00212868FFF7BBFC0222174B002190
:10242000A868FFF7BBFEFA20400001F0B9F80223CC
:102430004246EB60013B3B700C4B12689B6A9B1A57
:102440000B4A9342B3D90E4B03220021A868FFF731
:10245000A5FE0823EB60073B3B70A8E7242E011084
:10246000382E011098140020581E0020004005400E
:10247000809698000000344000006940482E01100A
:10248000582E0110F0B5C646040000B5806886B02D
:10249000FFF722FE00220021554BA068FFF77EFEC9
:1024A000544E3578022D4ED040D8002D62D0D02326
:1024B0001B065B6801212068DB0300D575E0FFF790
:1024C00067FC012200214C4BA068FFF767FE03ABBD
:1024D00098460022A021494B404600920193C90032
:1024E0000022474BFEF7C8FD012201212068FFF7BB
:1024F00065FC049F039DAF4207D02A00012120689C
:102500000C35FFF7EFFBAF42F7D10223A068337021
:10251000022200213B4BFFF741FE039800280ED01A
:1025200043469968091A02F085FE08E0032D06D19A
:10253000FA20400001F034F80023E560337006B063
:1025400080BCB846F0BD01212068FFF75FFC002881
:10255000F5D101212068FFF7F3FB0028EFD12A4BCA
:1025600002220021A068FFF719FE00232365032340
:102570003370E4E7102000F00FFCD02380221B060C
:1025800052029A6201210022102000F0F1FB206823
:1025900000220121FFF712FC0123012233700021E8
:1025A0001A4BA068FFF7FAFDC9E7FFF72FFC0028D8
:1025B000C5D103AB98460022FA21104B4046009249
:1025C0000193890000220E4BFEF756FD0398049EEE
:1025D000864209D005002A00012120680C35FFF74A
:1025E00081FBAE42F7D10398002899D1A7E7C046F6
:1025F0006C2E0110B02F0020942E011000003440EA
:1026000000709740A42E0110B42E0110802E0110EE
:10261000F0B505008BB08068FFF75EFD00223A4BF5
:102620000021A868FFF7BAFD286A02F023FDAE6812
:10263000364C009001912300012200213000FFF769
:10264000F9FD334F3B78002B07D001212868FFF7B5
:10265000DDFB002841D00BB0F0BD286A2D4902F007
:1026600062FC2D4902F073FC8321C90502F06FFC66
:1026700002F0FAFC0022294B01000492059300228B
:10268000274B07A8029203930022264B0092019346
:1026900000220023FFF720FA286801220121FFF71A
:1026A0008DFB0798089E864209D004002200012174
:1026B00028680C34FFF716FBA642F7D107980123D0
:1026C0003B700028C1D00999091A02F0B3FD01211D
:1026D0002868FFF79BFB0028BDD101212868FFF780
:1026E0002FFB041EB7D12B6A02220021A8682B659C
:1026F0000D4BFFF753FDFA20400000F051FF04237B
:102700003C70EB60A7E7C046C42E0110D42E011028
:10271000B12F00200000A0400000484300003440DA
:102720000088B3400070A740E42E0110F0B5CE46FB
:102730004746040080B580688BB0FFF7CDFC4A4B5C
:1027400000220021A068FFF729FD484E3378002BB6
:1027500036D0474FA368206C984602F08BFC454D5D
:1027600001222B000090019140460021FFF762FDFD
:10277000A3686069984602F07DFC3F4D02222B0061
:102780000090019100214046FFF754FDFA213B4B98
:102790008900986A3B68C01A01F0F2FB02F00BFC5A
:1027A0003749051C606A02F0D2FB011C281C02F0AC
:1027B000FDFB002849D10BB0C0BCB946B046F0BD06
:1027C0002E4B2B4F9B6A60693B6001232D49337070
:1027D00002F0A9FB2C4902F0BAFB636A011C051C3C
:1027E000181C994602F0B3FB02F03EFC0022274B76
:1027F00080464946281C0492059302F094FB02F09F
:1028000039FC02900391281C02F034FC0023009054
:1028100001910022414607A8FFF75EF9089B07983F
:102820009846834209D005002A00002120680C3513
:10283000FFF758FAA845F7D10798002800D189E793
:102840000999091A02F0F6FC84E7114B03220021D2
:10285000A068FFF7A3FCFA20400000F0A1FE0523CA
:10286000E36000233370A6E7F42E0110B22F00209E
:102870005C1E0020242D0110042F01100040054093
:1028800000007A44000070420000484500003440D7
:10289000142F0110F0B5C64600B5040086B040689C
:1028A000FEF7DEFB656C401B002832DDB421890099
:1028B00001F03EFB002826D0A36B420012181B1823
:1028C000A36313019B1AE66B1B015B1986196364F2
:1028D000E66302F070FBA16A02F039FBE36A051CB3
:1028E0009E4200D37DE04949281C02F01CFB484968
:1028F00002F02DFB8321C90502F029FB02F0B4FB95
:102900008046002833D100212068FFF72BFA0928E0
:1029100003D906B080BCB846F0BD60693D4902F0FD
:1029200002FB3D4902F013FB02F0A4FB0200002071
:102930000B003A4903AD00900191C821280009011C
:10294000FEF79AFB0398049F874209D006003200E5
:10295000002120680C36FFF7C5F9B742F7D103987C
:102960000028D6D0A968091A02F064FCD1E72949E9
:10297000606902F0D8FAA16A02F0E9FA284902F087
:10298000E6FA2849061C03AD02F010FB002800D12E
:10299000244E301C02F06EFB0026204F02000B007C
:1029A0000096019741462800FEF766FB4C23012163
:1029B000E25C2068FFF702FA039E049FBE4208D043
:1029C0003200012120680C36FFF78CF9B742F7D1AD
:1029D000039F002F97D0A9683800C91B02F02AFC7A
:1029E00091E700234C210120626BE36301326263B3
:1029F000635C43406354216BA0680B4B01910092D0
:102A000000210222FFF716FC6DE7C0460000A0403F
:102A10000000484300007042000048450000344078
:102A20000000204400007A44202F0110F0B500215E
:102A3000050087B00068FFF7E9F9002805D00021FC
:102A40002868FFF78FF909282CD868691B4902F01C
:102A50006AFA1B4902F07BFA041C02F00BFB060029
:102A6000201C0F0002F000FB0022164B0100009218
:102A7000019303A832003B00FEF7FEFA0398049E80
:102A80000400864208D02200002128680C34FFF799
:102A900029F9A642F7D10398002803D00599091A0D
:102AA00002F0C8FB2800FFF7F5FEAA6B2B699A42DB
:102AB00001D30623EB6007B0F0BDC04600007042B2
:102AC0000000484500003440F0B5D646050000B58A
:102AD00080688CB0FFF700FB3B4B00220021A86808
:102AE000FFF75CFB394F3B78002B16D0286C02F0C7
:102AF000C1FAAE68364C00900191230000213000ED
:102B00000122FFF797FB00212868FFF77FF90028D3
:102B10004FD00CB080BCBA46F0BD00212868FFF74A
:102B200037F901212868FFF733F96869294902F06C
:102B3000FAF9294902F00BFA6B6A041C9A4602F072
:102B400099FA06900791211C504602F000FA02F013
:102B50008BFA0022214B06000492059380231B066A
:102B6000E018514602F0DFF902F084FA0022002357
:102B70000290039100920193069A079B310009A8E5
:102B8000FEF7AAFF09980A9E864209D00400220097
:102B9000002128680C34FFF7A5F8A642F7D1099860
:102BA00001233B700028A1D00B99091A02F042FBC7
:102BB0009CE700212868FFF7C3F80028A9D1072364
:102BC0003870EB60A5E7C046302F0110B32F00200E
:102BD000242D0110000070420000484500003440E0
:102BE000F0B5494B856C9E6A484B040083B0751B59
:102BF0009D4219D94068FEF733FA636CC01A02F09F
:102C0000DFF9434902F08FF9071C280002F0D3F9DD
:102C1000404902F088F9011C381C02F084F93E4951
:102C200002F095F9A6642064E368072B34D83B4A88
:102C30009B00D3589F462000FFF792FBE368052BCB
:102C40002AD12269A0680192A26B354B0021009223
:102C50000022FFF7EFFA206C02F00CFAA668314D63
:102C6000009001912B00012200213000FFF7E2FAD1
:102C7000226BA0680192626B00212B4B0092022212
:102C8000FFF7D8FAE26AA0680192E26B0021009295
:102C9000264B0322FFF7CEFA03B0F0BDA068FFF782
:102CA0001BFA00220021224BA068FFF777FAA26BE3
:102CB000A06800211F4B00920122FFF7BBFA626B54
:102CC0001D4BA068002100920222FFF7B3FA0023F7
:102CD000E360E1E72000FFF7D5FBE368AFE7200002
:102CE000FFF796FCE368AAE72000FFF71FFDE36803
:102CF000A5E72000FFF79AFEE368A0E72000FFF7B2
:102D0000E3FEE3689BE7C046004005409F86010064
:102D1000000034440024744900007042184201103D
:102D2000542F0110242D0110202F0110682F0110A5
:102D3000402F01100C2D0110182D0110094A83009D
:102D40009A1810B514684022544080322240064C34
:102D5000C000A44663441A60044B9C466044416032
:102D600010BDC04604C0014004D0014000400140F5
:102D7000074B8000C3181B68C90092000A435A40E1
:102D80000C231340034A9446604403607047C046D6
:102D900004C0014004D001400123D0228340120628
:102DA00093629361094A83009A1811684022514046
:102DB00080320A400649C0008C4663441A60054BC5
:102DC0009C460523604443607047C04604C00140F0
:102DD00004D00140004001400FB400B5084883B062
:102DE00004F0A4F8049B002B07D005A9180001915A
:102DF00003F0A8FE034804F099F8012003F0BAFE9E
:102E00007C2F0110FC30011070B5EFF3108C72B6FE
:102E10000D4D2B68002BFCD0BFF35F8F0724CB0830
:102E2000C618C05C01230C40A3401C0004400342B0
:102E300007D118433070BFF35F8F2C608CF310887C
:102E400070BD1000FFF7C8FF2C0100D0044A1078B5
:102E5000431CDBB2172B00D9102313707047C046F8
:102E6000991400200021044B044ABFF35F8F02C372
:102E70009342FAD17047C046000100D0800100D0D3
:102E8000054B064A1360064A136053609360D36093
:102E900013615361936170478080808000E400E09B
:102EA00004E400E01F2318401E3B8340002905D0A6
:102EB000C021044A490053501360704780220149E1
:102EC0008B50FAE700E100E070B50D00EFF31086DB
:102ED00072B60F4A1368002BFCD0BFF35F8F0D4B07
:102EE00010309B6884001B590B4A934203D09D42CB
:102EF00001D000F0F3FE074B9B681D51BFF35F8FBD
:102F0000BFF35F8F0022024B1A6086F3108870BDFA
:102F1000240100D000ED00E0C1010010024B9C46EE
:102F200061448900016070474000003470B5114C65
:102F3000114DAC420FD2FF262368002B0CD0FFF7B7
:102F400085FF01002000FFF7E9FFA680BFF35F8F38
:102F50000834AC42F0D370BDFFF778FF01002000C9
:102F6000FFF7DCFF2671BFF35F8F0834AC42E3D379
:102F7000F1E7C046601A0020701A00200A4B196859
:102F8000EFF3108072B60A68002AFCD0BFF35F8F9F
:102F90001B68BFF35F8F00221A6080F3108840BF68
:102FA000002000217047C0462C2F0020F0B5DE46DF
:102FB00057464E464546E0B587B0EFF305830322FA
:102FC00001251A40954091008846A946B34B0392CB
:102FD0005C58B34B1D60B34B04934B46B2484363FC
:102FE0000823E55E002D37DAA3881BB2002B00DB37
:102FF000ADE0A379002B00D0EEE00823E05E0028CE
:1030000020DB430062691B18DB00D3189E68DD6873
:10301000731C00D111E1A44801004144826A0B698C
:10302000B71A9B1A9F4215D30123026A0398834063
:103030001A420FD09C4800F053FC8D4202DCCCD1E8
:103040008642CAD940BF07B0F0BCBB46B246A946CB
:10305000A046F0BD0E61EDE762696B0092465B1918
:10306000DB009A4453469E68DF6800F039FC8F42CB
:10307000BADC00D103E1002F00DAE8E05246534603
:1030800052691B699346049A934200D1D9E0524693
:103090000821605E5288000459461043984700900A
:1030A00001910099019A0B001000134300D1CEE06A
:1030B00013000A00B61A9F41002806DB7A4800F088
:1030C0000FFC009E019F36184F4153469E60DF6003
:1030D00000229A5E002A00DA86E753009918606998
:1030E000C900411802938B68C9689B46B94200DD4C
:1030F0007AE702D1B34200D976E708239C46A4447C
:10310000059565462281A446029B2C0006E05300EB
:103110009918C90041188D68C968AB469B18DB0037
:10312000C318B94206DC00D1B3E01C000023E25E04
:10313000002AECDA230064469C4653461A80634614
:10314000059D1D80A3881BB2002B00DA51E7226980
:10315000EFF3108172B61368002BFCD0BFF35F8FC2
:103160000123A7885B42A3803FB22369BFF35F8F2F
:1031700000221A6081F31088002F00DA39E723005B
:10318000083322009A4666697B00DB19DB00F318DE
:10319000996850468C460824115FDD68002910DBD1
:1031A000029306E0AB4244D00023E15E20000029F8
:1031B00006DB4C006418E4003419E368AB42F1DD2F
:1031C000029B078000201F5E1980002FDCDA1400AC
:1031D000A379002B00D110E70023A3712600082358
:1031E000E15E08364B1C00D12CE70800A246656959
:1031F00002E03E004B1C1AD04B005B18DB00EF18BE
:103200000A008C46E95E7B881BB2002BF1DA0123B1
:103210005B42DC17BB60FC60824205D053463180C4
:103220001B893B8053461A8160464B1CE4D15446AF
:10323000E5E6A3686345B7D9C2E76B1C00D0EAE6B0
:10324000F8E65B4658461B69984700281BD1534651
:103250001B8822692381EFF3108372B6116800295D
:10326000FCD0BFF35F8F514662880A802269658077
:10327000BFF35F8F0021116083F31088B4E68642AC
:1032800000D8F8E6B0E65B461A685B6800920193E6
:1032900007E7B34500D848E74CE7C046102F0020A9
:1032A0003C700540AD2F00100040054070B52E4C1D
:1032B0002569002D04D00A212C48FFF72FFE70BD90
:1032C0002B4E0321300000F001FBE660FFF7BEFD4E
:1032D000284B03229C46D02322701B061B68012129
:1032E0006370254B6044A3600F238000206102209F
:1032F000638063694942A180198002311986473190
:103300001D83585218315A5275325C39995218320D
:1033100001319952183201319952183201319952C2
:10332000083518329D520231183299521832013143
:10333000995218320131995218320131995218328A
:10334000013199521832013199520C4B0C49DC6011
:1033500001303562FFF7B8FD01210320FFF7A2FD20
:10336000084B1D60A7E7C0469C1400202C2F0020AE
:103370000040054040000034FFFF1000102F0020E7
:10338000AD2F001038600540004870479C140020A5
:1033900070B501000469EFF3108C72B62068002844
:1033A000FCD0BFF35F8F02200D5E4C6968004019AE
:1033B000C00024180869002D36DB26884E80BFF334
:1033C0005F8F002606608CF31088E36063880498A2
:1033D000013320615B0405985B0CA26060611A1CDC
:1033E000002B1FD093B22804628018430A69EFF3C0
:1033F000108C72B61368002BFCD0BFF35F8F8B88E4
:1034000023808D800B69BFF35F8F00221A608CF3DD
:1034100010880B7801329A40CB6808498C46634487
:103420001A6070BD0122DDE7BFF35F8F00230360E8
:103430008CF3108801204042F3E7C0463C20000096
:1034400010B543890A1493421ADD53009B18426950
:10345000DB00D3180469EFF3108C72B62268002ADF
:10346000FCD0BFF35F8F5A88090494B2090C8A42DA
:1034700008D00369BFF35F8F00221A608CF31088B5
:10348000002010BD8022120214435C8001230269D7
:103490008371BFF35F8F002111608CF310880449A2
:1034A00002788C469340C268012062441360E8E7CA
:1034B0003C200000F0B5C64600B582B004000D0007
:1034C00000F016FA24184D41002D02DA01242F4D88
:1034D000644206267642F71736196F41AF4214D878
:1034E00011D000F005FA32003B00121A8B41002B7C
:1034F00015DC002B46D02000290000F037FA02B07E
:1035000080BCB846F0BDA642EBD90026002700F0EB
:10351000EFF932003B00121A8B41002BE9DD00F07D
:10352000E7F932003B00121A8B41002B0ADB002323
:103530000193174B3200009316483B00FFF728FF1A
:103540000130D8D000233900B0469C46124A1348B7
:10355000536A994204D8966A4645CCD29942CAD158
:103560000668EFF3108772B63368002BFCD0BFF308
:103570005F8F0368BFF35F8F66461E6087F3108816
:1035800020BFE5E7002AB6D0C9E7C046FFFFFF7FAE
:103590007D2F00109C140020004005402C2F00209F
:1035A000F0B5C64600B582B0040000F0A1F9FA22D9
:1035B00006000F00200000230021920001F090FC83
:1035C0008019794104000D1E02DA01242E4D644257
:1035D00006267642F71736196F41AF4214D811D03C
:1035E00000F086F932003B00121A8B41002B15DCEB
:1035F000002B46D02000290000F0B8F902B080BCB2
:10360000B846F0BDA642EBD90026002700F070F9BD
:1036100032003B00121A8B41002BE9DD00F068F903
:1036200032003B00121A8B41002B0ADB002301936E
:10363000164B3200009316483B00FFF7A9FE0130FD
:10364000D8D000233900B0469C46124A1248536A2B
:10365000994204D8966A4645CCD29942CAD10668A6
:10366000EFF3108772B63368002BFCD0BFF35F8F87
:103670000368BFF35F8F66461E6087F3108820BF24
:10368000E5E7002AB6D0C9E7FFFFFF7F7D2F0010D6
:103690009C140020004005402C2F0020F0B5574618
:1036A0004E46DE464546E0B506000F0085B0EFF316
:1036B000058399468B46002B12D0384900204B6A6F
:1036C000BB4206D38A6ADB1B591E8B41B242404182
:1036D000184305B0F0BCBB46B246A946A046F0BDB3
:1036E0002F4B9A46DB68984653461B784046039317
:1036F00000F0F6F84246039B040004339B009B58FD
:103700000D001B1A39003000001BA941894510DC4F
:103710000DD020BF214A0020536A5B45D9D3926A5D
:10372000DB1B591E8B41B24240411843D1E7834213
:10373000EFD900F0DDF832003B00121A8B41002B6C
:103740001ADB00230193174B3200009350463B00D5
:10375000FFF71EFE011E0FDD104B5A6A5A451BD3A0
:103760009B6AB34216D35046FFF76AFE0B4A00200D
:10377000536A5B45ADD3D2E7084A0020536A5B45E4
:10378000A7D30020926ADB1BB24240415A1E9341EC
:1037900018439EE75A45E6D120BFE4E700400540C4
:1037A0009C1400207D2F0010F0B5CE464746110036
:1037B00080B583B004009C460C9D194300D16CE099
:1037C0006146DB170193009353401E00019B4B4061
:1037D0001F0000980199361A8F4163460A996B6061
:1037E0000B9BAC6029612A606B6100F081F8801945
:1037F0007941002902DA0120314940422269EFF380
:10380000108972B61368002BFCD0BFF35F8F0223C0
:10381000E65E636972009219D2009B182269904695
:10382000002E42DB1A886280BFF35F8F002247467A
:103830003A6089F31088234A9860D9601A615A88DF
:103840005D6101325204520C111C002A2BD088B247
:103850003204024359802069EFF3108772B6016881
:103860000029FCD0BFF35F8FA1881980A68023694F
:10387000BFF35F8F0021196087F310881248237807
:103880008446013199400120E36863441960EA608D
:1038900003B0C0BCB946B046F0BD002301260027E6
:1038A00001229C4699E70121D1E7BFF35F8F0023F6
:1038B000136089F31088012200205242E7E7C046D6
:1038C000FFFFFF7FAD2F00103C20000010B5024A23
:1038D0000248FFF799FA10BD8C2F011074220020C6
:1038E0000300416A0A00986A596A8A42FAD170470D
:1038F000034B596A0A00986A596A9142FAD1704793
:103900000040054070B504000D00174A536A1900C5
:10391000966A536A8B42FAD13000190024184D413F
:10392000AB4216D813D0104B2A005B6A9D4203D9D4
:103930000D494B6A9342FCD3934207D10A4A02E0F5
:10394000516A994202D1916AA142F9D370BDA6424F
:10395000E9D9054B5B6A1C005A1CEFD001220124F7
:103960006442E5175242E3E700400540064A536AC5
:103970009942FCD807D1044B02E05A6A914202D125
:103980009A6A9042F9D8704700400540074A30B51E
:103990001024956A03E0936A5B1B8B4204D8836909
:1039A0001C42F8D1012030BD0020FCE7004005405A
:1039B000F8B5DE464E4657464546E0B58B4605000F
:1039C0000A991800160000F0DBFA0A9B6C001F022F
:1039D000324B64199C46A4006444636881469F424C
:1039E00000D967602B1FDBB29846012B30D9C0236A
:1039F00080229B01E31812011A60294BAD0059592E
:103A00009A4600291BD17301E026226853401E40CC
:103A1000802342465B01E3181E60012A30D98023CF
:103A200080229B01E31812011A6053464A466760E0
:103A30005A51F0BCBB46B246A946A046F8BD5869EB
:103A400000F09EFA013043001B18033BFDD2DAE779
:103A50005B46012BCBD1C02303229B01E3181A60E4
:103A6000023AA3681A42FCD07301E0262268AD0036
:103A700053401E4080230A4A5B019246E3181E60B1
:103A80005A462168514003220A401A6001225B46CF
:103A90009A40A3681A42FCD0C1E7C04600800040AB
:103AA00078220020F0B546464F46D646C0B51F00E6
:103AB000344B44009C462418A40064446368884640
:103AC0001600FF2B02D880235B006360031FDBB26C
:103AD0009A46012B30D9C02380229B01E3181201A2
:103AE0001A60294B85005959994600291BD1730149
:103AF000E026226853401E40802352465B01E318B3
:103B00001E60012A30D9802380229B01E318120114
:103B10001A6080235B0063604B465F51E0BCBA468D
:103B2000B146A846F0BD586900F02AFA01304300BA
:103B30001B18033BFDD2DAE74346012BCBD1C02350
:103B400003229B01E3181A60023AA3681A42FCD0D0
:103B50007301E0262268850053401E4080230A4AF4
:103B60005B019146E3181E604246216851400322E2
:103B70000A401A60012342469340A2681342FCD0D7
:103B8000C1E7C0460080004078220020014B800041
:103B9000C058704778220020F8B5040021481E0064
:103BA00017000D0000F0ECF90100380000F0E8F912
:103BB000069B36041B031E432368002B20DB1A4B95
:103BC0001A49E3185A1E93418022920194465B429F
:103BD0001B0B174A1B0363441360164A13601F0034
:103BE0000A689743FBD1144B2560E2182123A0609B
:103BF00013602368002BFCDA0823E6601360F8BD2D
:103C00003F2322681340AB42D9D1A3681B051B0D8B
:103C10008342D4D1EE22E368D2021340B342CED124
:103C2000EDE7C046001BB7000040FDBF08C00040E4
:103C300000E0004000F00040043000008023024A11
:103C40009B000B43D362704700800540002310B5F2
:103C50000100988A1B8B984710BDC046162310B5EB
:103C60000100188802331B88984710BDF8B54746F5
:103C7000CE4680B50F1E18D0142399460433040095
:103C80000025012698464B461888434621681B8824
:103C9000984701C4431E984101350640AF42F2D116
:103CA0003000C0BCB946B046F8BD0126F8E7C046B2
:103CB000AA23064A1B0113608D235B00D3600449CD
:103CC000044B19605368002BFCDA70470040024037
:103CD00000B0FA00006002407047C04610B50148CD
:103CE000FFF77AF8B02F011070B5074D074EB542B7
:103CF00009D20024013E761BB60808CD9847230060
:103D00000134B342F9D170BDF82B0110342C0110ED
:103D1000054B064A06491A60064A074B1A6010000E
:103D20000B689843FBD1704700E00040BFCDFBFE1D
:103D300008C00040FE7F3C0000F00040044BDB6CFC
:103D4000002B03D18022034BD2021A607047C04679
:103D5000000011504C201150044A054B1A60054ACE
:103D60001368DB018033FBD17047C046FFFFFF01C2
:103D700000F0004008C000404022034B9A675A6799
:103D80001A67DA667047C04600F0014010B5FFF7C9
:103D900069F810BDF8B52749274C284D641AA610BC
:103DA0003200302E00D930222800920001F034FA7F
:103DB000BC2C3BD830202F232C196407204A801BB1
:103DC000E40F9B1B052B16D93700002C02D0B30043
:103DD000771CEA50001B33199B004108EB18C900FF
:103DE000C9181A605A6008339942FAD10123034274
:103DF0001CD09843C619B300EA50731C2F2E15D05F
:103E00009B00EA50B31C2E2E10D09B00EA50F31CEE
:103E10002D2E0BD09B00EA50331D2C2E06D09B007C
:103E2000EA50731D2B2E01D09B00EA50054B9D607C
:103E3000F8BDC04600010010C001001000000020C5
:103E4000C101001000ED00E0002310B5294C82B044
:103E5000A367FFF72DFF0122274B1A60636C012B2C
:103E6000FCD10322254B1A60224A936B012BFCD113
:103E7000013300930121224A22480433FFF78CFECC
:103E8000052301210093204A2048FFF785FE0022E8
:103E9000022104201E4BFFF705FE00220121052010
:103EA0001C4BFFF7FFFD0022002107201A4BFFF7F4
:103EB000F9FD002200210820174BFFF7F3FD8023B6
:103EC000DB000093002200210920134BFFF770FD57
:103ED0000022104B00210620FFF7E4FD0420FFF72D
:103EE00055FE0E4900F04CF801000020FFF7A6FE39
:103EF00002B010BD008000403CB0004030B0004037
:103F0000002F685900800240008C864700C00240A4
:103F1000001BB70040597307006CDC0240420F00E1
:103F200001480421014B1847C01400206D3C0010CB
:103F3000124A936F9B0815D29066D166002905D06E
:103F4000FFE7FFE7FFE7516F106F704704B580216F
:103F50000906C2175140002800D0C8430EF0FCFDEE
:103F6000002104BDF0B5146E556E576F166FFFF744
:103F7000E3FF1466556657671667F0BD000000D072
:103F8000114A936F9B0813D210665166002905D021
:103F9000FFE7FFE7FFE7516F106F704704B5002898
:103FA00001D00020C0430EF0D7FD002104BDC04663
:103FB000F0B5146E556E576F166FFFF7E5FF146678
:103FC000556657671667F0BD000000D094464A4A10
:103FD000926F9208624601D228E0C046F0B5464E84
:103FE000346E756E776F366F00F020F89446424A53
:103FF00014665566576716676246F0BD94463E4A9A
:10400000926F9208624601D254E0C046F0B53A4E33
:10401000346E756E776F366F00F04CF89446364A02
:1040200014665566576716676246F0BD002B24DBA1
:1040300011D000293EDA00B5C943404200D1013118
:1040400000F038F8C943404200D10131DB4352420D
:1040500000D1013300BD002AEBD1002801D1002995
:1040600005D00020C90FC90701D1C043410800B5E0
:104070000EF04AFD0022002300BD00B500290ADB36
:10408000DB43524200D1013300F014F8C9434042EF
:1040900000D1013100BDC943404200D10131DB43B1
:1040A000524200D1013300F005F8DB43524200D107
:1040B000013300BD002923D1002B18D1002A0CD0D8
:1040C000BC460D4F38667A6600210023FFE7FFE704
:1040D000FFE77A6F386F67467047002801D00748BE
:1040E000010000B50EF010FD0022002300BD02000B
:1040F0000B00002000217047000000D0FFFFFFFFF1
:10410000002B00D0BFE0130C28D1002AE7D080B4E8
:10411000114F39667A66FFE7FFE730B4040C7B6F16
:10412000396F1B0423433B667A66FFE7FFE7FFE72F
:10413000C04684B27B6F3D6F1B0423433B667A66A7
:10414000FFE7FFE7C04600232C042D0C7A6F386F81
:1041500000196941B0BC7047000000D0F0B594462A
:104160000025140E01D112020835140F01D11201DD
:104170000435940F01D192000235D40F01D15200C1
:104180000135D40B0134254F7C66254C3C660E0C62
:1041900093B2FFE7FFE7FFE73C6F6643360C770318
:1041A000BE467343DF0B5B04C01AB941130C734363
:1041B000DB18C91ACE086643360CB64493B2734373
:1041C0001F0F1B01C01AB941130C73431F0B1B05B2
:1041D000C01AB941860D8F023E436643360C092D45
:1041E00024DB520A7243801A7703460A6643360C70
:1041F00016235B1BDE40DF40BF1964466643821B0B
:104200007046043506330100D940A840C01900D3D8
:104210000131A24206D20023F0BD0000000000D010
:10422000FFFFFFFF121B0130F3D3F1E709277F1BCC
:10423000FE406446A2B27243801A00D20139220CB9
:104240007243130C1204821A99410B007046043514
:1042500013370100F940A840801900D30131002B29
:1042600002D1A2420AD2F0BD013000D30131121BAB
:10427000FAD2013BF8D1A24200D2F0BD013000D306
:104280000131121BF7E7F0B51C0C00D080E00CB434
:1042900000251C0A04D11B02160E334312020835F6
:1042A0001C0B04D11B01160F3343120104359C0B68
:1042B00004D19B00960F334392000235DC0B02D1F0
:1042C00092185B4101351C00971864410134464F38
:1042D0007C66464C3C660E0CFFE7FFE7FFE7C046F6
:1042E0003C6F6643360C7703BE4697B27743C01BDC
:1042F00000D20139C01B00D201399FB27743C91BDC
:10430000C91B170C77437E04FF0B801BB941CE08F5
:104310006643360C0C2D33DBB644120B1F053A43B3
:104320001B0B97B27743C01B00D201399FB2774372
:10433000C91B170C77433E043F0C801BB941860D07
:104340008F023E43664329277F1BFE400C3D774684
:10435000AF40BF1930BCA2B2ABB272437343801AF4
:104360009941220C7243130C1204801A99410200E5
:104370000B000137001BA941F9D2781E0021F0BDC6
:104380000C277F1BFE4077467F0BAF40FF19E0E70D
:1043900000245D1C07D0144F7D663966FFE7FFE7F8
:1043A000FFE7FFE73C6F95B29EB265436643401B53
:1043B000B141150C1E0C6543664336042F0C3E4379
:1043C0002D04401BB141994204D202000B00200091
:1043D0000021F0BD01D19042F7D3801A99410134F8
:1043E0009942F2D3F6E70000000000D0FFFFFFFF84
:1043F00048404140484018B41B4B5B68FC46019361
:1044000008BD04DF6347001018B4174B1B68FC4657
:10441000019308BD00DF6D4700109446134A926F68
:10442000920809D2624618B40F4BDB68FC46019330
:1044300008BD0CDF254A00100C4AF0B5146E556E0D
:10444000576F166F6246FFF7EEFF084A146655660F
:1044500057671667F0BD18B4034B9B68FC46019381
:1044600008BD08DFC9480010281C0020000000D04B
:10447000FFB550404240504059404B40594000E049
:10448000FFB5154F4C00640D03D0BC4204D10C03A2
:1044900014D80020090D09055C00640D03D0BC424E
:1044A00004D11C030AD800221B0D1B0501264B401A
:1044B00009D44B4003D58B4200D18242FFBD9942C3
:1044C000FCD19042FFBD0B43DB1803431343F5D0EF
:1044D000C9434918FFBD0000FF07000000B5FFF702
:1044E000CFFF01D0002000BD012000BD00B5FFF7C7
:1044F000C7FF804100BDC04600B5FFF7C1FF01D92D
:10450000002000BD012000BD00B5FFF7B1FF01D9BB
:10451000002000BD012000BD00B5FFF7A9FF8041CC
:1045200000BD012040054A00121804D85A00121894
:1045300001D80020704701207047000000210028AA
:1045400005D17047C1174840401AFAD0C90713B5C2
:10455000064B1B6898470CBC441CA2401005120B6C
:104560000349091B09051943114310BD282F0020D9
:104570001F04000010B54C00620D8023D218DB0030
:10458000D21A5B057E2A10DD9E3A13DACC17090396
:10459000490819435242D140640001341532202A9F
:1045A00005DAD0400843604310BD002010BD084626
:1045B000604310BDC80FC018013810BD18B4044BBB
:1045C0005B6AFC46019308BD24DF7D4D00100000AE
:1045D000281C002018B4044BDB6DFC46019308BD79
:1045E0005CDF2D4E00100000281C002018B4044B86
:1045F0005B6EFC46019308BD64DF254E0010000091
:10460000281C0020C94211D300B5490049080022E6
:1046100000F024F8002904D4002240428A411146C7
:1046200000BD80210906002000BD000018B4044B25
:10463000DB6EFC46019308BD6CDF8B4D0010000063
:10464000281C002018B4044B5B6FFC46019308BD86
:1046500074DFA54D00100000281C002018B4044B86
:104660009B6FFC46019308BD78DFA74D001000004A
:10467000281C002018B4044B9B69FC46019308BD1C
:1046800018DFF14B00100000281C0020132370B528
:104690001D78012D19D014DD1F48FFF7DFFA060041
:1046A0001E48FFF7DBFA1E4C80223100200000F08C
:1046B000B3FD022D2DD01B48FFF7C8FA1A4B186026
:1046C00070BD1A4B164CA364F5E7184B144C2360CD
:1046D0006360A360E36023616361A361E3612362BC
:1046E0006362A362E36223636363A363E36323649C
:1046F0006364A364E36423656365A365E36523667C
:104700006366A366E36623676367A367E367A364DF
:10471000D1E7064BA364CEE75344000053460000A4
:10472000281C00204C330000282F002031470010A7
:1047300007B5604601880A0A0230DF2AFAD1C9B2F9
:10474000820804D3028840880004104300E0006817
:10475000014A5050039007BD281C00200FB403BC31
:104760000CBCF0B50124E407634000E0F0B50C0D8B
:10477000CF0F661E3605891B640503D3C94340422B
:1047800000D30131640D03D0661CF60A07D0E41B88
:1047900000207F00791C89078912803C24031D0DAD
:1047A000DF0F6E1E36059B1B6D0503D3DB435242A4
:1047B00000D301336D0D03D06E1CF60A07D0ED1B3C
:1047C00000227F007B1C9B079B12803D2D032F1B2B
:1047D000661B58D4A446202E46DA20371400BC406D
:1047E0001D00BD40F24033412A4380185941CB0F90
:1047F00005D0C943C0430022644250415141624642
:104800004D0D28D10D0D07D100281FD0241940418E
:104810004941013A0D0DF9D0640006D3013000D3AF
:104820000131002C01D140084000013A0BD4941C06
:10483000E40A04D112051144DB071944F0BDD9077D
:10484000204B194300E0D9070020F0BD0029DDD13D
:10485000002CDBD1F0BD0132C6074008CD0728434C
:104860004908002EE1D0D9E73C2E29DA203E403716
:104870001400BC4000D00124F24014431A00BB4095
:104880001C43D317ACE7AC46202F08DA20360400CF
:10489000B4400D00B540F84039412843A5E73C2F0E
:1048A0000CDA203F40360400B44000D00124F84028
:1048B00004430800B1400C43C117EAE71000190097
:1048C000002494E70000F07FF0B50C0D661E36055D
:1048D000891BE60A6405640D02D0651CED0A04D04C
:1048E000002001210905803C2403A4461C0D671EFD
:1048F0003F05DB1BE70A6405640D02D0651CED0A69
:1049000004D0002201231B05803C2403774064442B
:1049100097B484B296B27443070C7E43150C6F4370
:1049200080B26843361802D3012000043F183004D7
:10493000350C00197D41844688B29AB250430C0C64
:1049400062431F0C7C438EB27E43921902D3012630
:104950003604A4191604170C3618674101BC81B23D
:104960009AB25143040C62431B0C5C4380B258431F
:10497000121802D30120000424181004130C40184C
:1049800063412D185E410020474106BC88B293B2B6
:1049900058430C0C6343120C544389B251435B18C7
:1049A00002D301210904641819041A0C0918624180
:1049B0006D1856410020474118BCF902720D114391
:1049C000F0026A0D1043ED020A0D03D16D1940414A
:1049D0004941013B124E9B1B7600B3420ED26D0043
:1049E00007D30130002671416646354301D14008A6
:1049F00040001B05C918E4072144F0BD0BDA013360
:104A000006D1013004D101314F0D01D04908F2E740
:104A1000E1070020F0BD013631050020EBE7000082
:104A2000FF030000F0B51C0D671E3F05DB1BE70A06
:104A30006405640D02D0661CF60A04D0002201232E
:104A40001B05803C2403D0252D060026F6432E6648
:104A50001E096E66CE0FF619B44649004F0D02D0FE
:104A60007E1CF60A03D000200021403F3F033E1B7E
:104A7000B600B444013F7F05C91B49082E6F0136BB
:104A800076089C02950D25437543ED137543AD13D0
:104A900001356D10F603761B0CB4CC02450D2C438A
:104AA000A2B2B3B25A43270C7B43350C6F43A4B276
:104AB0006C431B1902D3012424043F191C041D0C50
:104AC000A4187D4124196D41009A91B2ACB26143A2
:104AD000170C7C432B0C5F4392B25A43A41802D3A9
:104AE00001221204BF182204230C52187B41019C9E
:104AF0006C431B19520ED9010A434401A01A81B21A
:104B0000B2B2514303145A43360C734387B277430E
:104B1000D617D21900277E4136049B191704160CAC
:104B20007F185E417316ED18F3010026803375413E
:104B3000A90F06D16400690AE8055B0A184309D287
:104B40002FE00422944480337541A90AA8059B0AEA
:104B5000184326D3404149412404009A019B0D008B
:104B60005543641B4343E41A95B286B27543170C50
:104B70007E43030C5F4392B25A43B61802D301221C
:104B80001204BF183204330C52197B4152429C412B
:104B9000002C02D40022013051414008CA071043C2
:104BA000490802B06246D7079210084BD218084B4A
:104BB0009A4203D212058918C919F0BD0020002AB3
:104BC00001DC3900F0BD01331905F5E7FD030000F4
:104BD000FE07000007DA002107E0C90FC907520DE0
:104BE00003D0C91201E04C49090500207047C046B6
:104BF0004A00F2D2520D013A484B9A42EAD2F0B53D
:104C00001405091B520801D3001849419B08D2180A
:104C10001205944640A44A0CA25C0B09534353432B
:104C20001B1353435B131202D21A13005B435B0B3B
:104C30004C086343DB135343DB1501335B10D21A7B
:104C4000130CD21A13005B438902840D21438DB2E9
:104C50009EB275430F0C7E431B0C5F438CB25C43CA
:104C6000361902D3012424043F193404330C641987
:104C70007B419D01A40E2C432034A5B2554324143E
:104C800054432D0C6419A411D203121B95B28EB299
:104C90007543170C7E430C0C674393B26343F618BD
:104CA00002D301231B04FF183304340C5B197C412D
:104CB000DB186441DB18002363419EB276439DB24A
:104CC0001F0C7D437F436C04ED0BA4197D4106024C
:104CD0008F08361BAF417D07F6086E41B4B295B21E
:104CE0006C4337147D43120C5743B6B25643EA1750
:104CF000AD19002672411204BF182E042A0C361971
:104D00007A410832521117D29D0A9C05D117101909
:104D100069416144F0BD0000FF070000FE0700008C
:104D2000F8EBDFD6CDC5BEB8B2ADA8A4A09C9995CE
:104D3000928F8D8A8885838152415D0ADC05D11767
:104D400014194D412B006343A6B27643A2B2270C3F
:104D50007A437F435104D20B89197A41D218D21871
:104D600080054942904102D4002301345D4160082E
:104D70006908ED0728436144F0BDC046002200B534
:104D8000203200F010F8080000BD002200B500F04D
:104D90000CF8CA179A4200D100BDD8430121C907B7
:104DA000414000BD00220B150AD410B5944600F016
:104DB00079F81414013400DA0021CB17144C204781
:104DC0000020002170476244343A0CD40C2A07DAE0
:104DD00004009140904052422032D440214310BD03
:104DE000D843D94310BD203207D40C4694405242D8
:104DF00020321141D040204310BD0800C917203295
:104E000003D452422032104110BD1800190010BDC9
:104E1000C74D001000210A00002104E000210A0013
:104E2000C11704E00022002306E0C0460022CB1791
:104E300058405940C01A994130B5184CA21A00295F
:104E400003D1010010D00020203A4C1512D104D219
:104E5000013A001849414C0DFAD3114CA24204D238
:104E600012058918DB07C91830BDD243520D002046
:104E70000021F5E703D4013A00184941FBD50B3274
:104E80004405C00A4D052843C90A640003D0002424
:104E900060416141E1E7E0D34408F8E732040000F3
:104EA000FE0700000A0DCC0F531E1B05C91A520540
:104EB00003D3C943404200D30131520D03D0531CE8
:104EC000DB0A07D0121B00206400611C89078912CD
:104ED000803A1203014BD21A70470000FF03000012
:104EE00051434343C9188C46110C83B24B4310B451
:104EF000040C614392B280B2504362431C041B0C09
:104F0000001910BC59411304120CC01851416144DE
:104F1000704700004840414048400E4B5B681847CE
:104F20000C4B1B6818470C4A936F9B0802D2094B25
:104F3000DB681847F0B5146E556E576F166FFFF7A4
:104F4000F6FF054A1466556657671667F0BD014BB4
:104F50009B681847281D0020000000D007B5484076
:104F60004140484001E0C04607B54200120E03D060
:104F7000FF2A03D1420218D8C00DC0054A00120E04
:104F800003D0FF2A03D14A020FD8C90DC905012257
:104F9000414005D4414001D5814207BD884207BD4B
:104FA0000143491801D0C043001807BD00B5FFF701
:104FB000D5FF804100BD491A002807D10846704737
:104FC000C10FC90700D54042002817D0F44603B4EA
:104FD0000B4B1B68984706BC81409E38404280318D
:104FE00007D20B0607D04900490AC0051043084301
:104FF00060470130F8E7490A8902F5E77047000089
:10500000282F002041000A0E80231B067E2A0BDD7C
:105010009E3A0BDAC1174002400818435242D04072
:10502000490001314843704700207047C00FC01845
:1050300001387047C0420DD300B540004008002140
:1050400000F012F8002801D4404200BD8020000684
:1050500000BD0000034BDB69FC4618471CDF1951FB
:1050600000100000281D0020014B5B6A184700005B
:10507000281D0020034BDB6FFC4618477CDF3151B5
:1050800000100000281D0020132310B512481C78C2
:10509000FEF7E4FD0100012C0AD003DD80220F4859
:1050A00000F0BAF80E48FEF7D1FD0E4B186010BDA7
:1050B0000A4C5422200000F0AFF80B4B6365A36547
:1050C000E36523666366A366E36623676367A36796
:1050D000E3672362E361E5E753460000281D0020F3
:1050E0004C330000282F0020ED50001007B560461B
:1050F00001880A0A0230DF2AFAD1C9B2820804D331
:10510000028840880004104300E00068014A5050C3
:10511000039007BD281D00200021C2158032803277
:1051200001D0024A1047002070470000CD2A00003D
:10513000C30FDB0741000A0E07D0FF2A08D0090978
:10514000054A891819434007704719000020704725
:105150000249C918FAE70000000000380000F07F9B
:1051600070B504000A4E30000DF036FD20000BF043
:1051700065FA050030000DF0BFFC002D05D0054B91
:105180002C199C4201D8280070BD0348FDF724FE6D
:10519000601A002000000420BC2F011070B505002B
:1051A0000C000B4E30000DF017FD280021000BF015
:1051B000DDFD050030000DF09FFC002D05D0054BF6
:1051C0002C199C4201D8280070BD0348FDF704FE4D
:1051D000601A002000000420BC2F011070B50400EC
:1051E000054D28000DF0F8FC20000BF031FA2800E6
:1051F0000DF082FC70BDC046601A002001480421F9
:10520000014B1847D01400206D3C0010014B1B6867
:1052100018470000D0140020014B5B6818470000BD
:10522000D014002010B5FFF79BFF10BD10B5FFF79D
:10523000D5FF10BD10B5FFF7D1FF10BD9A4200D2C7
:10524000885470477047C046F8B55746DE464E460C
:105250004546E0B599460A9B07009A460D9B88464D
:1052600093460B9C9B073BD10C9B9C423DD21E1B43
:105270000B9415000C005E442A004B4601352100BA
:105280002020B847B542F7D1A0460B9C002C20D077
:10529000454636195346321B013C185D29004B46E2
:1052A000B847002CF6D12B00350098460D9B9B0784
:1052B0000FD55B46EC1A0C9BA3420AD9464698468A
:1052C0002A004B46310020200134B84701354445BF
:1052D000F6D32800F0BCBB46B246A946A046F8BDAE
:1052E00016001500002CD3D1E0E716001500002CA5
:1052F000CED1EEE7F0B54546DE4657464E46E0B520
:1053000085B09C4610AB1B78149F934698460F9C23
:10531000129E139DBB074CD4002D42D1B44248D2FB
:1053200001233B4099460E9B013B9A46302304E003
:10533000524601341355A64201D9202CF8D14B46D0
:10534000002B00D183E00E9B013B99463023A54200
:1053500005D82EE04A4601341355AC4229D0202C02
:10536000F8D1FB060CD57B0554D4A64263D0A542E8
:1053700061D0119B102B50D0022B57D0202C32D152
:10538000202301930E9B5A46009303976346029590
:10539000FFF75AFF05B0F0BCBB46B246A946A0468F
:1053A000F0BD01233B40994601233B422AD1B44240
:1053B000B9D3FB061CD57B05DBD4002CD5D1119BC2
:1053C000102B5BD0119B022B6BD0302301240E9A43
:1053D00013704346002B10D17B073ED52B260E9A27
:1053E000631C1655CDE72300013430260E9AD6549F
:1053F000202CC5D04346002BEED02D260E9A631CE0
:105400001655BEE74346002B2FD0013DB44200D2D3
:1054100089E798E7119B102BB2D1BB0637D5202C1A
:10542000AED058230E9A13550134A7E7202CA7D0ED
:105430002300013407E0631E012CC0D0119A102A0A
:1054400031D0022AD1D162260E9AD65496E7FB06B5
:10545000CED57B0500D488E78BE723003E0790D5A7
:1054600020260E9A013316558BE70C233B405A1E1B
:105470009341ED1AB44200D255E764E7BB060ED45F
:1054800078230E9A0224137030235370A1E7202C46
:1054900000D175E778230E9A135501346EE758232F
:1054A000EFE76033EDE70E9AA61E91464E44BA062A
:1054B00002D55822327098E77822327095E7C046BC
:1054C00010B5002800D110BD01F0E6FCFBE7C04696
:1054D000F0B55746DE464E464546E0B595B08346A4
:1054E0000F00924698461E9A1F9B10001900209E9E
:1054F000FFF717F8002800D0EAE11E981F99012253
:10550000C54B5242FEF7F2FF002800D014E11E986E
:105510001F990122C14B5242FEF7FEFF002800D026
:10552000E9E01E981F990022BD4BFEF7F5FF002809
:1055300000D0C8E01E981F990022BA4BFEF7D6FF94
:10554000002800D0BFE01E981F9900220023FEF71C
:10555000CDFF002800D0E4E000230B93229B5B05E5
:1055600000D406260024302307E0172106AA0134C0
:1055700052181355013E202C01D0092EF5D81E9843
:105580001F99FEF7F7FFA84BF2009B181A685B689B
:10559000050008920993FEF7D5FF02000B001E9844
:1055A0001F99FEF728FF089A099BFEF754FF069003
:1055B0000791FFF703F88146FEF7C0FF02000B00DA
:1055C00006980799FEF717FF0022984B069007915F
:1055D000FEF7A2FF002800D10DE101239C46E14423
:1055E0004846FEF7ABFF02000B0008980999FEF74A
:1055F00083FF002802D0002399460135002E00D1F8
:10560000D9E006954D46B94614E006AA94461723FC
:105610000A216344280001341F19FEF7B1FC303120
:10562000397028000A21013EFEF7AAFC092D00D896
:1056300017E10500202CE8D14F46069D20240CAE32
:1056400006AA17239446634499465B46B3460693DD
:105650000FE04B4628000A210134E618FEF768FCEB
:105660003031280031700A21FEF762FC051E00D19E
:10567000E4E0202CEDD1069B5E469B460323229A54
:105680001340012B18D1219B002B15D00B9B002B15
:1056900000D1FDE0219B013B2193202B0CD930232D
:1056A000219A07E0172006A9013409180B559442E6
:1056B00000D3CCE0202CF5D1229B01940393219BB5
:1056C0000096029322E0229B52460493219B3900CC
:1056D000039358461E9B1F9C0296009301944346D9
:1056E00000F04AF90400200015B0F0BCBB46B246F9
:1056F000A946A046F0BD229B5B070FD403224C4B6A
:1057000022990192039121990093029143465246B6
:1057100039005846FFF798FD0400E4E70422454BA2
:10572000EEE71E9A1F9B00200021FEF764FE012376
:105730001E901F910B9311E7229B54469B0711D19A
:10574000219B042B0ED9219B55469C465E46043C6A
:1057500064442A004346013539002020B047A54261
:10576000F7D1B346344D26002B1F99465B46A3461E
:105770001C003200E87843463900013DA04701365D
:105780004D45F6D123005C469B46229B04349B0783
:10579000A9D55346219AE31A9A42A4D95E46150028
:1057A0002200434639002020B04753460134E31A13
:1057B0009D42F5D897E72800FEF7C4FE02000B00D3
:1057C0001E981F99FEF717FE0022184B06900791AE
:1057D000FEF78CFE0CAE002800D031E70698079942
:1057E0000022124BFEF798FE002800D028E7012384
:1057F00001359D4324E70022069807990B4BFEF7DD
:1058000075FE002800D0F9E64B46002B5CD1012341
:105810009C46E144F2E6C046FFFFEFFFFFFFEF7F4B
:1058200065CDCD4165CDCDC1304401100000E03FD4
:10583000183001101030011020300110069B5E4618
:105840009B460323229A1340012B00D181E0202C98
:1058500000D131E70B9B002B27D02D23335501348A
:105860002AE74F46069D202C00D1E7E63022331967
:1058700007E0172006A9013409180A55202C00D189
:10588000DCE6A342F5D12E220CAE0134F254D7E669
:105890000C23229A134257D0219B013B2193A34210
:1058A00000D9FCE6202C00D106E7229B5B0703D53C
:1058B0002B2333550134FFE6229B1B0700D4FBE664
:1058C000202333550134F7E6DB0700D496E69EE744
:1058D000229B55469B0711D1219B032B0ED9219B5F
:1058E00054469C465E46033D6544220043460134CF
:1058F00039002020B047AC42F7D1B346B9465F46E5
:105900001C4EEC1C2A00B078434649460135B84786
:10591000013EAC42F6D1229BBB464F469B0700D4CA
:10592000E1E65346219AE31A9A4200D8DBE65E4646
:1059300015002200434639002020B0475346013469
:10594000E31AAB42F5D3CEE6219BA34200D9A6E6EB
:10595000B2E6219B002B00D179E70B9B002B97D05F
:10596000219B013B21939C4200D298E6202C00D041
:1059700073E7A1E61C300110F0B5DE4657464E46EF
:105980004546E0B599B081468B4692469846229AA4
:10599000239B10001900FEF7C4FD002800D0CAE0C8
:1059A000229823990122824B5242FEF7B5FD00282E
:1059B00000D0C0E02298239901227E4B5242FEF78C
:1059C00095FD002800D0B6E02298239900220023FC
:1059D000FEF78CFD002800D0C9E1229B239C089390
:1059E0000994089809998023269ADB001A400D92A1
:1059F0008022269C1201144022000B94269C070052
:105A00000E001C4200D0ADE00B00034300D0D5E0F7
:105A1000002A00D00AE22200063324930223134016
:105A20000C930223134200D002E2259B042B00D2E8
:105A30000FE2043B0B93002304250A9300222298D3
:105A400023990023FEF752FD002800D003E25A4BB1
:105A5000269A134004930B9B0393249B0293089B69
:105A6000099C009301945946434652464846FFF725
:105A70002FFD02002020269B1F27034059424B4147
:105A80005B421840531C0893594643464530C8476B
:105A90000A9AD317D4185C40D30F0A936B1E0B934A
:105AA00008AB9C460025674401E0202D0FD0200064
:105AB0000A21FEF765FA01357E1930313170200078
:105AC0000A21FEF75DFA26000400092EEDD8052311
:105AD00006930B9B59460593002304930A330393C3
