:020000041000EA
:1000000000B5324B212058609868022188439860DF
:10001000D860186158612E4B002199600221596106
:100020000121F02299502B49196001219960352056
:1000300000F044F80222904214D00621196600F024
:1000400034F8196E01211966002018661A6600F04E
:100050002CF8196E196E196E052000F02FF8012189
:100060000842F9D1002199601B49196000215960AB
:100070001A491B48016001219960EB211966A021F2
:10008000196600F012F800219960164914480160C1
:100090000121996001BC002800D000471248134993
:1000A000086003C880F30888084703B5996A0420EC
:1000B0000142FBD001200142F8D103BD02B5186610
:1000C0001866FFF7F2FF186E186E02BD00000240BE
:1000D000000000180000070000035F00212200005C
:1000E000F4000018222000A00001001008ED00E03C
:1000F00000000000000000000000000074B24E7A12
:1001000000200420F7010010CB010010CD010010E9
:10011000C9010010C9010010C9010010C901001077
:10012000C9010010C9010010C9010010CF01001061
:10013000C9010010C9010010D1010010D301001045
:10014000C1010010C1010010C1010010C101001067
:10015000C1010010C1010010C1010010C101001057
:10016000C1010010C1010010C1010010C101001047
:10017000C1010010C1010010C1010010C101001037
:10018000C1010010C1010010C1010010C101001027
:10019000C1010010C1010010C1010010C101001017
:1001A000C1010010C1010010C1010010C101001007
:1001B000C1010010C1010010C1010010C1010010F7
:1001C000EFF30580103800BE00BE00BE00BE00BECA
:1001D00000BE00BEF2EB887164940110849401109B
:1001E0003802001090A31AE71E481F49086006C88D
:1001F00081F3088810471D480068002801D019487D
:10020000F3E70DA40ECC002902D000F012F8F9E7B4
:100210001749184A002000E001C19142FCD116495B
:100220008847164988471649884700BEFDE701C937
:1002300001C29A42FBD3704784940110C000002091
:1002400038270020FCBA0110000004200000042020
:10025000FCBA01100010042000100420000000006F
:10026000704700000000000008ED00E0000000D032
:1002700038270020DC46002005730010150500100B
:10028000FD720010F8B5C04606480749091A8B10E0
:10029000C90FC91810B5491003D0044B002B00D06A
:1002A000984710BD382700203827002000000000A4
:1002B000054B10B5002B03D00449054800E000BFF2
:1002C000FFF7E2FF10BDC046000000002C460020F2
:1002D0006C5F011010B5114801F0D8FC10491148AD
:1002E0000AF09CF80321002002F0E4FD0321012024
:1002F00002F0E0FD00220121002002F0F5FD0022C5
:100300000121012002F0F0FD074C200001F0E4FF84
:100310000121200001F08CFF10BDC046F4390020FF
:10032000A0860100A8210020E439002070B5D02467
:10033000802507F067F92406AD02112002F0E8FDE0
:1003400065626420656103F079FCA561642003F0B7
:1003500075FC642003F072FC2F4C200001F0AEFF0E
:100360000022002120002D4B02F00AF8012200217A
:100370002B4B200002F004F82A4807F091F92A4E8E
:10038000300000F059FB294D280000F055FB3000EB
:10039000274A284900F0E2FB002839D0264B0122E9
:1003A0000021200001F0ECFF022200212000234B5D
:1003B00001F0E6FFFA20400003F040FC28001C4A50
:1003C0001F4900F0CBFB002824D01E4B2000022246
:1003D000002101F0D5FF03221B4B0021200001F07A
:1003E000CFFFFA20400003F029FC3000102100F07C
:1003F0005FFC2800102100F05BFC0322002120009C
:10040000124B01F0BDFFFA20800003F017FC70BD15
:100410000F4BC4E70F4BD9E7E4390020AC5F011064
:10042000BC5F0110C85F011098460020A84600205C
:10043000AE47E13D00002F45705F0110DC5F011009
:1004400000007A438C5F0110E85F0110F85F011033
:100450007C5F01109C5F0110FA2370B59B008CB08B
:100460000393204B204A0493204B06920593099353
:100470001F4B204A0A930223079203AC1E4A210015
:100480001E4808920B9302F037F81D4D280001F02A
:1004900015FF2800002200211A4B01F071FF039A7A
:1004A0002800009200210122174B01F0B5FF0B9AA2
:1004B0002800164B00920021022201F0ADFF0498A3
:1004C00005F02AF9124E0090019133000322002119
:1004D000280001F0A1FFFA20C00003F0AFFB0CB030
:1004E00070BDC04600009643000048426F12833D35
:1004F0000D0300000000A04100004040F82A002049
:10050000E439002000600110106001101C6001102F
:100510002860011070B507F075F8642003F08EFBB9
:10052000FFF7D8FE324D280001F0C8FE002100225E
:10053000304B280001F024FFFA20400003F07EFB3E
:10054000FFF7F4FEFA20800003F078FB2A4800F061
:10055000FBFB3221294801F023FE00280FD128009F
:1005600001F0ACFE002228001100254B01F008FF2D
:10057000012200212800234B01F002FFFEE7224C5C
:10058000200001F0A1FFFA20400003F057FBFFF725
:1005900063FF280001F092FE0022280011001B4B8F
:1005A00001F0EEFE012200212800194B01F0E8FEC7
:1005B000184803F043FB200001F0BAFF00280CD1DB
:1005C000200002F0EDFB0A2003F038FB200002F0CF
:1005D000E7FB0A2003F032FBF2E7280001F06EFE91
:1005E0000022280011000C4B01F0CAFEE8E7C046CB
:1005F000E4390020346001106C460020C02800203F
:100600004860011050600110F82A00206460011059
:1006100074600110B80B00008860011070B5174DB0
:1006200082B0280001F010FB154E300000F07CFB7A
:1006300000230822009313490933134800F030F8CF
:100640000223082200930F490733104800F028F8CE
:1006500004230F4C00932722103320000D4901F092
:10066000DBFD320029000C4801F08AFD2300320036
:1006700029000A4801F0E8FE02B070BDF4390020FC
:100680006C4600200080034098460020A8460020C9
:10069000E4390020A8210020C0280020F82A0020EA
:1006A00070B5040008006946A3600023097C20603F
:1006B00062602373617300280DD0E121490203F0C9
:1006C000B3FC0221606802F0F5FB0221A06802F091
:1006D000F1FB200070BD01251000257302F018FC0D
:1006E00063689D40D0231B065D625D61F1E7C046F3
:1006F000F0B583B06D460023EB7105332B7080237A
:100700008446407B5B4203436B70130EEB70130C0B
:100710002B71130AA9706B71AA7169466A4600238E
:100720000720EE1D27E05B00DCB25BB2002B2DDB67
:100730006400E7B264B2002C2EDB7F00FBB27FB214
:10074000002F2FDB5B00DFB25BB2002B30DB7F00C2
:10075000FBB27FB2002F31DB5B00DFB25BB2002B5C
:1007600032DB7F00FBB27FB2002F33DB5B00013155
:10077000DBB2B14234D00F787B405FB2002FD2DAC7
:100780007F0047407BB2FCB2002BD1DA5B004340D4
:100790005CB2DFB2002CD0DA630043405FB2DBB260
:1007A000002FCFDA7F0047407BB2FFB2002BCEDABA
:1007B0005B0043405FB2DBB2002FCDDA7F004740E1
:1007C0007BB2FFB2002BCCDA5B0043405FB2DBB2FE
:1007D000002FCBDA7F0047400131FBB2B142CAD1D2
:1007E000EB716346202019688B691842FCD113789D
:1007F00001320B6002AB9342F6D1052003F01EFAE2
:10080000012003B0F0BDC046F0B54646D6464F467F
:100810000523C0B584B001AC23709246427B7A3385
:100820001340362263705B0053405AB2060088467C
:10083000A170002A00DAF3E05B00DAB25BB2002BB1
:1008400000DAE7E05200D3B252B2002A00DADBE06D
:100850005B00DAB25BB2002B00DACFE05200D3B219
:1008600052B2002A00DAC3E05B00DAB25BB2002BBE
:1008700000DAB7E05200D3B252B2002A00DAACE09C
:100880005B00DBB2424653405AB2002A00DA9EE0D7
:100890005B00DAB25BB2002B00DA92E05200D3B216
:1008A00052B2002A00DA86E05B00DAB25BB2002BBB
:1008B00000DA7AE05200D3B252B2002A00DA6EE0D7
:1008C0005B00DAB25BB2002B63DB5200D3B252B2F0
:1008D000002A58DB5B00DAB25BB2002B4EDB520021
:1008E000D3B220213268E37002A893691942FCD187
:1008F000237801341360A042F7D10822002104F0CC
:10090000D7FF002503F042FB484C24184D41002D31
:1009100002DA0124464D644200231027994604E080
:10092000336810219A69174210D003F02FFB220080
:100930002B00121A8B41002BF2DC01D1002AEFD1DF
:1009400041463C4806F030FF002011E09A69114210
:10095000FCD11A6801239C466B46E14449460733A3
:100960005A540829E1D152460120039B1BBA136057
:1009700004B0E0BCBA46B146A846F0BD07225B0011
:100980005340DBB2ADE7072352005A4053B2D2B214
:10099000A3E707225B0053405AB2DBB298E7072374
:1009A00052005A4053B2D2B28DE707225B00534047
:1009B0005AB2DBB281E7072352005A4053B2D2B297
:1009C00075E707225B0053405AB2DBB269E70723A1
:1009D00052005A4053B2D2B25DE70723520053404F
:1009E000DBB24FE707225B0053405AB2DBB244E769
:1009F000072352005A4053B2D2B238E707225B00B5
:100A000053405AB2DBB22CE7072352005A4053B28C
:100A1000D2B220E707225B0053405AB2DBB214E7A0
:100A2000072352005A4053B2D2B208E7400D0300E8
:100A3000FFFFFF7F94600110F0B54746CE460523C7
:100A4000202180B585B007000268019301A802AE9D
:100A500093691942FCD10378013013608642F7D1C3
:100A600005220021300004F023FF002503F08EFA58
:100A7000354C24184D41002D02DA0124334D6442D7
:100A8000002399461033984604E041463B689A6932
:100A9000114220D003F07AFA22002B00121A8B4167
:100AA000002BF2DC01D1002AEFD11120D0248025C7
:100AB00002F02EFAFA202406AD026562400065615C
:100AC00003F0BCF82248A56106F0EAFD05B0C0BC01
:100AD000B946B046F0BD10219A691142FCD11A689E
:100AE00001239C466B46E144494607335A54052985
:100AF000D0D1112002F00CFAD02380220D251B0644
:100B00009202052113485A6206F04EFE124C6D44C3
:100B100031782000013606F047FEB542F8D10A20B0
:100B2000D026802506F072FD03243606AD0264202F
:100B3000756103F083F8013C6420B56103F07EF831
:100B4000002CF4D1C2E7C04640420F00FFFFFF7FF8
:100B5000E0600110C0600110FC60011070B505007C
:100B600082B0081C4949141C04F021FD484904F0D6
:100B700032FD211C04F02FFD4649061C04F017FD30
:100B8000FE21890504F00DFD4349041C04F060FDBD
:100B9000002827D04149301C04F009FDFE218905B9
:100BA00004F0FFFCFC21890504F0FEFC04F07CFD50
:100BB00004001F2868DCC343DB171C40200004F03E
:100BC00051FD374904F007FD04F06EFD06001F28B3
:100BD00051DC6C21280001AAFFF716FE002846D13F
:100BE000304A22E0FC21201C890504F0DDFC04F0E1
:100BF0005BFD04001F2838DCC343DB171C402000CA
:100C000004F030FD264904F0E6FC04F04DFD06003A
:100C10001F2821DC6C21280001AAFFF7F5FD002820
:100C200018D08022019B92021A436C212800FFF702
:100C30005FFD0A2003F002F81F20A02230402402AA
:100C400020431203024310212800FFF751FD012029
:100C500002B070BD144AE8E76C21280001AA1F26E3
:100C6000FFF7D2FD0028F5D0DBE71F24C7E7019A84
:100C70000E4B1A40D9E76C21280001AA1F26FFF766
:100C8000C3FD0028F3D1ABE71F2497E700007A44A7
:100C9000F30435426666A63E0000F841EC51383E4A
:100CA0009A99993E5300001053000210FFFFFDFF78
:100CB00010B520290DD8002905D0202903D8114BC3
:100CC00089005B589F46104A6C21FFF711FD0120F7
:100CD00010BD40290AD080394B1E9941C0234A4299
:100CE0009B041A40094B9C466244EDE7084AEBE737
:100CF000084AE9E7084AE7E7084AE5E7084AE3E778
:100D0000084AE1E760750110530000145300001118
:100D10005300001253000018530000165300001730
:100D2000530000135300001500230360054A43607D
:100D30008360C36003748361C3610133FF33426125
:100D40000362704700003050F0B5DE4657464E460D
:100D50004546E0B504008BB0192002F0D9F8D02345
:100D600080221B0692049A6201210022192002F0BF
:100D7000BBF8042322270026FF332384002201210D
:100D80000320E65502F0B0F801210420002202F011
:100D9000ABF87848784D6061290009F001F9002826
:100DA0002AD1002303202374D02502F0B1F80823B0
:100DB0002D0600220121AB62032002F095F80420E9
:100DC00002F0A6F810230022AB620121042002F0F9
:100DD0008BF86B681B07DB0F23736B68DB06DB0F7D
:100DE00063736B689B01DB0FA3730BB0F0BCBB4656
:100DF000B246A946A046F0BD2900606909F00EF987
:100E000000218046606909F0AFF8051EC9DB434642
:100E1000E3616369A0619A462023E35C994606ABCF
:100E20009B4680235B020693C0235A461B039360B4
:100E3000434642460133D2011B0313435A465360D3
:100E40004B46F822DB03120313405A46D3604B4B48
:100E5000484653441B0D0633DBB21900059302F0DC
:100E600029F84A460599501C02F024F8290002236B
:100E70004A460096504609F04DF95B469A68C823E9
:100E8000DB0306933E4B29001A403E4B504613436A
:100E90005A4693605B46424609F096F93A4A6B001F
:100EA000944680225B19DB005344634412061A60A7
:100EB00001211A6053461A680B00AB4023251343E7
:100EC00052461360217466556369A2699C465E6848
:100ED0001300080008339840064248D16546980040
:100EE00046592120B60F3500205CE75D05412800FA
:100EF00008403E414000070023250E403743780854
:100F00000840675539406173D021090649681025AA
:100F10008901C90FA1730321012688461B4F207345
:100F200003E063699C46130008336146486831005A
:100F3000994008420CD162469B00995842463800BD
:100F40000A408B0F013D06F02FFCA269002DE8D16D
:100F50002023E35C02922222A25C0321019221223F
:100F6000A25C0B480092042206F01EFC3DE7002123
:100F70000020C8E700002050F47501100000E0AF29
:100F8000FFFF0A3E00000480D01000004461011001
:100F900004610110F0B5DE4657464E464546E0B5C1
:100FA000037C87B0002B33D1D02636067468037BD0
:100FB0007268457B24075B00E40F2B43D206D20FF7
:100FC00012495BB265009B0015436DB2C9184768B2
:100FD0004B570473DB194360736842738022920499
:100FE00013409A01D20F002B04D1837B002B01D038
:100FF0000123C373036882730133036007B0F0BC3D
:10100000BB46B246A946A046F0BDC046E4750110F5
:10101000012184690E00220008329640456902963B
:101020006B681E4200D036E22123C35CA4009C46BC
:101030002223C75C2B191A6A6446920F049313008B
:101040000E0023411E403A4133000E001640B246C6
:101050000596DF4E5246B24644680197A146077B8B
:10106000447B7F0027437FB25C00BF00224357448C
:10107000BF56029C4F4447606F68274200D011E280
:10108000049FB1463F6A5B00BC0FA0462200644645
:10109000224117000A0044463A401700019A03967D
:1010A00014410C40A346A0464468059AA2465C46FB
:1010B00013439B007A0022434B449B56029C5344AB
:1010C00043606B68234200D0E9E1049B64461A6ADE
:1010D000019E920F130023410C001C40230032415B
:1010E0000C00144042687F0092465A4617435A004B
:1010F0009146059422004C4622439146039A4C4661
:101100009046BF0047443F57029C574447606F6872
:10111000274200D0C6E1049F059A3F6A5B00BC0FDE
:10112000A0462700644627410C003C402700444667
:1011300034410C40A346A046039E4468B146A246F3
:101140005C4613439B007A0022434B449B56029C0F
:10115000534443606B68234200D0A0E1049B644683
:101160001A6A019E920F130023410C001C402300B9
:1011700032410C00144042687F0092465A461743A1
:101180005A009146059422004C4622439146039A08
:101190004C469046BF0047443F57029C5744476027
:1011A0006F68274200D07DE1049F059A3F6A5B008B
:1011B000BC0FA0462700644627410C003C40270096
:1011C000444634410C40A346A046039E4468B146C1
:1011D000A2465C4613439B007A0022434B449B5635
:1011E000029C534443606B68234200D057E1049B48
:1011F00064461A6A019E920F130023410C001C40A2
:10120000230032410C001440A346059444687F003B
:10121000A246444627435C00A1465C464A46144326
:10122000039ABF00904647443F57029C574447608B
:101230006F68274200D035E1049F5A463F6A5B0041
:10124000BC0FA0462700644627410C003C40270005
:1012500044463441039E1343B1460C407A009B0040
:1012600022434B4441689B56A0465B1843606B6821
:10127000029C234200D012E1049B61461A6A019E3F
:10128000920F13000B4101210C001C40230032413E
:101290000C001440A346059444687F00A2464446CF
:1012A00027435C00A1465C464A461443039ABF00AC
:1012B000904647443F57029C574447606F68274217
:1012C00000D0EFE0049F019E3F6A5B00BC0F6746C1
:1012D000A0463C412700444634410C40A146A34669
:1012E00044680F40A046059CBA4623434C469146AD
:1012F0007F009B0027434B44DB57029C43444360E1
:101300006B68234200D0D4E0049F64463A6A476881
:10131000920F130023410C001C40324123000C00AB
:10132000B946574614405E46039A7F0092463743BB
:10133000BF005E000594574434433F57029C4F441E
:1013400047606F68274200D0ACE0049F019E3F6A6F
:101350005B00BC0F6746A0463C4127004446344131
:101360000C40A146A34644680F40A046059CBA46DF
:1013700023434C4691467F009B0027434B44DB5759
:10138000029C434443606B68234200D091E0049F79
:1013900064463A6A4768920F130023410C001C40D0
:1013A000324123000C00B946574614405E46039A6A
:1013B0007F0092463743BF005E0005945744344394
:1013C0003F57029C4F4447606F6827426AD101E053
:1013D000E4750110049F019E3F6A5B00BC0F6746E5
:1013E000A0463C412700444634410C40A146A34658
:1013F00044680F40A046059CBA4623434C4691469C
:101400007F009B0027434B44DB57029A43444360D1
:101410006B6813424DD1049F64463A6A4768920F45
:10142000130023410C001C40230032410C00B9463C
:10143000574614405A467F0017435A0005941443F8
:10144000039ABF00924657443F57029A4F44476061
:101450006F68174226D1049F62463C6A5B00A40F66
:10146000270034410E0017410A00264034003102A3
:1014700046683A40B146059E1700334311439B002E
:101480005200224353449B56029A4B4443606B687C
:101490001A4212D18181D0231B065B689EE5434628
:1014A00005933B000373059B4373D0231B065B68C6
:1014B00094E55B4605935346F4E73B000594F1E75A
:1014C0004068704700234360836070470300C07B1F
:1014D000002801D00022DA737047C046F8B54746AD
:1014E000CE4680B51F00002304000D0016000360E7
:1014F00043608360002908D00022002330003900B7
:1015000003F01EFC8046002804D02000C0BCB94671
:10151000B046F8BD0C2004F0D7F9814632003B00FC
:101520000020084903F0A5FB03F06CFC4B46424643
:101530005A604A4618609D600C3322606360A36065
:10154000E3E7C04680842E41F0B5DE4657464E465E
:101550004546E0B595B011938A4200D84DE1531A43
:1015600099460268002900D04FE1002300240E9321
:101570000F9412931393002392460024984600235D
:10158000C9008A44D3460A930B940893099406939E
:101590000794029303940493059401239C46E0442A
:1015A000404603F0EFFB04000D0000229C4B03F0CB
:1015B0004EFB22002B0003F07AFB0022994B03F034
:1015C00076FB5B4606000F0003CB9B460E9A0F9BF3
:1015D000801A994103F022FC2200009001912B0017
:1015E0002000290003F063FB02000B00049805991A
:1015F00003F036FB3200049005913B0020002900E7
:1016000003F055FB02000B000298039903F028FB3E
:101610003200029003913B003000390003F047FB99
:1016200002000B000698079903F01AFB009A019B31
:10163000069007912000290003F039FB02000B00FF
:101640000898099903F00CFB009A019B08900991F6
:101650003000390003F02BFB02000B000A980B99B5
:1016600003F0FEFA0A900B91C84596D1069A079BA3
:101670000498059903F01BFB029E039F04003200AF
:101680003B000D003000390003F011FB02000B009D
:101690002000290003F0DBFA4B000F00624A5908D2
:1016A000624B060003F046FB002800D0A5E0089A34
:1016B000099B0698079903F0FAFA0A9A0B9B040013
:1016C0000D000298039903F0F2FA02000B002000CB
:1016D000290003F0BCFA32003B0003F0CAFA029C76
:1016E000039D06900791200080242406A4462B0029
:1016F00063441900089A099B03F0D9FA0A9A0B9BD4
:1017000004000D000498059903F0D1FA02000B00C3
:101710002000290003F0A4FA3B00320003F0A9FAEC
:10172000049005911298139903F084FB002300267E
:10173000002798460890099101239C46E0444046C2
:1017400003F020FB534604000D001868596803F0AD
:1017500071FB002200900191314B2000290003F021
:1017600076FA22002B0003F0A2FA049A059B03F0FC
:101770009EFA00222B4B03F09AFA22002B000290D3
:1017800003910698079903F092FA089A099B03F0CF
:1017900067FA02000B000298039903F061FA020055
:1017A0000B000098019903F052FA4B005B080C9073
:1017B0000D930C9C0D9D32003B002000290003F08E
:1017C000CFFA002801D134003D0008239C462600B2
:1017D0002F00E244C845AFD10698079914F0CCFA1F
:1017E000119B18600498059914F0C6FA1E9B1860A6
:1017F0001F9B01201C605D6000E0002015B0F0BC64
:10180000BB46B246A946A046F0BD4B1EDB00D3182E
:1018100018685B68129013930E900F93ABE6C04666
:101820000000F03F0000E03F11EA2D819997713DE3
:10183000F0B5DE4657464E464546E0B504681F0003
:10184000436880468B46160087B09C4200D04460B7
:1018500080235B059B4500D3C9E043469D682B1B55
:10186000DB109B4509D85B46002B1ED107B0F0BCAE
:10187000BB46B246A946A046F0BD5B46DD00280047
:1018800004F022F843461B680400994643465A6810
:101890004B46D21A002A00DD94E0002B00D0A1E0D4
:1018A000434665191C605C609D60002300229946D8
:1018B0000023029203935B46C246CB46A046A9464C
:1018C00004930CE04246009B019C18C2534690468C
:1018D0005A6001239C46049BE3445B45C6D9129899
:1018E000139932003B0003F0BBF902000B00040027
:1018F0000D001098119903F01DFA109E119F0028F9
:1019000001D126002F0032003B0000203B4903F0AC
:10191000B0F902000B000298039903F0A1F900222C
:10192000374B0290039103F0C2F903F0AFFA009035
:101930000191C145C6D153464A461B68D51A059345
:10194000304BEA109A4255D00123002A02D05300AE
:101950009A4234D88022520593421BD2DB0099462A
:10196000484603F0B1FF0099019A431919605A6083
:101970002B000833984604008044002D0CDC059BA6
:10198000002B2AD153464246A1445A604A461C6065
:101990009A609EE71B4BE1E72A00059D290003F0B2
:1019A0008DFF53469968491B059803F095FF5346F0
:1019B0004246A1445A604A461C609A6089E7124B2D
:1019C0009946CDE7494603F079FF434699684B466F
:1019D000C91A484603F080FF62E753469968059BA1
:1019E000C91AE1E7434699684B46C91AF1E7074827
:1019F00008F05EFD064808F05BFDC0460000F03FC1
:101A000080842E41FFFFFF0FF8FFFF7F6861011008
:101A100078610110F8B54746CE46466880B507683C
:101A20000D00F61BB21093009B1819015B181902E8
:101A30005B1819045B185B009B181F4A0400934253
:101A400037D00120002B1ED11B4B984221D84300D8
:101A50001B189B009946484603F036FF83198046C1
:101A600007CD07C335000C354544002E13DC002F8D
:101A70001CD140464346484465602360A060C0BC1A
:101A8000B946B046F8BD58008342DDD90B4B9946A4
:101A9000E1E71800DBE739003200404603F00EFFB3
:101AA000A168C91B380003F017FFE2E7A168C91B52
:101AB000F8E7034808F0FCFCAAAAAA0AF8FFFF7F8F
:101AC00078610110F0B54E464546DE465746E0B512
:101AD000002699B004000D1E06604660866007D19E
:101AE000200019B0F0BCBB46B246A946A046F0BDE6
:101AF000002000210E900F912498259902900391C7
:101B0000229823990090019129000EA81096FFF7C2
:101B10008FFE0E9B98460F9B42469946109B9B4614
:101B20004B469B1ADB100793C84562D000230593F0
:101B30000BAB9A462500059BFA279C465C1CBF0010
:101B4000079B67449F4200D91F000694BC422AD8D5
:101B50002600089409950BE0269A279B0C980D996E
:101B600003F0EEF8002817D0661C0694BE4218D881
:101B700043460E934B460F935B4610930CAB019379
:101B80005346F5196C080093220005990AAB0EA87C
:101B9000FFF7DAFC0028DFD1012D02D9671EBE4213
:101BA000E6D9089C099D43460E934B460F935B462E
:101BB00010930CAB01935346069E059F3200009391
:101BC00039000AAB0EA8FFF7BFFC6B68AA680028B3
:101BD0001AD00A9C0B98F71B9A4222D01C605860BE
:101BE0009F600C336B60069B0593079A9342A2D3C8
:101BF0002C004346002B00D172E75B46424640462C
:101C0000991A03F069FE6BE79A4212D0FA22920009
:101C10001A60012258609A600C336B6023000594AF
:101C2000E3E712A94860280012948F60FFF7F2FEE4
:101C3000D9E7FA239B001593012315A948602800D2
:101C40008B60FFF7E7FEE9E7C02310B504001B0136
:101C500004220021C01803F02BFE0A4B0422E018D6
:101C6000002103F025FEC2231B01E01802220021FF
:101C700003F01EFE044B08220021E01803F018FEBA
:101C8000200010BD040C00002C0C000010B50B202F
:101C900001F03EF9D024802324061B0163620A2050
:101CA000A36101F035F98023DB0063620C20A3619E
:101CB00001F02EF980235B0163620620A36101F02D
:101CC00027F9402305206362A36101F021F9202355
:101CD00007206362A36101F01BF980236362A361A3
:101CE00010BDC046F0B5D6464F4646460300C0B5C7
:101CF000002001291DD8C0244D005E192401A246F0
:101D0000345BA7B2BC460D4F0134F75BB8467F2762
:101D10003C4044450DD0604640006D1860446D0263
:101D20008000401918182ACA2AC053460120A4B2BC
:101D3000F452E0BCBA46B146A846F0BD040C00001F
:101D40000300002001290AD8C02249005B181201B3
:101D5000985A034A9B5AC01A431E9841C0B2704712
:101D6000040C00000300002001290BD8490058187A
:101D7000C023064A1B01C15A825A8BB290B2181A6C
:101D8000914200D370478030FCE7C046040C00004D
:101D900010B501290ED8C0224B00C31812019A5A5F
:101DA000054C92B21A53C2231B019C4600234018D3
:101DB0006044037010BDC046040C00004B1E9941E6
:101DC000074B494219408023DB009C46D0236144E5
:101DD0001B06002A01D0596170479961FCE7C04693
:101DE00020FCFFFF03000020012905D85818C2235A
:101DF0001B019C46604400787047C046F0B5DE4643
:101E000057464E464546E0B5B84B85B002931B7821
:101E100004005D1E2A0069424D41C2219B46090112
:101E2000531E9A4189468718B94449460978D3B266
:101E3000EDB2002900D0BFE05F00C2199046C02279
:101E4000414612018A5AAA4994464246525A94453A
:101E500026D04246525AFF189446BA008118A54A25
:101E60007F0292466246520062448A449200D2192E
:101E70005746821843CA43C742469D494046575A6F
:101E80007F2201373A404252012249460A70C2215C
:101E900089008C46984A6344926A9B00E3185A6012
:101EA0006319C2219846090141440B788946002BE9
:101EB00036D1C0236A00A0181B01C75A8C4B9A4622
:101EC000C35A9F4223D05346C35A52199C46894B4A
:101ED0009700984663465B00634452029B009B1840
:101EE000E7194744E31846CB46C75346C25A7F23F7
:101EF000013213405246835201234A4613707E4BEF
:101F00009A6AC2239B00EB189B00E3185A60029B5D
:101F10001D7005B0F0BCBB46B246A946A046F0BD58
:101F2000754BAF009B6AE7199A465146734BFA58B6
:101F30006B008A1A6F495B1989469B00E418A1441B
:101F400049460B689A42E2DB80225E4612019446C3
:101F5000D022013E73425E4112069346684B7642A0
:101F60001E40664456610220002102F019F85A46CC
:101F700096615246614BFA50624ABB580133BB50DE
:101F8000C1231B01E3181E68002E66D14B4618685A
:101F90005D4B00219C46644424682200E3178018AE
:101FA0005941002900DC88E04B461860C22300221A
:101FB0001B0143441A70AAE74F49886A9900894671
:101FC000A1444E464D49009071584A4E411A58005E
:101FD000C3189B009846A04446443368994200DAEF
:101FE0005EE7474B52421A4013008022120194468A
:101FF000D0221206924663440393022053610021CB
:1020000001F0CEFF5246039B009893614A463B4B3A
:102010004946D0504B463B4A9B5801338B50C12315
:102020001B0143441A68002A2CD0013A1A60336815
:102030009446009300230193334B00980199434445
:102040001B681A00DB1780185941002931DD6346EF
:102050003060002B00D023E720E0013E1E604B469D
:102060001868294B00219C46644424682200E31729
:1020700080185941002924DD4B461860002E00D0FD
:1020800045E793E7204B326843441B681800D91793
:10209000002380185941002907DD3060C2231B014D
:1020A0009C46002367443B70FAE600291AD00120C1
:1020B000F3E7002912D00120C9E7002909D0012047
:1020C00072E7002901D00120D6E70028D4D10120F1
:1020D000D2E7002800D067E7012065E70028B6D1E5
:1020E0000120B4E70028D8D10120D6E7E020002065
:1020F000040C0000080C000000400540240C000007
:1021000040F8FFFF2C0C00000C0C0000194B10B520
:102110001C68002C26D0236A6068013323620028E3
:1021200001D0FEF737FF2068002801D0FFF766FED8
:10213000E36A002B01D0206B98470F4A236A11688D
:102140005B1AFA2149008B420CD301200B490B7812
:1021500043400B7008D1D02380211B0649039961AD
:10216000236A1360012010BDD02380211B06490380
:102170005961F5E7782B0020AC2B0020D1460020D8
:1021800042603222002342620A3A036201608354B1
:10219000C3620363014B18607047C046782B002070
:1021A000F0B5C646D0258026032400B52D0676035B
:1021B000070084B01420884600F0AAFE6E62AE616B
:1021C00064206E6101F03AFD013C6420AE6101F0D3
:1021D00035FD002CF4D128257B5D002B04D0002098
:1021E00004B080BCB846F0BD43463C627B6201F05F
:1021F000AFFB390043460831029106495A42D317D2
:102200000197009101F01EFE0028E8D001237B55C4
:10221000E6E7C0460D21001010B5437108236C4657
:10222000C3710023247A016002718471038110BD9F
:102230000F22002300B5C90085B0C9B26A441170ED
:10224000C171017900680093013308F00FF905B0FE
:1022500000BDC046F0B50F260027C37985B0040045
:102260006E440B4333700D00320001790123006886
:10227000009708F0FBF80422E37920682B4313430E
:102280003370320021790123009708F0EFF8012024
:10229000002101F05DFC04239D43E37932001D43DE
:1022A0003570217901232068009708F0DFF832208B
:1022B000002101F04DFC05B0F0BDC04610B5040092
:1022C0000021FFF7C7FF10212000FFF7C3FF022006
:1022D00001F0B4FC10BDC04610B50400322001F07E
:1022E000ADFC30212000FFF7B5FF052001F0A6FC72
:1022F00030212000FFF7AEFF052001F09FFC2000F9
:102300003021FFF7A7FF9620002101F021FC2000DB
:102310002021FFF79FFF20002021FFF79BFF2000D7
:102320008021FFF797FF0423200023720021FFF78D
:1023300091FF2000C021FFF78DFF20000021FFF753
:1023400089FF10212000FFF785FF022001F076FCB5
:102350000223200063720021FFF77CFF2000602130
:10236000FFF778FF20000021FFF774FF20212000F5
:10237000FFF770FF022001F061FC012010BDC04694
:10238000F0B5C64600B51F008379060086B09A42B4
:1023900001D3013BDAB27379994201D3013BD9B23F
:1023A0001B4B30009B5C6D46C918CCB20F2321003B
:1023B000994371331943FFF74DFF21013000C9B232
:1023C000FFF748FF3B00134A1521684604F0F2FE70
:1023D00000227379EA542C78002C14D00F230127A3
:1023E000984643462100994339433000C9B2FFF76C
:1023F00031FF2101394330000135C9B2FFF72AFF0F
:102400002C78002CEDD106B080BCB846F0BDC0469B
:10241000007601109461011008B470B504000D003D
:10242000160089B00DAB04CB152102A8019304F06E
:10243000D5FE32002900200002ABFFF7A1FF09B052
:1024400070BC08BC01B0184730B54260FA22920057
:102450000261174A01604261164A1749826182622D
:10246000164AC161C26202221549836001621549A0
:102470000023416202634C2100220124C3604363B4
:102480008363C363026443648364445402655422D7
:102490000025002483541432046645668365835402
:1024A00000220023046745678267C36730BDC046CA
:1024B000000096436F12833D000048420D03000068
:1024C0000000A04100004040002310B50400C3609C
:1024D0008068FFF7F3FEA06800220021044BFFF79D
:1024E0004FFF01220021034BA068FFF749FF10BDF9
:1024F0009C610110AC610110030070B50400103341
:1025000025C925C325C925C325C925C3A169E069F6
:10251000A16203F04CF803F0F9F8011E00D101317B
:102520002069E1620138401802F056F9206370BD5D
:10253000C36810B504000020002B24D100232365BC
:102540005423002268216063A063E063E054002309
:10255000A065226663666054606822676367FEF761
:10256000AFFF60646068FEF7ABFF0123A067E06720
:10257000E360A068FFF7A2FEA06800220021024BE2
:10258000FFF7FEFE012010BDBC610110F0B5C6468C
:1025900000B5364F05003B7886B0002B12D1344B86
:1025A00098466868FEF792FF002836D14246314BC4
:1025B00012689B6A9B1A304A93424BD806B080BC83
:1025C000B846F0BD2B4B2A4A9B6A90461360002305
:1025D0000022C8213B70294B03A8009201930901F6
:1025E0000022274BFEF77AFF0398049E864209D00B
:1025F00004002200002128680C34FFF773FBA64278
:10260000F7D103980028CCD00599091A03F064F992
:102610006868FEF75BFF0028C8D06868FEF752FFC5
:1026200000212868FFF7B4FB0222164B0021A8689E
:10263000FFF7A6FEFA20400001F000FB022342460D
:10264000EB60013B3B700B4B12689B6A9B1A0A4A7A
:102650009342B3D90C4B03220021A868FFF790FEE8
:102660000823EB60073B3B70A8E7C046E120002051
:10267000A82B0020004005408096980000003440C0
:1026800000006940D0610110E0610110F0B5C6465C
:1026900000B5484E0400357886B0022D42D034D8BB
:1026A000002D50D0D0231B065B6801210068DB039E
:1026B0005ED4FFF76DFB03AB98460022A0213E4B92
:1026C000404600920193C90000223C4BFEF706FFF2
:1026D000206801220121FFF771FB0398049F8742C4
:1026E00009D005002A00012120680C35FFF7FAFA0D
:1026F000AF42F7D103980223337000280ED043462F
:102700009968091A03F0E8F808E0032D06D1FA20C9
:10271000400001F093FA0023E560337006B080BCFE
:10272000B846F0BD01210068FFF75CFB0028F5D139
:1027300001212068FFF704FB0028EFD10023236567
:1027400003233370EAE7102000F0E2FBD02380225D
:102750001B0652029A6201210022102000F0C4FBE5
:10276000002201212068FFF729FB01233370D5E700
:10277000FFF738FB0028D1D103AB98460022FA219D
:102780000D4B404600920193890000220B4BFEF74F
:10279000A5FE0398049E864209D005002A00012167
:1027A00020680C35FFF79EFAAE42F7D10398002857
:1027B000A5D1B3E7CD46002000003440007097401B
:1027C000F0B52F4F05003B788BB0002B07D00121CF
:1027D0002868FFF707FB002841D00BB0F0BD006A66
:1027E000284902F0E4FE284902F0F5FE8321C905DC
:1027F00002F0F1FE02F08AFF0022244B0100049255
:1028000005930022224B07A8029203930022214B3A
:102810000092019300220023FFF754F92868012257
:102820000121FFF7CBFA0798089E864209D00400E1
:102830002200012128680C34FFF754FAA642F7D190
:10284000079801233B700028C1D00999091A03F0A9
:1028500043F801212868FFF7C5FA0028BDD10121FE
:102860002868FFF76DFA041EB7D1FA202B6A4000E2
:102870002B6501F0E3F904233C70EB60ADE7C04643
:10288000CE4600200000A040000048430000344035
:102890000088B3400070A740F0B55746DE464E466C
:1028A0004546E0B57F4F04003B7889B0002B01D14D
:1028B00001333B700021606902F0C2FE002800D0A5
:1028C000A8E0666A0021301C02F0BAFE051E00D0A6
:1028D000A0E023689A4654239946E35C002B20D05D
:1028E000FA21714B8900986AA36DC01A01F074FF38
:1028F000002180465046FFF735FA6C498246301C6D
:1029000002F069FE02F002FF404503D85346032B54
:1029100000D88BE009B0F0BCBB46B246A946A04641
:10292000F0BD4A460133A3545F4B533A9B6A50466D
:10293000A3650021FFF742FA5D49606902F037FEA6
:102940005C4902F048FE5C49051C606A02F02FFEFB
:102950005A490390281C02F03EFE5949061C02F019
:1029600077FEB24600285ED05146281C02F019FEC0
:102970000123984605AB83469946404602F072FE15
:102980004D4902F014FE011C02F025FE594602F0EA
:1029900022FE514602F008FE061C011C039802F0BC
:1029A0001AFE051C301C02F0B7FE0F00FE210600C7
:1029B0008905281C02F04CFE002801D1FE25AD053A
:1029C000281C02F0A3FE00223E4B0100009201935E
:1029D000484632003B00FEF781FD059D069EB5424C
:1029E00009D02A00002120680C35FFF77BF9AE42A0
:1029F000F7D14B461E68002E05D04B469968300033
:102A0000891B02F069FF01239C46E0444346192BD1
:102A1000B3D17FE72C4B01220021A068FFF7B0FC67
:102A20000823E36076E7264B9A469DE74B466069AC
:102A3000E5541F4902F0BBFD1E4902F0CCFD05AB79
:102A40009946804602F068FE0E00FF2105008905C8
:102A5000404602F0C0FD02F059FE0022194B010071
:102A600000920193484633002A00FEF737FD05988F
:102A7000069E864209D005002A00002120680C35F8
:102A8000FFF730F9AE42F7D10598002804D04B4645
:102A90009968091A02F020FF0523E36000233B70C8
:102AA00038E7C046CF4600200040054000007A4489
:102AB00000007042000048450000C0410AD7A33C16
:102AC0000000C84200003440F4610110F0B5040079
:102AD00087B04068FEF7F4FC666C801B002861DD5F
:102AE000B421C90001F050FE051E5BD0A36B41006C
:102AF0001B180918A3630B015B1A5B01E26B9B199E
:102B00006364E36A8218E2639A424FD2A66A28009D
:102B100002F0A3FD311C02F05EFD2E4902F047FDDC
:102B20002D4902F058FD8321C90502F054FD02F041
:102B3000EDFD051E36D02949206C02F038FD311C10
:102B400002F049FD264902F046FD2649061C02F026
:102B500071FD002828D14C230121E25C2068FFF799
:102B60002DF9301C02F0D8FD00261F4F02000B008B
:102B70000096019703A82900FEF7B0FC0398049E75
:102B8000864209D005002A00012120680C35FFF794
:102B9000A9F8AE42F7D10398002803D00599091A85
:102BA00002F09AFE07B0F0BD0E4ED4E700234C2190
:102BB0000120626BE36301326263635C43406354F0
:102BC000216BA068094B0191009200210222FFF7BE
:102BD00023FC9BE70000A040000048430000704237
:102BE0000000204400007A440000344004620110D8
:102BF000F0B50021050087B00068FFF7B3F827287B
:102C00000AD92800FFF762FFAA6B2B699A4201D309
:102C10000623EB6007B0F0BD6869184902F0C7FCF5
:102C2000174902F0D8FC041C02F076FD0F00FC21CD
:102C300006008905201C02F0CEFC02F067FD002290
:102C4000104B01000092019303A832003B00FEF7F5
:102C500045FC0398049E864209D00400220000210E
:102C600028680C34FFF73EF8A642F7D103980028F5
:102C7000C7D00599091A02F02FFEC2E70000704282
:102C80000000484500003440F0B5D646050000B5C8
:102C900080688CB0FFF712FB3B4B00220021A86834
:102CA000FFF76EFB394F3B78002B16D0286C02F0F3
:102CB00033FDAE68364C00900191230000213000B6
:102CC0000122FFF7A9FB00212868FFF78BF80028F5
:102CD0004FD00CB080BCBA46F0BD00212868FFF789
:102CE00057F801212868FFF753F86869294902F06D
:102CF0005EFC294902F06FFC6B6A041C9A4602F0E4
:102D00000BFD06900791211C504602F064FC02F076
:102D1000FDFC0022214B06000492059380231B0634
:102D2000E018514602F043FC02F0F6FC00220023BA
:102D30000290039100920193069A079B310009A823
:102D4000FEF7C0FE09980A9E864209D004002200C0
:102D5000002128680C34FEF7C5FFA642F7D1099878
:102D600001233B700028A1D00B99091A02F0B4FD91
:102D70009CE700212868FEF7E3FF0028A9D107237C
:102D80003870EB60A5E7C04614620110D046002001
:102D900028600110000070420000484500003440E7
:102DA000F0B53A4B856C9E6A394B040083B0751BB5
:102DB0009D4229D94068FEF783FB0300E06FE3677B
:102DC000181A02F04FFC334902F0F1FB071C2800EF
:102DD00002F043FC304902F0EAFB011C381C02F00F
:102DE000E6FB2E4902F0F7FBA66420646068FEF75C
:102DF00067FB0600206C02F08FFC294D02000B00DF
:102E00002800310004F0D0FCE368072B1ED8254AC7
:102E10009B00D3589F46A068FFF750FA002200217C
:102E2000214BA068FFF7ACFAA26BA06800211F4BF2
:102E300000920122FFF7F0FA626B1D4BA06800219F
:102E400000920222FFF7E8FA0023E36003B0F0BD2E
:102E50002000FFF79BFBF9E72000FFF717FCF5E7E1
:102E60002000FFF7ADFCF1E72000FFF715FDE36858
:102E7000052BEBD1C82000F0E1FEE7E72000FFF7CB
:102E8000B7FEE3E72000FFF7FFFEDFE70040054065
:102E90001FA107000000B4440024744900007042E0
:102EA00024620110047601103C62011010600110D0
:102EB0001C600110094A83009A1810B5146840225A
:102EC000544080322240064CC000A44663441A603D
:102ED000044B9C466044416010BDC04604C00140A4
:102EE00004D0014000400140074B8000C3181B681C
:102EF000C90092000A435A400C231340034A9446E7
:102F0000604403607047C04604C0014004D00140E3
:102F10000123D0228340120693629361094A830001
:102F20009A1811684022514080320A400649C00078
:102F30008C4663441A60054B9C46052360444360FD
:102F40007047C04604C0014004D001400040014029
:102F50008023DB051868000F7047C0460FB400B52A
:102F6000084883B004F09CFB049B002B07D005A904
:102F70001800019104F052F9034804F091FB01207C
:102F800004F064F950620110C8640110EFF310807E
:102F900072B6034A1368002BFCD0BFF35F8F7047F3
:102FA0002C0100D0BFF35F8F0022024B1A6080F328
:102FB000108870472C0100D070B5EFF3108C72B6FA
:102FC0000D4D2B68002BFCD0BFF35F8F0724CB087F
:102FD000C618C05C01230C40A3401C0004400342FF
:102FE00007D118433070BFF35F8F2C608CF31088CB
:102FF00070BD1000FFF7B2FF2C0100D0F8B54746B6
:10300000CE46884680B5EFF3108C72B61C4D2C6806
:10301000002CFCD0BFF35F8F9A4222D807210126F3
:10302000894602E00132934218D34D4637001540DD
:10303000AF40D4080119045D2742F3D110003C438E
:103040000C70BFF35F8F00220D4B1A608CF3108859
:1030500000280EDBC0BCB946B046F8BD0120404296
:10306000EFE7BFF35F8F00232B608CF31088012004
:1030700040424346002BEDD00898FFF76FFFC04653
:103080002C0100D0044A1078431CDBB2172B00D966
:10309000102313707047C046E220002010B5064B85
:1030A000064C82B00100009318221F232000FFF776
:1030B000A5FF02B010BDC046606201106C35002053
:1030C0000021044B044ABFF35F8F02C39342FAD13D
:1030D0007047C046000100D0800100D0054B064A71
:1030E0001360064A136053609360D36013615361A9
:1030F000936170478080808000E400E004E400E099
:103100001F2318401E3B8340002905D0C021044ADC
:103110004900535013607047802201498B50FAE7F1
:1031200000E100E001228240034B1B6813405A1E5D
:103130009341D8B27047C04600E100E001238340CC
:10314000014A13607047C04600E200E0064B1030B1
:103150009B688000C358054A00209B1A2F229A4280
:103160004041C0B27047C04600ED00E0E4200020BE
:1031700070B50D00EFF3108672B60F4A1368002B7E
:10318000FCD0BFF35F8F0D4B10309B6884001B5940
:103190000B4A934203D09D4201D001F0CBF9074B7B
:1031A0009B681D51BFF35F8FBFF35F8F0022024BFF
:1031B0001A6086F3108870BD240100D000ED00E095
:1031C000C1010010F0B557464E46DE464546E0B513
:1031D00085B0060000911700EFF3108B72B66A4AB3
:1031E0001368002BFCD0BFF35F8F0025674B5D5742
:1031F0009A46002D00DAA9E06B00654C01935B193B
:103200009B009846A146C1444B4652469B791036D6
:103210001370604BB6009B6899590B1B2F2B33D949
:103220005D4B994200D0ACE0019B42469C465B4B13
:103230006544AD0063535A4B0232A218043B9B1AFB
:103240001B05584A5B0D651913436B80564B0121D2
:10325000AB80FF23AB71009BEF71AB604B460B4320
:1032600019004C4B9B689951BFF35F8FBFF35F8F81
:103270000022454B1A608BF3108805B0F0BCBB46AA
:10328000B246A946A046F0BD01200A008243D37988
:103290008C46BB4231D84546130044491B1B5B4159
:1032A0005943090D3D4B63533D4B02356519043BB2
:1032B0005B1B1B053B4D5B0D2B43AA464D466B80AC
:1032C0000425AC465546E044131F44441B1B1B0514
:1032D0005B0D1D434B46997100999D80996049464D
:1032E000DF71334B01431360BBE75800C018800007
:1032F0002018C179B9422FD902000623D356002BDA
:10330000F3DA02932B4B61460393131D9A46042371
:103310005B429C46E14450464B461B1A1B055B0D25
:103320009C46204B957198466346404603439380E4
:10333000019B5A199200039BA418A380029B1C4A6C
:10334000A371009B2260E771A3608AE701F0F2F8A5
:10335000002553465D574FE7908802934005131DA3
:103360009A46031561469C464046D4446346043061
:103370002018181AE0230005400D1B021843039083
:10338000C5E701F0D7F84FE7240100D0D746002069
:10339000E420002000ED00E0C101001000A1FFFFCB
:1033A0001421002000E0FFFF01BDFFFFAAAA0000DA
:1033B0000148804701BD000070B501240443EFF3CC
:1033C0000581EFF3108C72B6214A1368002BFCD0F4
:1033D000BFF35F8F1F4B05001F4AED1A6D416A4313
:1033E000120D1E4D8900AE6852B27658A6421CD00E
:1033F0000621595691421CD012215956914222D091
:103400001E215956914220D02A2159560324914217
:1034100010D0134B19781A708171BFF35F8F00229F
:103420000B4B1A608CF3108870BDAB680D4C5C5070
:10343000EFE700246100091989005B18FF219971E9
:1034400009499980E5E70124F4E70224F2E7C04640
:10345000240100D0E4200020AAAA000000ED00E032
:10346000D7460020C101001001BDFFFF10B5084B79
:10347000084C82B001000093002205232000FFF7D2
:10348000BDFD002801DB1F23181A02B010BDC04685
:103490007C620110DB460020024B9C46614489009F
:1034A000016070474000003470B5114C114DAC42C2
:1034B0000FD2FF262368002B0CD0FFF7E3FD01009D
:1034C0002000FFF7E9FFA680BFF35F8F0834AC420E
:1034D000F0D370BDFFF7D6FD01002000FFF7DCFF41
:1034E0002671BFF35F8F0834AC42E3D3F1E7C046E7
:1034F000282700203827002010B50400FFF7C2FD60
:1035000001002000FFF7C8FFFF232371BFF35F8F87
:1035100010BDC04610B504000120FFF7BFFD034BEE
:10352000C3189B002360BFF35F8F10BD40000034C1
:10353000034B9C46614489000160BFF35F8F704775
:10354000400000340A4B1968EFF3108072B60A6825
:10355000002AFCD0BFF35F8F1B68BFF35F8F002290
:103560001A6080F3108840BF002000217047C046D9
:1035700068460020F0B5DE4657464E464546E0B563
:1035800087B0EFF30583032201251A40954091008F
:103590008846A946B34B03925C58B34B1D60B34BAE
:1035A00004934B46B24843630823E55E002D37DAA7
:1035B000A3881BB2002B00DBADE0A379002B00D069
:1035C000EEE00823E05E002820DB430062691B1860
:1035D000DB00D3189E68DD68731C00D111E1A4489C
:1035E00001004144826A0B69B71A9B1A9F4215D3A6
:1035F0000123026A039883401A420FD09C4800F0CE
:10360000BDFC8D4202DCCCD18642CAD940BF07B096
:10361000F0BCBB46B246A946A046F0BD0E61EDE740
:1036200062696B0092465B19DB009A4453469E68C0
:10363000DF6800F0A3FC8F42BADC00D103E1002F69
:1036400000DAE8E05246534652691B699346049AF1
:10365000934200D1D9E052460821605E52880004AE
:10366000594610439847009001910099019A0B0028
:103670001000134300D1CEE013000A00B61A9F4198
:10368000002806DB7A4800F079FC009E019F36187E
:103690004F4153469E60DF6000229A5E002A00DAA6
:1036A00086E7530099186069C900411802938B6836
:1036B000C9689B46B94200DD7AE702D1B34200D91E
:1036C00076E708239C46A444059565462281A446D6
:1036D000029B2C0006E053009918C90041188D6820
:1036E000C968AB469B18DB00C318B94206DC00D1A1
:1036F000B3E01C000023E25E002AECDA23006446FB
:103700009C4653461A806346059D1D80A3881BB2C4
:10371000002B00DA51E72269EFF3108172B61368CB
:10372000002BFCD0BFF35F8F0123A7885B42A380EF
:103730003FB22369BFF35F8F00221A6081F31088C4
:10374000002F00DA39E72300083322009A46666921
:103750007B00DB19DB00F318996850468C4608247F
:10376000115FDD68002910DB029306E0AB4244D014
:103770000023E15E2000002906DB4C006418E40011
:103780003419E368AB42F1DD029B078000201F5E25
:103790001980002FDCDA1400A379002B00D110E788
:1037A0000023A37126000823E15E08364B1C00D1DC
:1037B0002CE70800A246656902E03E004B1C1AD0C7
:1037C0004B005B18DB00EF180A008C46E95E7B8833
:1037D0001BB2002BF1DA01235B42DC17BB60FC60FB
:1037E000824205D0534631801B893B8053461A8163
:1037F00060464B1CE4D15446E5E6A3686345B7D95F
:10380000C2E76B1C00D0EAE6F8E65B4658461B6947
:10381000984700281BD153461B8822692381EFF368
:10382000108372B611680029FCD0BFF35F8F514638
:1038300062880A8022696580BFF35F8F0021116072
:1038400083F31088B4E6864200D8F8E6B0E65B461B
:103850001A685B680092019307E7B34500D848E710
:103860004CE7C0464C4600203C70054075350010C2
:103870000040054070B52E4C2569002D04D00A216A
:103880002C48FFF709FE70BD2B4E0321300000F0DD
:103890006BFBE660FFF7F6FB284B03229C46D02328
:1038A00022701B061B6801216370254B6044A360D6
:1038B0000F23800020610220638063694942A18058
:1038C00019800231198647311D83585218315A52D6
:1038D00075325C39995218320131995218320131DE
:1038E0009952183201319952083518329D520231DD
:1038F00018329952183201319952183201319952C5
:10390000183201319952183201319952183201316D
:1039100099520C4B0C49DC6001303562FFF728FCF2
:1039200001210320FFF7ECFB084B1D60A7E7C04611
:103930002C21002068460020004005404000003453
:10394000FFFF10004C460020753500103860054020
:10395000004870472C210020F8B51F0008AB1B78E9
:1039600004001600002B08D100F010FB32003B00D1
:10397000121A8B41002B00DA52E02269EFF310801B
:1039800072B61368002BFCD0BFF35F8F0223E15E99
:1039900063694A005218D2009B182269002936DB5D
:1039A0001D886580BFF35F8F0025156080F3108848
:1039B000069A9E60DF601A61079A5A615A8801323E
:1039C0005204520C101C002A1FD082B258800804E6
:1039D00010432669EFF3108772B63268002AFCD0D4
:1039E000BFF35F8FA2881A80A1802369BFF35F8F26
:1039F00000221A6087F310880A4923788C46013226
:103A00009A40E36863441A60F8BD0120DDE7BFF324
:103A10005F8F0023136080F3108801204042F3E79A
:103A20000020F1E73C20000070B501000469EFF3CD
:103A3000108C72B620680028FCD0BFF35F8F022084
:103A40000D5E4C6968004019C00024180869002DFB
:103A500036DB26884E80BFF35F8F002606608CF32E
:103A60001088E36063880498013320615B04059843
:103A70005B0CA26060611A1C002B1FD093B228045B
:103A8000628018430A69EFF3108C72B61368002B3A
:103A9000FCD0BFF35F8F8B8823808D800B69BFF3D1
:103AA0005F8F00221A608CF310880B7801329A40E5
:103AB000CB6808498C4663441A6070BD0122DDE77B
:103AC000BFF35F8F002303608CF310880120404216
:103AD000F3E7C0463C20000010B543890A14934226
:103AE0001ADD53009B184269DB00D3180469EFF319
:103AF000108C72B62268002AFCD0BFF35F8F5A8800
:103B0000090494B2090C8A4208D00369BFF35F8F9D
:103B100000221A608CF31088002010BD802212024F
:103B200014435C80012302698371BFF35F8F00211E
:103B300011608CF31088044902788C469340C26867
:103B4000012062441360E8E73C20000040787047A1
:103B5000F0B5C64600B582B004000D0000F016FABC
:103B600024184D41002D02DA01242F4D644206260F
:103B70007642F71736196F41AF4214D811D000F0D2
:103B800005FA32003B00121A8B41002B15DC002B8A
:103B900046D02000290000F037FA02B080BCB846B9
:103BA000F0BDA642EBD90026002700F0EFF9320065
:103BB0003B00121A8B41002BE9DD00F0E7F93200DF
:103BC0003B00121A8B41002B0ADB00230193174B99
:103BD0003200009316483B00FFF726FF0130D8D093
:103BE00000233900B0469C46124A1348536A994252
:103BF00004D8966A4645CCD29942CAD10668EFF3FA
:103C0000108772B63368002BFCD0BFF35F8F036858
:103C1000BFF35F8F66461E6087F3108820BFE5E71D
:103C2000002AB6D0C9E7C046FFFFFF7F4535001028
:103C30002C2100200040054068460020F0B5C64613
:103C400000B582B0040000F0A1F9FA2206000F00CE
:103C5000200000230021920001F086FC80197941A8
:103C600004000D1E02DA01242E4D6442062676421F
:103C7000F71736196F41AF4214D811D000F086F90A
:103C800032003B00121A8B41002B15DC002B46D072
:103C90002000290000F0B8F902B080BCB846F0BDA1
:103CA000A642EBD90026002700F070F932003B0055
:103CB000121A8B41002BE9DD00F068F932003B005D
:103CC000121A8B41002B0ADB00230193164B3200A2
:103CD000009316483B00FFF7A7FE0130D8D0002321
:103CE0003900B0469C46124A1248536A994204D899
:103CF000966A4645CCD29942CAD10668EFF310873E
:103D000072B63368002BFCD0BFF35F8F0368BFF33C
:103D10005F8F66461E6087F3108820BFE5E7002AA4
:103D2000B6D0C9E7FFFFFF7F453500102C210020EA
:103D30000040054068460020F0B557464E46DE4636
:103D40004546E0B506000F0085B0EFF305839946C0
:103D50008B46002B12D0384900204B6ABB4206D359
:103D60008A6ADB1B591E8B41B2424041184305B0A1
:103D7000F0BCBB46B246A946A046F0BD2F4B9A46C2
:103D8000DB68984653461B784046039300F0F6F8EC
:103D90004246039B040004339B009B580D001B1AF2
:103DA00039003000001BA941894510DC0DD020BF2F
:103DB000214A0020536A5B45D9D3926ADB1B591E06
:103DC0008B41B24240411843D1E78342EFD900F022
:103DD000DDF832003B00121A8B41002B1ADB002366
:103DE0000193174B3200009350463B00FFF71CFE37
:103DF000011E0FDD104B5A6A5A451BD39B6AB34212
:103E000016D35046FFF768FE0B4A0020536A5B4505
:103E1000ADD3D2E7084A0020536A5B45A7D3002000
:103E2000926ADB1BB24240415A1E934118439EE7FF
:103E30005A45E6D120BFE4E7004005402C21002090
:103E400045350010F0B5CE464746110080B583B029
:103E500004009C460C9D194300D16CE06146DB17C1
:103E60000193009353401E00019B4B401F0000989C
:103E70000199361A8F4163460A996B600B9BAC60BF
:103E800029612A606B6100F081F88019794100296D
:103E900002DA0120314940422269EFF3108972B6FB
:103EA0001368002BFCD0BFF35F8F0223E65E6369CB
:103EB00072009219D2009B1822699046002E42DBB4
:103EC0001A886280BFF35F8F002247463A6089F309
:103ED0001088234A9860D9601A615A885D6101325E
:103EE0005204520C111C002A2BD088B23204024317
:103EF00059802069EFF3108772B601680029FCD061
:103F0000BFF35F8FA1881980A6802369BFF35F8FFD
:103F10000021196087F31088124823788446013104
:103F200099400120E36863441960EA6003B0C0BCB3
:103F3000B946B046F0BD00230126002701229C4669
:103F400099E70121D1E7BFF35F8F0023136089F365
:103F50001088012200205242E7E7C046FFFFFF7FA2
:103F6000753500103C20000010B5024A0248FFF7EA
:103F700023F810BD98620110703500200300416ADB
:103F80000A00986A596A8A42FAD17047034B596A03
:103F90000A00986A596A9142FAD170470040054078
:103FA00070B504000D00174A536A1900966A536AE7
:103FB0008B42FAD13000190024184D41AB4216D87B
:103FC00013D0104B2A005B6A9D4203D90D494B6AFE
:103FD0009342FCD3934207D10A4A02E0516A9942C4
:103FE00002D1916AA142F9D370BDA642E9D9054B2D
:103FF0005B6A1C005A1CEFD0012201246442E517C1
:104000005242E3E700400540064A536A9942FCD811
:1040100007D1044B02E05A6A914202D19A6A904257
:10402000F9D8704700400540F8B5040006200D009F
:1040300000F078F9002844D0374B3849E3185A1E6D
:1040400093418022120494465B429B0D344A9B05A7
:1040500063441360334A136018000A689043FBD12D
:104060002D4B314AE31859424B4180215B004900F6
:104070000620995200F056F92900C00000F0ACFB70
:104080000130C3091ED1402701226262A362266B60
:10409000F30722D4E36A254B0620E51800232B60A2
:1040A000266300F03FF93900800000F095FB702393
:1040B000E26A5A400E3313402B601D4B23630323E7
:1040C000A364F8BD1B4A93421ED900231A4A1B4F12
:1040D0006262A362266BF307DCD5194B144AE3181E
:1040E0001A60656AA36A0620AD01ED1800F01AF99E
:1040F000144900F071FBAD020100280000F06CFBD8
:104100000021FFF74DFFC5E74006800E9F011A0012
:104110003F180300B9E7C0460080FCBF08C000405C
:1041200000E0004000F00040B84600202C100000E5
:1041300001030000FEFF0000FFFF0000C0FF3F0082
:10414000303000004E0E0000F8B5DE464E465746B1
:104150004546E0B58B4605000A991800160000F0A8
:104160003BFB0A9B6C001F02324B64199C46A40067
:104170006444636881469F4200D967602B1FDBB2AD
:104180009846012B30D9C02380229B01E3181201ED
:104190001A60294BAD0059599A4600291BD1730169
:1041A000E026226853401E40802342465B01E3180C
:1041B0001E60012A30D9802380229B01E31812015E
:1041C0001A6053464A4667605A51F0BCBB46B24635
:1041D000A946A046F8BD586900F0FEFA0130430038
:1041E0001B18033BFDD2DAE75B46012BCBD1C02382
:1041F00003229B01E3181A60023AA3681A42FCD01A
:104200007301E0262268AD0053401E4080230A4A15
:104210005B019246E3181E605A4621685140032212
:104220000A401A6001225B469A40A3681A42FCD0F9
:10423000C1E7C0460080004078350020F0B5464612
:104240004F46D646C0B51F00344B44009C46241848
:10425000A4006444636888461600FF2B02D88023BC
:104260005B006360031FDBB29A46012B30D9C02389
:1042700080229B01E31812011A60294B85005959CD
:10428000994600291BD17301E026226853401E4045
:10429000802352465B01E3181E60012A30D9802337
:1042A00080229B01E31812011A6080235B00636087
:1042B0004B465F51E0BCBA46B146A846F0BD5869CE
:1042C00000F08AFA013043001B18033BFDD2DAE705
:1042D0004346012BCBD1C02303229B01E3181A6074
:1042E000023AA3681A42FCD07301E02622688500D6
:1042F00053401E4080230A4A5B019146E3181E602A
:1043000042462168514003220A401A600123424676
:104310009340A2681342FCD0C1E7C0460080004031
:1043200078350020014B8000C05870477835002058
:10433000F8B5040021481E0017000D0000F04CFAEB
:104340000100380000F048FA069B36041B031E43A8
:104350002368002B20DB1A4B1A49E3185A1E93419D
:104360008022920194465B421B0B174A1B03634455
:104370001360164A13601F000A689743FBD1144B61
:104380002560E2182123A06013602368002BFCDA6B
:104390000823E6601360F8BD3F2322681340AB4258
:1043A000D9D1A3681B051B0D8342D4D1EE22E3684B
:1043B000D2021340B342CED1EDE7C046001BB70096
:1043C0000040FDBF08C0004000E0004000F0004099
:1043D0000430000010B580241C4BE4051C6000284C
:1043E0001AD001231A4C18431A4BDC611A4C444072
:1043F0001C62596298628021144BC90519601748E4
:1044000017490860E021C9041960002A07D18022F9
:10441000144B12061A6010BD0E4BD861EBE7530126
:104420009B1A9B009A18802312015B049A4209D2BE
:1044300013000D490B60074B5A608022094BD205CF
:104440001A60E8E7094B1A00F3E7C04600B00540E0
:10445000D3C007B0008005402D3FF84FFCFF01009E
:104460000820014000A00540F0390020FFFFFF00B8
:104470008023024A9B000B43D362704700800540B3
:10448000002310B50100988A1B8B984710BDC046C9
:10449000162310B50100188802331B88984710BDF9
:1044A000F8B54746CE4680B50F1E18D0142399465E
:1044B000043304000025012698464B4618884346DD
:1044C00021681B88984701C4431E98410135064066
:1044D000AF42F2D13000C0BCB946B046F8BD0126AB
:1044E000F8E7C046002370B504000D00988A05491E
:1044F0001B8B984703000020002C01DB0130A040FB
:104500002900984755420000AA23064A1B01136060
:104510008D235B00D3600449044B19605368002B62
:10452000FCDA70470040024000B0FA000060024030
:104530007047C04610B50148FEF710FDBC6201107F
:1045400070B5074D074EB54209D20024013E761BD7
:10455000B60808CD984723000134B342F9D170BDA5
:10456000185F0110545F0110054B064A06491A6096
:10457000064A074B1A6010000B689843FBD170473E
:1045800000E00040BFCDFBFE08C00040FE7F3C00C5
:1045900000F00040044BDB6C002B03D18022034B66
:1045A000D2021A607047C046000011504C201150D2
:1045B000044A054B1A60054A1368DB018033FBD1BE
:1045C0007047C046FFFFFF0100F0004008C00040F8
:1045D0004022034B9A675A671A67DA667047C046EB
:1045E00000F0014010B5FEF76BFD10BDF8B527498E
:1045F000274C284D641AA6103200302E00D93022E4
:104600002800920001F05AF9BC2C3BD830202F230F
:104610002C196407204A801BE40F9B1B052B16D91D
:104620003700002C02D0B300771CEA50001B33196E
:104630009B004108EB18C900C9181A605A6008337A
:104640009942FAD1012303421CD09843C619B30002
:10465000EA50731C2F2E15D09B00EA50B31C2E2E4F
:1046600010D09B00EA50F31C2D2E0BD09B00EA507B
:10467000331D2C2E06D09B00EA50731D2B2E01D02B
:104680009B00EA50054B9D60F8BDC046000100103C
:10469000C001001000000020C101001000ED00E08A
:1046A000002310B5294C82B0A367FFF72DFF01222C
:1046B000274B1A60636C012BFCD10322254B1A6037
:1046C000224A936B012BFCD1013300930121224A32
:1046D00022480433FFF72CFE052301210093204AD2
:1046E0002048FFF725FE0022022104201E4BFFF781
:1046F000A5FD0022012105201C4BFFF79FFD002294
:10470000002107201A4BFFF799FD00220021082005
:10471000174BFFF793FD8023DB000093002200215D
:104720000920134BFFF710FD0022104B002106203B
:10473000FFF784FD0420FFF7F5FD0E4900F04CF86B
:1047400001000020FFF794FE02B010BD0080004081
:104750003CB0004030B00040002F6859008002405B
:10476000008C864700C00240001BB7004059730709
:10477000006CDC0240420F0001480421014B184745
:1047800050210020A1440010124A936F9B0815D2BB
:104790009066D166002905D0FFE7FFE7FFE7516F7C
:1047A000106F704704B580210906C21751400028D8
:1047B00000D0C84311F030FB002104BDF0B5146EE9
:1047C000556E576F166FFFF7E3FF14665566576710
:1047D0001667F0BD000000D0114A936F9B0813D2FA
:1047E00010665166002905D0FFE7FFE7FFE7516F2C
:1047F000106F704704B5002801D00020C04311F0AD
:104800000BFB002104BDC046F0B5146E556E576F0A
:10481000166FFFF7E5FF1466556657671667F0BD1C
:10482000000000D094464A4A926F9208624601D234
:1048300028E0C046F0B5464E346E756E776F366F21
:1048400000F020F89446424A14665566576716678A
:104850006246F0BD94463E4A926F9208624601D28B
:1048600054E0C046F0B53A4E346E756E776F366FD1
:1048700000F04CF89446364A14665566576716673A
:104880006246F0BD002B24DB11D000293EDA00B5D2
:10489000C943404200D1013100F038F8C9434042D9
:1048A00000D10131DB43524200D1013300BD002A67
:1048B000EBD1002801D1002905D00020C90FC9077C
:1048C00001D1C043410800B511F076FA002200235F
:1048D00000BD00B500290ADBDB43524200D10133A1
:1048E00000F014F8C943404200D1013100BDC94372
:1048F000404200D10131DB43524200D1013300F08C
:1049000005F8DB43524200D1013300BD002923D119
:10491000002B18D1002A0CD0BC460D4F38667A66A1
:1049200000210023FFE7FFE7FFE77A6F386F674654
:104930007047002801D00748010000B511F03CFA8B
:104940000022002300BD02000B0000200021704760
:10495000000000D0FFFFFFFF002B00D0BFE0130CD2
:1049600028D1002AE7D080B4114F39667A66FFE774
:10497000FFE730B4040C7B6F396F1B0423433B66A5
:104980007A66FFE7FFE7FFE7C04684B27B6F3D6FC3
:104990001B0423433B667A66FFE7FFE7C04600231C
:1049A0002C042D0C7A6F386F00196941B0BC704728
:1049B000000000D0F0B594460025140E01D112027B
:1049C0000835140F01D112010435940F01D1920062
:1049D0000235D40F01D152000135D40B0134254FDB
:1049E0007C66254C3C660E0C93B2FFE7FFE7FFE7C1
:1049F0003C6F6643360C7703BE467343DF0B5B04A4
:104A0000C01AB941130C7343DB18C91ACE086643A8
:104A1000360CB64493B273431F0F1B01C01AB94141
:104A2000130C73431F0B1B05C01AB941860D8F026F
:104A30003E436643360C092D24DB520A7243801A2A
:104A40007703460A6643360C16235B1BDE40DF40C5
:104A5000BF1964466643821B704604350633010065
:104A6000D940A840C01900D30131A24206D2002388
:104A7000F0BD0000000000D0FFFFFFFF121B01305F
:104A8000F3D3F1E709277F1BFE406446A2B27243CD
:104A9000801A00D20139220C7243130C1204821ABC
:104AA00099410B007046043513370100F940A840C6
:104AB000801900D30131002B02D1A2420AD2F0BDED
:104AC000013000D30131121BFAD2013BF8D1A242CE
:104AD00000D2F0BD013000D30131121BF7E7F0B571
:104AE0001C0C00D080E00CB400251C0A04D11B0271
:104AF000160E3343120208351C0B04D11B01160F8E
:104B00003343120104359C0B04D19B00960F3343B1
:104B100092000235DC0B02D192185B4101351C007A
:104B2000971864410134464F7C66464C3C660E0C37
:104B3000FFE7FFE7FFE7C0463C6F6643360C7703AD
:104B4000BE4697B27743C01B00D20139C01B00D2CA
:104B500001399FB27743C91BC91B170C77437E04E9
:104B6000FF0B801BB941CE086643360C0C2D33DB9E
:104B7000B644120B1F053A431B0B97B27743C01B79
:104B800000D201399FB27743C91B170C77433E040B
:104B90003F0C801BB941860D8F023E436643292797
:104BA0007F1BFE400C3D7746AF40BF1930BCA2B220
:104BB000ABB272437343801A9941220C7243130CB7
:104BC0001204801A994102000B000137001BA94111
:104BD000F9D2781E0021F0BD0C277F1BFE407746DE
:104BE0007F0BAF40FF19E0E700245D1C07D0144F96
:104BF0007D663966FFE7FFE7FFE7FFE73C6F95B2A9
:104C00009EB265436643401BB141150C1E0C6543C3
:104C1000664336042F0C3E432D04401BB14199429C
:104C200004D202000B0020000021F0BD01D190420F
:104C3000F7D3801A994101349942F2D3F6E7000084
:104C4000000000D0FFFFFFFF48404140484018B43B
:104C50001B4B5B68FC46019308BD04DF934F0010BB
:104C600018B4174B1B68FC46019308BD00DF9D4F2D
:104C700000109446134A926F920809D2624618B403
:104C80000F4BDB68FC46019308BD0CDF555200104A
:104C90000C4AF0B5146E556E576F166F6246FFF7EB
:104CA000EEFF084A1466556657671667F0BD18B4DC
:104CB000034B9B68FC46019308BD08DFF9500010C8
:104CC000F8280020000000D0FFB55040424050407E
:104CD00059404B40594000E0FFB5154F4C00640D62
:104CE00003D0BC4204D10C0314D80020090D0905DF
:104CF0005C00640D03D0BC4204D11C030AD800221E
:104D00001B0D1B0501264B4009D44B4003D58B429C
:104D100000D18242FFBD9942FCD19042FFBD0B43BE
:104D2000DB1803431343F5D0C9434918FFBD000006
:104D3000FF07000000B5FFF7CFFF804100BDC04670
:104D400000B5FFF7C9FF01D9002000BD012000BD5B
:104D500000B5FFF7B9FF01D9002000BD012000BD5B
:104D600000B5FFF7B1FF804100BD012040054A00BA
:104D7000121804D85A00121801D8002070470120D8
:104D8000704700000021002805D17047C117484036
:104D9000401AFAD0C90713B5064B1B6898470CBCDC
:104DA000441CA2401005120B0349091B09051943B5
:104DB000114310BD644600201F04000010B54C00D4
:104DC000620D8023D218DB00D21A5B057E2A10DD2B
:104DD0009E3A13DACC170903490819435242D140CD
:104DE000640001341532202A05DAD04008436043BC
:104DF00010BD002010BD0846604310BDC80FC0188C
:104E0000013810BD18B4044B5B6AFC46019308BD21
:104E100024DF055400100000F828002018B4044BCB
:104E2000DB6DFC46019308BD5CDFB554001000004B
:104E3000F828002018B4044B5B6EFC46019308BDB3
:104E400064DFAD5400100000F8280020C94211D3DF
:104E500000B549004908002200F024F8002904D4D4
:104E6000002240428A41114600BD802109060020EF
:104E700000BD000018B4044BDB6EFC46019308BD76
:104E80006CDF135400100000F828002018B4044B05
:104E90005B6FFC46019308BD74DF2D5400100000C9
:104EA000F828002018B4044B9B6FFC46019308BD02
:104EB00078DF2F5400100000F8280020132370B56D
:104EC0001D78012D19D014DD1F48FFF7E1FA060007
:104ED0001E48FFF7DDFA1E4C80223100200000F052
:104EE000EDFC022D2DD01B48FFF7CAFA1A4B1860B3
:104EF00070BD1A4B164CA364F5E7184B144C236095
:104F00006360A360E36023616361A361E361236283
:104F10006362A362E36223636363A363E363236463
:104F20006364A364E36423656365A365E365236643
:104F30006366A366E36623676367A367E367A364A7
:104F4000D1E7064BA364CEE753440000534600006C
:104F5000F82800204C33000064460020614F001008
:104F600007B5604601880A0A0230DF2AFAD1C9B2C1
:104F7000820804D3028840880004104300E00068DF
:104F8000014A5050039007BDF82800200FB403BC1D
:104F90000CBCF0B50124E407634000E0F0B50C0D53
:104FA000CF0F661E3605891B640503D3C9434042F3
:104FB00000D30131640D03D0661CF60A07D0E41B50
:104FC00000207F00791C89078912803C24031D0D75
:104FD000DF0F6E1E36059B1B6D0503D3DB4352426C
:104FE00000D301336D0D03D06E1CF60A07D0ED1B04
:104FF00000227F007B1C9B079B12803D2D032F1BF3
:10500000661B58D4A446202E46DA20371400BC4034
:105010001D00BD40F24033412A4380185941CB0F57
:1050200005D0C943C0430022644250415141624609
:105030004D0D28D10D0D07D100281FD02419404156
:105040004941013A0D0DF9D0640006D3013000D377
:105050000131002C01D140084000013A0BD4941CCE
:10506000E40A04D112051144DB071944F0BDD90745
:10507000204B194300E0D9070020F0BD0029DDD105
:10508000002CDBD1F0BD0132C6074008CD07284314
:105090004908002EE1D0D9E73C2E29DA203E4037DE
:1050A0001400BC4000D00124F24014431A00BB405D
:1050B0001C43D317ACE7AC46202F08DA2036040097
:1050C000B4400D00B540F84039412843A5E73C2FD6
:1050D0000CDA203F40360400B44000D00124F840F0
:1050E00004430800B1400C43C117EAE7100019005F
:1050F000002494E70000F07FF0B50C0D661E360525
:10510000891BE60A6405640D02D0651CED0A04D013
:10511000002001210905803C2403A4461C0D671EC4
:105120003F05DB1BE70A6405640D02D0651CED0A30
:1051300004D0002201231B05803C240377406444F3
:1051400097B484B296B27443070C7E43150C6F4338
:1051500080B26843361802D3012000043F1830049F
:10516000350C00197D41844688B29AB250430C0C2C
:1051700062431F0C7C438EB27E43921902D30126F8
:105180003604A4191604170C3618674101BC81B205
:105190009AB25143040C62431B0C5C4380B25843E7
:1051A000121802D30120000424181004130C401814
:1051B00063412D185E410020474106BC88B293B27E
:1051C00058430C0C6343120C544389B251435B188F
:1051D00002D301210904641819041A0C0918624148
:1051E0006D1856410020474118BCF902720D114359
:1051F000F0026A0D1043ED020A0D03D16D19404112
:105200004941013B124E9B1B7600B3420ED26D000A
:1052100007D30130002671416646354301D140086D
:1052200040001B05C918E4072144F0BD0BDA013327
:1052300006D1013004D101314F0D01D04908F2E708
:10524000E1070020F0BD013631050020EBE700004A
:10525000FF030000F0B51C0D671E3F05DB1BE70ACE
:105260006405640D02D0661CF60A04D000220123F6
:105270001B05803C2403D0252D060026F6432E6610
:105280001E096E66CE0FF619B44649004F0D02D0C6
:105290007E1CF60A03D000200021403F3F033E1B46
:1052A000B600B444013F7F05C91B49082E6F013683
:1052B00076089C02950D25437543ED137543AD1398
:1052C00001356D10F603761B0CB4CC02450D2C4352
:1052D000A2B2B3B25A43270C7B43350C6F43A4B23E
:1052E0006C431B1902D3012424043F191C041D0C18
:1052F000A4187D4124196D41009A91B2ACB261436A
:10530000170C7C432B0C5F4392B25A43A41802D370
:1053100001221204BF182204230C52187B41019C65
:105320006C431B19520ED9010A434401A01A81B2E1
:10533000B2B2514303145A43360C734387B27743D6
:10534000D617D21900277E4136049B191704160C74
:105350007F185E417316ED18F30100268033754106
:10536000A90F06D16400690AE8055B0A184309D24F
:105370002FE00422944480337541A90AA8059B0AB2
:10538000184326D3404149412404009A019B0D0053
:105390005543641B4343E41A95B286B27543170C18
:1053A0007E43030C5F4392B25A43B61802D30122E4
:1053B0001204BF183204330C52197B4152429C41F3
:1053C000002C02D40022013051414008CA0710438A
:1053D000490802B06246D7079210084BD218084B12
:1053E0009A4203D212058918C919F0BD0020002A7B
:1053F00001DC3900F0BD01331905F5E7FD030000BC
:10540000FE070000002200B5203200F010F808006E
:1054100000BD002200B500F00CF8CA179A4200D176
:1054200000BDD8430121C907414000BD00220B1532
:105430000AD410B5944600F079F81414013400DA57
:105440000021CB17144C20470020002170476244F4
:10545000343A0CD40C2A07DA0400914090405242AE
:105460002032D440214310BDD843D94310BD20324F
:1054700007D40C469440524220321141D040204380
:1054800010BD0800C917203203D452422032104107
:1054900010BD1800190010BD4F54001000210A0063
:1054A000002104E000210A00C11704E000220023CB
:1054B00006E0C0460022CB1758405940C01A994117
:1054C00030B5184CA21A002903D1010010D00020D9
:1054D000203A4C1512D104D2013A001849414C0D22
:1054E000FAD3114CA24204D212058918DB07C9185D
:1054F00030BDD243520D00200021F5E703D4013A1C
:1055000000184941FBD50B324405C00A4D0528431C
:10551000C90A640003D0002460416141E1E7E0D39F
:105520004408F8E732040000FE0700000A0DCC0F23
:10553000531E1B05C91A520503D3C943404200D369
:105540000131520D03D0531CDB0A07D0121B00207F
:105550006400611C89078912803A1203014BD21A38
:1055600070470000FF03000051434343C9188C46B5
:10557000110C83B24B4310B4040C614392B280B25D
:10558000504362431C041B0C001910BC5941130406
:10559000120CC0185141614470470000484041401E
:1055A00048400E4B5B6818470C4B1B6818470C4A69
:1055B000936F9B0802D2094BDB681847F0B5146E55
:1055C000556E576F166FFFF7F6FF054A146655665E
:1055D00057671667F0BD014B9B681847F8290020F4
:1055E000000000D007B548404140484001E0C046B7
:1055F00007B54200120E03D0FF2A03D1420218D889
:10560000C00DC0054A00120E03D0FF2A03D14A0282
:105610000FD8C90DC9050122414005D4414001D52B
:10562000814207BD884207BD0143491801D0C043EC
:10563000001807BD00B5FFF7DBFF804100BDC04685
:1056400000B5FFF7D5FF01D9002000BD012000BD46
:1056500000B5FFF7C7FF804100BD491A002807D1F8
:1056600008467047C10FC90700D54042002817D02F
:10567000F44603B40B4B1B68984706BC81409E3828
:105680004042803107D20B0607D04900490AC005C5
:105690001043084360470130F8E7490A8902F5E7FB
:1056A000704700006446002041000A0E80231B065C
:1056B0007E2A0BDD9E3A0BDAC117400240081843E0
:1056C0005242D040490001314843704700207047A2
:1056D000C00FC01801387047C0420DD300B540005C
:1056E0004008002100F012F8002801D4404200BD1B
:1056F0008020000600BD0000034BDB69FC46184714
:105700001CDFBD5700100000F8290020014B5B6A28
:1057100018470000F8290020034BDB6FFC461847B0
:105720007CDFD55700100000F8290020132310B5A6
:1057300012481C78FEF7ACFE0100012C0AD003DDF4
:1057400080220F4800F0BAF80E48FEF799FE0E4B83
:10575000186010BD0A4C5422200000F0AFF80B4B2B
:105760006365A365E36523666366A366E3662367F3
:105770006367A367E3672362E361E5E753460000DD
:10578000F82900204C330000644600209157001097
:1057900007B5604601880A0A0230DF2AFAD1C9B289
:1057A000820804D3028840880004104300E00068A7
:1057B000014A5050039007BDF82900200021C2156E
:1057C0008032803201D0024A10470020704700002A
:1057D000CD2A0000C30FDB0741000A0E07D0FF2AC5
:1057E00008D00909054A891819434007704719006C
:1057F000002070470249C918FAE70000000000388D
:105800000000F07F70B504000A4E300010F06CFB11
:1058100020000EF06BF80500300010F0C5FA002DE6
:1058200005D0054B2C199C4201D8280070BD0348B7
:10583000FDF794FB2827002000000420C862011017
:1058400070B505000C000B4E300010F04DFB280029
:1058500021000EF0E3FB0500300010F0A5FA002D4A
:1058600005D0054B2C199C4201D8280070BD034877
:10587000FDF774FB2827002000000420C8620110F7
:1058800070B50400054D280010F02EFB20000EF02E
:1058900037F8280010F088FA70BDC046282700208D
:1058A00001480421014B184760210020A144001049
:1058B000014B1B681847000060210020014B5B680A
:1058C000184700006021002010B5FFF79BFF10BDB6
:1058D00010B5FFF7D5FF10BD10B5FFF7D1FF10BD14
:1058E0009A4200D2885470477047C046F8B5574670
:1058F000DE464E464546E0B599460A9B07009A4665
:105900000D9B884693460B9C9B073BD10C9B9C426E
:105910003DD21E1B0B9415000C005E442A004B4622
:10592000013521002020B847B542F7D1A0460B9C95
:10593000002C20D0454636195346321B013C185DD9
:1059400029004B46B847002CF6D12B00350098466D
:105950000D9B9B070FD55B46EC1A0C9BA3420AD903
:10596000464698462A004B46310020200134B8476D
:1059700001354445F6D32800F0BCBB46B246A946E3
:10598000A046F8BD16001500002CD3D1E0E71600A4
:105990001500002CCED1EEE7F0B54546DE46574661
:1059A0004E46E0B585B09C4610AB1B78149F9346DD
:1059B00098460F9C129E139DBB074CD4002D42D1DC
:1059C000B44248D201233B4099460E9B013B9A4684
:1059D000302304E0524601341355A64201D9202C4D
:1059E000F8D14B46002B00D183E00E9B013B99463A
:1059F0003023A54205D82EE04A4601341355AC4267
:105A000029D0202CF8D1FB060CD57B0554D4A64216
:105A100063D0A54261D0119B102B50D0022B57D0E0
:105A2000202C32D1202301930E9B5A4600930397DA
:105A300063460295FFF75AFF05B0F0BCBB46B2467D
:105A4000A946A046F0BD01233B40994601233B42B5
:105A50002AD1B442B9D3FB061CD57B05DBD4002C7C
:105A6000D5D1119B102B5BD0119B022B6BD0302317
:105A700001240E9A13704346002B10D17B073ED5AC
:105A80002B260E9A631C1655CDE7230001343026D1
:105A90000E9AD654202CC5D04346002BEED02D268E
:105AA0000E9A631C1655BEE74346002B2FD0013DCE
:105AB000B44200D289E798E7119B102BB2D1BB0604
:105AC00037D5202CAED058230E9A13550134A7E7B2
:105AD000202CA7D02300013407E0631E012CC0D086
