:020000041000EA
:1000000000B5324B212058609868022188439860DF
:10001000D860186158612E4B002199600221596106
:100020000121F02299502B49196001219960352056
:1000300000F044F80222904214D00621196600F024
:1000400034F8196E01211966002018661A6600F04E
:100050002CF8196E196E196E052000F02FF8012189
:100060000842F9D1002199601B49196000215960AB
:100070001A491B48016001219960EB211966A021F2
:10008000196600F012F800219960164914480160C1
:100090000121996001BC002800D000471248134993
:1000A000086003C880F30888084703B5996A0420EC
:1000B0000142FBD001200142F8D103BD02B5186610
:1000C0001866FFF7F2FF186E186E02BD00000240BE
:1000D000000000180000070000035F00212200005C
:1000E000F4000018222000A00001001008ED00E03C
:1000F00000000000000000000000000074B24E7A12
:1001000000200420F7010010CB010010CD010010E9
:10011000C9010010C9010010C9010010C901001077
:10012000C9010010C9010010C9010010CF01001061
:10013000C9010010C9010010D1010010D301001045
:10014000C1010010C1010010C1010010C101001067
:10015000C1010010C1010010C1010010C101001057
:10016000C1010010C1010010C1010010C101001047
:10017000C1010010C1010010C1010010C101001037
:10018000C1010010C1010010C1010010C101001027
:10019000C1010010C1010010C1010010C101001017
:1001A000C1010010C1010010C1010010C101001007
:1001B000C1010010C1010010C1010010C1010010F7
:1001C000EFF30580103800BE00BE00BE00BE00BECA
:1001D00000BE00BEF2EB8871C4950010E4950010DB
:1001E0003802001090A31AE71E481F49086006C88D
:1001F00081F3088810471D480068002801D019487D
:10020000F3E70DA40ECC002902D000F012F8F9E7B4
:100210001749184A002000E001C19142FCD116495B
:100220008847164988471649884700BEFDE701C937
:1002300001C29A42FBD37047E4950010C000002031
:10024000B8100020DCA500100000042000000420ED
:10025000DCA50010001004200010042000000000A5
:10026000704700000000000008ED00E0000000D032
:10027000B810002030200020AD570010D50200102B
:10028000A5570010F8B5C04606480749091A8B1053
:10029000C90FC91810B5491003D0044B002B00D06A
:1002A000984710BDB8100020B810002000000000D2
:1002B000054B10B5002B03D00449054800E000BFF2
:1002C000FFF7E2FF10BDC04600000000C41F002081
:1002D000B48A0010F0B5DE46454657464E46E0B5B6
:1002E000B5B005F0A1FBFA20C00002F015FAB34842
:1002F00005F0E8FBB24805F0E5FBB24805F0E2FB8B
:1003000011A80200B04B32CB32C200F09FF9002896
:1003100003D1AE4805F0D6FBFEE7AD4805F0D2FBB1
:10032000AC4805F0CFFBAC4D14A9280000F0C4F98F
:10033000002800D13DE104262721A84805F046FC0D
:10034000A74C1423290027222000009600F088FAE9
:10035000200000F05BFC00222000110000F094FC63
:100360002000A04900F0E2FC01220021200000F062
:100370008BFC20009C4900F0D9FC022200212000C7
:1003800000F082FC9949200000F0D0FC984802F06F
:10039000C3F9984805F096FB974BB4279B46B423C6
:1003A000DB000293984619237F00009399460322AD
:1003B000330058469149019700F03EFE051E0FD1CB
:1003C0008F4805F07FFB200000F020FC2900200072
:1003D0002A0000F059FC20008A4900F0A7FCFEE743
:1003E000894805F06FFB4B4632000321874805F032
:1003F000EDFB42463900864805F0E8FB200000F09E
:1004000005FC00222000110000F03EFC2000814984
:1004100000F08CFCFA20800002F07EF97E4B7F4DCC
:1004200006937F4B07937F4B9A467F4B0F937F4BEF
:100430000E937F4B08937F4B09937F4B0A937F4B1F
:100440000B937F4B0C937F4B0D935B460593059E5F
:10045000D027300000F012FF300000F09FFF069818
:1004600005F030FB0A263F0679687A687B68D20679
:100470009B010907DB0FD20FC90F280005F0A6FB6F
:10048000013EC82002F048F9002EEDD1079805F092
:1004900019FBFA20C00002F03FF9059B18009B46AB
:1004A00000F070FF8146584600F06EFF80465846C7
:1004B00000F06CFF0700584600F06AFF060058463F
:1004C00000F06AFF049002F03DFA00296CD0FA2295
:1004D0000023920002F0D6FD53461B68C31A632B1B
:1004E0005ED953461860049803F028FC0E9B9B4687
:1004F000002E01D00F9B9B465B4642460090019127
:10050000029349463B00089805F060FB200000F08C
:100510007DFB00220021200000F0B6FB200009999D
:1005200000F004FC4946200000F062FC012200219A
:10053000200000F0A9FB20000A9900F0F7FB4146DB
:10054000200000F055FC01220E21200000F09CFB51
:100550005946200000F0EAFB02220021200000F0B2
:1005600093FB20000B9900F0E1FB3900200000F024
:100570003FFC20000C9900F0D9FBB4212000C900F9
:1005800000F036FC03220021200000F07DFB20005B
:100590000D9900F0CBFB01222000049900F094FC9F
:1005A0000A2002F0B9F852E7FA21890002F02CFD86
:1005B00092E7254805F086FABDE6C046C08A0010DD
:1005C000E88A0010088B0010F49000102C8B0010AB
:1005D000508B0010708B0010A8100020A48B00100E
:1005E000B41F0020CC8B0010DC8B0010E88B0010B7
:1005F000DC050000F88B00103812002000002050AD
:10060000148C0010408C0010548C00107C8C001056
:10061000A08C0010B88C0010C08C0010E08C001072
:10062000008D0010A41F0020B88A0010BC8A0010A2
:100630002C8D0010648D00106C8D0010748D0010D6
:100640007C8D0010808D0010848B001010B5041E6E
:1006500019D00068002816D0A16808F03DF90321E0
:10066000207901F043F80321607901F03FF800227E
:100670000121207901F054F860790022012101F074
:100680004FF8012010BD0020FCE7C04610B50F2434
:1006900084B06C44227000280BD000232200009309
:1006A000013308F041F9013843425841C0B204B067
:1006B00010BD0020FBE7C046F0B5DE465746454674
:1006C0004E468A46E0B5804687B0584805F0FAF9AC
:1006D000574805F0F7F9534600240027002B59D05E
:1006E000544B0393544B9B46544B99460F23782508
:1006F0001E0025402640234217D0002D36D0782DED
:1007000019D1484605F062FA0F2E39D00134802CF9
:10071000ECD139004A4805F059FA380007B0F0BC6E
:10072000BB46B246A946A046F0BD2100424805F0AE
:100730004DFA002D28D002A900238C460F22E5B2E5
:100740000093290040460133624408F0F7F800287E
:1007500012DB2100584605F039FA5346DD550137C2
:100760000F2ED3D10A2005F063F9CFE7334D2800CF
:1007700005F02CFA0134B9E7039805F027FAEFE702
:100780000A2005F055F9C4E72C4D0124280005F096
:100790001DFAECE7284B9A46284B99460F237825FB
:1007A0001E0025402640234212D0002D2ED0782D49
:1007B00014D1484605F00AFA0F2EE1D00134802CFE
:1007C000A7D00F2378251E00254026402342ECD1D8
:1007D0002100504605F0FAF9002D21D002A800238F
:1007E00084460F2200934046E1B20133624408F090
:1007F000A5F8002810DB21000F4805F0E7F90137C4
:100800000F2EDBD10A2005F013F9D7E70B4D280096
:1008100005F0DCF90134C1E7064805F0D7F9EFE748
:1008200048464D4605F0D2F90124F0E7888D0010C6
:10083000988D0010D48D0010CC8D0010D88D001034
:10084000DC8D001000230F2200B585B000936A44B0
:10085000013308F073F8C043C00F05B000BDC046B7
:10086000F0B5C64600B515006A46437108230E0070
:10087000127E016005718271C3710400322001F0A3
:100880004BFF29003000FFF7DDFF002800D1B6E163
:10089000E27921792068FFF7F9FEFA203025342625
:1008A000800001F039FFE27921792A43D2B2206831
:1008B000FFF7ECFEE27921793243D2B22068FFF7EC
:1008C000E5FE0120002101F0B1FEE27921792A4301
:1008D000D2B22068FFF7DAFE0021322001F0A6FE36
:1008E000052001F019FFE27921792A43D2B220686C
:1008F000FFF7CCFEE27921793243D2B22068FFF7CC
:10090000C5FE0120002101F091FEE27921792A4300
:10091000D2B22068FFF7BAFE3220002101F086FE35
:100920009620002101F082FEE27921792A43D2B299
:100930002068FFF7ABFEE27921793243D2B220681A
:10094000FFF7A4FE0120002101F070FEE2792427C8
:100950002A432025D2B221792068FFF797FE80260E
:100960003220002101F062FE9620002101F05EFE9F
:10097000E27921792A43D2B22068FFF787FEE27933
:1009800021793A43D2B22068FFF780FE012000218E
:1009900001F04CFEE27921792A43D2B22068FFF7B8
:1009A00075FE3220002101F041FE9620002101F069
:1009B0003DFEE27921792A43D2B22068FFF766FE34
:1009C000E27921793A43D2B22068FFF75FFE012035
:1009D000002101F02BFEE27921792A43D2B220686E
:1009E000FFF754FE3220002101F020FEE27976422A
:1009F00032432179D2B22068FFF748FE8423E2799E
:100A000021791A432068FFF741FE0120002101F0FF
:100A10000DFEE37921791E43F2B22068FFF736FE1E
:100A20003220002101F002FEE27921792068FFF7EF
:100A30002DFE0423984643464026E27921791A4345
:100A4000D2B22068FFF722FE0120002101F0EEFD66
:100A5000E27921792068FFF719FE3220002101F0A8
:100A6000E5FDE279764232432179D2B22068FFF780
:100A70000DFEC423E27921791A432068FFF706FEB0
:100A80000120002101F0D2FDE37921791E43F2B269
:100A90002068FFF7FBFD3220002101F0C7FDE2795D
:100AA00021792068FFF7F2FD43461026E27921798B
:100AB0001A43D2B22068FFF7E9FD0120002101F0BE
:100AC000B5FDE27921792068FFF7E0FD32200021B1
:100AD00001F0ACFDE27921793243D2B22068FFF710
:100AE000D5FD1423E27921791A432068FFF7CEFD62
:100AF0000120002101F09AFDE27921793243D2B23E
:100B00002068FFF7C3FD0021322001F08FFD022095
:100B100001F002FEE27921792068FFF7B7FD434634
:100B20006026E27921791A43D2B22068FFF7AEFD40
:100B30000120002101F07AFDE27921792068FFF798
:100B4000A5FD3220002101F071FDE27921793243C7
:100B5000D2B22068FFF79AFD6423E27921791A4323
:100B60002068FFF793FD0120002101F05FFDE2798D
:100B700021793243D2B22068FFF788FD322000216C
:100B800001F054FDE27921792068FFF77FFD4346AB
:100B9000E27921791A43D2B22068FFF777FD01206C
:100BA000002101F043FDE27921792068FFF76EFD15
:100BB0003220002101F03AFDE27921792A43D2B2B4
:100BC0002068FFF763FDE27921793A43D2B22068C9
:100BD000FFF75CFD0120002101F028FDE279217979
:100BE0002A43D2B22068FFF751FD0021322001F0E4
:100BF0001DFD022001F090FD80BCB846F0BD29002B
:100C0000014804F0E3FF43E6F48D001070B50400E2
:100C1000C27901790068FFF739FD04231025E279D4
:100C200021791A432068FFF731FD0120002101F0EE
:100C3000FDFCE27921792068FFF728FD32200021B0
:100C400001F0F4FCE27921792A432068D2B2FFF75F
:100C50001DFD1423E27921791A432068FFF716FD60
:100C60000120002101F0E2FCE27921792A43D2B28D
:100C70002068FFF70BFD0021322001F0D7FC022095
:100C800001F04AFD70BDC046F0B5274B83B001931B
:100C900083790400934201D8013BDAB201AB9D5C39
:100CA0000F234D19EDB22F0080269F43E2793E437A
:100CB000217932432068FFF7E9FC8423E279217926
:100CC0003A431A432068FFF7E1FC0120002101F0BC
:100CD000ADFCE279217932432068FFF7D7FC32205E
:100CE000002101F0A3FC2D01E279EDB221792A4324
:100CF0002068FFF7CBFC0423E27921792A431A43C9
:100D00002068FFF7C3FC0120002101F08FFCE2798D
:100D100021792A432068FFF7B9FC3220002101F035
:100D200085FC03B0F0BDC04600401454F8B55746EA
:100D30004546DE464E46E0B50D7804000F00002D16
:100D400050D00F239A4601239946052398462E003A
:100D500053464A469E433243D3B2E27921791A433D
:100D600020689B46FFF792FCE37921791E434346B6
:100D70001E43F2B22068FFF789FC0120002101F038
:100D800055FC5B464E46E27921791A4320682D01D5
:100D9000FFF77CFCEDB23220002101F047FC2E432E
:100DA000E279F6B2217932432068FFF76FFCE379EC
:100DB00021791D4343461D43EAB22068FFF766FCD4
:100DC0000120002101F032FCE279217932432068D0
:100DD000FFF75CFC01373220002101F027FC3D7851
:100DE000002DB4D1F0BCBB46B246A946A046F8BD22
:100DF000F0B5DE46574645464E46E0B585B06F46EF
:100E00000B000400102168462E4A04F08BFC3D784C
:100E1000002D50D00F239A4601239946052398466A
:100E20002E0053464A469E433243D3B2E27921799B
:100E30001A4320689B46FFF729FCE37921791E437A
:100E400043461E43F2B22068FFF720FC0120002138
:100E500001F0ECFB5B464E46E27921791A432068AB
:100E60002D01FFF713FCEDB23220002101F0DEFB73
:100E70002E43E279F6B2217932432068FFF706FC6F
:100E8000E37921791D4343461D43EAB22068FFF709
:100E9000FDFB0120002101F0C9FBE27921793243F9
:100EA0002068FFF7F3FB01373220002101F0BEFB81
:100EB0003D78002DB4D105B0F0BCBB46B246A94682
:100EC000A046F0BD208E0010F0B5DE4657464546E0
:100ED0004E46E0B50D1C374989B0130004000A00E6
:100EE00002A8082104F01EFC281C02F027FF04AF12
:100EF0000090019102AA1021380004F013FC3D7803
:100F0000002D50D00F239A46012399460523984679
:100F10002E0053464A469E433243D3B2E2792179AA
:100F20001A4320689B46FFF7B1FBE37921791E4302
:100F300043461E43F2B22068FFF7A8FB01200021C0
:100F400001F074FB5B464E46E27921791A43206832
:100F50002D01FFF79BFBEDB23220002101F066FB73
:100F60002E43E279F6B2217932432068FFF78EFBF7
:100F7000E37921791D4343461D43EAB22068FFF718
:100F800085FB0120002101F051FBE27921793243F8
:100F90002068FFF77BFB01373220002101F046FB80
:100FA0003D78002DB4D109B0F0BCBB46B246A9468D
:100FB000A046F0BD248E0010F8B51B4E3368002B00
:100FC00002D09B78834200D0F8BD01F0BBFC040046
:100FD0000D0022002B003768B86AF96A121A8B419B
:100FE0001000002B17D0114AB86911688842EBD065
:100FF000B9690F481160B96904F0E8FD002233684F
:101000001A6224329A5C002A09D0DA690132DA6164
:101010009C62DD62D8E7074A9042E4D8D4E7DA69F7
:10102000013ADA61F4E7C046A01B0020AC1F0020A3
:101030002C8E00104FC30000F0B5DE464E464546EC
:101040005746E0B591B00E00059319001AAB150094
:101050001A781B9B002743601C9B827083600123CE
:101060009B4691465A46233387610570C76141709C
:101070000762C660C254002200238262C362076313
:10108000040001F05FFC002323644423A063E163B8
:10109000E7546C4B30001900984607F093F9049020
:1010A000002800D1C1E04146300007F0C9F9002115
:1010B0006061300007F06AF98046002800DABAE083
:1010C000626908AB9A460292F82380225B025202C0
:1010D00008920993C02351461B03102220610B97ED
:1010E0000CA88B6002F0C4FE029A0CA9531C1B03CF
:1010F000D2011343504610220D9302F0B9FE28008E
:1011000000F08AFB681C039000F086FB5B46AB4056
:1011100007931900D0231B069962594603980022B1
:10112000814028009962012100F0FAFA0022012191
:10113000039800F0F5FA444B2800F3181B0D063312
:10114000DBB21900069300F0D1FA0699039800F07B
:10115000CDFA2A00022341463000009707F0ECF94F
:1011600053463A4A9B683A491340802212061A4372
:101170005346DB68ED030B40F82109030D40802145
:101180002B43C90208910A924146029A0B93300000
:10119000534607F02BFA5B4641468B4032681343B7
:1011A00033602C4B9E424AD02B49D02522692B48D4
:1011B00004F00CFD2D060A2001F0AEFA6B68079AC8
:1011C00001261A4013005A1E93413200059F686899
:1011D000BA401040421E9041D9B25B00C2B20343F4
:1011E00044202354235C1E48DBB204F0EFFC484645
:1011F00000F012FB4B469E40002201214846AE62A1
:1012000000F08EFA174B48461C6001220821164B4D
:1012100000F09AFA154804F055FC049811B0F0BC9F
:10122000BB46B246A946A046F0BD114804F04AFCB0
:1012300000230493F1E70F4804F044FCF8E70E495B
:10124000B3E7C046109100100000E0AFFFFF0A3E78
:10125000FF7FF0FF000020504C8E0010988E001091
:10126000C08E0010A01B0020B90F0010F08E0010DF
:10127000548E0010748E0010448E0010F0B5474656
:10128000CE46002380B506009846394F83B010E063
:10129000FA220023920001F0F5FE05003B68EB1AEC
:1012A000642B02D9334B9D421BD94422B35CA34229
:1012B00024D101223369F16808339A40486810420A
:1012C00045D19B005C58E3B2994603231C4001F0D2
:1012D00039FB0029DCD1FA21890001F095FE0500D7
:1012E000DCE74A460123210013402348620804F04A
:1012F0006DFC44223D60B35CA342DAD0B35C1F496D
:101300009B002343DBB2CD564146132924DD012344
:101310009C46E044002D10D0B369EB18B361336AEA
:10132000013333622423002D1EDD0122F254326A80
:10133000B3689A4201DB0023336244230122F45450
:101340003369F16808339A4048681042B9D003B055
:10135000C0BCB946B046F0BDB15C09482200C9B274
:10136000009504F033FCD2E70022F254DFE7C046D8
:10137000A81F00200F270000108F00100091001000
:101380002C8F001080697047C0697047006A7047F1
:101390002423C05CC0B27047006C7047F0B546466D
:1013A000D6464F46C0B5804601F0CCFA434604000D
:1013B0009A6BDB6B0D00A41A9D4106000F00002DF7
:1013C00002D1164B9C4224D943469B699A46434618
:1013D000186B5346181A02F07FFC43468146986802
:1013E00002F07AFC011C484602F055FC29008146B7
:1013F000200002F095FC011C094802F04CFC011C85
:10140000484602F05CFC434652469E63DF63186424
:101410001A63E0BCBA46B146A846F0BD9F860100FB
:10142000C0E1644CD0231B061B68AC4A9900F0B5A0
:10143000DE468B4651585A4253412F2257464E465C
:1014400045465B4293439A46A54BE0B59C4683B024
:1014500000260191E244002938D0A24B9946524619
:10146000F30808339B009D58012334009846083642
:10147000002D22D00F212000294001342D09002900
:1014800019D04B465A469A580300C240203BDB17FE
:101490001340424613420CD107220F000240920033
:1014A00097403A00C308904F3C339B00DA51019BB0
:1014B0009847002D01D0B442DCD3202ECFD103B009
:1014C000F0BCBB46B246A946A046F0BD854E5F467D
:1014D00000210F23B346CC08220050460832920068
:1014E0001258002A00D1D0E01800104080461009A0
:1014F00013421AD05D46ED59A94620256D42AC46EF
:101500008C446546ED17AC464D46CD40A946654630
:101510004E4635400126354204D14646724D3C3494
:10152000A4006651002800D1AFE01C000440A4468E
:10153000140A03421AD0481C80465846C0594646F1
:1015400081464D460800F5401F38C0172840012548
:10155000284208D165462D01AC46F0086646624D2A
:101560003C3080004651002C00D18EE01800204015
:101570008446100B234211D08C1CA0465C46E459D3
:101580004646A1464D460C00F5401E3CE4172C4053
:1015900001252C4200D182E0002876D01C000440B6
:1015A000A446140C034210D0C81C80465846C059AB
:1015B000464681464D460800F5401D38C017284074
:1015C0000125284275D0002C5FD0180020408046AD
:1015D000100D23420ED00C1DA4466546414CE45923
:1015E000EC40A1460C004D461C3CE40F2C426AD056
:1015F00000284AD01C000440A446140E034218D010
:10160000481D804645463748C059E8408146080095
:101610004D461B38C00F284209D165462D05AC4602
:1016200040466646C008304D3C3080004651002C94
:101630002BD0180020408446120F23422AD029487C
:101640008C1D8146C059E0408046080045461A3846
:10165000C00F284206D1E0086446234D3C302406E2
:1016600080004451002A10D04846C059CC1DE040AB
:101670008446080065461938C00F284205D1E008A5
:101680003C30194C1207800002510831202900D04B
:1016900021E714E7002AF8D012488146E4E76546BE
:1016A0002D02AC46F40866460F4D3C34A40066514A
:1016B00072E765462D03AC46F00866460A4D3C309D
:1016C000800046517FE745462D04A84664464646BD
:1016D000E408054D3C34A400665189E7281B00202E
:1016E00030410140F41F002000400140094A8300BE
:1016F0009A1810B514684022544080322240064C9B
:10170000C000A44663441A60044B9C466044416098
:1017100010BDC04604C0014004D00140004001405B
:10172000074B8000C3181B68C90092000A435A4047
:101730000C231340034A9446604403607047C0463C
:1017400004C0014004D00140F8B545469846D02376
:101750001B06DE461C689B462B4B57469A46A30049
:101760004E469946E0B5534616004A469B58070038
:101770000D00002B34D04346002B3FD053464A4641
:1017800041469950D0231B061C6863425C412F22BE
:101790000720634293431D4A38409446FA081100DB
:1017A000800085403C311A486344890092000D5006
:1017B0009B18002E0ED08022920194466344012192
:1017C0000D201D6000F020F9F0BCBB46B246A946D2
:1017D000A046F8BDC0229201944663441D60F3E721
:1017E0004346002BD1D0534641460D20995000224C
:1017F000084900F06BF95B461C68C6E70D200549F7
:1018000000F05EFABAE7C046281B002030410140D4
:1018100000400140251400100123D022834012060D
:1018200093629361094A83009A18116840225140DB
:1018300080320A400649C0008C4663441A60054B5A
:101840009C460523604443607047C04604C0014085
:1018500004D00140004001408023DB051868000FE0
:101860007047C0460FB400B5084883B004F02AF9A9
:10187000049B002B07D005A91800019103F078FF05
:10188000034804F01FF9012003F08AFF5C8F001069
:101890006C8F0010EFF3108072B6034A1368002BB0
:1018A000FCD0BFF35F8F70472C0100D0BFF35F8F78
:1018B0000022024B1A6080F3108870472C0100D080
:1018C00070B5EFF3108C72B60D4D2B68002BFCD069
:1018D000BFF35F8F0724CB08C618C05C01230C4000
:1018E000A3401C000440034207D118433070BFF3EB
:1018F0005F8F2C608CF3108870BD1000FFF7B2FF73
:101900002C0100D0F8B54746CE46884680B5EFF3A7
:10191000108C72B61C4D2C68002CFCD0BFF35F8F6E
:101920009A4222D807210126894602E001329342D9
:1019300018D34D4637001540AF40D4080119045D57
:101940002742F3D110003C430C70BFF35F8F00229D
:101950000D4B1A608CF3108800280EDBC0BCB94612
:10196000B046F8BD01204042EFE7BFF35F8F002390
:101970002B608CF31088012040424346002BEDD0B1
:101980000898FFF76FFFC0462C0100D0044A10787A
:10199000431CDBB2172B00D9102313707047C046CD
:1019A000E00F002010B5064B064C82B001000093FA
:1019B00018221F232000FFF7A5FF02B010BDC0466C
:1019C000708F0010381B00200021044B044ABFF325
:1019D0005F8F02C39342FAD17047C046000100D026
:1019E000800100D0054B064A1360064A136053601D
:1019F0009360D360136153619361704780808080EE
:101A000000E400E004E400E01F2318401E3B834094
:101A1000002905D0C021044A490053501360704783
:101A2000802201498B50FAE700E100E00122824068
:101A3000034B1B6813405A1E9341D8B27047C046EF
:101A400000E100E001238340014A13607047C04673
:101A500000E200E0064B10309B688000C358054A46
:101A600000209B1A2F229A424041C0B27047C046C4
:101A700000ED00E0E40F002070B50D00EFF31086DC
:101A800072B60F4A1368002BFCD0BFF35F8F0D4B6B
:101A900010309B6884001B590B4A934203D09D422F
:101AA00001D001F05FF9074B9B681D51BFF35F8FB9
:101AB000BFF35F8F0022024B1A6086F3108870BD5F
:101AC000240100D000ED00E0C1010010F0B5574640
:101AD0004E46DE464546E0B585B00600009117004B
:101AE000EFF3108B72B66A4A1368002BFCD0BFF379
:101AF0005F8F0025674B5D579A46002D00DAA9E0FD
:101B00006B00654C01935B199B009846A146C1444C
:101B10004B4652469B7910361370604BB6009B685B
:101B200099590B1B2F2B33D95D4B994200D0ACE058
:101B3000019B42469C465B4B6544AD0063535A4B48
:101B40000232A218043B9B1A1B05584A5B0D65190B
:101B500013436B80564B0121AB80FF23AB71009B7D
:101B6000EF71AB604B460B4319004C4B9B6899518E
:101B7000BFF35F8FBFF35F8F0022454B1A608BF37B
:101B8000108805B0F0BCBB46B246A946A046F0BDE1
:101B900001200A008243D3798C46BB4231D84546A6
:101BA000130044491B1B5B415943090D3D4B6353D3
:101BB0003D4B02356519043B5B1B1B053B4D5B0D23
:101BC0002B43AA464D466B800425AC465546E0445F
:101BD000131F44441B1B1B055B0D1D434B46997192
:101BE00000999D8099604946DF71334B0143136032
:101BF000BBE75800C01880002018C179B9422FD91E
:101C000002000623D356002BF3DA02932B4B6146D6
:101C10000393131D9A4604235B429C46E1445046BD
:101C20004B461B1A1B055B0D9C46204B9571984635
:101C30006346404603439380019B5A199200039BDD
:101C4000A418A380029B1C4AA371009B2260E77129
:101C5000A3608AE701F086F8002553465D574FE7F9
:101C6000908802934005131D9A46031561469C46D1
:101C70004046D444634604302018181AE023000577
:101C8000400D1B0218430390C5E701F06BF84FE7C6
:101C9000240100D029200020E40F002000ED00E006
:101CA000C101001000A1FFFF1410002000E0FFFFA1
:101CB00001BDFFFFAAAA00000148804701BD000046
:101CC000F0B5DE4657464E464546E0B50C0083B0BB
:101CD000EFF3108872B6634A1368002BFCD0BFF391
:101CE0005F8F614B61499A68030010339F00D5599B
:101CF00001938D4243D0A54254D05D4EAA1B2F2A9A
:101D00003DD85C4B9B461B68994601231A009C46B4
:101D100082404B4613401F2299466346024093403F
:101D20009A4680225B4650469850BFF35F8FEFF390
:101D300005839B46002B37D0019B5B4501D001F00A
:101D400011F801232A009A439068844208D176E072
:101D50004B005B189B00F3189868844236D01A0039
:101D6000062151560029F3DA844254D04B46002B09
:101D700027D0C02251463F4B5200995019603A4B30
:101D80009B68DD51BFF35F8FBFF35F8F0022354B40
:101D90001A6088F3108803B0F0BCBB46B246A9466F
:101DA000A046F0BD0D00EAE72A0063469A4390681A
:101DB0008442D5D106201056130000280ADA0D00FF
:101DC00031E0802351462B4AD150D8E706201856DF
:101DD000002821DB42001118890074188B46A16885
:101DE0009960E179D971062161569971002924DB46
:101DF000A488F11A640524155C44091909051E4CD0
:101E0000490D2143998013181C4A9B001178F3183F
:101E100099711070AAE713005946002914D1FF31B7
:101E200091711749918015490A789A71154A9B1B3F
:101E30005B415A43120D0A7098E71149E2E7062008
:101E4000105613000028C5DA0F4A1049D21A083A72
:101E50005002400D014399800D4952080A43DA802F
:101E600084E7C046240100D000ED00E0C10100106D
:101E7000E40F002000E100E000E0FFFF2920002047
:101E800001BDFFFFAAAA00001E10002000F0FFFF06
:101E900000F8FFFF70B501240443EFF30581EFF371
:101EA000108C72B6214A1368002BFCD0BFF35F8FF1
:101EB0001F4B05001F4AED1A6D416A43120D1E4D5E
:101EC0008900AE6852B27658A6421CD006215956F7
:101ED00091421CD012215956914222D01E215956AE
:101EE000914220D02A2159560324914210D0134BFD
:101EF00019781A708171BFF35F8F00220B4B1A6043
:101F00008CF3108870BDAB680D4C5C50EFE700247B
:101F10006100091989005B18FF21997109499980AD
:101F2000E5E70124F4E70224F2E7C046240100D0EB
:101F3000E40F0020AAAA000000ED00E02920002004
:101F4000C101001001BDFFFF10B5084B084C82B065
:101F500001000093002205232000FFF7D3FC002896
:101F600001DB1F23181A02B010BDC0468C8F001071
:101F70002D200020024B9C4661448900016070477F
:101F80004000003470B5114C114DAC420FD2FF2609
:101F90002368002B0CD0FFF7F9FC01002000FFF7AD
:101FA000E9FFA680BFF35F8F0834AC42F0D370BD69
:101FB000FFF7ECFC01002000FFF7DCFF2671BFF308
:101FC0005F8F0834AC42E3D3F1E7C046B010002085
:101FD000B810002010B50400FFF7D8FC0100200065
:101FE000FFF7C8FFFF232371BFF35F8F10BDC0460B
:101FF00010B504000120FFF7D5FC034BC3189B006C
:102000002360BFF35F8F10BD40000034034B9C463C
:10201000614489000160BFF35F8F70474000003466
:102020000A4B1968EFF3108072B60A68002AFCD0D8
:10203000BFF35F8F1B68BFF35F8F00221A6080F3CE
:10204000108840BF002000217047C04608200020B3
:10205000F0B5DE4657464E464546E0B587B0EFF34D
:102060000583032201251A40954091008846A94620
:10207000B34B03925C58B34B1D60B34B04934B4678
:10208000B24843630823E55E002D37DAA3881BB20C
:10209000002B00DBADE0A379002B00D0EEE008239D
:1020A000E05E002820DB430062691B18DB00D318C8
:1020B0009E68DD68731C00D111E1A4480100414411
:1020C000826A0B69B71A9B1A9F4215D30123026AD1
:1020D000039883401A420FD09C4800F02BFC8D429D
:1020E00002DCCCD18642CAD940BF07B0F0BCBB46A7
:1020F000B246A946A046F0BD0E61EDE762696B00ED
:1021000092465B19DB009A4453469E68DF6800F0F4
:1021100011FC8F42BADC00D103E1002F00DAE8E0C5
:102120005246534652691B699346049A934200D122
:10213000D9E052460821605E528800045946104397
:102140009847009001910099019A0B0010001343E9
:1021500000D1CEE013000A00B61A9F41002806DB2A
:102160007A4800F0E7FB009E019F36184F41534626
:102170009E60DF6000229A5E002A00DA86E7530044
:1021800099186069C900411802938B68C9689B4619
:10219000B94200DD7AE702D1B34200D976E70823DD
:1021A0009C46A444059565462281A446029B2C00CA
:1021B00006E053009918C90041188D68C968AB46FC
:1021C0009B18DB00C318B94206DC00D1B3E01C0049
:1021D0000023E25E002AECDA230064469C46534664
:1021E0001A806346059D1D80A3881BB2002B00DA70
:1021F00051E72269EFF3108172B61368002BFCD00F
:10220000BFF35F8F0123A7885B42A3803FB223699E
:10221000BFF35F8F00221A6081F31088002F00DA6D
:1022200039E72300083322009A4666697B00DB19F0
:10223000DB00F318996850468C460824115FDD686E
:10224000002910DB029306E0AB4244D00023E15E9C
:102250002000002906DB4C006418E4003419E36810
:10226000AB42F1DD029B078000201F5E1980002F2A
:10227000DCDA1400A379002B00D110E70023A3714E
:1022800026000823E15E08364B1C00D12CE708002D
:10229000A246656902E03E004B1C1AD04B005B1859
:1022A000DB00EF180A008C46E95E7B881BB2002B2E
:1022B000F1DA01235B42DC17BB60FC60824205D08F
:1022C000534631801B893B8053461A8160464B1C24
:1022D000E4D15446E5E6A3686345B7D9C2E76B1C71
:1022E00000D0EAE6F8E65B4658461B6998470028A6
:1022F0001BD153461B8822692381EFF3108372B6EA
:1023000011680029FCD0BFF35F8F514662880A80B4
:1023100022696580BFF35F8F0021116083F310880D
:10232000B4E6864200D8F8E6B0E65B461A685B6819
:102330000092019307E7B34500D848E74CE7C04651
:10234000E41F00203C700540512000100040054073
:1023500070B52E4C2569002D04D00A212C48FFF7BA
:1023600009FE70BD2B4E0321300000F0D9FAE66063
:10237000FFF70CFB284B03229C46D02322701B0640
:102380001B6801216370254B6044A3600F2380000C
:1023900020610220638063694942A1801980023173
:1023A000198647311D83585218315A5275325C399B
:1023B000995218320131995218320131995218321A
:1023C00001319952083518329D5202311832995212
:1023D00018320131995218320131995218320131B3
:1023E00099521832013199521832013199520C4BDD
:1023F0000C49DC6001303562FFF73EFB0121032010
:10240000FFF702FB084B1D60A7E7C0462C10002019
:10241000082000200040054040000034FFFF10006D
:10242000E41F00205120001038600540004870472C
:102430002C100020F8B51F0008AB1B780400160014
:10244000002B08D100F07EFA32003B00121A8B41BB
:10245000002B00DA52E02269EFF3108072B61368A5
:10246000002BFCD0BFF35F8F0223E15E63694A005B
:102470005218D2009B182269002936DB1D8865801E
:10248000BFF35F8F0025156080F31088069A9E6069
:10249000DF601A61079A5A615A8801325204520C5D
:1024A000101C002A1FD082B25880080410432669ED
:1024B000EFF3108772B63268002AFCD0BFF35F8F4B
:1024C000A2881A80A1802369BFF35F8F00221A605F
:1024D00087F310880A4923788C4601329A40E368D2
:1024E00063441A60F8BD0120DDE7BFF35F8F00236E
:1024F000136080F3108801204042F3E70020F1E7E9
:102500003C20000070B501000469EFF3108C72B636
:1025100020680028FCD0BFF35F8F02200D5E4C695D
:1025200068004019C00024180869002D36DB268891
:102530004E80BFF35F8F002606608CF31088E36047
:1025400063880498013320615B0405985B0CA260EA
:1025500060611A1C002B1FD093B2280462801843BC
:102560000A69EFF3108C72B61368002BFCD0BFF32E
:102570005F8F8B8823808D800B69BFF35F8F002274
:102580001A608CF310880B7801329A40CB680849A6
:102590008C4663441A6070BD0122DDE7BFF35F8F94
:1025A000002303608CF3108801204042F3E7C0460B
:1025B0003C20000010B543890A1493421ADD5300F1
:1025C0009B184269DB00D3180469EFF3108C72B6D4
:1025D0002268002AFCD0BFF35F8F5A88090494B2A6
:1025E000090C8A4208D00369BFF35F8F00221A608A
:1025F0008CF31088002010BD8022120214435C80EE
:10260000012302698371BFF35F8F002111608CF396
:102610001088044902788C469340C26801206244C5
:102620001360E8E73C20000040787047F0B5C646EC
:1026300000B582B004000D0000F084F924184D416B
:10264000002D02DA01242F4D644206267642F71748
:1026500036196F41AF4214D811D000F073F932002F
:102660003B00121A8B41002B15DC002B46D02000BA
:10267000290000F071F902B080BCB846F0BDA64256
:10268000EBD90026002700F05DF932003B00121A5A
:102690008B41002BE9DD00F055F932003B00121AA6
:1026A0008B41002B0ADB00230193174B3200009370
:1026B00016483B00FFF726FF0130D8D00023390031
:1026C000B0469C46124A1348536A994204D8966A07
:1026D0004645CCD29942CAD10668EFF3108772B64C
:1026E0003368002BFCD0BFF35F8F0368BFF35F8FAD
:1026F00066461E6087F3108820BFE5E7002AB6D043
:10270000C9E7C046FFFFFF7F212000102C100020EA
:102710000040054008200020F0B5C64600B582B054
:10272000040000F00FF9FA2206000F002000002339
:102730000021920001F08CFA8019794104000D1EED
:1027400002DA01242E4D644206267642F717361926
:102750006F41AF4214D811D000F0F4F832003B00C2
:10276000121A8B41002B15DC002B46D020002900CB
:1027700000F0F2F802B080BCB846F0BDA642EBD93A
:102780000026002700F0DEF832003B00121A8B41D1
:10279000002BE9DD00F0D6F832003B00121A8B4125
:1027A000002B0ADB00230193164B320000931648DE
:1027B0003B00FFF7A7FE0130D8D000233900B04618
:1027C0009C46124A1248536A994204D8966A464572
:1027D000CCD29942CAD10668EFF3108772B633683B
:1027E000002BFCD0BFF35F8F0368BFF35F8F66469B
:1027F0001E6087F3108820BFE5E7002AB6D0C9E73E
:10280000FFFFFF7F212000102C100020004005401A
:1028100008200020F0B557464E46DE464546E0B556
:1028200006000F0085B0EFF3058399468B46002B19
:1028300012D0384900204B6ABB4206D38A6ADB1BA0
:10284000591E8B41B2424041184305B0F0BCBB4613
:10285000B246A946A046F0BD2F4B9A46DB68984683
:1028600053461B784046039300F064F84246039BAE
:10287000040004339B009B580D001B1A39003000E4
:10288000001BA941894510DC0DD020BF214A002042
:10289000536A5B45D9D3926ADB1B591E8B41B24206
:1028A00040411843D1E78342EFD900F04BF83200A2
:1028B0003B00121A8B41002B1ADB00230193174BAC
:1028C0003200009350463B00FFF71CFE011E0FDD57
:1028D000104B5A6A5A451BD39B6AB34216D35046D3
:1028E000FFF768FE0B4A0020536A5B45ADD3D2E781
:1028F000084A0020536A5B45A7D30020926ADB1B7D
:10290000B24240415A1E934118439EE75A45E6D1D0
:1029100020BFE4E7004005402C10002021200010DB
:1029200010B5024A0248FEF7CBFF10BDA88F001079
:102930003C1B00200300416A0A00986A596A8A42D7
:10294000FAD17047034B596A0A00986A596A914252
:10295000FAD1704700400540064A536A9942FCD8B4
:1029600007D1044B02E05A6A914202D19A6A90421E
:10297000F9D8704700400540F8B5DE464E46574648
:102980004546E0B58B4605000A991800160000F090
:102990003BFB0A9B6C001F02324B64199C46A4004F
:1029A0006444636881469F4200D967602B1FDBB295
:1029B0009846012B30D9C02380229B01E3181201D5
:1029C0001A60294BAD0059599A4600291BD1730151
:1029D000E026226853401E40802342465B01E318F4
:1029E0001E60012A30D9802380229B01E318120146
:1029F0001A6053464A4667605A51F0BCBB46B2461D
:102A0000A946A046F8BD586900F0FEFA013043001F
:102A10001B18033BFDD2DAE75B46012BCBD1C02369
:102A200003229B01E3181A60023AA3681A42FCD001
:102A30007301E0262268AD0053401E4080230A4AFD
:102A40005B019246E3181E605A46216851400322FA
:102A50000A401A6001225B469A40A3681A42FCD0E1
:102A6000C1E7C04600800040441B0020F0B5464648
:102A70004F46D646C0B51F00344B44009C46241830
:102A8000A4006444636888461600FF2B02D88023A4
:102A90005B006360031FDBB29A46012B30D9C02371
:102AA00080229B01E31812011A60294B85005959B5
:102AB000994600291BD17301E026226853401E402D
:102AC000802352465B01E3181E60012A30D980231F
:102AD00080229B01E31812011A6080235B0063606F
:102AE0004B465F51E0BCBA46B146A846F0BD5869B6
:102AF00000F08AFA013043001B18033BFDD2DAE7ED
:102B00004346012BCBD1C02303229B01E3181A605B
:102B1000023AA3681A42FCD07301E02622688500BD
:102B200053401E4080230A4A5B019146E3181E6011
:102B300042462168514003220A401A60012342465E
:102B40009340A2681342FCD0C1E7C0460080004019
:102B5000441B0020014B8000C0587047441B0020DC
:102B6000F8B5040021481E0017000D0000F04CFAD3
:102B70000100380000F048FA069B36041B031E4390
:102B80002368002B20DB1A4B1A49E3185A1E934185
:102B90008022920194465B421B0B174A1B0363443D
:102BA0001360164A13601F000A689743FBD1144B49
:102BB0002560E2182123A06013602368002BFCDA53
:102BC0000823E6601360F8BD3F2322681340AB4240
:102BD000D9D1A3681B051B0D8342D4D1EE22E36833
:102BE000D2021340B342CED1EDE7C046001BB7007E
:102BF0000040FDBF08C0004000E0004000F0004081
:102C00000430000010B580241C4BE4051C60002833
:102C10001AD001231A4C18431A4BDC611A4C444059
:102C20001C62596298628021144BC90519601748CB
:102C300017490860E021C9041960002A07D18022E1
:102C4000144B12061A6010BD0E4BD861EBE753010E
:102C50009B1A9B009A18802312015B049A4209D2A6
:102C600013000D490B60074B5A608022094BD205B7
:102C70001A60E8E7094B1A00F3E7C04600B00540C8
:102C8000D3C007B0008005402D3FF84FFCFF010086
:102C90000820014000A00540BC1F0020FFFFFF00EE
:102CA0008023024A9B000B43D3627047008005409B
:102CB000002310B50100988A1B8B984710BDC046B1
:102CC000162310B50100188802331B88984710BDE1
:102CD000F8B54746CE4680B50F1E18D01423994646
:102CE000043304000025012698464B4618884346C5
:102CF00021681B88984701C4431E9841013506404E
:102D0000AF42F2D13000C0BCB946B046F8BD012692
:102D1000F8E7C046002370B504000D00988A054905
:102D20001B8B984703000020002C01DB0130A040E2
:102D30002900984755420000AA23064A1B01136048
:102D40008D235B00D3600449044B19605368002B4A
:102D5000FCDA70470040024000B0FA000060024018
:102D60007047C04610B50148FEF77CFDCC8F0010BF
:102D700070B5074D074EB54209D20024013E761BBF
:102D8000B60808CD984723000134B342F9D170BD8D
:102D9000708A0010AC8A0010054B064A06491A607A
:102DA000064A074B1A6010000B689843FBD1704726
:102DB00000E00040BFCDFBFE08C00040FE7F3C00AD
:102DC00000F00040044BDB6C002B03D18022034B4E
:102DD000D2021A607047C046000011504C201150BA
:102DE000044A054B1A60054A1368DB018033FBD1A6
:102DF0007047C046FFFFFF0100F0004008C00040E0
:102E00004022034B9A675A671A67DA667047C046D2
:102E100000F0014010B5FEF7D7FD10BDF8B5274909
:102E2000274C284D641AA6103200302E00D93022CB
:102E30002800920001F01CF8BC2C3BD830202F2336
:102E40002C196407204A801BE40F9B1B052B16D905
:102E50003700002C02D0B300771CEA50001B331956
:102E60009B004108EB18C900C9181A605A60083362
:102E70009942FAD1012303421CD09843C619B300EA
:102E8000EA50731C2F2E15D09B00EA50B31C2E2E37
:102E900010D09B00EA50F31C2D2E0BD09B00EA5063
:102EA000331D2C2E06D09B00EA50731D2B2E01D013
:102EB0009B00EA50054B9D60F8BDC0460001001024
:102EC000C001001000000020C101001000ED00E072
:102ED000002310B5294C82B0A367FFF72DFF012214
:102EE000274B1A60636C012BFCD10322254B1A601F
:102EF000224A936B012BFCD1013300930121224A1A
:102F000022480433FFF72CFE052301210093204AB9
:102F10002048FFF725FE0022022104201E4BFFF768
:102F2000A5FD0022012105201C4BFFF79FFD00227B
:102F3000002107201A4BFFF799FD002200210820ED
:102F4000174BFFF793FD8023DB0000930022002145
:102F50000920134BFFF710FD0022104B0021062023
:102F6000FFF784FD0420FFF7F5FD0E4900F04CF853
:102F700001000020FFF794FE02B010BD0080004069
:102F80003CB0004030B00040002F68590080024043
:102F9000008C864700C00240001BB70040597307F1
:102FA000006CDC0240420F0001480421014B18472D
:102FB00050100020D12C0010124A936F9B0815D29C
:102FC0009066D166002905D0FFE7FFE7FFE7516F64
:102FD000106F704704B580210906C21751400028C0
:102FE00000D0C84305F00CFD002104BDF0B5146EFF
:102FF000556E576F166FFFF7E3FF146655665767F8
:103000001667F0BD000000D0114A936F9B0813D2E1
:1030100010665166002905D0FFE7FFE7FFE7516F13
:10302000106F704704B5002801D00020C04305F0A0
:10303000E7FC002104BDC046F0B5146E556E576F15
:10304000166FFFF7E5FF1466556657671667F0BD04
:10305000000000D094464A4A926F9208624601D21C
:1030600028E0C046F0B5464E346E756E776F366F09
:1030700000F020F89446424A146655665767166772
:103080006246F0BD94463E4A926F9208624601D273
:1030900054E0C046F0B53A4E346E756E776F366FB9
:1030A00000F04CF89446364A146655665767166722
:1030B0006246F0BD002B24DB11D000293EDA00B5BA
:1030C000C943404200D1013100F038F8C9434042C1
:1030D00000D10131DB43524200D1013300BD002A4F
:1030E000EBD1002801D1002905D00020C90FC90764
:1030F00001D1C043410800B505F072FC0022002355
:1031000000BD00B500290ADBDB43524200D1013388
:1031100000F014F8C943404200D1013100BDC94359
:10312000404200D10131DB43524200D1013300F073
:1031300005F8DB43524200D1013300BD002923D101
:10314000002B18D1002A0CD0BC460D4F38667A6689
:1031500000210023FFE7FFE7FFE77A6F386F67463C
:103160007047002801D00748010000B505F038FC81
:103170000022002300BD02000B0000200021704748
:10318000000000D0FFFFFFFF002B00D0BFE0130CBA
:1031900028D1002AE7D080B4114F39667A66FFE75C
:1031A000FFE730B4040C7B6F396F1B0423433B668D
:1031B0007A66FFE7FFE7FFE7C04684B27B6F3D6FAB
:1031C0001B0423433B667A66FFE7FFE7C046002304
:1031D0002C042D0C7A6F386F00196941B0BC704710
:1031E000000000D0F0B594460025140E01D1120263
:1031F0000835140F01D112010435940F01D192004A
:103200000235D40F01D152000135D40B0134254FC2
:103210007C66254C3C660E0C93B2FFE7FFE7FFE7A8
:103220003C6F6643360C7703BE467343DF0B5B048B
:10323000C01AB941130C7343DB18C91ACE08664390
:10324000360CB64493B273431F0F1B01C01AB94129
:10325000130C73431F0B1B05C01AB941860D8F0257
:103260003E436643360C092D24DB520A7243801A12
:103270007703460A6643360C16235B1BDE40DF40AD
:10328000BF1964466643821B70460435063301004D
:10329000D940A840C01900D30131A24206D2002370
:1032A000F0BD0000000000D0FFFFFFFF121B013047
:1032B000F3D3F1E709277F1BFE406446A2B27243B5
:1032C000801A00D20139220C7243130C1204821AA4
:1032D00099410B007046043513370100F940A840AE
:1032E000801900D30131002B02D1A2420AD2F0BDD5
:1032F000013000D30131121BFAD2013BF8D1A242B6
:1033000000D2F0BD013000D30131121BF7E7F0B558
:103310001C0C00D080E00CB400251C0A04D11B0258
:10332000160E3343120208351C0B04D11B01160F75
:103330003343120104359C0B04D19B00960F334399
:1033400092000235DC0B02D192185B4101351C0062
:10335000971864410134464F7C66464C3C660E0C1F
:10336000FFE7FFE7FFE7C0463C6F6643360C770395
:10337000BE4697B27743C01B00D20139C01B00D2B2
:1033800001399FB27743C91BC91B170C77437E04D1
:10339000FF0B801BB941CE086643360C0C2D33DB86
:1033A000B644120B1F053A431B0B97B27743C01B61
:1033B00000D201399FB27743C91B170C77433E04F3
:1033C0003F0C801BB941860D8F023E43664329277F
:1033D0007F1BFE400C3D7746AF40BF1930BCA2B208
:1033E000ABB272437343801A9941220C7243130C9F
:1033F0001204801A994102000B000137001BA941F9
:10340000F9D2781E0021F0BD0C277F1BFE407746C5
:103410007F0BAF40FF19E0E700245D1C07D0144F7D
:103420007D663966FFE7FFE7FFE7FFE73C6F95B290
:103430009EB265436643401BB141150C1E0C6543AB
:10344000664336042F0C3E432D04401BB141994284
:1034500004D202000B0020000021F0BD01D19042F7
:10346000F7D3801A994101349942F2D3F6E700006C
:10347000000000D0FFFFFFFF48404140484018B423
:103480001B4B5B68FC46019308BD04DF233700102B
:1034900018B4174B1B68FC46019308BD00DF2D379D
:1034A00000109446134A926F920809D2624618B4EB
:1034B0000F4BDB68FC46019308BD0CDFE5390010BB
:1034C0000C4AF0B5146E556E576F166F6246FFF7D3
:1034D000EEFF084A1466556657671667F0BD18B4C4
:1034E000034B9B68FC46019308BD08DF8938001038
:1034F00088120020000000D0FFB5504042405040EC
:1035000059404B40594000E0FFB5154F4C00640D49
:1035100003D0BC4204D10C0314D80020090D0905C6
:103520005C00640D03D0BC4204D11C030AD8002205
:103530001B0D1B0501264B4009D44B4003D58B4284
:1035400000D18242FFBD9942FCD19042FFBD0B43A6
:10355000DB1803431343F5D0C9434918FFBD0000EE
:10356000FF07000000B5FFF7CFFF804100BDC04658
:1035700000B5FFF7C9FF01D9002000BD012000BD43
:1035800000B5FFF7B9FF01D9002000BD012000BD43
:1035900000B5FFF7B1FF804100BD012040054A00A2
:1035A000121804D85A00121801D8002070470120C0
:1035B000704700000021002805D17047C11748401E
:1035C000401AFAD0C90713B5064B1B6898470CBCC4
:1035D000441CA2401005120B0349091B090519439D
:1035E000114310BD042000201F04000010B54C0042
:1035F000620D8023D218DB00D21A5B057E2A10DD13
:103600009E3A13DACC170903490819435242D140B4
:10361000640001341532202A05DAD04008436043A3
:1036200010BD002010BD0846604310BDC80FC01873
:10363000013810BD18B4044B5B6AFC46019308BD09
:1036400024DF953B0010000088120020132370B582
:103650001D78012D19D014DD1F48FFF731FB06003E
:103660001E48FFF72DFB1E4C80223100200000F089
:10367000FFFB022D2DD01B48FFF71AFB1A4B1860D9
:1036800070BD1A4B164CA364F5E7184B144C23601D
:103690006360A360E36023616361A361E36123620C
:1036A0006362A362E36223636363A363E3632364EC
:1036B0006364A364E36423656365A365E3652366CC
:1036C0006366A366E36623676367A367E367A36430
:1036D000D1E7064BA364CEE75344000053460000F5
:1036E000881200204C33000004200020F136001026
:1036F00007B5604601880A0A0230DF2AFAD1C9B24A
:10370000820804D3028840880004104300E0006867
:10371000014A5050039007BD881200200FB403BC2B
:103720000CBCF0B50124E407634000E0F0B50C0DDB
:10373000CF0F661E3605891B640503D3C94340427B
:1037400000D30131640D03D0661CF60A07D0E41BD8
:1037500000207F00791C89078912803C24031D0DFD
:10376000DF0F6E1E36059B1B6D0503D3DB435242F4
:1037700000D301336D0D03D06E1CF60A07D0ED1B8C
:1037800000227F007B1C9B079B12803D2D032F1B7B
:10379000661B58D4A446202E46DA20371400BC40BD
:1037A0001D00BD40F24033412A4380185941CB0FE0
:1037B00005D0C943C0430022644250415141624692
:1037C0004D0D28D10D0D07D100281FD024194041DF
:1037D0004941013A0D0DF9D0640006D3013000D300
:1037E0000131002C01D140084000013A0BD4941C57
:1037F000E40A04D112051144DB071944F0BDD907CE
:10380000204B194300E0D9070020F0BD0029DDD18D
:10381000002CDBD1F0BD0132C6074008CD0728439C
:103820004908002EE1D0D9E73C2E29DA203E403766
:103830001400BC4000D00124F24014431A00BB40E5
:103840001C43D317ACE7AC46202F08DA203604001F
:10385000B4400D00B540F84039412843A5E73C2F5E
:103860000CDA203F40360400B44000D00124F84078
:1038700004430800B1400C43C117EAE710001900E7
:10388000002494E70000F07FF0B50C0D661E3605AD
:10389000891BE60A6405640D02D0651CED0A04D09C
:1038A000002001210905803C2403A4461C0D671E4D
:1038B0003F05DB1BE70A6405640D02D0651CED0AB9
:1038C00004D0002201231B05803C2403774064447C
:1038D00097B484B296B27443070C7E43150C6F43C1
:1038E00080B26843361802D3012000043F18300428
:1038F000350C00197D41844688B29AB250430C0CB5
:1039000062431F0C7C438EB27E43921902D3012680
:103910003604A4191604170C3618674101BC81B28D
:103920009AB25143040C62431B0C5C4380B258436F
:10393000121802D30120000424181004130C40189C
:1039400063412D185E410020474106BC88B293B206
:1039500058430C0C6343120C544389B251435B1817
:1039600002D301210904641819041A0C09186241D0
:103970006D1856410020474118BCF902720D1143E1
:10398000F0026A0D1043ED020A0D03D16D1940419A
:103990004941013B124E9B1B7600B3420ED26D0093
:1039A00007D30130002671416646354301D14008F6
:1039B00040001B05C918E4072144F0BD0BDA0133B0
:1039C00006D1013004D101314F0D01D04908F2E791
:1039D000E1070020F0BD013631050020EBE70000D3
:1039E000FF030000F0B51C0D671E3F05DB1BE70A57
:1039F0006405640D02D0661CF60A04D0002201237F
:103A00001B05803C2403D0252D060026F6432E6698
:103A10001E096E66CE0FF619B44649004F0D02D04E
:103A20007E1CF60A03D000200021403F3F033E1BCE
:103A3000B600B444013F7F05C91B49082E6F01360B
:103A400076089C02950D25437543ED137543AD1320
:103A500001356D10F603761B0CB4CC02450D2C43DA
:103A6000A2B2B3B25A43270C7B43350C6F43A4B2C6
:103A70006C431B1902D3012424043F191C041D0CA0
:103A8000A4187D4124196D41009A91B2ACB26143F2
:103A9000170C7C432B0C5F4392B25A43A41802D3F9
:103AA00001221204BF182204230C52187B41019CEE
:103AB0006C431B19520ED9010A434401A01A81B26A
:103AC000B2B2514303145A43360C734387B277435F
:103AD000D617D21900277E4136049B191704160CFD
:103AE0007F185E417316ED18F3010026803375418F
:103AF000A90F06D16400690AE8055B0A184309D2D8
:103B00002FE00422944480337541A90AA8059B0A3A
:103B1000184326D3404149412404009A019B0D00DB
:103B20005543641B4343E41A95B286B27543170CA0
:103B30007E43030C5F4392B25A43B61802D301226C
:103B40001204BF183204330C52197B4152429C417B
:103B5000002C02D40022013051414008CA07104312
:103B6000490802B06246D7079210084BD218084B9A
:103B70009A4203D212058918C919F0BD0020002A03
:103B800001DC3900F0BD01331905F5E7FD03000044
:103B9000FE070000002200B5203200F004F8080003
:103BA00000BD000000220B150AD410B5944600F0A9
:103BB00031F81414013400DA0021CB17144C2047DB
:103BC0000020002170476244343A0CD40C2A07DAF2
:103BD00004009140904052422032D440214310BD15
:103BE000D843D94310BD203207D40C4694405242EA
:103BF00020321141D040204310BD0800C9172032A7
:103C000003D452422032104110BD1800190010BDDB
:103C1000C73B00100A0DCC0F531E1B05C91A5205D5
:103C200003D3C943404200D30131520D03D0531C8A
:103C3000DB0A07D0121B00206400611C890789126F
:103C4000803A1203014BD21A70470000FF030000B4
:103C500051434343C9188C46110C83B24B4310B4F3
:103C6000040C614392B280B2504362431C041B0CAB
:103C7000001910BC59411304120CC0185141614481
:103C8000704700004840414048400E4B5B68184771
:103C90000C4B1B6818470C4A936F9B0802D2094BC8
:103CA000DB681847F0B5146E556E576F166FFFF747
:103CB000F6FF054A1466556657671667F0BD014B57
:103CC0009B68184788130020000000D0491A00287C
:103CD00008D1084670470000C10FC90700D540420F
:103CE000002817D0F44603B40B4B1B68984706BC5A
:103CF00081409E384042803107D20B0607D04900F0
:103D0000490AC0051043084360470130F8E7490AF3
:103D10008902F5E77047000004200020054A10479B
:103D20000029FBD0044B5B6EFC46184764DFE13D85
:103D300000100000CD3C001088130020034BDB6F07
:103D4000FC4618477CDF253E001000008813002049
:103D5000132310B512481C78FEF7B2FF0100012CA6
:103D60000AD003DD80220F4800F082F80E48FEF7EB
:103D70009FFF0E4B186010BD0A4C5422200000F02B
:103D800077F80B4B6365A365E36523666366A366FB
:103D9000E36623676367A367E3672362E361E5E79D
:103DA00053460000881300204C33000004200020FC
:103DB000B53D001007B5604601880A0A0230DF2AC7
:103DC000FAD1C9B2820804D30288408800041043A3
:103DD00000E00068014A5050039007BD881300209E
:103DE000002230B5002906D5CD0705434808013A21
:103DF00010E0002230B505000D430FD0CD170C1692
:103E0000AC4205D1C901440E2143C0010732F6E797
:103E10000500080052423D320149884730BD00008C
:103E2000EF290000C30FDB0741000A0E07D0FF2A6D
:103E300008D00909054A8918194340077047190035
:103E4000002070470249C918FAE700000000003856
:103E50000000F07F01480421014B1847601000204A
:103E6000D12C0010014B1B68184700006010002087
:103E7000014B5B6818470000601000209A4200D296
:103E8000885470477047C046F8B55746DE464E46E0
:103E90004546E0B599460A9B07009A460D9B884621
:103EA00093460B9C9B073BD10C9B9C423DD21E1B17
:103EB0000B9415000C005E442A004B46013521008E
:103EC0002020B847B542F7D1A0460B9C002C20D04B
:103ED000454636195346321B013C185D29004B46B6
:103EE000B847002CF6D12B00350098460D9B9B0758
:103EF0000FD55B46EC1A0C9BA3420AD9464698465E
:103F00002A004B46310020200134B8470135444592
:103F1000F6D32800F0BCBB46B246A946A046F8BD81
:103F200016001500002CD3D1E0E716001500002C78
:103F3000CED1EEE7F0B54546DE4657464E46E0B5F3
:103F400085B09C4610AB1B78149F934698460F9CF7
:103F5000129E139DBB074CD4002D42D1B44248D2CF
:103F600001233B4099460E9B013B9A46302304E0D7
:103F7000524601341355A64201D9202CF8D14B46A4
:103F8000002B00D183E00E9B013B99463023A542D4
:103F900005D82EE04A4601341355AC4229D0202CD6
:103FA000F8D1FB060CD57B0554D4A64263D0A542BC
:103FB00061D0119B102B50D0022B57D0202C32D126
:103FC000202301930E9B5A46009303976346029564
:103FD000FFF75AFF05B0F0BCBB46B246A946A04663
:103FE000F0BD01233B40994601233B422AD1B44214
:103FF000B9D3FB061CD57B05DBD4002CD5D1119B96
:10400000102B5BD0119B022B6BD0302301240E9A16
:1040100013704346002B10D17B073ED52B260E9AFA
:10402000631C1655CDE72300013430260E9AD65472
:10403000202CC5D04346002BEED02D260E9A631CB3
:104040001655BEE74346002B2FD0013DB44200D2A7
:1040500089E798E7119B102BB2D1BB0637D5202CEE
:10406000AED058230E9A13550134A7E7202CA7D0C1
:104070002300013407E0631E012CC0D0119A102ADE
:1040800031D0022AD1D162260E9AD65496E7FB0689
:10409000CED57B0500D488E78BE723003E0790D57B
:1040A00020260E9A013316558BE70C233B405A1EEF
:1040B0009341ED1AB44200D255E764E7BB060ED433
:1040C00078230E9A0224137030235370A1E7202C1A
:1040D00000D175E778230E9A135501346EE7582303
:1040E000EFE76033EDE70E9AA61E91464E44BA06FE
:1040F00002D55822327098E77822327095E7C04690
:1041000010B5002800D110BD01F092FCFBE7C046BD
:104110000B0010B5002802D049681B68984710BDF5
:10412000F0B55746DE464E464546E0B595B0834667
:104130000F00924698461E9A1F9B10001900209E61
:10414000FFF72BFA002800D0EAE11E981F99012200
:10415000C54B5242FFF706FA002800D014E11E9822
:104160001F990122C14B5242FFF712FA002800D0DA
:10417000E9E01E981F990022BD4BFFF709FA0028BD
:1041800000D0C8E01E981F990022BA4BFFF7EAF949
:10419000002800D0BFE01E981F9900220023FFF7DF
:1041A000E1F9002800D0E4E000230B93229B5B059B
:1041B00000D406260024302307E0172106AA013484
:1041C00052181355013E202C01D0092EF5D81E9807
:1041D0001F99FFF70BFAA84BF2009B181A685B684F
:1041E000050008920993FFF7E9F902000B001E98F9
:1041F0001F99FFF744F9089A099BFFF770F9069099
:104200000791FFF717FA8146FFF7D4F902000B0078
:1042100006980799FFF733F90022984B069007910B
:10422000FFF7B6F9002800D10DE101239C46E144D7
:104230004846FFF7BFF902000B0008980999FFF7FD
:1042400097F9002802D0002399460135002E00D1AD
:10425000D9E006954D46B94614E006AA94461723C0
:104260000A216344280001341F19FEF7CDFE3031C6
:10427000397028000A21013EFEF7C6FE092D00D83C
:1042800017E10500202CE8D14F46069D20240CAEF6
:1042900006AA17239446634499465B46B3460693A1
:1042A0000FE04B4628000A210134E618FEF784FE91
:1042B0003031280031700A21FEF77EFE051E00D144
:1042C000E4E0202CEDD1069B5E469B460323229A18
:1042D0001340012B18D1219B002B15D00B9B002BD9
:1042E00000D1FDE0219B013B2193202B0CD93023F1
:1042F000219A07E0172006A9013409180B559442AA
:1043000000D3CCE0202CF5D1229B01940393219B78
:104310000096029322E0229B52460493219B39008F
:10432000039358461E9B1F9C02960093019443469C
:1043300000F04AF90400200015B0F0BCBB46B246BC
:10434000A946A046F0BD229B5B070FD403224C4B2D
:10435000229901920391219900930291434652467A
:1043600039005846FFF790FD0400E4E70422454B6E
:10437000EEE71E9A1F9B00200021FFF780F8012323
:104380001E901F910B9311E7229B54469B0711D15E
:10439000219B042B0ED9219B55469C465E46043C2E
:1043A00064442A004346013539002020B047A54225
:1043B000F7D1B346344D26002B1F99465B46A346E2
:1043C0001C003200E87843463900013DA047013621
:1043D0004D45F6D123005C469B46229B04349B0747
:1043E000A9D55346219AE31A9A42A4D95E461500EC
:1043F0002200434639002020B04753460134E31AD7
:104400009D42F5D897E72800FFF7D8F802000B0087
:104410001E981F99FFF733F80022184B069007915A
:10442000FFF7A0F80CAE002800D031E706980799F6
:104430000022124BFFF7ACF8002800D028E7012338
:1044400001359D4324E70022069807990B4BFFF79F
:1044500089F8002800D0F9E64B46002B5CD10123F7
:104460009C46E144F2E6C046FFFFEFFFFFFFEF7F0F
:1044700065CDCD4165CDCDC1109300100000E03F6A
:10448000249000101C9000102C900010069B5E469B
:104490009B460323229A1340012B00D181E0202C5C
:1044A00000D131E70B9B002B27D02D23335501344E
:1044B0002AE74F46069D202C00D1E7E6302233192B
:1044C00007E0172006A9013409180A55202C00D14D
:1044D000DCE6A342F5D12E220CAE0134F254D7E62D
:1044E0000C23229A134257D0219B013B2193A342D4
:1044F00000D9FCE6202C00D106E7229B5B0703D500
:104500002B2333550134FFE6229B1B0700D4FBE627
:10451000202333550134F7E6DB0700D496E69EE707
:10452000229B55469B0711D1219B032B0ED9219B22
:1045300054469C465E46033D654422004346013492
:1045400039002020B047AC42F7D1B346B9465F46A8
:104550001C4EEC1C2A00B078434649460135B8474A
:10456000013EAC42F6D1229BBB464F469B0700D48E
:10457000E1E65346219AE31A9A4200D8DBE65E460A
:1045800015002200434639002020B047534601342D
:10459000E31AAB42F5D3CEE6219BA34200D9A6E6AF
:1045A000B2E6219B002B00D179E70B9B002B97D023
:1045B000219B013B21939C4200D298E6202C00D005
:1045C00073E7A1E628900010F0B5DE4657464E4648
:1045D0004546E0B599B081468B4692469846229A68
:1045E000239B10001900FEF7D8FF002800D0CAE076
:1045F000229823990122824B5242FEF7C9FF0028DC
:1046000000D0C0E02298239901227E4B5242FEF74F
:10461000A9FF002800D0B6E02298239900220023A9
:10462000FEF7A0FF002800D0C9E1229B239C08933D
:104630000994089809998023269ADB001A400D9264
:104640008022269C1201144022000B94269C070015
:104650000E001C4200D0ADE00B00034300D0D5E0BB
:10466000002A00D00AE222000633249302231340DA
:104670000C930223134200D002E2259B042B00D2AC
:104680000FE2043B0B93002304250A930022229897
:1046900023990023FEF766FF002800D003E25A4B5F
:1046A000269A134004930B9B0393249B0293089B2D
:1046B000099C009301945946434652464846FFF7E9
:1046C0002FFD02002020269B1F27034059424B410B
:1046D0005B421840531C0893594643464530C8472F
:1046E0000A9AD317D4185C40D30F0A936B1E0B930E
:1046F00008AB9C460025674401E0202D0FD0200028
:104700000A21FEF781FC01357E193031317020001D
:104710000A21FEF779FC26000400092EEDD80523B6
:1047200006930B9B59460593002304930A33039386
:104730000A9B4846029310AB0093089A43460195A2
:10474000FFF7F8FB0C9B002B2DD05346C41A259B7A
:10475000A34228D94D465F4681461E005346390084
:104760001A19202043460134A847A642F6D85346DA
:1047700048462599C21A01320023914200D386E1AE
:10478000013018180FE0269B0493259B0393249B6C
:104790000293229B239C0093019443465246594620
:1047A0004846FFF7BDFC19B0F0BCBB46B246A9466F
:1047B000A046F0BD01432BD10B9B2200002B00D162
:1047C00054E700230A93249B0A9A0024934200DDB5
:1047D00085E12298239900220023FEF7C3FE0028DA
:1047E00000D035E1269B084A02941A408023DB0062
:1047F00013430493259B0393089B099CCBE7C04676
:10480000FFFFEF7FFFFFEFFFFFF7FFFF062324937C
:10481000B44B70009C46400D6044FEF7CFFEB24A98
:10482000B24BFEF75CFEB24AB24BFEF731FE3603E6
:10483000B14B360B334304000D0038001900002241
:10484000AE4BFEF71CFEAE4AAE4BFEF748FE020032
:104850000B0020002900FEF71BFEFEF7C7FE0A90A2
:10486000FEF7ACFEA84AA94B04000D00FEF737FE88
:104870000022A74BFEF70CFEFEF7B8FEA54A060085
:10488000A54B20002900FEF72AFE040030000D0091
:104890000C96FEF793FEA14AA14BFEF720FE020004
:1048A0000B0020002900FEF7EAFD02000B000600C5
:1048B0000F00FEF714FE320004000D003B00300034
:1048C0003900FEF7E5FD00220E900F91954B200078
:1048D0002900FEF7E6FD0022934BFEF7D9FD02000A
:1048E0000B0020002900FEF7DCFD00228F4BFEF7B5
:1048F000CFFD02000B0020002900FEF7D2FD0D00C5
:104900008021040032003B000020C905FEF7B7FDFE
:1049100002000B0020002900FEF7BAFD02000B0088
:104920000E980F99FEF7BDFD0022734BFEF7B0FD08
:104930007F4B0C9C9C46644400222305FEF7CFFD70
:1049400006000F0002000B0008980999FEF70AFE06
:1049500000280AD00A9B3000013B39000A9300224C
:10496000714BFEF79EFD06000F000A9A330063327A
:104970003900C62A12D802222698042510400B9A24
:104980000C90002A25D1259B042B05D9002800D0A6
:10499000A1E0259B043B0B93042541E002222698CD
:1049A00010400B9A0C90002A12D1259B052B76D92A
:1049B000002872D1259B0525053B0B9334E080220E
:1049C00012069446229B0893239B6344099330E686
:1049D00005250B4300D1F6E608980999554A564B30
:1049E000FEF7CEFD002808D0089809990022534B05
:1049F000FEF7B8FD002800D0E5E6249B002B1CD074
:104A00000D9B002B19D0249B013B2493259BAB428B
:104A100004D90C9B002B5AD002230C9300230B9338
:104A20000A9B002B00D131E60898099932003B001F
:104A3000FEF737FD0890099128E6259BAB42EDD99A
:104A40000C9B002B43D000230B9302330C93E7E71E
:104A50008020269B3A4A00061A408023844602940E
:104A6000089C099D2900DB0013430493259B6144A6
:104A7000220003930B00009201938EE60524A8E622
:104A800000230B930A93023304250C93FEE553464F
:104A90008C46013B63441B1A72E602230C930525E6
:104AA000C2E70423EDE58020089E099F0006390037
:104AB0008446269A224B6144134004930B9B320098
:104AC0000393249B02930B0000920193F3E5259B33
:104AD0005B1B0B93A4E7022304250C93A0E79C1A0D
:104AE000013C76E601FCFFFFFB799F501344D33F66
:104AF000B3C8608B288AC63F0000F03F0000F83F33
:104B000061436F63A787D23F71A379094F930A402E
:104B10000000E03F1655B5BBB16B0240EF39FAFE1D
:104B2000422EE63F00002C400000244000001840C8
:104B3000FF0300002D431CEBE2361A3F80842E4118
:104B4000FFF7FFFFF0B5DE4657464E464546E0B557
:104B5000A5B01E002E9B92460C93CD4ACD4B8046AD
:104B60008B461A60002900D1EAE10023307899468B
:104B7000002800D1ECE1C84B4C460B93C74B45468F
:104B800057460E930AE0631C984622003B005946A4
:104B9000A84744463078002800D187E00136252810
:104BA000F1D108239A46043B9946023B9846013BC3
:104BB00000229C460D943078711C0300203BDBB230
:104BC000102B03D80B9C9B00E3589F460300303BFF
:104BD00089460D9C092B3AD9002398462A2800D1F2
:104BE000C1E000239A462E284BD00300683BDBB27D
:104BF000122B1ED80E999B00CB589F4663460E0081
:104C00001A43D8E743460E001A43D4E74B460E003A
:104C10001A43D0E710230E001A43CCE753460E0088
:104C20001A43C8E780235B001A43FF3B9C46707819
:104C3000E1444E4667284FD82428A4D90300253BD9
:104C4000DBB2422B9FD896499B00CB589F4600234E
:104C500094461E0000E00131B3009B195B001E1852
:104C60000878303E0300303B092BF4D9012362461B
:104C700089469C460023B0469A460E00E1442E2801
:104C8000B3D13021802049428C46C0000243707865
:104C90004B4684446146092900D86CE12A2800D19A
:104CA0007AE101239C464E46E1449EE7A146A84690
:104CB000BA46CA4503D801235B425344994653463A
:104CC0004A4659460020C047200025B0F0BCBB46EC
:104CD000B246A946A046F0BD0300693BDBB20D9386
:104CE0000F2B00D94FE7012199408C466D49894629
:104CF00061464B4619400F91634649460B4200D02E
:104D000028E10D9B0A2B3AD0072B00D03BE70C9BE8
:104D1000190008C98846002B00D14BE1212002432D
:104D2000914614A98C461F220F2162448C4651469D
:104D30000D950C91A24615000F9902E020290CD088
:104D4000130064461C4020003730092C00D8073877
:104D5000013168541A090F2BF0D80C9B54460D9D55
:104D60009A460F9133E10C9B02CB8846002947DB22
:104D70000C9301239C4670784E46E14431E70C9B2E
:104D800002CB14935346002B00D138E19C4608789F
:104D90000B000C908C44002801D100F098FC89464F
:104DA0006146944603E05A780133002A01D08B42D1
:104DB000F9D1494662465B1A0C900F93530500D512
:104DC00020E10223180010400D90134200D1CBE3E4
:104DD0000D930B1BB1469A465E460C9822003B0091
:104DE0003100A84753460134185D0028F6D1B34678
:104DF0004E460D9B002B00D0C7E1149B0C93C9E6D7
:104E00000C9301239C462838494202438846707817
:104E10004E46E144E5E670786C2800D17FE18023BE
:104E20005B001A43FF3B9C46E14402E780239B0062
:104E30001A4301239C467078E144FAE670786828AA
:104E400000D173E180231A437F3B9C46E144F0E6A6
:104E5000672800D103E1472800D15AE1452800D155
:104E60005AE10492072142460C9B039207335246B3
:104E70008B43190002920CC92800009201930C91F7
:104E800022003B005946FFF79FFB040082E6C04624
:104E9000454B0010B01F002070910010B49100101D
:104EA0000092001041900000462800D1DBE00492FF
:104EB000072142460C9B0392073352468B4319004D
:104EC00002920CC92800009201930C9122003B0031
:104ED0005946FFF725F904005CE6631C984622005A
:104EE0003B0059462520A847444653E60C9B043313
:104EF0000D93631C9946920700D422E10C9B22007B
:104F0000187859463B00A84743464444012B00D833
:104F100085E23300B8462E005F4625004C46994690
:104F200022004346013439002020B047AC42F7D17B
:104F30002C00BB46350047464E460D9B0C9329E698
:104F4000DB4B3078984600239946002800D012E6C3
:104F50000024AEE66F2800D188E000D80BE31023D0
:104F6000782800D1CFE09A430A239C4600230F9370
:104F70000A330D9380E05646B10089194900013388
:104F80000E181878303E010030390929F4D9B2469C
:104F90001E000133994628E60C9B023602CB8A4656
:104FA000C9435046C917084082460C933078731C99
:104FB00099461AE61023100098431133184381468E
:104FC00080201300C0000340024200D1A9E64B46F6
:104FD0000693082305935346049310230393002359
:104FE00002930F9B220001931CAB009359463B0098
:104FF0002800FEF79FFF434604000C93CAE50123F7
:105000005B42C3E60F9B534501D953460F930223DE
:10501000180010400D90134200D1B7E10D93D14616
:105020000B1B9A463300A1442E0022004D460C98DB
:10503000B9465F469B4608E04B463900541CB047D2
:105040005346185D002877D022009542F4D15B4684
:10505000BB464F46A94635004C461E00C9E6802394
:105060001B011A43FDE620231A4320E708239C4630
:1050700000230F9308330D9380231100DB001940A8
:105080001A4200D116E10D239A431000802302003A
:105090009B001A401492184200D0C2E18023020003
:1050A0005B001A4091460C9A04320F92184200D0CD
:1050B000B7E2430600D59FE1030600D419E30C9B39
:1050C0001B880993002B00D0FCE110339843002982
:1050D00000D1F7E1002399464346059353460493D4
:1050E0000D9B069003930023D2E0582808D0622835
:1050F00067D102239C4600230F9302330D93BBE735
:1051000020231A43103B9C4600230F9310330D932A
:10511000B2E780231B011A4320231A43A1E6C023D0
:105120009B001A43F31C9946B07882E5C0231A43CA
:10513000F31C9946B0787CE535005E46BB464F4689
:1051400057E64346012B00D863E1631E43449A4669
:105150003300B9462E005F4655469B46A2462200C4
:105160004B46013439002020B047AC42F7D135001E
:105170005E46BB464F46A14654460C9B4A461878AD
:1051800059463B004444A847D7E6A1460F9B9845A3
:1051900000D832E64444E41A3300B8462E005F4695
:1051A00025004C4699462200434601343900202010
:1051B000B047AC42F7D12C00BB46350047464E46BF
:1051C0001BE680231000DB0018401A4200D10FE1DB
:1051D000112118008A430D920D9A802311009B0023
:1051E00019408C461A4269D1802311005B00194096
:1051F00089460C9904310F911A4200D0CAE113007C
:105200005B0600D5F0E013001B0600D459E20C9BAE
:1052100000229B5ED9175A184A4092B2D90F0C91BE
:10522000002B00D1F9E1100014AA944642461F2336
:10523000149252466344A84616944D460400B9465B
:10524000B2461F00159201E0202D0FD020000A2148
:10525000FDF7DAFE01357E193031317020000A2168
:10526000FDF7D2FE26000400092EEDD8149B4F4610
:10527000A94645469846159B56469A46169C0D9B50
:10528000069343460593534604930A2303930C9BCA
:1052900002934B4601931CAB2200009359463B00FE
:1052A0002800FEF747FE0F9B04000C9372E4C046F3
:1052B000853E00100C239A431000E7E607220C9B62
:1052C00007339343013294469C4462460C920CCBC4
:1052D000D90F0F911100194300D191E0D917139103
:1052E00012915140109113995940119110981199B0
:1052F000129A139B801A99411090119114AA0023BD
:10530000944642469946149252461F336344A84637
:10531000B24616944E46109C119DB94615921F0038
:1053200001E0202E10D0200029000A220023FDF7E2
:10533000A9FE013630322B00BA550D0022000400C0
:10534000002BEED1092AECD8149B109411954546F8
:105350009846159B4F46B14656469A46169C0D9B5D
:10536000069343460593534604930A2303930F9BE6
:1053700002934B4601931CAB2200009359463B001D
:105380002800FEF7D7FD0400FFF704FC0F9B9845AB
:1053900000D8C1E18023DB000D9343460F9A1B190F
:1053A0009B1A994633002E004D46B9465F469B46F0
:1053B0000C9122004B46013439002020B047AC420A
:1053C000F7D143460C9901330F930B7835000C93BA
:1053D0005E46BB464F46002B00D10EE50D9B002BD1
:1053E00000D1F6E4002319E60C9B1B781A0015E7A0
:1053F00010239A430D92EFE60C9B1B78099361E60C
:10540000002399460028AAD100220023109211936C
:1054100074E70C9B2200187859463B00A8474C467D
:105420008BE50C9AFA3BFF3B07329A4301339946CE
:1054300091444B460C931368526815921A4306D157
:105440001032904300220992002900D081E06122AD
:10545000810600D54122D2B20A9214AA91460A9A34
:1054600000210A3A149242461792524618925A461E
:105470000991B3461F311E000F9B4944BA46199447
:105480001A950024674698468946159D16901B92EA
:105490000AE03032D2B24B4601341A55A8454AD000
:1054A000202C4AD006000D003A00002330002900CD
:1054B000FDF7E8FDD2B2092AEBD9149B9C46624461
:1054C000D2B2E8E76123820600D54123DBB20A3B72
:1054D0000C93434614A91F228C46159353466244ED
:1054E000A046B2464C461797A9461700099D0D9E47
:1054F0001490169308E03033DBB201343B55B542CB
:105500000ED3202C0CD0050031002800FDF77CFDC7
:10551000CBB20929EFD90C9A94466344DBB2ECE78D
:10552000159B4D46A14644469846169B56461498F0
:105530009A46179FD0E5B742B2D9179B574698466F
:10554000189B5E469A461B9B09949B461698199C8D
:105550001A9D43460593534604930D9B069003936F
:1055600000230293099B05E70F9B984500D914E798
:1055700001330F932DE41023110099430D916928F5
:1055800000D0BAE080231000DB0018401A4200D19E
:1055900022E61DE60C9B1B68DA0F1100002B00D1E0
:1055A0008CE0DA179818504014AA914642461F23FF
:1055B000149252464B44A046A946169704006546ED
:1055C000B2461F000C91159201E0202D0FD0200053
:1055D0000A21FDF719FD01357E19303131702000A7
:1055E0000A21FDF711FD26000400092EEDD8149BB9
:1055F000444698460C9BAC461900159B56464D46B2
:105600009A46169F0D9B0291069343460593534677
:1056100004930A23039363463CE6002800D02EE659
:1056200002E60C9B1B689946002B03D1103398436C
:10563000002938D16123820600D54123DBB20A3B21
:105640000C9343461693534614A91F228C46179376
:105650002B006244A0464D46B24618979946170063
:10566000149C0D9E159008E03033DBB201343B559D
:10567000B5420ED3202C0CD0050031002800FDF7D8
:10568000C3FCCBB20929EFD90C9A94466344DBB230
:10569000ECE7169B149444469846179B56464D4695
:1056A0009A461598189F43460593534604930D9BBD
:1056B0000690039300230293149BEBE50028A1D1ED
:1056C00072E70C9B1B68D9175A184A40A6E580233D
:1056D0001000DB0018409C460F901A420FD00220A9
:1056E000030013400F93104219D00023A1460F93DB
:1056F0004CE50C9B1B680993E4E40A0034E40223A4
:10570000180010400D90134200D03EE54346002B98
:1057100000D042E6FFF771FB01330F937FE463464D
:105720000D93F3E70CB430B585B008AC08CC064D4A
:105730000A000094010028000394FFF703FA05B063
:1057400030BC08BC02B018477D3E001010B50C00FC
:1057500084B00394012402A902900093034813002B
:105760006242FFF7EFF904B010BDC04611410010CE
:1057700010B5094A0300146884B0002C08D0012237
:1057800000910648524203A9A047012004B010BD71
:1057900000F098F90020F9E7B01F00200141001047
:1057A00000BEFDE710B5FFF7FBFFC04670B5FDF783
:1057B000DFFA074D074EB54209D20024013E761BA1
:1057C000B60808CD984723000134B342F9D170BD23
:1057D000AC8A0010B48A0010030010B50800110054
:1057E0001B68984710BDC046F0B5C64600B5437D5E
:1057F00007000C001600002B46D0002A17DD0B789E
:105800000A2B24D000239846012E13D0012529000D
:10581000635C01350A2B26D0B542F8D1464509DC38
:10582000A419013C23780D3B5A4253413B7580BC7F
:10583000B846F0BD4346E018A419F11A013C3B6894
:10584000984723780D3B5A4253413B75EFE7037D60
:10585000002BD7D102210F483B689847012EDFD09B
:1058600001239846D2E7631E5B5C0D2BD4D088459C
:1058700004DA4346C91AE0183B68984702210548F4
:105880003B68A8469847C7E703681100200098477F
:10589000CDE7C04660930010F0B5C6460B68060021
:1058A0000C0000B5802B06D05A1C2260E41826712B
:1058B00080BCB846F0BD0F4B1D68002D16D00B1DE7
:1058C00098460D4F02E02D69002D0FD02B68002B5C
:1058D000F9D03B68002B01D0AB42F4D128004146FF
:1058E0002268FFF781FF2D69002DEFD101220023EF
:1058F000DBE7C046941B00209C1B0020F0B545460A
:10590000DE464E465746E0B583B091461C008046C1
:105910000D00FDF717F80023304A12184B41002BF9
:1059200002DA01222E4B52422E4908008A4603F029
:105930007FF807006B1C03D1404603F009F805000F
:10594000002C27D0284E294B1C68002C18D04B4621
:10595000002B21D1264B994602E02469002C0FD060
:105960002368002BF9D04B461B68002B01D09C42CA
:10597000F3D120002A004146B0472469002CEFD122
:10598000002F26D1280003B0F0BCBB46B246A94682
:10599000A046F0BD174ED6E7154B99460A239B4605
:1059A00002E02469002CEBD02368002BF9D04B4691
:1059B0001B68002B01D0A342F3D12A0041462000EE
:1059C000B0476B465A462000DA71D91D0122B04714
:1059D000E7E7504602F0FCFFD4E7C04640420F0024
:1059E000FFFFFF7FB0100020E9570010941B00203C
:1059F0009C1B0020D95700100A4A1368002B05D1C0
:105A00000CE01A001B691032002B07D08342F8D13A
:105A1000002902D118691060196170470029FCD073
:105A20001060FAE7941B002010B500F0F1FA10BDE9
:105A3000F0B5CE46474680B583B06B460600DD1D07
:105A40002870FCF77FFF0023194A12184B41002BE6
:105A500002DA0122174B524217490800884602F029
:105A6000E7FF164B81461C68002C14D0144F02E04F
:105A70002469002C0FD02368002BF9D03B68002B41
:105A800001D09C42F4D1200001222900FFF7ACFE96
:105A90002469002CEFD14B46002B05D1300003B018
:105AA000C0BCB946B046F0BD404602F091FFF5E7F4
:105AB00040420F00FFFFFF7FB0100020941B00202A
:105AC0009C1B002070B5040002F042FF012301007E
:105AD000050001222000FFF711FF084B1C68002C75
